{"abi":[{"inputs":[{"internalType":"uint256","name":"index","type":"uint256"}],"name":"approveRequest","outputs":[],"stateMutability":"nonpayable","type":"function"},{"inputs":[{"internalType":"address","name":"patient","type":"address"}],"name":"createRegistry","outputs":[],"stateMutability":"nonpayable","type":"function"},{"inputs":[{"internalType":"string","name":"description","type":"string"},{"internalType":"string","name":"id","type":"string"},{"internalType":"address","name":"recipient","type":"address"}],"name":"createRequest","outputs":[],"stateMutability":"nonpayable","type":"function"},{"inputs":[{"internalType":"string","name":"_firstName","type":"string"},{"internalType":"string","name":"_lastName","type":"string"},{"internalType":"string","name":"_personalNumber","type":"string"},{"internalType":"string","name":"_personalAddress","type":"string"},{"internalType":"string","name":"_emailAddress","type":"string"},{"internalType":"string","name":"_phoneNumber","type":"string"},{"internalType":"string","name":"_birthDate","type":"string"},{"internalType":"uint16","name":"_height","type":"uint16"},{"internalType":"uint16","name":"_weight","type":"uint16"},{"internalType":"uint8","name":"_role","type":"uint8"},{"internalType":"address","name":"_requester","type":"address"}],"name":"createUser","outputs":[],"stateMutability":"nonpayable","type":"function"},{"inputs":[{"internalType":"address","name":"","type":"address"}],"name":"deployedRegistries","outputs":[{"internalType":"address","name":"","type":"address"}],"stateMutability":"view","type":"function"},{"inputs":[{"internalType":"string","name":"id","type":"string"}],"name":"isRequest","outputs":[{"internalType":"bool","name":"","type":"bool"}],"stateMutability":"view","type":"function"},{"inputs":[],"name":"requestCount","outputs":[{"internalType":"uint256","name":"","type":"uint256"}],"stateMutability":"view","type":"function"},{"inputs":[{"internalType":"string","name":"id","type":"string"}],"name":"retrieveRequest","outputs":[{"internalType":"string","name":"","type":"string"},{"internalType":"address","name":"","type":"address"},{"internalType":"address","name":"","type":"address"},{"internalType":"bool","name":"","type":"bool"}],"stateMutability":"view","type":"function"},{"inputs":[{"internalType":"uint256","name":"id","type":"uint256"}],"name":"retrieveRequestIndex","outputs":[{"internalType":"string","name":"","type":"string"}],"stateMutability":"view","type":"function"},{"inputs":[{"internalType":"uint256","name":"","type":"uint256"}],"name":"userIndex","outputs":[{"internalType":"address","name":"","type":"address"}],"stateMutability":"view","type":"function"},{"inputs":[{"internalType":"address","name":"","type":"address"}],"name":"users","outputs":[{"internalType":"bytes16","name":"firstName","type":"bytes16"},{"internalType":"bytes16","name":"lastName","type":"bytes16"},{"internalType":"bytes16","name":"personalNumber","type":"bytes16"},{"internalType":"string","name":"personalAddress","type":"string"},{"internalType":"string","name":"emailAddress","type":"string"},{"internalType":"bytes16","name":"phoneNumber","type":"bytes16"},{"internalType":"string","name":"birthDate","type":"string"},{"internalType":"uint16","name":"height","type":"uint16"},{"internalType":"uint16","name":"weight","type":"uint16"},{"internalType":"enum ElectronicHealthRegistry.UserRole","name":"privileges","type":"uint8"},{"internalType":"bool","name":"isUser","type":"bool"}],"stateMutability":"view","type":"function"}],"devdoc":{"kind":"dev","methods":{},"version":1},"evm":{"assembly":"    /* \"ElectronicHealthRegistry.sol\":62:4319  contract ElectronicHealthRegistry {... */\n  mstore(0x40, 0x80)\n  callvalue\n  dup1\n  iszero\n  tag_1\n  jumpi\n  0x00\n  dup1\n  revert\ntag_1:\n  pop\n  dataSize(sub_0)\n  dup1\n  dataOffset(sub_0)\n  0x00\n  codecopy\n  0x00\n  return\nstop\n\nsub_0: assembly {\n        /* \"ElectronicHealthRegistry.sol\":62:4319  contract ElectronicHealthRegistry {... */\n      mstore(0x40, 0x80)\n      callvalue\n      dup1\n      iszero\n      tag_1\n      jumpi\n      0x00\n      dup1\n      revert\n    tag_1:\n      pop\n      jumpi(tag_2, lt(calldatasize, 0x04))\n      shr(0xe0, calldataload(0x00))\n      dup1\n      0xc37dfd6e\n      gt\n      tag_14\n      jumpi\n      dup1\n      0xc37dfd6e\n      eq\n      tag_8\n      jumpi\n      dup1\n      0xd184232a\n      eq\n      tag_9\n      jumpi\n      dup1\n      0xd7d1bbdb\n      eq\n      tag_10\n      jumpi\n      dup1\n      0xdb5f3683\n      eq\n      tag_11\n      jumpi\n      dup1\n      0xf4028d11\n      eq\n      tag_12\n      jumpi\n      dup1\n      0xfdf97ce9\n      eq\n      tag_13\n      jumpi\n      jump(tag_2)\n    tag_14:\n      dup1\n      0x5badbe4c\n      eq\n      tag_3\n      jumpi\n      dup1\n      0x65467557\n      eq\n      tag_4\n      jumpi\n      dup1\n      0x7073d87f\n      eq\n      tag_5\n      jumpi\n      dup1\n      0xa86653fe\n      eq\n      tag_6\n      jumpi\n      dup1\n      0xa87430ba\n      eq\n      tag_7\n      jumpi\n    tag_2:\n      0x00\n      dup1\n      revert\n        /* \"ElectronicHealthRegistry.sol\":921:945  uint public requestCount */\n    tag_3:\n      tag_15\n      tag_16\n      jump\t// in\n    tag_15:\n      mload(0x40)\n      tag_17\n      swap2\n      swap1\n      tag_18\n      jump\t// in\n    tag_17:\n      mload(0x40)\n      dup1\n      swap2\n      sub\n      swap1\n      return\n        /* \"ElectronicHealthRegistry.sol\":2495:2722  function createRegistry(address patient) public {... */\n    tag_4:\n      tag_19\n      0x04\n      dup1\n      calldatasize\n      sub\n      dup2\n      add\n      swap1\n      tag_20\n      swap2\n      swap1\n      tag_21\n      jump\t// in\n    tag_20:\n      tag_22\n      jump\t// in\n    tag_19:\n      stop\n        /* \"ElectronicHealthRegistry.sol\":3354:3470  function retrieveRequestIndex(uint id) public view returns(string memory) {... */\n    tag_5:\n      tag_23\n      0x04\n      dup1\n      calldatasize\n      sub\n      dup2\n      add\n      swap1\n      tag_24\n      swap2\n      swap1\n      tag_25\n      jump\t// in\n    tag_24:\n      tag_26\n      jump\t// in\n    tag_23:\n      mload(0x40)\n      tag_27\n      swap2\n      swap1\n      tag_28\n      jump\t// in\n    tag_27:\n      mload(0x40)\n      dup1\n      swap2\n      sub\n      swap1\n      return\n        /* \"ElectronicHealthRegistry.sol\":1197:2483  function createUser(string memory _firstName,... */\n    tag_6:\n      tag_29\n      0x04\n      dup1\n      calldatasize\n      sub\n      dup2\n      add\n      swap1\n      tag_30\n      swap2\n      swap1\n      tag_31\n      jump\t// in\n    tag_30:\n      tag_32\n      jump\t// in\n    tag_29:\n      stop\n        /* \"ElectronicHealthRegistry.sol\":681:718  mapping(address => User) public users */\n    tag_7:\n      tag_33\n      0x04\n      dup1\n      calldatasize\n      sub\n      dup2\n      add\n      swap1\n      tag_34\n      swap2\n      swap1\n      tag_21\n      jump\t// in\n    tag_34:\n      tag_35\n      jump\t// in\n    tag_33:\n      mload(0x40)\n      tag_36\n      swap12\n      swap11\n      swap10\n      swap9\n      swap8\n      swap7\n      swap6\n      swap5\n      swap4\n      swap3\n      swap2\n      swap1\n      tag_37\n      jump\t// in\n    tag_36:\n      mload(0x40)\n      dup1\n      swap2\n      sub\n      swap1\n      return\n        /* \"ElectronicHealthRegistry.sol\":725:751  address[] public userIndex */\n    tag_8:\n      tag_38\n      0x04\n      dup1\n      calldatasize\n      sub\n      dup2\n      add\n      swap1\n      tag_39\n      swap2\n      swap1\n      tag_25\n      jump\t// in\n    tag_39:\n      tag_40\n      jump\t// in\n    tag_38:\n      mload(0x40)\n      tag_41\n      swap2\n      swap1\n      tag_42\n      jump\t// in\n    tag_41:\n      mload(0x40)\n      dup1\n      swap2\n      sub\n      swap1\n      return\n        /* \"ElectronicHealthRegistry.sol\":2730:3346  function createRequest(string calldata description, string calldata id, address recipient)... */\n    tag_9:\n      tag_43\n      0x04\n      dup1\n      calldatasize\n      sub\n      dup2\n      add\n      swap1\n      tag_44\n      swap2\n      swap1\n      tag_45\n      jump\t// in\n    tag_44:\n      tag_46\n      jump\t// in\n    tag_43:\n      stop\n        /* \"ElectronicHealthRegistry.sol\":3856:4312  function approveRequest(uint index) public {... */\n    tag_10:\n      tag_47\n      0x04\n      dup1\n      calldatasize\n      sub\n      dup2\n      add\n      swap1\n      tag_48\n      swap2\n      swap1\n      tag_25\n      jump\t// in\n    tag_48:\n      tag_49\n      jump\t// in\n    tag_47:\n      stop\n        /* \"ElectronicHealthRegistry.sol\":954:1189  function isRequest(string calldata id) public view returns(bool) {... */\n    tag_11:\n      tag_50\n      0x04\n      dup1\n      calldatasize\n      sub\n      dup2\n      add\n      swap1\n      tag_51\n      swap2\n      swap1\n      tag_52\n      jump\t// in\n    tag_51:\n      tag_53\n      jump\t// in\n    tag_50:\n      mload(0x40)\n      tag_54\n      swap2\n      swap1\n      tag_55\n      jump\t// in\n    tag_54:\n      mload(0x40)\n      dup1\n      swap2\n      sub\n      swap1\n      return\n        /* \"ElectronicHealthRegistry.sol\":758:811  mapping(address => address) public deployedRegistries */\n    tag_12:\n      tag_56\n      0x04\n      dup1\n      calldatasize\n      sub\n      dup2\n      add\n      swap1\n      tag_57\n      swap2\n      swap1\n      tag_21\n      jump\t// in\n    tag_57:\n      tag_58\n      jump\t// in\n    tag_56:\n      mload(0x40)\n      tag_59\n      swap2\n      swap1\n      tag_42\n      jump\t// in\n    tag_59:\n      mload(0x40)\n      dup1\n      swap2\n      sub\n      swap1\n      return\n        /* \"ElectronicHealthRegistry.sol\":3478:3848  function retrieveRequest(string calldata id)... */\n    tag_13:\n      tag_60\n      0x04\n      dup1\n      calldatasize\n      sub\n      dup2\n      add\n      swap1\n      tag_61\n      swap2\n      swap1\n      tag_52\n      jump\t// in\n    tag_61:\n      tag_62\n      jump\t// in\n    tag_60:\n      mload(0x40)\n      tag_63\n      swap5\n      swap4\n      swap3\n      swap2\n      swap1\n      tag_64\n      jump\t// in\n    tag_63:\n      mload(0x40)\n      dup1\n      swap2\n      sub\n      swap1\n      return\n        /* \"ElectronicHealthRegistry.sol\":921:945  uint public requestCount */\n    tag_16:\n      sload(0x05)\n      dup2\n      jump\t// out\n        /* \"ElectronicHealthRegistry.sol\":2495:2722  function createRegistry(address patient) public {... */\n    tag_22:\n        /* \"ElectronicHealthRegistry.sol\":2562:2567  users */\n      0x00\n        /* \"ElectronicHealthRegistry.sol\":2562:2576  users[patient] */\n      dup1\n        /* \"ElectronicHealthRegistry.sol\":2568:2575  patient */\n      dup3\n        /* \"ElectronicHealthRegistry.sol\":2562:2576  users[patient] */\n      0xffffffffffffffffffffffffffffffffffffffff\n      and\n      0xffffffffffffffffffffffffffffffffffffffff\n      and\n      dup2\n      mstore\n      0x20\n      add\n      swap1\n      dup2\n      mstore\n      0x20\n      add\n      0x00\n      keccak256\n        /* \"ElectronicHealthRegistry.sol\":2562:2583  users[patient].isUser */\n      0x06\n      add\n      0x05\n      swap1\n      sload\n      swap1\n      0x0100\n      exp\n      swap1\n      div\n      0xff\n      and\n        /* \"ElectronicHealthRegistry.sol\":2554:2584  require(users[patient].isUser) */\n      tag_66\n      jumpi\n      0x00\n      dup1\n      revert\n    tag_66:\n        /* \"ElectronicHealthRegistry.sol\":2597:2623  HealthRegistry newRegistry */\n      0x00\n        /* \"ElectronicHealthRegistry.sol\":2645:2652  patient */\n      dup2\n        /* \"ElectronicHealthRegistry.sol\":2626:2653  new HealthRegistry(patient) */\n      mload(0x40)\n      tag_67\n      swap1\n      tag_68\n      jump\t// in\n    tag_67:\n      tag_69\n      swap2\n      swap1\n      tag_42\n      jump\t// in\n    tag_69:\n      mload(0x40)\n      dup1\n      swap2\n      sub\n      swap1\n      0x00\n      create\n      dup1\n      iszero\n      dup1\n      iszero\n      tag_70\n      jumpi\n      returndatasize\n      0x00\n      dup1\n      returndatacopy\n      revert(0x00, returndatasize)\n    tag_70:\n      pop\n        /* \"ElectronicHealthRegistry.sol\":2597:2653  HealthRegistry newRegistry = new HealthRegistry(patient) */\n      swap1\n      pop\n        /* \"ElectronicHealthRegistry.sol\":2702:2713  newRegistry */\n      dup1\n        /* \"ElectronicHealthRegistry.sol\":2664:2682  deployedRegistries */\n      0x02\n        /* \"ElectronicHealthRegistry.sol\":2664:2691  deployedRegistries[patient] */\n      0x00\n        /* \"ElectronicHealthRegistry.sol\":2683:2690  patient */\n      dup5\n        /* \"ElectronicHealthRegistry.sol\":2664:2691  deployedRegistries[patient] */\n      0xffffffffffffffffffffffffffffffffffffffff\n      and\n      0xffffffffffffffffffffffffffffffffffffffff\n      and\n      dup2\n      mstore\n      0x20\n      add\n      swap1\n      dup2\n      mstore\n      0x20\n      add\n      0x00\n      keccak256\n      0x00\n        /* \"ElectronicHealthRegistry.sol\":2664:2714  deployedRegistries[patient] = address(newRegistry) */\n      0x0100\n      exp\n      dup2\n      sload\n      dup2\n      0xffffffffffffffffffffffffffffffffffffffff\n      mul\n      not\n      and\n      swap1\n      dup4\n      0xffffffffffffffffffffffffffffffffffffffff\n      and\n      mul\n      or\n      swap1\n      sstore\n      pop\n        /* \"ElectronicHealthRegistry.sol\":2543:2722  {... */\n      pop\n        /* \"ElectronicHealthRegistry.sol\":2495:2722  function createRegistry(address patient) public {... */\n      pop\n      jump\t// out\n        /* \"ElectronicHealthRegistry.sol\":3354:3470  function retrieveRequestIndex(uint id) public view returns(string memory) {... */\n    tag_26:\n        /* \"ElectronicHealthRegistry.sol\":3413:3426  string memory */\n      0x60\n        /* \"ElectronicHealthRegistry.sol\":3446:3458  requestIndex */\n      0x04\n        /* \"ElectronicHealthRegistry.sol\":3446:3462  requestIndex[id] */\n      0x00\n        /* \"ElectronicHealthRegistry.sol\":3459:3461  id */\n      dup4\n        /* \"ElectronicHealthRegistry.sol\":3446:3462  requestIndex[id] */\n      dup2\n      mstore\n      0x20\n      add\n      swap1\n      dup2\n      mstore\n      0x20\n      add\n      0x00\n      keccak256\n        /* \"ElectronicHealthRegistry.sol\":3439:3462  return requestIndex[id] */\n      dup1\n      sload\n      tag_72\n      swap1\n      tag_73\n      jump\t// in\n    tag_72:\n      dup1\n      0x1f\n      add\n      0x20\n      dup1\n      swap2\n      div\n      mul\n      0x20\n      add\n      mload(0x40)\n      swap1\n      dup2\n      add\n      0x40\n      mstore\n      dup1\n      swap3\n      swap2\n      swap1\n      dup2\n      dup2\n      mstore\n      0x20\n      add\n      dup3\n      dup1\n      sload\n      tag_74\n      swap1\n      tag_73\n      jump\t// in\n    tag_74:\n      dup1\n      iszero\n      tag_75\n      jumpi\n      dup1\n      0x1f\n      lt\n      tag_76\n      jumpi\n      0x0100\n      dup1\n      dup4\n      sload\n      div\n      mul\n      dup4\n      mstore\n      swap2\n      0x20\n      add\n      swap2\n      jump(tag_75)\n    tag_76:\n      dup3\n      add\n      swap2\n      swap1\n      0x00\n      mstore\n      keccak256(0x00, 0x20)\n      swap1\n    tag_77:\n      dup2\n      sload\n      dup2\n      mstore\n      swap1\n      0x01\n      add\n      swap1\n      0x20\n      add\n      dup1\n      dup4\n      gt\n      tag_77\n      jumpi\n      dup3\n      swap1\n      sub\n      0x1f\n      and\n      dup3\n      add\n      swap2\n    tag_75:\n      pop\n      pop\n      pop\n      pop\n      pop\n      swap1\n      pop\n        /* \"ElectronicHealthRegistry.sol\":3354:3470  function retrieveRequestIndex(uint id) public view returns(string memory) {... */\n      swap2\n      swap1\n      pop\n      jump\t// out\n        /* \"ElectronicHealthRegistry.sol\":1197:2483  function createUser(string memory _firstName,... */\n    tag_32:\n        /* \"ElectronicHealthRegistry.sol\":1591:1608  User storage user */\n      0x00\n        /* \"ElectronicHealthRegistry.sol\":1611:1616  users */\n      dup1\n        /* \"ElectronicHealthRegistry.sol\":1611:1628  users[_requester] */\n      0x00\n        /* \"ElectronicHealthRegistry.sol\":1617:1627  _requester */\n      dup4\n        /* \"ElectronicHealthRegistry.sol\":1611:1628  users[_requester] */\n      0xffffffffffffffffffffffffffffffffffffffff\n      and\n      0xffffffffffffffffffffffffffffffffffffffff\n      and\n      dup2\n      mstore\n      0x20\n      add\n      swap1\n      dup2\n      mstore\n      0x20\n      add\n      0x00\n      keccak256\n        /* \"ElectronicHealthRegistry.sol\":1591:1628  User storage user = users[_requester] */\n      swap1\n      pop\n        /* \"ElectronicHealthRegistry.sol\":1673:1682  _lastName */\n      dup11\n        /* \"ElectronicHealthRegistry.sol\":1659:1684  bytes16(bytes(_lastName)) */\n      tag_79\n      swap1\n      tag_80\n      jump\t// in\n    tag_79:\n        /* \"ElectronicHealthRegistry.sol\":1643:1647  user */\n      dup2\n        /* \"ElectronicHealthRegistry.sol\":1643:1656  user.lastName */\n      0x00\n      add\n      0x10\n        /* \"ElectronicHealthRegistry.sol\":1643:1684  user.lastName = bytes16(bytes(_lastName)) */\n      0x0100\n      exp\n      dup2\n      sload\n      dup2\n      0xffffffffffffffffffffffffffffffff\n      mul\n      not\n      and\n      swap1\n      dup4\n      0x80\n      shr\n      mul\n      or\n      swap1\n      sstore\n      pop\n        /* \"ElectronicHealthRegistry.sol\":1730:1740  _firstName */\n      dup12\n        /* \"ElectronicHealthRegistry.sol\":1716:1742  bytes16(bytes(_firstName)) */\n      tag_81\n      swap1\n      tag_80\n      jump\t// in\n    tag_81:\n        /* \"ElectronicHealthRegistry.sol\":1699:1703  user */\n      dup2\n        /* \"ElectronicHealthRegistry.sol\":1699:1713  user.firstName */\n      0x00\n      add\n      0x00\n        /* \"ElectronicHealthRegistry.sol\":1699:1742  user.firstName = bytes16(bytes(_firstName)) */\n      0x0100\n      exp\n      dup2\n      sload\n      dup2\n      0xffffffffffffffffffffffffffffffff\n      mul\n      not\n      and\n      swap1\n      dup4\n      0x80\n      shr\n      mul\n      or\n      swap1\n      sstore\n      pop\n        /* \"ElectronicHealthRegistry.sol\":1793:1808  _personalNumber */\n      dup10\n        /* \"ElectronicHealthRegistry.sol\":1779:1810  bytes16(bytes(_personalNumber)) */\n      tag_82\n      swap1\n      tag_80\n      jump\t// in\n    tag_82:\n        /* \"ElectronicHealthRegistry.sol\":1757:1761  user */\n      dup2\n        /* \"ElectronicHealthRegistry.sol\":1757:1776  user.personalNumber */\n      0x01\n      add\n      0x00\n        /* \"ElectronicHealthRegistry.sol\":1757:1810  user.personalNumber = bytes16(bytes(_personalNumber)) */\n      0x0100\n      exp\n      dup2\n      sload\n      dup2\n      0xffffffffffffffffffffffffffffffff\n      mul\n      not\n      and\n      swap1\n      dup4\n      0x80\n      shr\n      mul\n      or\n      swap1\n      sstore\n      pop\n        /* \"ElectronicHealthRegistry.sol\":1848:1864  _personalAddress */\n      dup9\n        /* \"ElectronicHealthRegistry.sol\":1825:1829  user */\n      dup2\n        /* \"ElectronicHealthRegistry.sol\":1825:1845  user.personalAddress */\n      0x02\n      add\n        /* \"ElectronicHealthRegistry.sol\":1825:1864  user.personalAddress = _personalAddress */\n      swap1\n      dup1\n      mload\n      swap1\n      0x20\n      add\n      swap1\n      tag_83\n      swap3\n      swap2\n      swap1\n      tag_84\n      jump\t// in\n    tag_83:\n      pop\n        /* \"ElectronicHealthRegistry.sol\":1899:1912  _emailAddress */\n      dup8\n        /* \"ElectronicHealthRegistry.sol\":1879:1883  user */\n      dup2\n        /* \"ElectronicHealthRegistry.sol\":1879:1896  user.emailAddress */\n      0x03\n      add\n        /* \"ElectronicHealthRegistry.sol\":1879:1912  user.emailAddress = _emailAddress */\n      swap1\n      dup1\n      mload\n      swap1\n      0x20\n      add\n      swap1\n      tag_85\n      swap3\n      swap2\n      swap1\n      tag_84\n      jump\t// in\n    tag_85:\n      pop\n        /* \"ElectronicHealthRegistry.sol\":1960:1972  _phoneNumber */\n      dup7\n        /* \"ElectronicHealthRegistry.sol\":1946:1974  bytes16(bytes(_phoneNumber)) */\n      tag_86\n      swap1\n      tag_80\n      jump\t// in\n    tag_86:\n        /* \"ElectronicHealthRegistry.sol\":1927:1931  user */\n      dup2\n        /* \"ElectronicHealthRegistry.sol\":1927:1943  user.phoneNumber */\n      0x04\n      add\n      0x00\n        /* \"ElectronicHealthRegistry.sol\":1927:1974  user.phoneNumber = bytes16(bytes(_phoneNumber)) */\n      0x0100\n      exp\n      dup2\n      sload\n      dup2\n      0xffffffffffffffffffffffffffffffff\n      mul\n      not\n      and\n      swap1\n      dup4\n      0x80\n      shr\n      mul\n      or\n      swap1\n      sstore\n      pop\n        /* \"ElectronicHealthRegistry.sol\":2006:2016  _birthDate */\n      dup6\n        /* \"ElectronicHealthRegistry.sol\":1989:1993  user */\n      dup2\n        /* \"ElectronicHealthRegistry.sol\":1989:2003  user.birthDate */\n      0x05\n      add\n        /* \"ElectronicHealthRegistry.sol\":1989:2016  user.birthDate = _birthDate */\n      swap1\n      dup1\n      mload\n      swap1\n      0x20\n      add\n      swap1\n      tag_87\n      swap3\n      swap2\n      swap1\n      tag_84\n      jump\t// in\n    tag_87:\n      pop\n        /* \"ElectronicHealthRegistry.sol\":2045:2052  _height */\n      dup5\n        /* \"ElectronicHealthRegistry.sol\":2031:2035  user */\n      dup2\n        /* \"ElectronicHealthRegistry.sol\":2031:2042  user.height */\n      0x06\n      add\n      0x00\n        /* \"ElectronicHealthRegistry.sol\":2031:2052  user.height = _height */\n      0x0100\n      exp\n      dup2\n      sload\n      dup2\n      0xffff\n      mul\n      not\n      and\n      swap1\n      dup4\n      0xffff\n      and\n      mul\n      or\n      swap1\n      sstore\n      pop\n        /* \"ElectronicHealthRegistry.sol\":2081:2088  _weight */\n      dup4\n        /* \"ElectronicHealthRegistry.sol\":2067:2071  user */\n      dup2\n        /* \"ElectronicHealthRegistry.sol\":2067:2078  user.weight */\n      0x06\n      add\n      0x02\n        /* \"ElectronicHealthRegistry.sol\":2067:2088  user.weight = _weight */\n      0x0100\n      exp\n      dup2\n      sload\n      dup2\n      0xffff\n      mul\n      not\n      and\n      swap1\n      dup4\n      0xffff\n      and\n      mul\n      or\n      swap1\n      sstore\n      pop\n        /* \"ElectronicHealthRegistry.sol\":2117:2121  true */\n      0x01\n        /* \"ElectronicHealthRegistry.sol\":2103:2107  user */\n      dup2\n        /* \"ElectronicHealthRegistry.sol\":2103:2114  user.isUser */\n      0x06\n      add\n      0x05\n        /* \"ElectronicHealthRegistry.sol\":2103:2121  user.isUser = true */\n      0x0100\n      exp\n      dup2\n      sload\n      dup2\n      0xff\n      mul\n      not\n      and\n      swap1\n      dup4\n      iszero\n      iszero\n      mul\n      or\n      swap1\n      sstore\n      pop\n        /* \"ElectronicHealthRegistry.sol\":2150:2151  0 */\n      0x00\n        /* \"ElectronicHealthRegistry.sol\":2141:2146  _role */\n      dup4\n        /* \"ElectronicHealthRegistry.sol\":2141:2151  _role == 0 */\n      0xff\n      and\n      eq\n        /* \"ElectronicHealthRegistry.sol\":2138:2431  if(_role == 0) {... */\n      iszero\n      tag_88\n      jumpi\n        /* \"ElectronicHealthRegistry.sol\":2190:2204  UserRole.ADMIN */\n      0x00\n        /* \"ElectronicHealthRegistry.sol\":2172:2176  user */\n      dup2\n        /* \"ElectronicHealthRegistry.sol\":2172:2187  user.privileges */\n      0x06\n      add\n      0x04\n        /* \"ElectronicHealthRegistry.sol\":2172:2204  user.privileges = UserRole.ADMIN */\n      0x0100\n      exp\n      dup2\n      sload\n      dup2\n      0xff\n      mul\n      not\n      and\n      swap1\n      dup4\n      0x02\n      dup2\n      gt\n      iszero\n      tag_89\n      jumpi\n      tag_90\n      tag_91\n      jump\t// in\n    tag_90:\n    tag_89:\n      mul\n      or\n      swap1\n      sstore\n      pop\n        /* \"ElectronicHealthRegistry.sol\":2138:2431  if(_role == 0) {... */\n      jump(tag_92)\n    tag_88:\n        /* \"ElectronicHealthRegistry.sol\":2238:2239  1 */\n      0x01\n        /* \"ElectronicHealthRegistry.sol\":2229:2234  _role */\n      dup4\n        /* \"ElectronicHealthRegistry.sol\":2229:2239  _role == 1 */\n      0xff\n      and\n      eq\n        /* \"ElectronicHealthRegistry.sol\":2226:2431  if(_role == 1) {... */\n      iszero\n      tag_93\n      jumpi\n        /* \"ElectronicHealthRegistry.sol\":2278:2293  UserRole.DOCTOR */\n      0x01\n        /* \"ElectronicHealthRegistry.sol\":2260:2264  user */\n      dup2\n        /* \"ElectronicHealthRegistry.sol\":2260:2275  user.privileges */\n      0x06\n      add\n      0x04\n        /* \"ElectronicHealthRegistry.sol\":2260:2293  user.privileges = UserRole.DOCTOR */\n      0x0100\n      exp\n      dup2\n      sload\n      dup2\n      0xff\n      mul\n      not\n      and\n      swap1\n      dup4\n      0x02\n      dup2\n      gt\n      iszero\n      tag_94\n      jumpi\n      tag_95\n      tag_91\n      jump\t// in\n    tag_95:\n    tag_94:\n      mul\n      or\n      swap1\n      sstore\n      pop\n        /* \"ElectronicHealthRegistry.sol\":2226:2431  if(_role == 1) {... */\n      jump(tag_96)\n    tag_93:\n        /* \"ElectronicHealthRegistry.sol\":2354:2370  UserRole.PATIENT */\n      0x02\n        /* \"ElectronicHealthRegistry.sol\":2336:2340  user */\n      dup2\n        /* \"ElectronicHealthRegistry.sol\":2336:2351  user.privileges */\n      0x06\n      add\n      0x04\n        /* \"ElectronicHealthRegistry.sol\":2336:2370  user.privileges = UserRole.PATIENT */\n      0x0100\n      exp\n      dup2\n      sload\n      dup2\n      0xff\n      mul\n      not\n      and\n      swap1\n      dup4\n      0x02\n      dup2\n      gt\n      iszero\n      tag_97\n      jumpi\n      tag_98\n      tag_91\n      jump\t// in\n    tag_98:\n    tag_97:\n      mul\n      or\n      swap1\n      sstore\n      pop\n        /* \"ElectronicHealthRegistry.sol\":2389:2415  createRegistry(_requester) */\n      tag_99\n        /* \"ElectronicHealthRegistry.sol\":2404:2414  _requester */\n      dup3\n        /* \"ElectronicHealthRegistry.sol\":2389:2403  createRegistry */\n      tag_22\n        /* \"ElectronicHealthRegistry.sol\":2389:2415  createRegistry(_requester) */\n      jump\t// in\n    tag_99:\n        /* \"ElectronicHealthRegistry.sol\":2226:2431  if(_role == 1) {... */\n    tag_96:\n        /* \"ElectronicHealthRegistry.sol\":2138:2431  if(_role == 0) {... */\n    tag_92:\n        /* \"ElectronicHealthRegistry.sol\":2447:2456  userIndex */\n      0x01\n        /* \"ElectronicHealthRegistry.sol\":2462:2472  _requester */\n      dup3\n        /* \"ElectronicHealthRegistry.sol\":2447:2473  userIndex.push(_requester) */\n      swap1\n      dup1\n      0x01\n      dup2\n      sload\n      add\n      dup1\n      dup3\n      sstore\n      dup1\n      swap2\n      pop\n      pop\n      0x01\n      swap1\n      sub\n      swap1\n      0x00\n      mstore\n      keccak256(0x00, 0x20)\n      add\n      0x00\n      swap1\n      swap2\n      swap1\n      swap2\n      swap1\n      swap2\n      0x0100\n      exp\n      dup2\n      sload\n      dup2\n      0xffffffffffffffffffffffffffffffffffffffff\n      mul\n      not\n      and\n      swap1\n      dup4\n      0xffffffffffffffffffffffffffffffffffffffff\n      and\n      mul\n      or\n      swap1\n      sstore\n      pop\n        /* \"ElectronicHealthRegistry.sol\":1576:2483  {... */\n      pop\n        /* \"ElectronicHealthRegistry.sol\":1197:2483  function createUser(string memory _firstName,... */\n      pop\n      pop\n      pop\n      pop\n      pop\n      pop\n      pop\n      pop\n      pop\n      pop\n      pop\n      jump\t// out\n        /* \"ElectronicHealthRegistry.sol\":681:718  mapping(address => User) public users */\n    tag_35:\n      mstore(0x20, 0x00)\n      dup1\n      0x00\n      mstore\n      keccak256(0x00, 0x40)\n      0x00\n      swap2\n      pop\n      swap1\n      pop\n      dup1\n      0x00\n      add\n      0x00\n      swap1\n      sload\n      swap1\n      0x0100\n      exp\n      swap1\n      div\n      0x80\n      shl\n      swap1\n      dup1\n      0x00\n      add\n      0x10\n      swap1\n      sload\n      swap1\n      0x0100\n      exp\n      swap1\n      div\n      0x80\n      shl\n      swap1\n      dup1\n      0x01\n      add\n      0x00\n      swap1\n      sload\n      swap1\n      0x0100\n      exp\n      swap1\n      div\n      0x80\n      shl\n      swap1\n      dup1\n      0x02\n      add\n      dup1\n      sload\n      tag_101\n      swap1\n      tag_73\n      jump\t// in\n    tag_101:\n      dup1\n      0x1f\n      add\n      0x20\n      dup1\n      swap2\n      div\n      mul\n      0x20\n      add\n      mload(0x40)\n      swap1\n      dup2\n      add\n      0x40\n      mstore\n      dup1\n      swap3\n      swap2\n      swap1\n      dup2\n      dup2\n      mstore\n      0x20\n      add\n      dup3\n      dup1\n      sload\n      tag_102\n      swap1\n      tag_73\n      jump\t// in\n    tag_102:\n      dup1\n      iszero\n      tag_103\n      jumpi\n      dup1\n      0x1f\n      lt\n      tag_104\n      jumpi\n      0x0100\n      dup1\n      dup4\n      sload\n      div\n      mul\n      dup4\n      mstore\n      swap2\n      0x20\n      add\n      swap2\n      jump(tag_103)\n    tag_104:\n      dup3\n      add\n      swap2\n      swap1\n      0x00\n      mstore\n      keccak256(0x00, 0x20)\n      swap1\n    tag_105:\n      dup2\n      sload\n      dup2\n      mstore\n      swap1\n      0x01\n      add\n      swap1\n      0x20\n      add\n      dup1\n      dup4\n      gt\n      tag_105\n      jumpi\n      dup3\n      swap1\n      sub\n      0x1f\n      and\n      dup3\n      add\n      swap2\n    tag_103:\n      pop\n      pop\n      pop\n      pop\n      pop\n      swap1\n      dup1\n      0x03\n      add\n      dup1\n      sload\n      tag_106\n      swap1\n      tag_73\n      jump\t// in\n    tag_106:\n      dup1\n      0x1f\n      add\n      0x20\n      dup1\n      swap2\n      div\n      mul\n      0x20\n      add\n      mload(0x40)\n      swap1\n      dup2\n      add\n      0x40\n      mstore\n      dup1\n      swap3\n      swap2\n      swap1\n      dup2\n      dup2\n      mstore\n      0x20\n      add\n      dup3\n      dup1\n      sload\n      tag_107\n      swap1\n      tag_73\n      jump\t// in\n    tag_107:\n      dup1\n      iszero\n      tag_108\n      jumpi\n      dup1\n      0x1f\n      lt\n      tag_109\n      jumpi\n      0x0100\n      dup1\n      dup4\n      sload\n      div\n      mul\n      dup4\n      mstore\n      swap2\n      0x20\n      add\n      swap2\n      jump(tag_108)\n    tag_109:\n      dup3\n      add\n      swap2\n      swap1\n      0x00\n      mstore\n      keccak256(0x00, 0x20)\n      swap1\n    tag_110:\n      dup2\n      sload\n      dup2\n      mstore\n      swap1\n      0x01\n      add\n      swap1\n      0x20\n      add\n      dup1\n      dup4\n      gt\n      tag_110\n      jumpi\n      dup3\n      swap1\n      sub\n      0x1f\n      and\n      dup3\n      add\n      swap2\n    tag_108:\n      pop\n      pop\n      pop\n      pop\n      pop\n      swap1\n      dup1\n      0x04\n      add\n      0x00\n      swap1\n      sload\n      swap1\n      0x0100\n      exp\n      swap1\n      div\n      0x80\n      shl\n      swap1\n      dup1\n      0x05\n      add\n      dup1\n      sload\n      tag_111\n      swap1\n      tag_73\n      jump\t// in\n    tag_111:\n      dup1\n      0x1f\n      add\n      0x20\n      dup1\n      swap2\n      div\n      mul\n      0x20\n      add\n      mload(0x40)\n      swap1\n      dup2\n      add\n      0x40\n      mstore\n      dup1\n      swap3\n      swap2\n      swap1\n      dup2\n      dup2\n      mstore\n      0x20\n      add\n      dup3\n      dup1\n      sload\n      tag_112\n      swap1\n      tag_73\n      jump\t// in\n    tag_112:\n      dup1\n      iszero\n      tag_113\n      jumpi\n      dup1\n      0x1f\n      lt\n      tag_114\n      jumpi\n      0x0100\n      dup1\n      dup4\n      sload\n      div\n      mul\n      dup4\n      mstore\n      swap2\n      0x20\n      add\n      swap2\n      jump(tag_113)\n    tag_114:\n      dup3\n      add\n      swap2\n      swap1\n      0x00\n      mstore\n      keccak256(0x00, 0x20)\n      swap1\n    tag_115:\n      dup2\n      sload\n      dup2\n      mstore\n      swap1\n      0x01\n      add\n      swap1\n      0x20\n      add\n      dup1\n      dup4\n      gt\n      tag_115\n      jumpi\n      dup3\n      swap1\n      sub\n      0x1f\n      and\n      dup3\n      add\n      swap2\n    tag_113:\n      pop\n      pop\n      pop\n      pop\n      pop\n      swap1\n      dup1\n      0x06\n      add\n      0x00\n      swap1\n      sload\n      swap1\n      0x0100\n      exp\n      swap1\n      div\n      0xffff\n      and\n      swap1\n      dup1\n      0x06\n      add\n      0x02\n      swap1\n      sload\n      swap1\n      0x0100\n      exp\n      swap1\n      div\n      0xffff\n      and\n      swap1\n      dup1\n      0x06\n      add\n      0x04\n      swap1\n      sload\n      swap1\n      0x0100\n      exp\n      swap1\n      div\n      0xff\n      and\n      swap1\n      dup1\n      0x06\n      add\n      0x05\n      swap1\n      sload\n      swap1\n      0x0100\n      exp\n      swap1\n      div\n      0xff\n      and\n      swap1\n      pop\n      dup12\n      jump\t// out\n        /* \"ElectronicHealthRegistry.sol\":725:751  address[] public userIndex */\n    tag_40:\n      0x01\n      dup2\n      dup2\n      sload\n      dup2\n      lt\n      tag_116\n      jumpi\n      0x00\n      dup1\n      revert\n    tag_116:\n      swap1\n      0x00\n      mstore\n      keccak256(0x00, 0x20)\n      add\n      0x00\n      swap2\n      pop\n      sload\n      swap1\n      0x0100\n      exp\n      swap1\n      div\n      0xffffffffffffffffffffffffffffffffffffffff\n      and\n      dup2\n      jump\t// out\n        /* \"ElectronicHealthRegistry.sol\":2730:3346  function createRequest(string calldata description, string calldata id, address recipient)... */\n    tag_46:\n        /* \"ElectronicHealthRegistry.sol\":2861:2874  isRequest(id) */\n      tag_119\n        /* \"ElectronicHealthRegistry.sol\":2871:2873  id */\n      dup4\n      dup4\n        /* \"ElectronicHealthRegistry.sol\":2861:2870  isRequest */\n      tag_53\n        /* \"ElectronicHealthRegistry.sol\":2861:2874  isRequest(id) */\n      jump\t// in\n    tag_119:\n        /* \"ElectronicHealthRegistry.sol\":2860:2874  !isRequest(id) */\n      iszero\n        /* \"ElectronicHealthRegistry.sol\":2852:2875  require(!isRequest(id)) */\n      tag_120\n      jumpi\n      0x00\n      dup1\n      revert\n    tag_120:\n        /* \"ElectronicHealthRegistry.sol\":2930:2945  UserRole.DOCTOR */\n      0x01\n        /* \"ElectronicHealthRegistry.sol\":2898:2945  users[msg.sender].privileges == UserRole.DOCTOR */\n      0x02\n      dup2\n      gt\n      iszero\n      tag_121\n      jumpi\n      tag_122\n      tag_91\n      jump\t// in\n    tag_122:\n    tag_121:\n        /* \"ElectronicHealthRegistry.sol\":2898:2903  users */\n      0x00\n        /* \"ElectronicHealthRegistry.sol\":2898:2915  users[msg.sender] */\n      dup1\n        /* \"ElectronicHealthRegistry.sol\":2904:2914  msg.sender */\n      caller\n        /* \"ElectronicHealthRegistry.sol\":2898:2915  users[msg.sender] */\n      0xffffffffffffffffffffffffffffffffffffffff\n      and\n      0xffffffffffffffffffffffffffffffffffffffff\n      and\n      dup2\n      mstore\n      0x20\n      add\n      swap1\n      dup2\n      mstore\n      0x20\n      add\n      0x00\n      keccak256\n        /* \"ElectronicHealthRegistry.sol\":2898:2926  users[msg.sender].privileges */\n      0x06\n      add\n      0x04\n      swap1\n      sload\n      swap1\n      0x0100\n      exp\n      swap1\n      div\n      0xff\n      and\n        /* \"ElectronicHealthRegistry.sol\":2898:2945  users[msg.sender].privileges == UserRole.DOCTOR */\n      0x02\n      dup2\n      gt\n      iszero\n      tag_123\n      jumpi\n      tag_124\n      tag_91\n      jump\t// in\n    tag_124:\n    tag_123:\n      eq\n        /* \"ElectronicHealthRegistry.sol\":2890:2946  require(users[msg.sender].privileges == UserRole.DOCTOR) */\n      tag_125\n      jumpi\n      0x00\n      dup1\n      revert\n    tag_125:\n        /* \"ElectronicHealthRegistry.sol\":3000:3016  UserRole.PATIENT */\n      0x02\n        /* \"ElectronicHealthRegistry.sol\":2969:3016  users[recipient].privileges == UserRole.PATIENT */\n      dup1\n      dup2\n      gt\n      iszero\n      tag_126\n      jumpi\n      tag_127\n      tag_91\n      jump\t// in\n    tag_127:\n    tag_126:\n        /* \"ElectronicHealthRegistry.sol\":2969:2974  users */\n      0x00\n        /* \"ElectronicHealthRegistry.sol\":2969:2985  users[recipient] */\n      dup1\n        /* \"ElectronicHealthRegistry.sol\":2975:2984  recipient */\n      dup4\n        /* \"ElectronicHealthRegistry.sol\":2969:2985  users[recipient] */\n      0xffffffffffffffffffffffffffffffffffffffff\n      and\n      0xffffffffffffffffffffffffffffffffffffffff\n      and\n      dup2\n      mstore\n      0x20\n      add\n      swap1\n      dup2\n      mstore\n      0x20\n      add\n      0x00\n      keccak256\n        /* \"ElectronicHealthRegistry.sol\":2969:2996  users[recipient].privileges */\n      0x06\n      add\n      0x04\n      swap1\n      sload\n      swap1\n      0x0100\n      exp\n      swap1\n      div\n      0xff\n      and\n        /* \"ElectronicHealthRegistry.sol\":2969:3016  users[recipient].privileges == UserRole.PATIENT */\n      0x02\n      dup2\n      gt\n      iszero\n      tag_128\n      jumpi\n      tag_129\n      tag_91\n      jump\t// in\n    tag_129:\n    tag_128:\n      eq\n        /* \"ElectronicHealthRegistry.sol\":2961:3017  require(users[recipient].privileges == UserRole.PATIENT) */\n      tag_130\n      jumpi\n      0x00\n      dup1\n      revert\n    tag_130:\n        /* \"ElectronicHealthRegistry.sol\":3034:3057  Request storage request */\n      0x00\n        /* \"ElectronicHealthRegistry.sol\":3060:3068  requests */\n      0x03\n        /* \"ElectronicHealthRegistry.sol\":3069:3071  id */\n      dup5\n      dup5\n        /* \"ElectronicHealthRegistry.sol\":3060:3072  requests[id] */\n      mload(0x40)\n      tag_131\n      swap3\n      swap2\n      swap1\n      tag_132\n      jump\t// in\n    tag_131:\n      swap1\n      dup2\n      mstore\n      0x20\n      add\n      mload(0x40)\n      dup1\n      swap2\n      sub\n      swap1\n      keccak256\n        /* \"ElectronicHealthRegistry.sol\":3034:3072  Request storage request = requests[id] */\n      swap1\n      pop\n        /* \"ElectronicHealthRegistry.sol\":3109:3120  description */\n      dup6\n      dup6\n        /* \"ElectronicHealthRegistry.sol\":3087:3094  request */\n      dup3\n        /* \"ElectronicHealthRegistry.sol\":3087:3106  request.description */\n      0x00\n      add\n        /* \"ElectronicHealthRegistry.sol\":3087:3120  request.description = description */\n      swap2\n      swap1\n      tag_133\n      swap3\n      swap2\n      swap1\n      tag_134\n      jump\t// in\n    tag_133:\n      pop\n        /* \"ElectronicHealthRegistry.sol\":3152:3162  msg.sender */\n      caller\n        /* \"ElectronicHealthRegistry.sol\":3135:3142  request */\n      dup2\n        /* \"ElectronicHealthRegistry.sol\":3135:3149  request.sender */\n      0x01\n      add\n      0x00\n        /* \"ElectronicHealthRegistry.sol\":3135:3162  request.sender = msg.sender */\n      0x0100\n      exp\n      dup2\n      sload\n      dup2\n      0xffffffffffffffffffffffffffffffffffffffff\n      mul\n      not\n      and\n      swap1\n      dup4\n      0xffffffffffffffffffffffffffffffffffffffff\n      and\n      mul\n      or\n      swap1\n      sstore\n      pop\n        /* \"ElectronicHealthRegistry.sol\":3197:3206  recipient */\n      dup2\n        /* \"ElectronicHealthRegistry.sol\":3177:3184  request */\n      dup2\n        /* \"ElectronicHealthRegistry.sol\":3177:3194  request.recipient */\n      0x02\n      add\n      0x00\n        /* \"ElectronicHealthRegistry.sol\":3177:3206  request.recipient = recipient */\n      0x0100\n      exp\n      dup2\n      sload\n      dup2\n      0xffffffffffffffffffffffffffffffffffffffff\n      mul\n      not\n      and\n      swap1\n      dup4\n      0xffffffffffffffffffffffffffffffffffffffff\n      and\n      mul\n      or\n      swap1\n      sstore\n      pop\n        /* \"ElectronicHealthRegistry.sol\":3240:3245  false */\n      0x00\n        /* \"ElectronicHealthRegistry.sol\":3221:3228  request */\n      dup2\n        /* \"ElectronicHealthRegistry.sol\":3221:3237  request.approved */\n      0x02\n      add\n      0x14\n        /* \"ElectronicHealthRegistry.sol\":3221:3245  request.approved = false */\n      0x0100\n      exp\n      dup2\n      sload\n      dup2\n      0xff\n      mul\n      not\n      and\n      swap1\n      dup4\n      iszero\n      iszero\n      mul\n      or\n      swap1\n      sstore\n      pop\n        /* \"ElectronicHealthRegistry.sol\":3289:3291  id */\n      dup4\n      dup4\n        /* \"ElectronicHealthRegistry.sol\":3260:3272  requestIndex */\n      0x04\n        /* \"ElectronicHealthRegistry.sol\":3260:3286  requestIndex[requestCount] */\n      0x00\n        /* \"ElectronicHealthRegistry.sol\":3273:3285  requestCount */\n      sload(0x05)\n        /* \"ElectronicHealthRegistry.sol\":3260:3286  requestIndex[requestCount] */\n      dup2\n      mstore\n      0x20\n      add\n      swap1\n      dup2\n      mstore\n      0x20\n      add\n      0x00\n      keccak256\n        /* \"ElectronicHealthRegistry.sol\":3260:3291  requestIndex[requestCount] = id */\n      swap2\n      swap1\n      tag_135\n      swap3\n      swap2\n      swap1\n      tag_134\n      jump\t// in\n    tag_135:\n      pop\n        /* \"ElectronicHealthRegistry.sol\":3322:3334  requestCount */\n      0x05\n      0x00\n        /* \"ElectronicHealthRegistry.sol\":3322:3336  requestCount++ */\n      dup2\n      sload\n      dup1\n      swap3\n      swap2\n      swap1\n      tag_136\n      swap1\n      tag_137\n      jump\t// in\n    tag_136:\n      swap2\n      swap1\n      pop\n      sstore\n        /* \"ElectronicHealthRegistry.sol\":3306:3313  request */\n      dup2\n        /* \"ElectronicHealthRegistry.sol\":3306:3319  request.index */\n      0x03\n      add\n        /* \"ElectronicHealthRegistry.sol\":3306:3336  request.index = requestCount++ */\n      dup2\n      swap1\n      sstore\n      pop\n        /* \"ElectronicHealthRegistry.sol\":2837:3346  {... */\n      pop\n        /* \"ElectronicHealthRegistry.sol\":2730:3346  function createRequest(string calldata description, string calldata id, address recipient)... */\n      pop\n      pop\n      pop\n      pop\n      pop\n      jump\t// out\n        /* \"ElectronicHealthRegistry.sol\":3856:4312  function approveRequest(uint index) public {... */\n    tag_49:\n        /* \"ElectronicHealthRegistry.sol\":3910:3927  Request storage r */\n      0x00\n        /* \"ElectronicHealthRegistry.sol\":3930:3938  requests */\n      0x03\n        /* \"ElectronicHealthRegistry.sol\":3939:3951  requestIndex */\n      0x04\n        /* \"ElectronicHealthRegistry.sol\":3939:3958  requestIndex[index] */\n      0x00\n        /* \"ElectronicHealthRegistry.sol\":3952:3957  index */\n      dup5\n        /* \"ElectronicHealthRegistry.sol\":3939:3958  requestIndex[index] */\n      dup2\n      mstore\n      0x20\n      add\n      swap1\n      dup2\n      mstore\n      0x20\n      add\n      0x00\n      keccak256\n        /* \"ElectronicHealthRegistry.sol\":3930:3959  requests[requestIndex[index]] */\n      mload(0x40)\n      tag_139\n      swap2\n      swap1\n      tag_140\n      jump\t// in\n    tag_139:\n      swap1\n      dup2\n      mstore\n      0x20\n      add\n      mload(0x40)\n      dup1\n      swap2\n      sub\n      swap1\n      keccak256\n        /* \"ElectronicHealthRegistry.sol\":3910:3959  Request storage r = requests[requestIndex[index]] */\n      swap1\n      pop\n        /* \"ElectronicHealthRegistry.sol\":3995:4005  msg.sender */\n      caller\n        /* \"ElectronicHealthRegistry.sol\":3980:4005  r.recipient == msg.sender */\n      0xffffffffffffffffffffffffffffffffffffffff\n      and\n        /* \"ElectronicHealthRegistry.sol\":3980:3981  r */\n      dup2\n        /* \"ElectronicHealthRegistry.sol\":3980:3991  r.recipient */\n      0x02\n      add\n      0x00\n      swap1\n      sload\n      swap1\n      0x0100\n      exp\n      swap1\n      div\n      0xffffffffffffffffffffffffffffffffffffffff\n      and\n        /* \"ElectronicHealthRegistry.sol\":3980:4005  r.recipient == msg.sender */\n      0xffffffffffffffffffffffffffffffffffffffff\n      and\n      eq\n        /* \"ElectronicHealthRegistry.sol\":3972:4006  require(r.recipient == msg.sender) */\n      tag_141\n      jumpi\n      0x00\n      dup1\n      revert\n    tag_141:\n        /* \"ElectronicHealthRegistry.sol\":4058:4074  UserRole.PATIENT */\n      0x02\n        /* \"ElectronicHealthRegistry.sol\":4025:4074  users[r.recipient].privileges == UserRole.PATIENT */\n      dup1\n      dup2\n      gt\n      iszero\n      tag_142\n      jumpi\n      tag_143\n      tag_91\n      jump\t// in\n    tag_143:\n    tag_142:\n        /* \"ElectronicHealthRegistry.sol\":4025:4030  users */\n      0x00\n        /* \"ElectronicHealthRegistry.sol\":4025:4043  users[r.recipient] */\n      dup1\n        /* \"ElectronicHealthRegistry.sol\":4031:4032  r */\n      dup4\n        /* \"ElectronicHealthRegistry.sol\":4031:4042  r.recipient */\n      0x02\n      add\n      0x00\n      swap1\n      sload\n      swap1\n      0x0100\n      exp\n      swap1\n      div\n      0xffffffffffffffffffffffffffffffffffffffff\n      and\n        /* \"ElectronicHealthRegistry.sol\":4025:4043  users[r.recipient] */\n      0xffffffffffffffffffffffffffffffffffffffff\n      and\n      0xffffffffffffffffffffffffffffffffffffffff\n      and\n      dup2\n      mstore\n      0x20\n      add\n      swap1\n      dup2\n      mstore\n      0x20\n      add\n      0x00\n      keccak256\n        /* \"ElectronicHealthRegistry.sol\":4025:4054  users[r.recipient].privileges */\n      0x06\n      add\n      0x04\n      swap1\n      sload\n      swap1\n      0x0100\n      exp\n      swap1\n      div\n      0xff\n      and\n        /* \"ElectronicHealthRegistry.sol\":4025:4074  users[r.recipient].privileges == UserRole.PATIENT */\n      0x02\n      dup2\n      gt\n      iszero\n      tag_144\n      jumpi\n      tag_145\n      tag_91\n      jump\t// in\n    tag_145:\n    tag_144:\n      eq\n        /* \"ElectronicHealthRegistry.sol\":4017:4075  require(users[r.recipient].privileges == UserRole.PATIENT) */\n      tag_146\n      jumpi\n      0x00\n      dup1\n      revert\n    tag_146:\n        /* \"ElectronicHealthRegistry.sol\":4095:4096  r */\n      dup1\n        /* \"ElectronicHealthRegistry.sol\":4095:4105  r.approved */\n      0x02\n      add\n      0x14\n      swap1\n      sload\n      swap1\n      0x0100\n      exp\n      swap1\n      div\n      0xff\n      and\n        /* \"ElectronicHealthRegistry.sol\":4094:4105  !r.approved */\n      iszero\n        /* \"ElectronicHealthRegistry.sol\":4086:4106  require(!r.approved) */\n      tag_147\n      jumpi\n      0x00\n      dup1\n      revert\n    tag_147:\n        /* \"ElectronicHealthRegistry.sol\":4132:4136  true */\n      0x01\n        /* \"ElectronicHealthRegistry.sol\":4119:4120  r */\n      dup2\n        /* \"ElectronicHealthRegistry.sol\":4119:4129  r.approved */\n      0x02\n      add\n      0x14\n        /* \"ElectronicHealthRegistry.sol\":4119:4136  r.approved = true */\n      0x0100\n      exp\n      dup2\n      sload\n      dup2\n      0xff\n      mul\n      not\n      and\n      swap1\n      dup4\n      iszero\n      iszero\n      mul\n      or\n      swap1\n      sstore\n      pop\n        /* \"ElectronicHealthRegistry.sol\":4153:4170  HealthRegistry he */\n      0x00\n        /* \"ElectronicHealthRegistry.sol\":4188:4206  deployedRegistries */\n      0x02\n        /* \"ElectronicHealthRegistry.sol\":4188:4218  deployedRegistries[msg.sender] */\n      0x00\n        /* \"ElectronicHealthRegistry.sol\":4207:4217  msg.sender */\n      caller\n        /* \"ElectronicHealthRegistry.sol\":4188:4218  deployedRegistries[msg.sender] */\n      0xffffffffffffffffffffffffffffffffffffffff\n      and\n      0xffffffffffffffffffffffffffffffffffffffff\n      and\n      dup2\n      mstore\n      0x20\n      add\n      swap1\n      dup2\n      mstore\n      0x20\n      add\n      0x00\n      keccak256\n      0x00\n      swap1\n      sload\n      swap1\n      0x0100\n      exp\n      swap1\n      div\n      0xffffffffffffffffffffffffffffffffffffffff\n      and\n        /* \"ElectronicHealthRegistry.sol\":4153:4219  HealthRegistry he = HealthRegistry(deployedRegistries[msg.sender]) */\n      swap1\n      pop\n        /* \"ElectronicHealthRegistry.sol\":4230:4232  he */\n      dup1\n        /* \"ElectronicHealthRegistry.sol\":4230:4242  he.addDoctor */\n      0xffffffffffffffffffffffffffffffffffffffff\n      and\n      0x4780468f\n        /* \"ElectronicHealthRegistry.sol\":4243:4244  r */\n      dup4\n        /* \"ElectronicHealthRegistry.sol\":4243:4251  r.sender */\n      0x01\n      add\n      0x00\n      swap1\n      sload\n      swap1\n      0x0100\n      exp\n      swap1\n      div\n      0xffffffffffffffffffffffffffffffffffffffff\n      and\n        /* \"ElectronicHealthRegistry.sol\":4230:4252  he.addDoctor(r.sender) */\n      mload(0x40)\n      dup3\n      0xffffffff\n      and\n      0xe0\n      shl\n      dup2\n      mstore\n      0x04\n      add\n      tag_148\n      swap2\n      swap1\n      tag_42\n      jump\t// in\n    tag_148:\n      0x00\n      mload(0x40)\n      dup1\n      dup4\n      sub\n      dup2\n      0x00\n      dup8\n      dup1\n      extcodesize\n      iszero\n      dup1\n      iszero\n      tag_149\n      jumpi\n      0x00\n      dup1\n      revert\n    tag_149:\n      pop\n      gas\n      call\n      iszero\n      dup1\n      iszero\n      tag_151\n      jumpi\n      returndatasize\n      0x00\n      dup1\n      returndatacopy\n      revert(0x00, returndatasize)\n    tag_151:\n      pop\n      pop\n      pop\n      pop\n        /* \"ElectronicHealthRegistry.sol\":4263:4268  users */\n      0x00\n        /* \"ElectronicHealthRegistry.sol\":4263:4278  users[r.sender] */\n      dup1\n        /* \"ElectronicHealthRegistry.sol\":4269:4270  r */\n      dup4\n        /* \"ElectronicHealthRegistry.sol\":4269:4277  r.sender */\n      0x01\n      add\n      0x00\n      swap1\n      sload\n      swap1\n      0x0100\n      exp\n      swap1\n      div\n      0xffffffffffffffffffffffffffffffffffffffff\n      and\n        /* \"ElectronicHealthRegistry.sol\":4263:4278  users[r.sender] */\n      0xffffffffffffffffffffffffffffffffffffffff\n      and\n      0xffffffffffffffffffffffffffffffffffffffff\n      and\n      dup2\n      mstore\n      0x20\n      add\n      swap1\n      dup2\n      mstore\n      0x20\n      add\n      0x00\n      keccak256\n        /* \"ElectronicHealthRegistry.sol\":4263:4287  users[r.sender].patients */\n      0x07\n      add\n        /* \"ElectronicHealthRegistry.sol\":4293:4303  msg.sender */\n      caller\n        /* \"ElectronicHealthRegistry.sol\":4263:4304  users[r.sender].patients.push(msg.sender) */\n      swap1\n      dup1\n      0x01\n      dup2\n      sload\n      add\n      dup1\n      dup3\n      sstore\n      dup1\n      swap2\n      pop\n      pop\n      0x01\n      swap1\n      sub\n      swap1\n      0x00\n      mstore\n      keccak256(0x00, 0x20)\n      add\n      0x00\n      swap1\n      swap2\n      swap1\n      swap2\n      swap1\n      swap2\n      0x0100\n      exp\n      dup2\n      sload\n      dup2\n      0xffffffffffffffffffffffffffffffffffffffff\n      mul\n      not\n      and\n      swap1\n      dup4\n      0xffffffffffffffffffffffffffffffffffffffff\n      and\n      mul\n      or\n      swap1\n      sstore\n      pop\n        /* \"ElectronicHealthRegistry.sol\":3899:4312  {... */\n      pop\n      pop\n        /* \"ElectronicHealthRegistry.sol\":3856:4312  function approveRequest(uint index) public {... */\n      pop\n      jump\t// out\n        /* \"ElectronicHealthRegistry.sol\":954:1189  function isRequest(string calldata id) public view returns(bool) {... */\n    tag_53:\n        /* \"ElectronicHealthRegistry.sol\":1013:1017  bool */\n      0x00\n        /* \"ElectronicHealthRegistry.sol\":1050:1051  0 */\n      dup1\n        /* \"ElectronicHealthRegistry.sol\":1034:1046  requestCount */\n      sload(0x05)\n        /* \"ElectronicHealthRegistry.sol\":1034:1051  requestCount == 0 */\n      eq\n        /* \"ElectronicHealthRegistry.sol\":1030:1065  if (requestCount == 0) return false */\n      iszero\n      tag_154\n      jumpi\n        /* \"ElectronicHealthRegistry.sol\":1060:1065  false */\n      0x00\n        /* \"ElectronicHealthRegistry.sol\":1053:1065  return false */\n      swap1\n      pop\n      jump(tag_153)\n        /* \"ElectronicHealthRegistry.sol\":1030:1065  if (requestCount == 0) return false */\n    tag_154:\n        /* \"ElectronicHealthRegistry.sol\":1176:1178  id */\n      dup3\n      dup3\n        /* \"ElectronicHealthRegistry.sol\":1159:1179  abi.encodePacked(id) */\n      add(0x20, mload(0x40))\n      tag_155\n      swap3\n      swap2\n      swap1\n      tag_132\n      jump\t// in\n    tag_155:\n      mload(0x40)\n      0x20\n      dup2\n      dup4\n      sub\n      sub\n      dup2\n      mstore\n      swap1\n      0x40\n      mstore\n        /* \"ElectronicHealthRegistry.sol\":1149:1180  keccak256(abi.encodePacked(id)) */\n      dup1\n      mload\n      swap1\n      0x20\n      add\n      keccak256\n        /* \"ElectronicHealthRegistry.sol\":1111:1123  requestIndex */\n      0x04\n        /* \"ElectronicHealthRegistry.sol\":1111:1143  requestIndex[requests[id].index] */\n      0x00\n        /* \"ElectronicHealthRegistry.sol\":1124:1132  requests */\n      0x03\n        /* \"ElectronicHealthRegistry.sol\":1133:1135  id */\n      dup7\n      dup7\n        /* \"ElectronicHealthRegistry.sol\":1124:1136  requests[id] */\n      mload(0x40)\n      tag_156\n      swap3\n      swap2\n      swap1\n      tag_132\n      jump\t// in\n    tag_156:\n      swap1\n      dup2\n      mstore\n      0x20\n      add\n      mload(0x40)\n      dup1\n      swap2\n      sub\n      swap1\n      keccak256\n        /* \"ElectronicHealthRegistry.sol\":1124:1142  requests[id].index */\n      0x03\n      add\n      sload\n        /* \"ElectronicHealthRegistry.sol\":1111:1143  requestIndex[requests[id].index] */\n      dup2\n      mstore\n      0x20\n      add\n      swap1\n      dup2\n      mstore\n      0x20\n      add\n      0x00\n      keccak256\n        /* \"ElectronicHealthRegistry.sol\":1094:1144  abi.encodePacked(requestIndex[requests[id].index]) */\n      add(0x20, mload(0x40))\n      tag_157\n      swap2\n      swap1\n      tag_140\n      jump\t// in\n    tag_157:\n      mload(0x40)\n      0x20\n      dup2\n      dup4\n      sub\n      sub\n      dup2\n      mstore\n      swap1\n      0x40\n      mstore\n        /* \"ElectronicHealthRegistry.sol\":1084:1145  keccak256(abi.encodePacked(requestIndex[requests[id].index])) */\n      dup1\n      mload\n      swap1\n      0x20\n      add\n      keccak256\n        /* \"ElectronicHealthRegistry.sol\":1084:1180  keccak256(abi.encodePacked(requestIndex[requests[id].index])) == keccak256(abi.encodePacked(id)) */\n      eq\n        /* \"ElectronicHealthRegistry.sol\":1076:1181  return (keccak256(abi.encodePacked(requestIndex[requests[id].index])) == keccak256(abi.encodePacked(id))) */\n      swap1\n      pop\n        /* \"ElectronicHealthRegistry.sol\":954:1189  function isRequest(string calldata id) public view returns(bool) {... */\n    tag_153:\n      swap3\n      swap2\n      pop\n      pop\n      jump\t// out\n        /* \"ElectronicHealthRegistry.sol\":758:811  mapping(address => address) public deployedRegistries */\n    tag_58:\n      mstore(0x20, 0x02)\n      dup1\n      0x00\n      mstore\n      keccak256(0x00, 0x40)\n      0x00\n      swap2\n      pop\n      sload\n      swap1\n      0x0100\n      exp\n      swap1\n      div\n      0xffffffffffffffffffffffffffffffffffffffff\n      and\n      dup2\n      jump\t// out\n        /* \"ElectronicHealthRegistry.sol\":3478:3848  function retrieveRequest(string calldata id)... */\n    tag_62:\n        /* \"ElectronicHealthRegistry.sol\":3552:3565  string memory */\n      0x60\n        /* \"ElectronicHealthRegistry.sol\":3567:3574  address */\n      0x00\n        /* \"ElectronicHealthRegistry.sol\":3576:3583  address */\n      dup1\n        /* \"ElectronicHealthRegistry.sol\":3585:3589  bool */\n      0x00\n        /* \"ElectronicHealthRegistry.sol\":3614:3627  isRequest(id) */\n      tag_159\n        /* \"ElectronicHealthRegistry.sol\":3624:3626  id */\n      dup7\n      dup7\n        /* \"ElectronicHealthRegistry.sol\":3614:3623  isRequest */\n      tag_53\n        /* \"ElectronicHealthRegistry.sol\":3614:3627  isRequest(id) */\n      jump\t// in\n    tag_159:\n        /* \"ElectronicHealthRegistry.sol\":3606:3628  require(isRequest(id)) */\n      tag_160\n      jumpi\n      0x00\n      dup1\n      revert\n    tag_160:\n        /* \"ElectronicHealthRegistry.sol\":3643:3666  Request storage request */\n      0x00\n        /* \"ElectronicHealthRegistry.sol\":3669:3677  requests */\n      0x03\n        /* \"ElectronicHealthRegistry.sol\":3678:3680  id */\n      dup8\n      dup8\n        /* \"ElectronicHealthRegistry.sol\":3669:3681  requests[id] */\n      mload(0x40)\n      tag_161\n      swap3\n      swap2\n      swap1\n      tag_132\n      jump\t// in\n    tag_161:\n      swap1\n      dup2\n      mstore\n      0x20\n      add\n      mload(0x40)\n      dup1\n      swap2\n      sub\n      swap1\n      keccak256\n        /* \"ElectronicHealthRegistry.sol\":3643:3681  Request storage request = requests[id] */\n      swap1\n      pop\n        /* \"ElectronicHealthRegistry.sol\":3704:3711  request */\n      dup1\n        /* \"ElectronicHealthRegistry.sol\":3704:3723  request.description */\n      0x00\n      add\n        /* \"ElectronicHealthRegistry.sol\":3746:3753  request */\n      dup2\n        /* \"ElectronicHealthRegistry.sol\":3746:3760  request.sender */\n      0x01\n      add\n      0x00\n      swap1\n      sload\n      swap1\n      0x0100\n      exp\n      swap1\n      div\n      0xffffffffffffffffffffffffffffffffffffffff\n      and\n        /* \"ElectronicHealthRegistry.sol\":3783:3790  request */\n      dup3\n        /* \"ElectronicHealthRegistry.sol\":3783:3800  request.recipient */\n      0x02\n      add\n      0x00\n      swap1\n      sload\n      swap1\n      0x0100\n      exp\n      swap1\n      div\n      0xffffffffffffffffffffffffffffffffffffffff\n      and\n        /* \"ElectronicHealthRegistry.sol\":3823:3830  request */\n      dup4\n        /* \"ElectronicHealthRegistry.sol\":3823:3839  request.approved */\n      0x02\n      add\n      0x14\n      swap1\n      sload\n      swap1\n      0x0100\n      exp\n      swap1\n      div\n      0xff\n      and\n        /* \"ElectronicHealthRegistry.sol\":3696:3840  return (request.description,... */\n      dup4\n      dup1\n      sload\n      tag_162\n      swap1\n      tag_73\n      jump\t// in\n    tag_162:\n      dup1\n      0x1f\n      add\n      0x20\n      dup1\n      swap2\n      div\n      mul\n      0x20\n      add\n      mload(0x40)\n      swap1\n      dup2\n      add\n      0x40\n      mstore\n      dup1\n      swap3\n      swap2\n      swap1\n      dup2\n      dup2\n      mstore\n      0x20\n      add\n      dup3\n      dup1\n      sload\n      tag_163\n      swap1\n      tag_73\n      jump\t// in\n    tag_163:\n      dup1\n      iszero\n      tag_164\n      jumpi\n      dup1\n      0x1f\n      lt\n      tag_165\n      jumpi\n      0x0100\n      dup1\n      dup4\n      sload\n      div\n      mul\n      dup4\n      mstore\n      swap2\n      0x20\n      add\n      swap2\n      jump(tag_164)\n    tag_165:\n      dup3\n      add\n      swap2\n      swap1\n      0x00\n      mstore\n      keccak256(0x00, 0x20)\n      swap1\n    tag_166:\n      dup2\n      sload\n      dup2\n      mstore\n      swap1\n      0x01\n      add\n      swap1\n      0x20\n      add\n      dup1\n      dup4\n      gt\n      tag_166\n      jumpi\n      dup3\n      swap1\n      sub\n      0x1f\n      and\n      dup3\n      add\n      swap2\n    tag_164:\n      pop\n      pop\n      pop\n      pop\n      pop\n      swap4\n      pop\n      swap5\n      pop\n      swap5\n      pop\n      swap5\n      pop\n      swap5\n      pop\n      pop\n        /* \"ElectronicHealthRegistry.sol\":3478:3848  function retrieveRequest(string calldata id)... */\n      swap3\n      swap6\n      swap2\n      swap5\n      pop\n      swap3\n      pop\n      jump\t// out\n    tag_68:\n      dataSize(sub_0)\n      dup1\n      dataOffset(sub_0)\n      dup4\n      codecopy\n      add\n      swap1\n      jump\t// out\n    tag_84:\n      dup3\n      dup1\n      sload\n      tag_167\n      swap1\n      tag_73\n      jump\t// in\n    tag_167:\n      swap1\n      0x00\n      mstore\n      keccak256(0x00, 0x20)\n      swap1\n      0x1f\n      add\n      0x20\n      swap1\n      div\n      dup2\n      add\n      swap3\n      dup3\n      tag_169\n      jumpi\n      0x00\n      dup6\n      sstore\n      jump(tag_168)\n    tag_169:\n      dup3\n      0x1f\n      lt\n      tag_170\n      jumpi\n      dup1\n      mload\n      not(0xff)\n      and\n      dup4\n      dup1\n      add\n      or\n      dup6\n      sstore\n      jump(tag_168)\n    tag_170:\n      dup3\n      dup1\n      add\n      0x01\n      add\n      dup6\n      sstore\n      dup3\n      iszero\n      tag_168\n      jumpi\n      swap2\n      dup3\n      add\n    tag_171:\n      dup3\n      dup2\n      gt\n      iszero\n      tag_172\n      jumpi\n      dup3\n      mload\n      dup3\n      sstore\n      swap2\n      0x20\n      add\n      swap2\n      swap1\n      0x01\n      add\n      swap1\n      jump(tag_171)\n    tag_172:\n    tag_168:\n      pop\n      swap1\n      pop\n      tag_173\n      swap2\n      swap1\n      tag_174\n      jump\t// in\n    tag_173:\n      pop\n      swap1\n      jump\t// out\n    tag_134:\n      dup3\n      dup1\n      sload\n      tag_175\n      swap1\n      tag_73\n      jump\t// in\n    tag_175:\n      swap1\n      0x00\n      mstore\n      keccak256(0x00, 0x20)\n      swap1\n      0x1f\n      add\n      0x20\n      swap1\n      div\n      dup2\n      add\n      swap3\n      dup3\n      tag_177\n      jumpi\n      0x00\n      dup6\n      sstore\n      jump(tag_176)\n    tag_177:\n      dup3\n      0x1f\n      lt\n      tag_178\n      jumpi\n      dup1\n      calldataload\n      not(0xff)\n      and\n      dup4\n      dup1\n      add\n      or\n      dup6\n      sstore\n      jump(tag_176)\n    tag_178:\n      dup3\n      dup1\n      add\n      0x01\n      add\n      dup6\n      sstore\n      dup3\n      iszero\n      tag_176\n      jumpi\n      swap2\n      dup3\n      add\n    tag_179:\n      dup3\n      dup2\n      gt\n      iszero\n      tag_180\n      jumpi\n      dup3\n      calldataload\n      dup3\n      sstore\n      swap2\n      0x20\n      add\n      swap2\n      swap1\n      0x01\n      add\n      swap1\n      jump(tag_179)\n    tag_180:\n    tag_176:\n      pop\n      swap1\n      pop\n      tag_181\n      swap2\n      swap1\n      tag_174\n      jump\t// in\n    tag_181:\n      pop\n      swap1\n      jump\t// out\n    tag_174:\n    tag_182:\n      dup1\n      dup3\n      gt\n      iszero\n      tag_183\n      jumpi\n      0x00\n      dup2\n      0x00\n      swap1\n      sstore\n      pop\n      0x01\n      add\n      jump(tag_182)\n    tag_183:\n      pop\n      swap1\n      jump\t// out\n        /* \"#utility.yul\":7:84   */\n    tag_184:\n        /* \"#utility.yul\":44:51   */\n      0x00\n        /* \"#utility.yul\":73:78   */\n      dup2\n        /* \"#utility.yul\":62:78   */\n      swap1\n      pop\n        /* \"#utility.yul\":7:84   */\n      swap2\n      swap1\n      pop\n      jump\t// out\n        /* \"#utility.yul\":90:208   */\n    tag_185:\n        /* \"#utility.yul\":177:201   */\n      tag_241\n        /* \"#utility.yul\":195:200   */\n      dup2\n        /* \"#utility.yul\":177:201   */\n      tag_184\n      jump\t// in\n    tag_241:\n        /* \"#utility.yul\":172:175   */\n      dup3\n        /* \"#utility.yul\":165:202   */\n      mstore\n        /* \"#utility.yul\":90:208   */\n      pop\n      pop\n      jump\t// out\n        /* \"#utility.yul\":214:436   */\n    tag_18:\n        /* \"#utility.yul\":307:311   */\n      0x00\n        /* \"#utility.yul\":345:347   */\n      0x20\n        /* \"#utility.yul\":334:343   */\n      dup3\n        /* \"#utility.yul\":330:348   */\n      add\n        /* \"#utility.yul\":322:348   */\n      swap1\n      pop\n        /* \"#utility.yul\":358:429   */\n      tag_243\n        /* \"#utility.yul\":426:427   */\n      0x00\n        /* \"#utility.yul\":415:424   */\n      dup4\n        /* \"#utility.yul\":411:428   */\n      add\n        /* \"#utility.yul\":402:408   */\n      dup5\n        /* \"#utility.yul\":358:429   */\n      tag_185\n      jump\t// in\n    tag_243:\n        /* \"#utility.yul\":214:436   */\n      swap3\n      swap2\n      pop\n      pop\n      jump\t// out\n        /* \"#utility.yul\":442:517   */\n    tag_186:\n        /* \"#utility.yul\":475:481   */\n      0x00\n        /* \"#utility.yul\":508:510   */\n      0x40\n        /* \"#utility.yul\":502:511   */\n      mload\n        /* \"#utility.yul\":492:511   */\n      swap1\n      pop\n        /* \"#utility.yul\":442:517   */\n      swap1\n      jump\t// out\n        /* \"#utility.yul\":523:640   */\n    tag_187:\n        /* \"#utility.yul\":632:633   */\n      0x00\n        /* \"#utility.yul\":629:630   */\n      dup1\n        /* \"#utility.yul\":622:634   */\n      revert\n        /* \"#utility.yul\":646:763   */\n    tag_188:\n        /* \"#utility.yul\":755:756   */\n      0x00\n        /* \"#utility.yul\":752:753   */\n      dup1\n        /* \"#utility.yul\":745:757   */\n      revert\n        /* \"#utility.yul\":769:895   */\n    tag_189:\n        /* \"#utility.yul\":806:813   */\n      0x00\n        /* \"#utility.yul\":846:888   */\n      0xffffffffffffffffffffffffffffffffffffffff\n        /* \"#utility.yul\":839:844   */\n      dup3\n        /* \"#utility.yul\":835:889   */\n      and\n        /* \"#utility.yul\":824:889   */\n      swap1\n      pop\n        /* \"#utility.yul\":769:895   */\n      swap2\n      swap1\n      pop\n      jump\t// out\n        /* \"#utility.yul\":901:997   */\n    tag_190:\n        /* \"#utility.yul\":938:945   */\n      0x00\n        /* \"#utility.yul\":967:991   */\n      tag_249\n        /* \"#utility.yul\":985:990   */\n      dup3\n        /* \"#utility.yul\":967:991   */\n      tag_189\n      jump\t// in\n    tag_249:\n        /* \"#utility.yul\":956:991   */\n      swap1\n      pop\n        /* \"#utility.yul\":901:997   */\n      swap2\n      swap1\n      pop\n      jump\t// out\n        /* \"#utility.yul\":1003:1125   */\n    tag_191:\n        /* \"#utility.yul\":1076:1100   */\n      tag_251\n        /* \"#utility.yul\":1094:1099   */\n      dup2\n        /* \"#utility.yul\":1076:1100   */\n      tag_190\n      jump\t// in\n    tag_251:\n        /* \"#utility.yul\":1069:1074   */\n      dup2\n        /* \"#utility.yul\":1066:1101   */\n      eq\n        /* \"#utility.yul\":1056:1119   */\n      tag_252\n      jumpi\n        /* \"#utility.yul\":1115:1116   */\n      0x00\n        /* \"#utility.yul\":1112:1113   */\n      dup1\n        /* \"#utility.yul\":1105:1117   */\n      revert\n        /* \"#utility.yul\":1056:1119   */\n    tag_252:\n        /* \"#utility.yul\":1003:1125   */\n      pop\n      jump\t// out\n        /* \"#utility.yul\":1131:1270   */\n    tag_192:\n        /* \"#utility.yul\":1177:1182   */\n      0x00\n        /* \"#utility.yul\":1215:1221   */\n      dup2\n        /* \"#utility.yul\":1202:1222   */\n      calldataload\n        /* \"#utility.yul\":1193:1222   */\n      swap1\n      pop\n        /* \"#utility.yul\":1231:1264   */\n      tag_254\n        /* \"#utility.yul\":1258:1263   */\n      dup2\n        /* \"#utility.yul\":1231:1264   */\n      tag_191\n      jump\t// in\n    tag_254:\n        /* \"#utility.yul\":1131:1270   */\n      swap3\n      swap2\n      pop\n      pop\n      jump\t// out\n        /* \"#utility.yul\":1276:1605   */\n    tag_21:\n        /* \"#utility.yul\":1335:1341   */\n      0x00\n        /* \"#utility.yul\":1384:1386   */\n      0x20\n        /* \"#utility.yul\":1372:1381   */\n      dup3\n        /* \"#utility.yul\":1363:1370   */\n      dup5\n        /* \"#utility.yul\":1359:1382   */\n      sub\n        /* \"#utility.yul\":1355:1387   */\n      slt\n        /* \"#utility.yul\":1352:1471   */\n      iszero\n      tag_256\n      jumpi\n        /* \"#utility.yul\":1390:1469   */\n      tag_257\n      tag_187\n      jump\t// in\n    tag_257:\n        /* \"#utility.yul\":1352:1471   */\n    tag_256:\n        /* \"#utility.yul\":1510:1511   */\n      0x00\n        /* \"#utility.yul\":1535:1588   */\n      tag_258\n        /* \"#utility.yul\":1580:1587   */\n      dup5\n        /* \"#utility.yul\":1571:1577   */\n      dup3\n        /* \"#utility.yul\":1560:1569   */\n      dup6\n        /* \"#utility.yul\":1556:1578   */\n      add\n        /* \"#utility.yul\":1535:1588   */\n      tag_192\n      jump\t// in\n    tag_258:\n        /* \"#utility.yul\":1525:1588   */\n      swap2\n      pop\n        /* \"#utility.yul\":1481:1598   */\n      pop\n        /* \"#utility.yul\":1276:1605   */\n      swap3\n      swap2\n      pop\n      pop\n      jump\t// out\n        /* \"#utility.yul\":1611:1733   */\n    tag_193:\n        /* \"#utility.yul\":1684:1708   */\n      tag_260\n        /* \"#utility.yul\":1702:1707   */\n      dup2\n        /* \"#utility.yul\":1684:1708   */\n      tag_184\n      jump\t// in\n    tag_260:\n        /* \"#utility.yul\":1677:1682   */\n      dup2\n        /* \"#utility.yul\":1674:1709   */\n      eq\n        /* \"#utility.yul\":1664:1727   */\n      tag_261\n      jumpi\n        /* \"#utility.yul\":1723:1724   */\n      0x00\n        /* \"#utility.yul\":1720:1721   */\n      dup1\n        /* \"#utility.yul\":1713:1725   */\n      revert\n        /* \"#utility.yul\":1664:1727   */\n    tag_261:\n        /* \"#utility.yul\":1611:1733   */\n      pop\n      jump\t// out\n        /* \"#utility.yul\":1739:1878   */\n    tag_194:\n        /* \"#utility.yul\":1785:1790   */\n      0x00\n        /* \"#utility.yul\":1823:1829   */\n      dup2\n        /* \"#utility.yul\":1810:1830   */\n      calldataload\n        /* \"#utility.yul\":1801:1830   */\n      swap1\n      pop\n        /* \"#utility.yul\":1839:1872   */\n      tag_263\n        /* \"#utility.yul\":1866:1871   */\n      dup2\n        /* \"#utility.yul\":1839:1872   */\n      tag_193\n      jump\t// in\n    tag_263:\n        /* \"#utility.yul\":1739:1878   */\n      swap3\n      swap2\n      pop\n      pop\n      jump\t// out\n        /* \"#utility.yul\":1884:2213   */\n    tag_25:\n        /* \"#utility.yul\":1943:1949   */\n      0x00\n        /* \"#utility.yul\":1992:1994   */\n      0x20\n        /* \"#utility.yul\":1980:1989   */\n      dup3\n        /* \"#utility.yul\":1971:1978   */\n      dup5\n        /* \"#utility.yul\":1967:1990   */\n      sub\n        /* \"#utility.yul\":1963:1995   */\n      slt\n        /* \"#utility.yul\":1960:2079   */\n      iszero\n      tag_265\n      jumpi\n        /* \"#utility.yul\":1998:2077   */\n      tag_266\n      tag_187\n      jump\t// in\n    tag_266:\n        /* \"#utility.yul\":1960:2079   */\n    tag_265:\n        /* \"#utility.yul\":2118:2119   */\n      0x00\n        /* \"#utility.yul\":2143:2196   */\n      tag_267\n        /* \"#utility.yul\":2188:2195   */\n      dup5\n        /* \"#utility.yul\":2179:2185   */\n      dup3\n        /* \"#utility.yul\":2168:2177   */\n      dup6\n        /* \"#utility.yul\":2164:2186   */\n      add\n        /* \"#utility.yul\":2143:2196   */\n      tag_194\n      jump\t// in\n    tag_267:\n        /* \"#utility.yul\":2133:2196   */\n      swap2\n      pop\n        /* \"#utility.yul\":2089:2206   */\n      pop\n        /* \"#utility.yul\":1884:2213   */\n      swap3\n      swap2\n      pop\n      pop\n      jump\t// out\n        /* \"#utility.yul\":2219:2318   */\n    tag_195:\n        /* \"#utility.yul\":2271:2277   */\n      0x00\n        /* \"#utility.yul\":2305:2310   */\n      dup2\n        /* \"#utility.yul\":2299:2311   */\n      mload\n        /* \"#utility.yul\":2289:2311   */\n      swap1\n      pop\n        /* \"#utility.yul\":2219:2318   */\n      swap2\n      swap1\n      pop\n      jump\t// out\n        /* \"#utility.yul\":2324:2493   */\n    tag_196:\n        /* \"#utility.yul\":2408:2419   */\n      0x00\n        /* \"#utility.yul\":2442:2448   */\n      dup3\n        /* \"#utility.yul\":2437:2440   */\n      dup3\n        /* \"#utility.yul\":2430:2449   */\n      mstore\n        /* \"#utility.yul\":2482:2486   */\n      0x20\n        /* \"#utility.yul\":2477:2480   */\n      dup3\n        /* \"#utility.yul\":2473:2487   */\n      add\n        /* \"#utility.yul\":2458:2487   */\n      swap1\n      pop\n        /* \"#utility.yul\":2324:2493   */\n      swap3\n      swap2\n      pop\n      pop\n      jump\t// out\n        /* \"#utility.yul\":2499:2806   */\n    tag_197:\n        /* \"#utility.yul\":2567:2568   */\n      0x00\n        /* \"#utility.yul\":2577:2690   */\n    tag_271:\n        /* \"#utility.yul\":2591:2597   */\n      dup4\n        /* \"#utility.yul\":2588:2589   */\n      dup2\n        /* \"#utility.yul\":2585:2598   */\n      lt\n        /* \"#utility.yul\":2577:2690   */\n      iszero\n      tag_273\n      jumpi\n        /* \"#utility.yul\":2676:2677   */\n      dup1\n        /* \"#utility.yul\":2671:2674   */\n      dup3\n        /* \"#utility.yul\":2667:2678   */\n      add\n        /* \"#utility.yul\":2661:2679   */\n      mload\n        /* \"#utility.yul\":2657:2658   */\n      dup2\n        /* \"#utility.yul\":2652:2655   */\n      dup5\n        /* \"#utility.yul\":2648:2659   */\n      add\n        /* \"#utility.yul\":2641:2680   */\n      mstore\n        /* \"#utility.yul\":2613:2615   */\n      0x20\n        /* \"#utility.yul\":2610:2611   */\n      dup2\n        /* \"#utility.yul\":2606:2616   */\n      add\n        /* \"#utility.yul\":2601:2616   */\n      swap1\n      pop\n        /* \"#utility.yul\":2577:2690   */\n      jump(tag_271)\n    tag_273:\n        /* \"#utility.yul\":2708:2714   */\n      dup4\n        /* \"#utility.yul\":2705:2706   */\n      dup2\n        /* \"#utility.yul\":2702:2715   */\n      gt\n        /* \"#utility.yul\":2699:2800   */\n      iszero\n      tag_274\n      jumpi\n        /* \"#utility.yul\":2788:2789   */\n      0x00\n        /* \"#utility.yul\":2779:2785   */\n      dup5\n        /* \"#utility.yul\":2774:2777   */\n      dup5\n        /* \"#utility.yul\":2770:2786   */\n      add\n        /* \"#utility.yul\":2763:2790   */\n      mstore\n        /* \"#utility.yul\":2699:2800   */\n    tag_274:\n        /* \"#utility.yul\":2548:2806   */\n      pop\n        /* \"#utility.yul\":2499:2806   */\n      pop\n      pop\n      pop\n      jump\t// out\n        /* \"#utility.yul\":2812:2914   */\n    tag_198:\n        /* \"#utility.yul\":2853:2859   */\n      0x00\n        /* \"#utility.yul\":2904:2906   */\n      0x1f\n        /* \"#utility.yul\":2900:2907   */\n      not\n        /* \"#utility.yul\":2895:2897   */\n      0x1f\n        /* \"#utility.yul\":2888:2893   */\n      dup4\n        /* \"#utility.yul\":2884:2898   */\n      add\n        /* \"#utility.yul\":2880:2908   */\n      and\n        /* \"#utility.yul\":2870:2908   */\n      swap1\n      pop\n        /* \"#utility.yul\":2812:2914   */\n      swap2\n      swap1\n      pop\n      jump\t// out\n        /* \"#utility.yul\":2920:3284   */\n    tag_199:\n        /* \"#utility.yul\":3008:3011   */\n      0x00\n        /* \"#utility.yul\":3036:3075   */\n      tag_277\n        /* \"#utility.yul\":3069:3074   */\n      dup3\n        /* \"#utility.yul\":3036:3075   */\n      tag_195\n      jump\t// in\n    tag_277:\n        /* \"#utility.yul\":3091:3162   */\n      tag_278\n        /* \"#utility.yul\":3155:3161   */\n      dup2\n        /* \"#utility.yul\":3150:3153   */\n      dup6\n        /* \"#utility.yul\":3091:3162   */\n      tag_196\n      jump\t// in\n    tag_278:\n        /* \"#utility.yul\":3084:3162   */\n      swap4\n      pop\n        /* \"#utility.yul\":3171:3223   */\n      tag_279\n        /* \"#utility.yul\":3216:3222   */\n      dup2\n        /* \"#utility.yul\":3211:3214   */\n      dup6\n        /* \"#utility.yul\":3204:3208   */\n      0x20\n        /* \"#utility.yul\":3197:3202   */\n      dup7\n        /* \"#utility.yul\":3193:3209   */\n      add\n        /* \"#utility.yul\":3171:3223   */\n      tag_197\n      jump\t// in\n    tag_279:\n        /* \"#utility.yul\":3248:3277   */\n      tag_280\n        /* \"#utility.yul\":3270:3276   */\n      dup2\n        /* \"#utility.yul\":3248:3277   */\n      tag_198\n      jump\t// in\n    tag_280:\n        /* \"#utility.yul\":3243:3246   */\n      dup5\n        /* \"#utility.yul\":3239:3278   */\n      add\n        /* \"#utility.yul\":3232:3278   */\n      swap2\n      pop\n        /* \"#utility.yul\":3012:3284   */\n      pop\n        /* \"#utility.yul\":2920:3284   */\n      swap3\n      swap2\n      pop\n      pop\n      jump\t// out\n        /* \"#utility.yul\":3290:3603   */\n    tag_28:\n        /* \"#utility.yul\":3403:3407   */\n      0x00\n        /* \"#utility.yul\":3441:3443   */\n      0x20\n        /* \"#utility.yul\":3430:3439   */\n      dup3\n        /* \"#utility.yul\":3426:3444   */\n      add\n        /* \"#utility.yul\":3418:3444   */\n      swap1\n      pop\n        /* \"#utility.yul\":3490:3499   */\n      dup2\n        /* \"#utility.yul\":3484:3488   */\n      dup2\n        /* \"#utility.yul\":3480:3500   */\n      sub\n        /* \"#utility.yul\":3476:3477   */\n      0x00\n        /* \"#utility.yul\":3465:3474   */\n      dup4\n        /* \"#utility.yul\":3461:3478   */\n      add\n        /* \"#utility.yul\":3454:3501   */\n      mstore\n        /* \"#utility.yul\":3518:3596   */\n      tag_282\n        /* \"#utility.yul\":3591:3595   */\n      dup2\n        /* \"#utility.yul\":3582:3588   */\n      dup5\n        /* \"#utility.yul\":3518:3596   */\n      tag_199\n      jump\t// in\n    tag_282:\n        /* \"#utility.yul\":3510:3596   */\n      swap1\n      pop\n        /* \"#utility.yul\":3290:3603   */\n      swap3\n      swap2\n      pop\n      pop\n      jump\t// out\n        /* \"#utility.yul\":3609:3726   */\n    tag_200:\n        /* \"#utility.yul\":3718:3719   */\n      0x00\n        /* \"#utility.yul\":3715:3716   */\n      dup1\n        /* \"#utility.yul\":3708:3720   */\n      revert\n        /* \"#utility.yul\":3732:3849   */\n    tag_201:\n        /* \"#utility.yul\":3841:3842   */\n      0x00\n        /* \"#utility.yul\":3838:3839   */\n      dup1\n        /* \"#utility.yul\":3831:3843   */\n      revert\n        /* \"#utility.yul\":3855:4035   */\n    tag_202:\n        /* \"#utility.yul\":3903:3980   */\n      0x4e487b7100000000000000000000000000000000000000000000000000000000\n        /* \"#utility.yul\":3900:3901   */\n      0x00\n        /* \"#utility.yul\":3893:3981   */\n      mstore\n        /* \"#utility.yul\":4000:4004   */\n      0x41\n        /* \"#utility.yul\":3997:3998   */\n      0x04\n        /* \"#utility.yul\":3990:4005   */\n      mstore\n        /* \"#utility.yul\":4024:4028   */\n      0x24\n        /* \"#utility.yul\":4021:4022   */\n      0x00\n        /* \"#utility.yul\":4014:4029   */\n      revert\n        /* \"#utility.yul\":4041:4322   */\n    tag_203:\n        /* \"#utility.yul\":4124:4151   */\n      tag_287\n        /* \"#utility.yul\":4146:4150   */\n      dup3\n        /* \"#utility.yul\":4124:4151   */\n      tag_198\n      jump\t// in\n    tag_287:\n        /* \"#utility.yul\":4116:4122   */\n      dup2\n        /* \"#utility.yul\":4112:4152   */\n      add\n        /* \"#utility.yul\":4254:4260   */\n      dup2\n        /* \"#utility.yul\":4242:4252   */\n      dup2\n        /* \"#utility.yul\":4239:4261   */\n      lt\n        /* \"#utility.yul\":4218:4236   */\n      0xffffffffffffffff\n        /* \"#utility.yul\":4206:4216   */\n      dup3\n        /* \"#utility.yul\":4203:4237   */\n      gt\n        /* \"#utility.yul\":4200:4262   */\n      or\n        /* \"#utility.yul\":4197:4285   */\n      iszero\n      tag_288\n      jumpi\n        /* \"#utility.yul\":4265:4283   */\n      tag_289\n      tag_202\n      jump\t// in\n    tag_289:\n        /* \"#utility.yul\":4197:4285   */\n    tag_288:\n        /* \"#utility.yul\":4305:4315   */\n      dup1\n        /* \"#utility.yul\":4301:4303   */\n      0x40\n        /* \"#utility.yul\":4294:4316   */\n      mstore\n        /* \"#utility.yul\":4084:4322   */\n      pop\n        /* \"#utility.yul\":4041:4322   */\n      pop\n      pop\n      jump\t// out\n        /* \"#utility.yul\":4328:4457   */\n    tag_204:\n        /* \"#utility.yul\":4362:4368   */\n      0x00\n        /* \"#utility.yul\":4389:4409   */\n      tag_291\n      tag_186\n      jump\t// in\n    tag_291:\n        /* \"#utility.yul\":4379:4409   */\n      swap1\n      pop\n        /* \"#utility.yul\":4418:4451   */\n      tag_292\n        /* \"#utility.yul\":4446:4450   */\n      dup3\n        /* \"#utility.yul\":4438:4444   */\n      dup3\n        /* \"#utility.yul\":4418:4451   */\n      tag_203\n      jump\t// in\n    tag_292:\n        /* \"#utility.yul\":4328:4457   */\n      swap2\n      swap1\n      pop\n      jump\t// out\n        /* \"#utility.yul\":4463:4771   */\n    tag_205:\n        /* \"#utility.yul\":4525:4529   */\n      0x00\n        /* \"#utility.yul\":4615:4633   */\n      0xffffffffffffffff\n        /* \"#utility.yul\":4607:4613   */\n      dup3\n        /* \"#utility.yul\":4604:4634   */\n      gt\n        /* \"#utility.yul\":4601:4657   */\n      iszero\n      tag_294\n      jumpi\n        /* \"#utility.yul\":4637:4655   */\n      tag_295\n      tag_202\n      jump\t// in\n    tag_295:\n        /* \"#utility.yul\":4601:4657   */\n    tag_294:\n        /* \"#utility.yul\":4675:4704   */\n      tag_296\n        /* \"#utility.yul\":4697:4703   */\n      dup3\n        /* \"#utility.yul\":4675:4704   */\n      tag_198\n      jump\t// in\n    tag_296:\n        /* \"#utility.yul\":4667:4704   */\n      swap1\n      pop\n        /* \"#utility.yul\":4759:4763   */\n      0x20\n        /* \"#utility.yul\":4753:4757   */\n      dup2\n        /* \"#utility.yul\":4749:4764   */\n      add\n        /* \"#utility.yul\":4741:4764   */\n      swap1\n      pop\n        /* \"#utility.yul\":4463:4771   */\n      swap2\n      swap1\n      pop\n      jump\t// out\n        /* \"#utility.yul\":4777:4931   */\n    tag_206:\n        /* \"#utility.yul\":4861:4867   */\n      dup3\n        /* \"#utility.yul\":4856:4859   */\n      dup2\n        /* \"#utility.yul\":4851:4854   */\n      dup4\n        /* \"#utility.yul\":4838:4868   */\n      calldatacopy\n        /* \"#utility.yul\":4923:4924   */\n      0x00\n        /* \"#utility.yul\":4914:4920   */\n      dup4\n        /* \"#utility.yul\":4909:4912   */\n      dup4\n        /* \"#utility.yul\":4905:4921   */\n      add\n        /* \"#utility.yul\":4898:4925   */\n      mstore\n        /* \"#utility.yul\":4777:4931   */\n      pop\n      pop\n      pop\n      jump\t// out\n        /* \"#utility.yul\":4937:5349   */\n    tag_207:\n        /* \"#utility.yul\":5015:5020   */\n      0x00\n        /* \"#utility.yul\":5040:5106   */\n      tag_299\n        /* \"#utility.yul\":5056:5105   */\n      tag_300\n        /* \"#utility.yul\":5098:5104   */\n      dup5\n        /* \"#utility.yul\":5056:5105   */\n      tag_205\n      jump\t// in\n    tag_300:\n        /* \"#utility.yul\":5040:5106   */\n      tag_204\n      jump\t// in\n    tag_299:\n        /* \"#utility.yul\":5031:5106   */\n      swap1\n      pop\n        /* \"#utility.yul\":5129:5135   */\n      dup3\n        /* \"#utility.yul\":5122:5127   */\n      dup2\n        /* \"#utility.yul\":5115:5136   */\n      mstore\n        /* \"#utility.yul\":5167:5171   */\n      0x20\n        /* \"#utility.yul\":5160:5165   */\n      dup2\n        /* \"#utility.yul\":5156:5172   */\n      add\n        /* \"#utility.yul\":5205:5208   */\n      dup5\n        /* \"#utility.yul\":5196:5202   */\n      dup5\n        /* \"#utility.yul\":5191:5194   */\n      dup5\n        /* \"#utility.yul\":5187:5203   */\n      add\n        /* \"#utility.yul\":5184:5209   */\n      gt\n        /* \"#utility.yul\":5181:5293   */\n      iszero\n      tag_301\n      jumpi\n        /* \"#utility.yul\":5212:5291   */\n      tag_302\n      tag_201\n      jump\t// in\n    tag_302:\n        /* \"#utility.yul\":5181:5293   */\n    tag_301:\n        /* \"#utility.yul\":5302:5343   */\n      tag_303\n        /* \"#utility.yul\":5336:5342   */\n      dup5\n        /* \"#utility.yul\":5331:5334   */\n      dup3\n        /* \"#utility.yul\":5326:5329   */\n      dup6\n        /* \"#utility.yul\":5302:5343   */\n      tag_206\n      jump\t// in\n    tag_303:\n        /* \"#utility.yul\":5021:5349   */\n      pop\n        /* \"#utility.yul\":4937:5349   */\n      swap4\n      swap3\n      pop\n      pop\n      pop\n      jump\t// out\n        /* \"#utility.yul\":5369:5709   */\n    tag_208:\n        /* \"#utility.yul\":5425:5430   */\n      0x00\n        /* \"#utility.yul\":5474:5477   */\n      dup3\n        /* \"#utility.yul\":5467:5471   */\n      0x1f\n        /* \"#utility.yul\":5459:5465   */\n      dup4\n        /* \"#utility.yul\":5455:5472   */\n      add\n        /* \"#utility.yul\":5451:5478   */\n      slt\n        /* \"#utility.yul\":5441:5563   */\n      tag_305\n      jumpi\n        /* \"#utility.yul\":5482:5561   */\n      tag_306\n      tag_200\n      jump\t// in\n    tag_306:\n        /* \"#utility.yul\":5441:5563   */\n    tag_305:\n        /* \"#utility.yul\":5599:5605   */\n      dup2\n        /* \"#utility.yul\":5586:5606   */\n      calldataload\n        /* \"#utility.yul\":5624:5703   */\n      tag_307\n        /* \"#utility.yul\":5699:5702   */\n      dup5\n        /* \"#utility.yul\":5691:5697   */\n      dup3\n        /* \"#utility.yul\":5684:5688   */\n      0x20\n        /* \"#utility.yul\":5676:5682   */\n      dup7\n        /* \"#utility.yul\":5672:5689   */\n      add\n        /* \"#utility.yul\":5624:5703   */\n      tag_207\n      jump\t// in\n    tag_307:\n        /* \"#utility.yul\":5615:5703   */\n      swap2\n      pop\n        /* \"#utility.yul\":5431:5709   */\n      pop\n        /* \"#utility.yul\":5369:5709   */\n      swap3\n      swap2\n      pop\n      pop\n      jump\t// out\n        /* \"#utility.yul\":5715:5804   */\n    tag_209:\n        /* \"#utility.yul\":5751:5758   */\n      0x00\n        /* \"#utility.yul\":5791:5797   */\n      0xffff\n        /* \"#utility.yul\":5784:5789   */\n      dup3\n        /* \"#utility.yul\":5780:5798   */\n      and\n        /* \"#utility.yul\":5769:5798   */\n      swap1\n      pop\n        /* \"#utility.yul\":5715:5804   */\n      swap2\n      swap1\n      pop\n      jump\t// out\n        /* \"#utility.yul\":5810:5930   */\n    tag_210:\n        /* \"#utility.yul\":5882:5905   */\n      tag_310\n        /* \"#utility.yul\":5899:5904   */\n      dup2\n        /* \"#utility.yul\":5882:5905   */\n      tag_209\n      jump\t// in\n    tag_310:\n        /* \"#utility.yul\":5875:5880   */\n      dup2\n        /* \"#utility.yul\":5872:5906   */\n      eq\n        /* \"#utility.yul\":5862:5924   */\n      tag_311\n      jumpi\n        /* \"#utility.yul\":5920:5921   */\n      0x00\n        /* \"#utility.yul\":5917:5918   */\n      dup1\n        /* \"#utility.yul\":5910:5922   */\n      revert\n        /* \"#utility.yul\":5862:5924   */\n    tag_311:\n        /* \"#utility.yul\":5810:5930   */\n      pop\n      jump\t// out\n        /* \"#utility.yul\":5936:6073   */\n    tag_211:\n        /* \"#utility.yul\":5981:5986   */\n      0x00\n        /* \"#utility.yul\":6019:6025   */\n      dup2\n        /* \"#utility.yul\":6006:6026   */\n      calldataload\n        /* \"#utility.yul\":5997:6026   */\n      swap1\n      pop\n        /* \"#utility.yul\":6035:6067   */\n      tag_313\n        /* \"#utility.yul\":6061:6066   */\n      dup2\n        /* \"#utility.yul\":6035:6067   */\n      tag_210\n      jump\t// in\n    tag_313:\n        /* \"#utility.yul\":5936:6073   */\n      swap3\n      swap2\n      pop\n      pop\n      jump\t// out\n        /* \"#utility.yul\":6079:6165   */\n    tag_212:\n        /* \"#utility.yul\":6114:6121   */\n      0x00\n        /* \"#utility.yul\":6154:6158   */\n      0xff\n        /* \"#utility.yul\":6147:6152   */\n      dup3\n        /* \"#utility.yul\":6143:6159   */\n      and\n        /* \"#utility.yul\":6132:6159   */\n      swap1\n      pop\n        /* \"#utility.yul\":6079:6165   */\n      swap2\n      swap1\n      pop\n      jump\t// out\n        /* \"#utility.yul\":6171:6289   */\n    tag_213:\n        /* \"#utility.yul\":6242:6264   */\n      tag_316\n        /* \"#utility.yul\":6258:6263   */\n      dup2\n        /* \"#utility.yul\":6242:6264   */\n      tag_212\n      jump\t// in\n    tag_316:\n        /* \"#utility.yul\":6235:6240   */\n      dup2\n        /* \"#utility.yul\":6232:6265   */\n      eq\n        /* \"#utility.yul\":6222:6283   */\n      tag_317\n      jumpi\n        /* \"#utility.yul\":6279:6280   */\n      0x00\n        /* \"#utility.yul\":6276:6277   */\n      dup1\n        /* \"#utility.yul\":6269:6281   */\n      revert\n        /* \"#utility.yul\":6222:6283   */\n    tag_317:\n        /* \"#utility.yul\":6171:6289   */\n      pop\n      jump\t// out\n        /* \"#utility.yul\":6295:6430   */\n    tag_214:\n        /* \"#utility.yul\":6339:6344   */\n      0x00\n        /* \"#utility.yul\":6377:6383   */\n      dup2\n        /* \"#utility.yul\":6364:6384   */\n      calldataload\n        /* \"#utility.yul\":6355:6384   */\n      swap1\n      pop\n        /* \"#utility.yul\":6393:6424   */\n      tag_319\n        /* \"#utility.yul\":6418:6423   */\n      dup2\n        /* \"#utility.yul\":6393:6424   */\n      tag_213\n      jump\t// in\n    tag_319:\n        /* \"#utility.yul\":6295:6430   */\n      swap3\n      swap2\n      pop\n      pop\n      jump\t// out\n        /* \"#utility.yul\":6436:9477   */\n    tag_31:\n        /* \"#utility.yul\":6651:6657   */\n      0x00\n        /* \"#utility.yul\":6659:6665   */\n      dup1\n        /* \"#utility.yul\":6667:6673   */\n      0x00\n        /* \"#utility.yul\":6675:6681   */\n      dup1\n        /* \"#utility.yul\":6683:6689   */\n      0x00\n        /* \"#utility.yul\":6691:6697   */\n      dup1\n        /* \"#utility.yul\":6699:6705   */\n      0x00\n        /* \"#utility.yul\":6707:6713   */\n      dup1\n        /* \"#utility.yul\":6715:6721   */\n      0x00\n        /* \"#utility.yul\":6723:6729   */\n      dup1\n        /* \"#utility.yul\":6731:6738   */\n      0x00\n        /* \"#utility.yul\":6781:6784   */\n      0x0160\n        /* \"#utility.yul\":6769:6778   */\n      dup13\n        /* \"#utility.yul\":6760:6767   */\n      dup15\n        /* \"#utility.yul\":6756:6779   */\n      sub\n        /* \"#utility.yul\":6752:6785   */\n      slt\n        /* \"#utility.yul\":6749:6869   */\n      iszero\n      tag_321\n      jumpi\n        /* \"#utility.yul\":6788:6867   */\n      tag_322\n      tag_187\n      jump\t// in\n    tag_322:\n        /* \"#utility.yul\":6749:6869   */\n    tag_321:\n        /* \"#utility.yul\":6936:6937   */\n      0x00\n        /* \"#utility.yul\":6925:6934   */\n      dup13\n        /* \"#utility.yul\":6921:6938   */\n      add\n        /* \"#utility.yul\":6908:6939   */\n      calldataload\n        /* \"#utility.yul\":6966:6984   */\n      0xffffffffffffffff\n        /* \"#utility.yul\":6958:6964   */\n      dup2\n        /* \"#utility.yul\":6955:6985   */\n      gt\n        /* \"#utility.yul\":6952:7069   */\n      iszero\n      tag_323\n      jumpi\n        /* \"#utility.yul\":6988:7067   */\n      tag_324\n      tag_188\n      jump\t// in\n    tag_324:\n        /* \"#utility.yul\":6952:7069   */\n    tag_323:\n        /* \"#utility.yul\":7093:7156   */\n      tag_325\n        /* \"#utility.yul\":7148:7155   */\n      dup15\n        /* \"#utility.yul\":7139:7145   */\n      dup3\n        /* \"#utility.yul\":7128:7137   */\n      dup16\n        /* \"#utility.yul\":7124:7146   */\n      add\n        /* \"#utility.yul\":7093:7156   */\n      tag_208\n      jump\t// in\n    tag_325:\n        /* \"#utility.yul\":7083:7156   */\n      swap12\n      pop\n        /* \"#utility.yul\":6879:7166   */\n      pop\n        /* \"#utility.yul\":7233:7235   */\n      0x20\n        /* \"#utility.yul\":7222:7231   */\n      dup13\n        /* \"#utility.yul\":7218:7236   */\n      add\n        /* \"#utility.yul\":7205:7237   */\n      calldataload\n        /* \"#utility.yul\":7264:7282   */\n      0xffffffffffffffff\n        /* \"#utility.yul\":7256:7262   */\n      dup2\n        /* \"#utility.yul\":7253:7283   */\n      gt\n        /* \"#utility.yul\":7250:7367   */\n      iszero\n      tag_326\n      jumpi\n        /* \"#utility.yul\":7286:7365   */\n      tag_327\n      tag_188\n      jump\t// in\n    tag_327:\n        /* \"#utility.yul\":7250:7367   */\n    tag_326:\n        /* \"#utility.yul\":7391:7454   */\n      tag_328\n        /* \"#utility.yul\":7446:7453   */\n      dup15\n        /* \"#utility.yul\":7437:7443   */\n      dup3\n        /* \"#utility.yul\":7426:7435   */\n      dup16\n        /* \"#utility.yul\":7422:7444   */\n      add\n        /* \"#utility.yul\":7391:7454   */\n      tag_208\n      jump\t// in\n    tag_328:\n        /* \"#utility.yul\":7381:7454   */\n      swap11\n      pop\n        /* \"#utility.yul\":7176:7464   */\n      pop\n        /* \"#utility.yul\":7531:7533   */\n      0x40\n        /* \"#utility.yul\":7520:7529   */\n      dup13\n        /* \"#utility.yul\":7516:7534   */\n      add\n        /* \"#utility.yul\":7503:7535   */\n      calldataload\n        /* \"#utility.yul\":7562:7580   */\n      0xffffffffffffffff\n        /* \"#utility.yul\":7554:7560   */\n      dup2\n        /* \"#utility.yul\":7551:7581   */\n      gt\n        /* \"#utility.yul\":7548:7665   */\n      iszero\n      tag_329\n      jumpi\n        /* \"#utility.yul\":7584:7663   */\n      tag_330\n      tag_188\n      jump\t// in\n    tag_330:\n        /* \"#utility.yul\":7548:7665   */\n    tag_329:\n        /* \"#utility.yul\":7689:7752   */\n      tag_331\n        /* \"#utility.yul\":7744:7751   */\n      dup15\n        /* \"#utility.yul\":7735:7741   */\n      dup3\n        /* \"#utility.yul\":7724:7733   */\n      dup16\n        /* \"#utility.yul\":7720:7742   */\n      add\n        /* \"#utility.yul\":7689:7752   */\n      tag_208\n      jump\t// in\n    tag_331:\n        /* \"#utility.yul\":7679:7752   */\n      swap10\n      pop\n        /* \"#utility.yul\":7474:7762   */\n      pop\n        /* \"#utility.yul\":7829:7831   */\n      0x60\n        /* \"#utility.yul\":7818:7827   */\n      dup13\n        /* \"#utility.yul\":7814:7832   */\n      add\n        /* \"#utility.yul\":7801:7833   */\n      calldataload\n        /* \"#utility.yul\":7860:7878   */\n      0xffffffffffffffff\n        /* \"#utility.yul\":7852:7858   */\n      dup2\n        /* \"#utility.yul\":7849:7879   */\n      gt\n        /* \"#utility.yul\":7846:7963   */\n      iszero\n      tag_332\n      jumpi\n        /* \"#utility.yul\":7882:7961   */\n      tag_333\n      tag_188\n      jump\t// in\n    tag_333:\n        /* \"#utility.yul\":7846:7963   */\n    tag_332:\n        /* \"#utility.yul\":7987:8050   */\n      tag_334\n        /* \"#utility.yul\":8042:8049   */\n      dup15\n        /* \"#utility.yul\":8033:8039   */\n      dup3\n        /* \"#utility.yul\":8022:8031   */\n      dup16\n        /* \"#utility.yul\":8018:8040   */\n      add\n        /* \"#utility.yul\":7987:8050   */\n      tag_208\n      jump\t// in\n    tag_334:\n        /* \"#utility.yul\":7977:8050   */\n      swap9\n      pop\n        /* \"#utility.yul\":7772:8060   */\n      pop\n        /* \"#utility.yul\":8127:8130   */\n      0x80\n        /* \"#utility.yul\":8116:8125   */\n      dup13\n        /* \"#utility.yul\":8112:8131   */\n      add\n        /* \"#utility.yul\":8099:8132   */\n      calldataload\n        /* \"#utility.yul\":8159:8177   */\n      0xffffffffffffffff\n        /* \"#utility.yul\":8151:8157   */\n      dup2\n        /* \"#utility.yul\":8148:8178   */\n      gt\n        /* \"#utility.yul\":8145:8262   */\n      iszero\n      tag_335\n      jumpi\n        /* \"#utility.yul\":8181:8260   */\n      tag_336\n      tag_188\n      jump\t// in\n    tag_336:\n        /* \"#utility.yul\":8145:8262   */\n    tag_335:\n        /* \"#utility.yul\":8286:8349   */\n      tag_337\n        /* \"#utility.yul\":8341:8348   */\n      dup15\n        /* \"#utility.yul\":8332:8338   */\n      dup3\n        /* \"#utility.yul\":8321:8330   */\n      dup16\n        /* \"#utility.yul\":8317:8339   */\n      add\n        /* \"#utility.yul\":8286:8349   */\n      tag_208\n      jump\t// in\n    tag_337:\n        /* \"#utility.yul\":8276:8349   */\n      swap8\n      pop\n        /* \"#utility.yul\":8070:8359   */\n      pop\n        /* \"#utility.yul\":8426:8429   */\n      0xa0\n        /* \"#utility.yul\":8415:8424   */\n      dup13\n        /* \"#utility.yul\":8411:8430   */\n      add\n        /* \"#utility.yul\":8398:8431   */\n      calldataload\n        /* \"#utility.yul\":8458:8476   */\n      0xffffffffffffffff\n        /* \"#utility.yul\":8450:8456   */\n      dup2\n        /* \"#utility.yul\":8447:8477   */\n      gt\n        /* \"#utility.yul\":8444:8561   */\n      iszero\n      tag_338\n      jumpi\n        /* \"#utility.yul\":8480:8559   */\n      tag_339\n      tag_188\n      jump\t// in\n    tag_339:\n        /* \"#utility.yul\":8444:8561   */\n    tag_338:\n        /* \"#utility.yul\":8585:8648   */\n      tag_340\n        /* \"#utility.yul\":8640:8647   */\n      dup15\n        /* \"#utility.yul\":8631:8637   */\n      dup3\n        /* \"#utility.yul\":8620:8629   */\n      dup16\n        /* \"#utility.yul\":8616:8638   */\n      add\n        /* \"#utility.yul\":8585:8648   */\n      tag_208\n      jump\t// in\n    tag_340:\n        /* \"#utility.yul\":8575:8648   */\n      swap7\n      pop\n        /* \"#utility.yul\":8369:8658   */\n      pop\n        /* \"#utility.yul\":8725:8728   */\n      0xc0\n        /* \"#utility.yul\":8714:8723   */\n      dup13\n        /* \"#utility.yul\":8710:8729   */\n      add\n        /* \"#utility.yul\":8697:8730   */\n      calldataload\n        /* \"#utility.yul\":8757:8775   */\n      0xffffffffffffffff\n        /* \"#utility.yul\":8749:8755   */\n      dup2\n        /* \"#utility.yul\":8746:8776   */\n      gt\n        /* \"#utility.yul\":8743:8860   */\n      iszero\n      tag_341\n      jumpi\n        /* \"#utility.yul\":8779:8858   */\n      tag_342\n      tag_188\n      jump\t// in\n    tag_342:\n        /* \"#utility.yul\":8743:8860   */\n    tag_341:\n        /* \"#utility.yul\":8884:8947   */\n      tag_343\n        /* \"#utility.yul\":8939:8946   */\n      dup15\n        /* \"#utility.yul\":8930:8936   */\n      dup3\n        /* \"#utility.yul\":8919:8928   */\n      dup16\n        /* \"#utility.yul\":8915:8937   */\n      add\n        /* \"#utility.yul\":8884:8947   */\n      tag_208\n      jump\t// in\n    tag_343:\n        /* \"#utility.yul\":8874:8947   */\n      swap6\n      pop\n        /* \"#utility.yul\":8668:8957   */\n      pop\n        /* \"#utility.yul\":8996:8999   */\n      0xe0\n        /* \"#utility.yul\":9023:9075   */\n      tag_344\n        /* \"#utility.yul\":9067:9074   */\n      dup15\n        /* \"#utility.yul\":9058:9064   */\n      dup3\n        /* \"#utility.yul\":9047:9056   */\n      dup16\n        /* \"#utility.yul\":9043:9065   */\n      add\n        /* \"#utility.yul\":9023:9075   */\n      tag_211\n      jump\t// in\n    tag_344:\n        /* \"#utility.yul\":9013:9075   */\n      swap5\n      pop\n        /* \"#utility.yul\":8967:9085   */\n      pop\n        /* \"#utility.yul\":9124:9127   */\n      0x0100\n        /* \"#utility.yul\":9151:9203   */\n      tag_345\n        /* \"#utility.yul\":9195:9202   */\n      dup15\n        /* \"#utility.yul\":9186:9192   */\n      dup3\n        /* \"#utility.yul\":9175:9184   */\n      dup16\n        /* \"#utility.yul\":9171:9193   */\n      add\n        /* \"#utility.yul\":9151:9203   */\n      tag_211\n      jump\t// in\n    tag_345:\n        /* \"#utility.yul\":9141:9203   */\n      swap4\n      pop\n        /* \"#utility.yul\":9095:9213   */\n      pop\n        /* \"#utility.yul\":9252:9255   */\n      0x0120\n        /* \"#utility.yul\":9279:9330   */\n      tag_346\n        /* \"#utility.yul\":9322:9329   */\n      dup15\n        /* \"#utility.yul\":9313:9319   */\n      dup3\n        /* \"#utility.yul\":9302:9311   */\n      dup16\n        /* \"#utility.yul\":9298:9320   */\n      add\n        /* \"#utility.yul\":9279:9330   */\n      tag_214\n      jump\t// in\n    tag_346:\n        /* \"#utility.yul\":9269:9330   */\n      swap3\n      pop\n        /* \"#utility.yul\":9223:9340   */\n      pop\n        /* \"#utility.yul\":9379:9382   */\n      0x0140\n        /* \"#utility.yul\":9407:9460   */\n      tag_347\n        /* \"#utility.yul\":9452:9459   */\n      dup15\n        /* \"#utility.yul\":9443:9449   */\n      dup3\n        /* \"#utility.yul\":9432:9441   */\n      dup16\n        /* \"#utility.yul\":9428:9450   */\n      add\n        /* \"#utility.yul\":9407:9460   */\n      tag_192\n      jump\t// in\n    tag_347:\n        /* \"#utility.yul\":9396:9460   */\n      swap2\n      pop\n        /* \"#utility.yul\":9350:9470   */\n      pop\n        /* \"#utility.yul\":6436:9477   */\n      swap3\n      swap6\n      swap9\n      swap12\n      pop\n      swap3\n      swap6\n      swap9\n      swap12\n      swap1\n      swap4\n      swap7\n      swap10\n      pop\n      jump\t// out\n        /* \"#utility.yul\":9483:9633   */\n    tag_215:\n        /* \"#utility.yul\":9520:9527   */\n      0x00\n        /* \"#utility.yul\":9560:9626   */\n      0xffffffffffffffffffffffffffffffff00000000000000000000000000000000\n        /* \"#utility.yul\":9553:9558   */\n      dup3\n        /* \"#utility.yul\":9549:9627   */\n      and\n        /* \"#utility.yul\":9538:9627   */\n      swap1\n      pop\n        /* \"#utility.yul\":9483:9633   */\n      swap2\n      swap1\n      pop\n      jump\t// out\n        /* \"#utility.yul\":9639:9757   */\n    tag_216:\n        /* \"#utility.yul\":9726:9750   */\n      tag_350\n        /* \"#utility.yul\":9744:9749   */\n      dup2\n        /* \"#utility.yul\":9726:9750   */\n      tag_215\n      jump\t// in\n    tag_350:\n        /* \"#utility.yul\":9721:9724   */\n      dup3\n        /* \"#utility.yul\":9714:9751   */\n      mstore\n        /* \"#utility.yul\":9639:9757   */\n      pop\n      pop\n      jump\t// out\n        /* \"#utility.yul\":9763:9878   */\n    tag_217:\n        /* \"#utility.yul\":9848:9871   */\n      tag_352\n        /* \"#utility.yul\":9865:9870   */\n      dup2\n        /* \"#utility.yul\":9848:9871   */\n      tag_209\n      jump\t// in\n    tag_352:\n        /* \"#utility.yul\":9843:9846   */\n      dup3\n        /* \"#utility.yul\":9836:9872   */\n      mstore\n        /* \"#utility.yul\":9763:9878   */\n      pop\n      pop\n      jump\t// out\n        /* \"#utility.yul\":9884:10064   */\n    tag_91:\n        /* \"#utility.yul\":9932:10009   */\n      0x4e487b7100000000000000000000000000000000000000000000000000000000\n        /* \"#utility.yul\":9929:9930   */\n      0x00\n        /* \"#utility.yul\":9922:10010   */\n      mstore\n        /* \"#utility.yul\":10029:10033   */\n      0x21\n        /* \"#utility.yul\":10026:10027   */\n      0x04\n        /* \"#utility.yul\":10019:10034   */\n      mstore\n        /* \"#utility.yul\":10053:10057   */\n      0x24\n        /* \"#utility.yul\":10050:10051   */\n      0x00\n        /* \"#utility.yul\":10043:10058   */\n      revert\n        /* \"#utility.yul\":10070:10185   */\n    tag_218:\n        /* \"#utility.yul\":10153:10154   */\n      0x03\n        /* \"#utility.yul\":10146:10151   */\n      dup2\n        /* \"#utility.yul\":10143:10155   */\n      lt\n        /* \"#utility.yul\":10133:10179   */\n      tag_355\n      jumpi\n        /* \"#utility.yul\":10159:10177   */\n      tag_356\n      tag_91\n      jump\t// in\n    tag_356:\n        /* \"#utility.yul\":10133:10179   */\n    tag_355:\n        /* \"#utility.yul\":10070:10185   */\n      pop\n      jump\t// out\n        /* \"#utility.yul\":10191:10322   */\n    tag_219:\n        /* \"#utility.yul\":10238:10245   */\n      0x00\n        /* \"#utility.yul\":10267:10272   */\n      dup2\n        /* \"#utility.yul\":10256:10272   */\n      swap1\n      pop\n        /* \"#utility.yul\":10273:10316   */\n      tag_358\n        /* \"#utility.yul\":10310:10315   */\n      dup3\n        /* \"#utility.yul\":10273:10316   */\n      tag_218\n      jump\t// in\n    tag_358:\n        /* \"#utility.yul\":10191:10322   */\n      swap2\n      swap1\n      pop\n      jump\t// out\n        /* \"#utility.yul\":10328:10459   */\n    tag_220:\n        /* \"#utility.yul\":10386:10395   */\n      0x00\n        /* \"#utility.yul\":10419:10453   */\n      tag_360\n        /* \"#utility.yul\":10447:10452   */\n      dup3\n        /* \"#utility.yul\":10419:10453   */\n      tag_219\n      jump\t// in\n    tag_360:\n        /* \"#utility.yul\":10406:10453   */\n      swap1\n      pop\n        /* \"#utility.yul\":10328:10459   */\n      swap2\n      swap1\n      pop\n      jump\t// out\n        /* \"#utility.yul\":10465:10612   */\n    tag_221:\n        /* \"#utility.yul\":10560:10605   */\n      tag_362\n        /* \"#utility.yul\":10599:10604   */\n      dup2\n        /* \"#utility.yul\":10560:10605   */\n      tag_220\n      jump\t// in\n    tag_362:\n        /* \"#utility.yul\":10555:10558   */\n      dup3\n        /* \"#utility.yul\":10548:10606   */\n      mstore\n        /* \"#utility.yul\":10465:10612   */\n      pop\n      pop\n      jump\t// out\n        /* \"#utility.yul\":10618:10708   */\n    tag_222:\n        /* \"#utility.yul\":10652:10659   */\n      0x00\n        /* \"#utility.yul\":10695:10700   */\n      dup2\n        /* \"#utility.yul\":10688:10701   */\n      iszero\n        /* \"#utility.yul\":10681:10702   */\n      iszero\n        /* \"#utility.yul\":10670:10702   */\n      swap1\n      pop\n        /* \"#utility.yul\":10618:10708   */\n      swap2\n      swap1\n      pop\n      jump\t// out\n        /* \"#utility.yul\":10714:10823   */\n    tag_223:\n        /* \"#utility.yul\":10795:10816   */\n      tag_365\n        /* \"#utility.yul\":10810:10815   */\n      dup2\n        /* \"#utility.yul\":10795:10816   */\n      tag_222\n      jump\t// in\n    tag_365:\n        /* \"#utility.yul\":10790:10793   */\n      dup3\n        /* \"#utility.yul\":10783:10817   */\n      mstore\n        /* \"#utility.yul\":10714:10823   */\n      pop\n      pop\n      jump\t// out\n        /* \"#utility.yul\":10829:12430   */\n    tag_37:\n        /* \"#utility.yul\":11261:11265   */\n      0x00\n        /* \"#utility.yul\":11299:11302   */\n      0x0160\n        /* \"#utility.yul\":11288:11297   */\n      dup3\n        /* \"#utility.yul\":11284:11303   */\n      add\n        /* \"#utility.yul\":11276:11303   */\n      swap1\n      pop\n        /* \"#utility.yul\":11313:11384   */\n      tag_367\n        /* \"#utility.yul\":11381:11382   */\n      0x00\n        /* \"#utility.yul\":11370:11379   */\n      dup4\n        /* \"#utility.yul\":11366:11383   */\n      add\n        /* \"#utility.yul\":11357:11363   */\n      dup15\n        /* \"#utility.yul\":11313:11384   */\n      tag_216\n      jump\t// in\n    tag_367:\n        /* \"#utility.yul\":11394:11466   */\n      tag_368\n        /* \"#utility.yul\":11462:11464   */\n      0x20\n        /* \"#utility.yul\":11451:11460   */\n      dup4\n        /* \"#utility.yul\":11447:11465   */\n      add\n        /* \"#utility.yul\":11438:11444   */\n      dup14\n        /* \"#utility.yul\":11394:11466   */\n      tag_216\n      jump\t// in\n    tag_368:\n        /* \"#utility.yul\":11476:11548   */\n      tag_369\n        /* \"#utility.yul\":11544:11546   */\n      0x40\n        /* \"#utility.yul\":11533:11542   */\n      dup4\n        /* \"#utility.yul\":11529:11547   */\n      add\n        /* \"#utility.yul\":11520:11526   */\n      dup13\n        /* \"#utility.yul\":11476:11548   */\n      tag_216\n      jump\t// in\n    tag_369:\n        /* \"#utility.yul\":11595:11604   */\n      dup2\n        /* \"#utility.yul\":11589:11593   */\n      dup2\n        /* \"#utility.yul\":11585:11605   */\n      sub\n        /* \"#utility.yul\":11580:11582   */\n      0x60\n        /* \"#utility.yul\":11569:11578   */\n      dup4\n        /* \"#utility.yul\":11565:11583   */\n      add\n        /* \"#utility.yul\":11558:11606   */\n      mstore\n        /* \"#utility.yul\":11623:11701   */\n      tag_370\n        /* \"#utility.yul\":11696:11700   */\n      dup2\n        /* \"#utility.yul\":11687:11693   */\n      dup12\n        /* \"#utility.yul\":11623:11701   */\n      tag_199\n      jump\t// in\n    tag_370:\n        /* \"#utility.yul\":11615:11701   */\n      swap1\n      pop\n        /* \"#utility.yul\":11749:11758   */\n      dup2\n        /* \"#utility.yul\":11743:11747   */\n      dup2\n        /* \"#utility.yul\":11739:11759   */\n      sub\n        /* \"#utility.yul\":11733:11736   */\n      0x80\n        /* \"#utility.yul\":11722:11731   */\n      dup4\n        /* \"#utility.yul\":11718:11737   */\n      add\n        /* \"#utility.yul\":11711:11760   */\n      mstore\n        /* \"#utility.yul\":11777:11855   */\n      tag_371\n        /* \"#utility.yul\":11850:11854   */\n      dup2\n        /* \"#utility.yul\":11841:11847   */\n      dup11\n        /* \"#utility.yul\":11777:11855   */\n      tag_199\n      jump\t// in\n    tag_371:\n        /* \"#utility.yul\":11769:11855   */\n      swap1\n      pop\n        /* \"#utility.yul\":11865:11938   */\n      tag_372\n        /* \"#utility.yul\":11933:11936   */\n      0xa0\n        /* \"#utility.yul\":11922:11931   */\n      dup4\n        /* \"#utility.yul\":11918:11937   */\n      add\n        /* \"#utility.yul\":11909:11915   */\n      dup10\n        /* \"#utility.yul\":11865:11938   */\n      tag_216\n      jump\t// in\n    tag_372:\n        /* \"#utility.yul\":11986:11995   */\n      dup2\n        /* \"#utility.yul\":11980:11984   */\n      dup2\n        /* \"#utility.yul\":11976:11996   */\n      sub\n        /* \"#utility.yul\":11970:11973   */\n      0xc0\n        /* \"#utility.yul\":11959:11968   */\n      dup4\n        /* \"#utility.yul\":11955:11974   */\n      add\n        /* \"#utility.yul\":11948:11997   */\n      mstore\n        /* \"#utility.yul\":12014:12092   */\n      tag_373\n        /* \"#utility.yul\":12087:12091   */\n      dup2\n        /* \"#utility.yul\":12078:12084   */\n      dup9\n        /* \"#utility.yul\":12014:12092   */\n      tag_199\n      jump\t// in\n    tag_373:\n        /* \"#utility.yul\":12006:12092   */\n      swap1\n      pop\n        /* \"#utility.yul\":12102:12173   */\n      tag_374\n        /* \"#utility.yul\":12168:12171   */\n      0xe0\n        /* \"#utility.yul\":12157:12166   */\n      dup4\n        /* \"#utility.yul\":12153:12172   */\n      add\n        /* \"#utility.yul\":12144:12150   */\n      dup8\n        /* \"#utility.yul\":12102:12173   */\n      tag_217\n      jump\t// in\n    tag_374:\n        /* \"#utility.yul\":12183:12254   */\n      tag_375\n        /* \"#utility.yul\":12249:12252   */\n      0x0100\n        /* \"#utility.yul\":12238:12247   */\n      dup4\n        /* \"#utility.yul\":12234:12253   */\n      add\n        /* \"#utility.yul\":12225:12231   */\n      dup7\n        /* \"#utility.yul\":12183:12254   */\n      tag_217\n      jump\t// in\n    tag_375:\n        /* \"#utility.yul\":12264:12345   */\n      tag_376\n        /* \"#utility.yul\":12340:12343   */\n      0x0120\n        /* \"#utility.yul\":12329:12338   */\n      dup4\n        /* \"#utility.yul\":12325:12344   */\n      add\n        /* \"#utility.yul\":12316:12322   */\n      dup6\n        /* \"#utility.yul\":12264:12345   */\n      tag_221\n      jump\t// in\n    tag_376:\n        /* \"#utility.yul\":12355:12423   */\n      tag_377\n        /* \"#utility.yul\":12418:12421   */\n      0x0140\n        /* \"#utility.yul\":12407:12416   */\n      dup4\n        /* \"#utility.yul\":12403:12422   */\n      add\n        /* \"#utility.yul\":12393:12400   */\n      dup5\n        /* \"#utility.yul\":12355:12423   */\n      tag_223\n      jump\t// in\n    tag_377:\n        /* \"#utility.yul\":10829:12430   */\n      swap13\n      swap12\n      pop\n      pop\n      pop\n      pop\n      pop\n      pop\n      pop\n      pop\n      pop\n      pop\n      pop\n      pop\n      jump\t// out\n        /* \"#utility.yul\":12436:12554   */\n    tag_224:\n        /* \"#utility.yul\":12523:12547   */\n      tag_379\n        /* \"#utility.yul\":12541:12546   */\n      dup2\n        /* \"#utility.yul\":12523:12547   */\n      tag_190\n      jump\t// in\n    tag_379:\n        /* \"#utility.yul\":12518:12521   */\n      dup3\n        /* \"#utility.yul\":12511:12548   */\n      mstore\n        /* \"#utility.yul\":12436:12554   */\n      pop\n      pop\n      jump\t// out\n        /* \"#utility.yul\":12560:12782   */\n    tag_42:\n        /* \"#utility.yul\":12653:12657   */\n      0x00\n        /* \"#utility.yul\":12691:12693   */\n      0x20\n        /* \"#utility.yul\":12680:12689   */\n      dup3\n        /* \"#utility.yul\":12676:12694   */\n      add\n        /* \"#utility.yul\":12668:12694   */\n      swap1\n      pop\n        /* \"#utility.yul\":12704:12775   */\n      tag_381\n        /* \"#utility.yul\":12772:12773   */\n      0x00\n        /* \"#utility.yul\":12761:12770   */\n      dup4\n        /* \"#utility.yul\":12757:12774   */\n      add\n        /* \"#utility.yul\":12748:12754   */\n      dup5\n        /* \"#utility.yul\":12704:12775   */\n      tag_224\n      jump\t// in\n    tag_381:\n        /* \"#utility.yul\":12560:12782   */\n      swap3\n      swap2\n      pop\n      pop\n      jump\t// out\n        /* \"#utility.yul\":12788:12905   */\n    tag_225:\n        /* \"#utility.yul\":12897:12898   */\n      0x00\n        /* \"#utility.yul\":12894:12895   */\n      dup1\n        /* \"#utility.yul\":12887:12899   */\n      revert\n        /* \"#utility.yul\":12911:13028   */\n    tag_226:\n        /* \"#utility.yul\":13020:13021   */\n      0x00\n        /* \"#utility.yul\":13017:13018   */\n      dup1\n        /* \"#utility.yul\":13010:13022   */\n      revert\n        /* \"#utility.yul\":13048:13601   */\n    tag_227:\n        /* \"#utility.yul\":13106:13114   */\n      0x00\n        /* \"#utility.yul\":13116:13122   */\n      dup1\n        /* \"#utility.yul\":13166:13169   */\n      dup4\n        /* \"#utility.yul\":13159:13163   */\n      0x1f\n        /* \"#utility.yul\":13151:13157   */\n      dup5\n        /* \"#utility.yul\":13147:13164   */\n      add\n        /* \"#utility.yul\":13143:13170   */\n      slt\n        /* \"#utility.yul\":13133:13255   */\n      tag_385\n      jumpi\n        /* \"#utility.yul\":13174:13253   */\n      tag_386\n      tag_200\n      jump\t// in\n    tag_386:\n        /* \"#utility.yul\":13133:13255   */\n    tag_385:\n        /* \"#utility.yul\":13287:13293   */\n      dup3\n        /* \"#utility.yul\":13274:13294   */\n      calldataload\n        /* \"#utility.yul\":13264:13294   */\n      swap1\n      pop\n        /* \"#utility.yul\":13317:13335   */\n      0xffffffffffffffff\n        /* \"#utility.yul\":13309:13315   */\n      dup2\n        /* \"#utility.yul\":13306:13336   */\n      gt\n        /* \"#utility.yul\":13303:13420   */\n      iszero\n      tag_387\n      jumpi\n        /* \"#utility.yul\":13339:13418   */\n      tag_388\n      tag_225\n      jump\t// in\n    tag_388:\n        /* \"#utility.yul\":13303:13420   */\n    tag_387:\n        /* \"#utility.yul\":13453:13457   */\n      0x20\n        /* \"#utility.yul\":13445:13451   */\n      dup4\n        /* \"#utility.yul\":13441:13458   */\n      add\n        /* \"#utility.yul\":13429:13458   */\n      swap2\n      pop\n        /* \"#utility.yul\":13507:13510   */\n      dup4\n        /* \"#utility.yul\":13499:13503   */\n      0x01\n        /* \"#utility.yul\":13491:13497   */\n      dup3\n        /* \"#utility.yul\":13487:13504   */\n      mul\n        /* \"#utility.yul\":13477:13485   */\n      dup4\n        /* \"#utility.yul\":13473:13505   */\n      add\n        /* \"#utility.yul\":13470:13511   */\n      gt\n        /* \"#utility.yul\":13467:13595   */\n      iszero\n      tag_389\n      jumpi\n        /* \"#utility.yul\":13514:13593   */\n      tag_390\n      tag_226\n      jump\t// in\n    tag_390:\n        /* \"#utility.yul\":13467:13595   */\n    tag_389:\n        /* \"#utility.yul\":13048:13601   */\n      swap3\n      pop\n      swap3\n      swap1\n      pop\n      jump\t// out\n        /* \"#utility.yul\":13607:14626   */\n    tag_45:\n        /* \"#utility.yul\":13708:13714   */\n      0x00\n        /* \"#utility.yul\":13716:13722   */\n      dup1\n        /* \"#utility.yul\":13724:13730   */\n      0x00\n        /* \"#utility.yul\":13732:13738   */\n      dup1\n        /* \"#utility.yul\":13740:13746   */\n      0x00\n        /* \"#utility.yul\":13789:13791   */\n      0x60\n        /* \"#utility.yul\":13777:13786   */\n      dup7\n        /* \"#utility.yul\":13768:13775   */\n      dup9\n        /* \"#utility.yul\":13764:13787   */\n      sub\n        /* \"#utility.yul\":13760:13792   */\n      slt\n        /* \"#utility.yul\":13757:13876   */\n      iszero\n      tag_392\n      jumpi\n        /* \"#utility.yul\":13795:13874   */\n      tag_393\n      tag_187\n      jump\t// in\n    tag_393:\n        /* \"#utility.yul\":13757:13876   */\n    tag_392:\n        /* \"#utility.yul\":13943:13944   */\n      0x00\n        /* \"#utility.yul\":13932:13941   */\n      dup7\n        /* \"#utility.yul\":13928:13945   */\n      add\n        /* \"#utility.yul\":13915:13946   */\n      calldataload\n        /* \"#utility.yul\":13973:13991   */\n      0xffffffffffffffff\n        /* \"#utility.yul\":13965:13971   */\n      dup2\n        /* \"#utility.yul\":13962:13992   */\n      gt\n        /* \"#utility.yul\":13959:14076   */\n      iszero\n      tag_394\n      jumpi\n        /* \"#utility.yul\":13995:14074   */\n      tag_395\n      tag_188\n      jump\t// in\n    tag_395:\n        /* \"#utility.yul\":13959:14076   */\n    tag_394:\n        /* \"#utility.yul\":14108:14173   */\n      tag_396\n        /* \"#utility.yul\":14165:14172   */\n      dup9\n        /* \"#utility.yul\":14156:14162   */\n      dup3\n        /* \"#utility.yul\":14145:14154   */\n      dup10\n        /* \"#utility.yul\":14141:14163   */\n      add\n        /* \"#utility.yul\":14108:14173   */\n      tag_227\n      jump\t// in\n    tag_396:\n        /* \"#utility.yul\":14090:14173   */\n      swap6\n      pop\n      swap6\n      pop\n        /* \"#utility.yul\":13886:14183   */\n      pop\n        /* \"#utility.yul\":14250:14252   */\n      0x20\n        /* \"#utility.yul\":14239:14248   */\n      dup7\n        /* \"#utility.yul\":14235:14253   */\n      add\n        /* \"#utility.yul\":14222:14254   */\n      calldataload\n        /* \"#utility.yul\":14281:14299   */\n      0xffffffffffffffff\n        /* \"#utility.yul\":14273:14279   */\n      dup2\n        /* \"#utility.yul\":14270:14300   */\n      gt\n        /* \"#utility.yul\":14267:14384   */\n      iszero\n      tag_397\n      jumpi\n        /* \"#utility.yul\":14303:14382   */\n      tag_398\n      tag_188\n      jump\t// in\n    tag_398:\n        /* \"#utility.yul\":14267:14384   */\n    tag_397:\n        /* \"#utility.yul\":14416:14481   */\n      tag_399\n        /* \"#utility.yul\":14473:14480   */\n      dup9\n        /* \"#utility.yul\":14464:14470   */\n      dup3\n        /* \"#utility.yul\":14453:14462   */\n      dup10\n        /* \"#utility.yul\":14449:14471   */\n      add\n        /* \"#utility.yul\":14416:14481   */\n      tag_227\n      jump\t// in\n    tag_399:\n        /* \"#utility.yul\":14398:14481   */\n      swap4\n      pop\n      swap4\n      pop\n        /* \"#utility.yul\":14193:14491   */\n      pop\n        /* \"#utility.yul\":14530:14532   */\n      0x40\n        /* \"#utility.yul\":14556:14609   */\n      tag_400\n        /* \"#utility.yul\":14601:14608   */\n      dup9\n        /* \"#utility.yul\":14592:14598   */\n      dup3\n        /* \"#utility.yul\":14581:14590   */\n      dup10\n        /* \"#utility.yul\":14577:14599   */\n      add\n        /* \"#utility.yul\":14556:14609   */\n      tag_192\n      jump\t// in\n    tag_400:\n        /* \"#utility.yul\":14546:14609   */\n      swap2\n      pop\n        /* \"#utility.yul\":14501:14619   */\n      pop\n        /* \"#utility.yul\":13607:14626   */\n      swap3\n      swap6\n      pop\n      swap3\n      swap6\n      swap1\n      swap4\n      pop\n      jump\t// out\n        /* \"#utility.yul\":14632:15161   */\n    tag_52:\n        /* \"#utility.yul\":14703:14709   */\n      0x00\n        /* \"#utility.yul\":14711:14717   */\n      dup1\n        /* \"#utility.yul\":14760:14762   */\n      0x20\n        /* \"#utility.yul\":14748:14757   */\n      dup4\n        /* \"#utility.yul\":14739:14746   */\n      dup6\n        /* \"#utility.yul\":14735:14758   */\n      sub\n        /* \"#utility.yul\":14731:14763   */\n      slt\n        /* \"#utility.yul\":14728:14847   */\n      iszero\n      tag_402\n      jumpi\n        /* \"#utility.yul\":14766:14845   */\n      tag_403\n      tag_187\n      jump\t// in\n    tag_403:\n        /* \"#utility.yul\":14728:14847   */\n    tag_402:\n        /* \"#utility.yul\":14914:14915   */\n      0x00\n        /* \"#utility.yul\":14903:14912   */\n      dup4\n        /* \"#utility.yul\":14899:14916   */\n      add\n        /* \"#utility.yul\":14886:14917   */\n      calldataload\n        /* \"#utility.yul\":14944:14962   */\n      0xffffffffffffffff\n        /* \"#utility.yul\":14936:14942   */\n      dup2\n        /* \"#utility.yul\":14933:14963   */\n      gt\n        /* \"#utility.yul\":14930:15047   */\n      iszero\n      tag_404\n      jumpi\n        /* \"#utility.yul\":14966:15045   */\n      tag_405\n      tag_188\n      jump\t// in\n    tag_405:\n        /* \"#utility.yul\":14930:15047   */\n    tag_404:\n        /* \"#utility.yul\":15079:15144   */\n      tag_406\n        /* \"#utility.yul\":15136:15143   */\n      dup6\n        /* \"#utility.yul\":15127:15133   */\n      dup3\n        /* \"#utility.yul\":15116:15125   */\n      dup7\n        /* \"#utility.yul\":15112:15134   */\n      add\n        /* \"#utility.yul\":15079:15144   */\n      tag_227\n      jump\t// in\n    tag_406:\n        /* \"#utility.yul\":15061:15144   */\n      swap3\n      pop\n      swap3\n      pop\n        /* \"#utility.yul\":14857:15154   */\n      pop\n        /* \"#utility.yul\":14632:15161   */\n      swap3\n      pop\n      swap3\n      swap1\n      pop\n      jump\t// out\n        /* \"#utility.yul\":15167:15377   */\n    tag_55:\n        /* \"#utility.yul\":15254:15258   */\n      0x00\n        /* \"#utility.yul\":15292:15294   */\n      0x20\n        /* \"#utility.yul\":15281:15290   */\n      dup3\n        /* \"#utility.yul\":15277:15295   */\n      add\n        /* \"#utility.yul\":15269:15295   */\n      swap1\n      pop\n        /* \"#utility.yul\":15305:15370   */\n      tag_408\n        /* \"#utility.yul\":15367:15368   */\n      0x00\n        /* \"#utility.yul\":15356:15365   */\n      dup4\n        /* \"#utility.yul\":15352:15369   */\n      add\n        /* \"#utility.yul\":15343:15349   */\n      dup5\n        /* \"#utility.yul\":15305:15370   */\n      tag_223\n      jump\t// in\n    tag_408:\n        /* \"#utility.yul\":15167:15377   */\n      swap3\n      swap2\n      pop\n      pop\n      jump\t// out\n        /* \"#utility.yul\":15383:16015   */\n    tag_64:\n        /* \"#utility.yul\":15574:15578   */\n      0x00\n        /* \"#utility.yul\":15612:15615   */\n      0x80\n        /* \"#utility.yul\":15601:15610   */\n      dup3\n        /* \"#utility.yul\":15597:15616   */\n      add\n        /* \"#utility.yul\":15589:15616   */\n      swap1\n      pop\n        /* \"#utility.yul\":15662:15671   */\n      dup2\n        /* \"#utility.yul\":15656:15660   */\n      dup2\n        /* \"#utility.yul\":15652:15672   */\n      sub\n        /* \"#utility.yul\":15648:15649   */\n      0x00\n        /* \"#utility.yul\":15637:15646   */\n      dup4\n        /* \"#utility.yul\":15633:15650   */\n      add\n        /* \"#utility.yul\":15626:15673   */\n      mstore\n        /* \"#utility.yul\":15690:15768   */\n      tag_410\n        /* \"#utility.yul\":15763:15767   */\n      dup2\n        /* \"#utility.yul\":15754:15760   */\n      dup8\n        /* \"#utility.yul\":15690:15768   */\n      tag_199\n      jump\t// in\n    tag_410:\n        /* \"#utility.yul\":15682:15768   */\n      swap1\n      pop\n        /* \"#utility.yul\":15778:15850   */\n      tag_411\n        /* \"#utility.yul\":15846:15848   */\n      0x20\n        /* \"#utility.yul\":15835:15844   */\n      dup4\n        /* \"#utility.yul\":15831:15849   */\n      add\n        /* \"#utility.yul\":15822:15828   */\n      dup7\n        /* \"#utility.yul\":15778:15850   */\n      tag_224\n      jump\t// in\n    tag_411:\n        /* \"#utility.yul\":15860:15932   */\n      tag_412\n        /* \"#utility.yul\":15928:15930   */\n      0x40\n        /* \"#utility.yul\":15917:15926   */\n      dup4\n        /* \"#utility.yul\":15913:15931   */\n      add\n        /* \"#utility.yul\":15904:15910   */\n      dup6\n        /* \"#utility.yul\":15860:15932   */\n      tag_224\n      jump\t// in\n    tag_412:\n        /* \"#utility.yul\":15942:16008   */\n      tag_413\n        /* \"#utility.yul\":16004:16006   */\n      0x60\n        /* \"#utility.yul\":15993:16002   */\n      dup4\n        /* \"#utility.yul\":15989:16007   */\n      add\n        /* \"#utility.yul\":15980:15986   */\n      dup5\n        /* \"#utility.yul\":15942:16008   */\n      tag_223\n      jump\t// in\n    tag_413:\n        /* \"#utility.yul\":15383:16015   */\n      swap6\n      swap5\n      pop\n      pop\n      pop\n      pop\n      pop\n      jump\t// out\n        /* \"#utility.yul\":16021:16201   */\n    tag_228:\n        /* \"#utility.yul\":16069:16146   */\n      0x4e487b7100000000000000000000000000000000000000000000000000000000\n        /* \"#utility.yul\":16066:16067   */\n      0x00\n        /* \"#utility.yul\":16059:16147   */\n      mstore\n        /* \"#utility.yul\":16166:16170   */\n      0x22\n        /* \"#utility.yul\":16163:16164   */\n      0x04\n        /* \"#utility.yul\":16156:16171   */\n      mstore\n        /* \"#utility.yul\":16190:16194   */\n      0x24\n        /* \"#utility.yul\":16187:16188   */\n      0x00\n        /* \"#utility.yul\":16180:16195   */\n      revert\n        /* \"#utility.yul\":16207:16527   */\n    tag_73:\n        /* \"#utility.yul\":16251:16257   */\n      0x00\n        /* \"#utility.yul\":16288:16289   */\n      0x02\n        /* \"#utility.yul\":16282:16286   */\n      dup3\n        /* \"#utility.yul\":16278:16290   */\n      div\n        /* \"#utility.yul\":16268:16290   */\n      swap1\n      pop\n        /* \"#utility.yul\":16335:16336   */\n      0x01\n        /* \"#utility.yul\":16329:16333   */\n      dup3\n        /* \"#utility.yul\":16325:16337   */\n      and\n        /* \"#utility.yul\":16356:16374   */\n      dup1\n        /* \"#utility.yul\":16346:16427   */\n      tag_416\n      jumpi\n        /* \"#utility.yul\":16412:16416   */\n      0x7f\n        /* \"#utility.yul\":16404:16410   */\n      dup3\n        /* \"#utility.yul\":16400:16417   */\n      and\n        /* \"#utility.yul\":16390:16417   */\n      swap2\n      pop\n        /* \"#utility.yul\":16346:16427   */\n    tag_416:\n        /* \"#utility.yul\":16474:16476   */\n      0x20\n        /* \"#utility.yul\":16466:16472   */\n      dup3\n        /* \"#utility.yul\":16463:16477   */\n      lt\n        /* \"#utility.yul\":16443:16461   */\n      dup2\n        /* \"#utility.yul\":16440:16478   */\n      eq\n        /* \"#utility.yul\":16437:16521   */\n      iszero\n      tag_417\n      jumpi\n        /* \"#utility.yul\":16493:16511   */\n      tag_418\n      tag_228\n      jump\t// in\n    tag_418:\n        /* \"#utility.yul\":16437:16521   */\n    tag_417:\n        /* \"#utility.yul\":16258:16527   */\n      pop\n        /* \"#utility.yul\":16207:16527   */\n      swap2\n      swap1\n      pop\n      jump\t// out\n        /* \"#utility.yul\":16533:16631   */\n    tag_229:\n        /* \"#utility.yul\":16584:16590   */\n      0x00\n        /* \"#utility.yul\":16618:16623   */\n      dup2\n        /* \"#utility.yul\":16612:16624   */\n      mload\n        /* \"#utility.yul\":16602:16624   */\n      swap1\n      pop\n        /* \"#utility.yul\":16533:16631   */\n      swap2\n      swap1\n      pop\n      jump\t// out\n        /* \"#utility.yul\":16637:16753   */\n    tag_230:\n        /* \"#utility.yul\":16688:16692   */\n      0x00\n        /* \"#utility.yul\":16711:16714   */\n      dup2\n        /* \"#utility.yul\":16703:16714   */\n      swap1\n      pop\n        /* \"#utility.yul\":16741:16745   */\n      0x20\n        /* \"#utility.yul\":16736:16739   */\n      dup3\n        /* \"#utility.yul\":16732:16746   */\n      add\n        /* \"#utility.yul\":16724:16746   */\n      swap1\n      pop\n        /* \"#utility.yul\":16637:16753   */\n      swap2\n      swap1\n      pop\n      jump\t// out\n        /* \"#utility.yul\":16759:16913   */\n    tag_231:\n        /* \"#utility.yul\":16802:16813   */\n      0x00\n        /* \"#utility.yul\":16838:16867   */\n      tag_422\n        /* \"#utility.yul\":16862:16865   */\n      dup3\n        /* \"#utility.yul\":16856:16866   */\n      mload\n        /* \"#utility.yul\":16838:16867   */\n      tag_215\n      jump\t// in\n    tag_422:\n        /* \"#utility.yul\":16901:16906   */\n      dup1\n        /* \"#utility.yul\":16877:16906   */\n      swap2\n      pop\n        /* \"#utility.yul\":16814:16913   */\n      pop\n        /* \"#utility.yul\":16759:16913   */\n      swap2\n      swap1\n      pop\n      jump\t// out\n        /* \"#utility.yul\":16919:17026   */\n    tag_232:\n        /* \"#utility.yul\":16963:16971   */\n      0x00\n        /* \"#utility.yul\":17013:17018   */\n      dup3\n        /* \"#utility.yul\":17007:17011   */\n      dup3\n        /* \"#utility.yul\":17003:17019   */\n      shl\n        /* \"#utility.yul\":16982:17019   */\n      swap1\n      pop\n        /* \"#utility.yul\":16919:17026   */\n      swap3\n      swap2\n      pop\n      pop\n      jump\t// out\n        /* \"#utility.yul\":17032:17626   */\n    tag_80:\n        /* \"#utility.yul\":17116:17121   */\n      0x00\n        /* \"#utility.yul\":17147:17185   */\n      tag_425\n        /* \"#utility.yul\":17179:17184   */\n      dup3\n        /* \"#utility.yul\":17147:17185   */\n      tag_229\n      jump\t// in\n    tag_425:\n        /* \"#utility.yul\":17210:17215   */\n      dup3\n        /* \"#utility.yul\":17237:17277   */\n      tag_426\n        /* \"#utility.yul\":17271:17276   */\n      dup5\n        /* \"#utility.yul\":17237:17277   */\n      tag_230\n      jump\t// in\n    tag_426:\n        /* \"#utility.yul\":17225:17277   */\n      swap1\n      pop\n        /* \"#utility.yul\":17296:17331   */\n      tag_427\n        /* \"#utility.yul\":17322:17330   */\n      dup2\n        /* \"#utility.yul\":17296:17331   */\n      tag_231\n      jump\t// in\n    tag_427:\n        /* \"#utility.yul\":17287:17331   */\n      swap3\n      pop\n        /* \"#utility.yul\":17355:17357   */\n      0x10\n        /* \"#utility.yul\":17347:17353   */\n      dup3\n        /* \"#utility.yul\":17344:17358   */\n      lt\n        /* \"#utility.yul\":17341:17619   */\n      iszero\n      tag_428\n      jumpi\n        /* \"#utility.yul\":17426:17595   */\n      tag_429\n        /* \"#utility.yul\":17511:17577   */\n      0xffffffffffffffffffffffffffffffff00000000000000000000000000000000\n        /* \"#utility.yul\":17481:17487   */\n      dup4\n        /* \"#utility.yul\":17477:17479   */\n      0x10\n        /* \"#utility.yul\":17473:17488   */\n      sub\n        /* \"#utility.yul\":17470:17471   */\n      0x08\n        /* \"#utility.yul\":17466:17489   */\n      mul\n        /* \"#utility.yul\":17426:17595   */\n      tag_232\n      jump\t// in\n    tag_429:\n        /* \"#utility.yul\":17403:17408   */\n      dup4\n        /* \"#utility.yul\":17382:17609   */\n      and\n        /* \"#utility.yul\":17373:17609   */\n      swap3\n      pop\n        /* \"#utility.yul\":17341:17619   */\n    tag_428:\n        /* \"#utility.yul\":17122:17626   */\n      pop\n      pop\n        /* \"#utility.yul\":17032:17626   */\n      swap2\n      swap1\n      pop\n      jump\t// out\n        /* \"#utility.yul\":17632:17780   */\n    tag_233:\n        /* \"#utility.yul\":17734:17745   */\n      0x00\n        /* \"#utility.yul\":17771:17774   */\n      dup2\n        /* \"#utility.yul\":17756:17774   */\n      swap1\n      pop\n        /* \"#utility.yul\":17632:17780   */\n      swap3\n      swap2\n      pop\n      pop\n      jump\t// out\n        /* \"#utility.yul\":17810:18127   */\n    tag_234:\n        /* \"#utility.yul\":17926:17929   */\n      0x00\n        /* \"#utility.yul\":17947:18036   */\n      tag_432\n        /* \"#utility.yul\":18029:18035   */\n      dup4\n        /* \"#utility.yul\":18024:18027   */\n      dup6\n        /* \"#utility.yul\":17947:18036   */\n      tag_233\n      jump\t// in\n    tag_432:\n        /* \"#utility.yul\":17940:18036   */\n      swap4\n      pop\n        /* \"#utility.yul\":18046:18089   */\n      tag_433\n        /* \"#utility.yul\":18082:18088   */\n      dup4\n        /* \"#utility.yul\":18077:18080   */\n      dup6\n        /* \"#utility.yul\":18070:18075   */\n      dup5\n        /* \"#utility.yul\":18046:18089   */\n      tag_206\n      jump\t// in\n    tag_433:\n        /* \"#utility.yul\":18114:18120   */\n      dup3\n        /* \"#utility.yul\":18109:18112   */\n      dup5\n        /* \"#utility.yul\":18105:18121   */\n      add\n        /* \"#utility.yul\":18098:18121   */\n      swap1\n      pop\n        /* \"#utility.yul\":17810:18127   */\n      swap4\n      swap3\n      pop\n      pop\n      pop\n      jump\t// out\n        /* \"#utility.yul\":18133:18428   */\n    tag_132:\n        /* \"#utility.yul\":18275:18278   */\n      0x00\n        /* \"#utility.yul\":18297:18402   */\n      tag_435\n        /* \"#utility.yul\":18398:18401   */\n      dup3\n        /* \"#utility.yul\":18389:18395   */\n      dup5\n        /* \"#utility.yul\":18381:18387   */\n      dup7\n        /* \"#utility.yul\":18297:18402   */\n      tag_234\n      jump\t// in\n    tag_435:\n        /* \"#utility.yul\":18290:18402   */\n      swap2\n      pop\n        /* \"#utility.yul\":18419:18422   */\n      dup2\n        /* \"#utility.yul\":18412:18422   */\n      swap1\n      pop\n        /* \"#utility.yul\":18133:18428   */\n      swap4\n      swap3\n      pop\n      pop\n      pop\n      jump\t// out\n        /* \"#utility.yul\":18434:18614   */\n    tag_235:\n        /* \"#utility.yul\":18482:18559   */\n      0x4e487b7100000000000000000000000000000000000000000000000000000000\n        /* \"#utility.yul\":18479:18480   */\n      0x00\n        /* \"#utility.yul\":18472:18560   */\n      mstore\n        /* \"#utility.yul\":18579:18583   */\n      0x11\n        /* \"#utility.yul\":18576:18577   */\n      0x04\n        /* \"#utility.yul\":18569:18584   */\n      mstore\n        /* \"#utility.yul\":18603:18607   */\n      0x24\n        /* \"#utility.yul\":18600:18601   */\n      0x00\n        /* \"#utility.yul\":18593:18608   */\n      revert\n        /* \"#utility.yul\":18620:18853   */\n    tag_137:\n        /* \"#utility.yul\":18659:18662   */\n      0x00\n        /* \"#utility.yul\":18682:18706   */\n      tag_438\n        /* \"#utility.yul\":18700:18705   */\n      dup3\n        /* \"#utility.yul\":18682:18706   */\n      tag_184\n      jump\t// in\n    tag_438:\n        /* \"#utility.yul\":18673:18706   */\n      swap2\n      pop\n        /* \"#utility.yul\":18728:18794   */\n      0xffffffffffffffffffffffffffffffffffffffffffffffffffffffffffffffff\n        /* \"#utility.yul\":18721:18726   */\n      dup3\n        /* \"#utility.yul\":18718:18795   */\n      eq\n        /* \"#utility.yul\":18715:18818   */\n      iszero\n      tag_439\n      jumpi\n        /* \"#utility.yul\":18798:18816   */\n      tag_440\n      tag_235\n      jump\t// in\n    tag_440:\n        /* \"#utility.yul\":18715:18818   */\n    tag_439:\n        /* \"#utility.yul\":18845:18846   */\n      0x01\n        /* \"#utility.yul\":18838:18843   */\n      dup3\n        /* \"#utility.yul\":18834:18847   */\n      add\n        /* \"#utility.yul\":18827:18847   */\n      swap1\n      pop\n        /* \"#utility.yul\":18620:18853   */\n      swap2\n      swap1\n      pop\n      jump\t// out\n        /* \"#utility.yul\":18859:19000   */\n    tag_236:\n        /* \"#utility.yul\":18908:18912   */\n      0x00\n        /* \"#utility.yul\":18931:18934   */\n      dup2\n        /* \"#utility.yul\":18923:18934   */\n      swap1\n      pop\n        /* \"#utility.yul\":18954:18957   */\n      dup2\n        /* \"#utility.yul\":18951:18952   */\n      0x00\n        /* \"#utility.yul\":18944:18958   */\n      mstore\n        /* \"#utility.yul\":18988:18992   */\n      0x20\n        /* \"#utility.yul\":18985:18986   */\n      0x00\n        /* \"#utility.yul\":18975:18993   */\n      keccak256\n        /* \"#utility.yul\":18967:18993   */\n      swap1\n      pop\n        /* \"#utility.yul\":18859:19000   */\n      swap2\n      swap1\n      pop\n      jump\t// out\n        /* \"#utility.yul\":19030:19875   */\n    tag_237:\n        /* \"#utility.yul\":19133:19136   */\n      0x00\n        /* \"#utility.yul\":19170:19175   */\n      dup2\n        /* \"#utility.yul\":19164:19176   */\n      sload\n        /* \"#utility.yul\":19199:19235   */\n      tag_443\n        /* \"#utility.yul\":19225:19234   */\n      dup2\n        /* \"#utility.yul\":19199:19235   */\n      tag_73\n      jump\t// in\n    tag_443:\n        /* \"#utility.yul\":19251:19340   */\n      tag_444\n        /* \"#utility.yul\":19333:19339   */\n      dup2\n        /* \"#utility.yul\":19328:19331   */\n      dup7\n        /* \"#utility.yul\":19251:19340   */\n      tag_233\n      jump\t// in\n    tag_444:\n        /* \"#utility.yul\":19244:19340   */\n      swap5\n      pop\n        /* \"#utility.yul\":19371:19372   */\n      0x01\n        /* \"#utility.yul\":19360:19369   */\n      dup3\n        /* \"#utility.yul\":19356:19373   */\n      and\n        /* \"#utility.yul\":19387:19388   */\n      0x00\n        /* \"#utility.yul\":19382:19519   */\n      dup2\n      eq\n      tag_446\n      jumpi\n        /* \"#utility.yul\":19533:19534   */\n      0x01\n        /* \"#utility.yul\":19528:19869   */\n      dup2\n      eq\n      tag_447\n      jumpi\n        /* \"#utility.yul\":19349:19869   */\n      jump(tag_445)\n        /* \"#utility.yul\":19382:19519   */\n    tag_446:\n        /* \"#utility.yul\":19466:19470   */\n      0xff\n        /* \"#utility.yul\":19462:19471   */\n      not\n        /* \"#utility.yul\":19451:19460   */\n      dup4\n        /* \"#utility.yul\":19447:19472   */\n      and\n        /* \"#utility.yul\":19442:19445   */\n      dup7\n        /* \"#utility.yul\":19435:19473   */\n      mstore\n        /* \"#utility.yul\":19502:19508   */\n      dup2\n        /* \"#utility.yul\":19497:19500   */\n      dup7\n        /* \"#utility.yul\":19493:19509   */\n      add\n        /* \"#utility.yul\":19486:19509   */\n      swap4\n      pop\n        /* \"#utility.yul\":19382:19519   */\n      jump(tag_445)\n        /* \"#utility.yul\":19528:19869   */\n    tag_447:\n        /* \"#utility.yul\":19595:19633   */\n      tag_448\n        /* \"#utility.yul\":19627:19632   */\n      dup6\n        /* \"#utility.yul\":19595:19633   */\n      tag_236\n      jump\t// in\n    tag_448:\n        /* \"#utility.yul\":19655:19656   */\n      0x00\n        /* \"#utility.yul\":19669:19823   */\n    tag_449:\n        /* \"#utility.yul\":19683:19689   */\n      dup4\n        /* \"#utility.yul\":19680:19681   */\n      dup2\n        /* \"#utility.yul\":19677:19690   */\n      lt\n        /* \"#utility.yul\":19669:19823   */\n      iszero\n      tag_451\n      jumpi\n        /* \"#utility.yul\":19757:19764   */\n      dup2\n        /* \"#utility.yul\":19751:19765   */\n      sload\n        /* \"#utility.yul\":19747:19748   */\n      dup2\n        /* \"#utility.yul\":19742:19745   */\n      dup10\n        /* \"#utility.yul\":19738:19749   */\n      add\n        /* \"#utility.yul\":19731:19766   */\n      mstore\n        /* \"#utility.yul\":19807:19808   */\n      0x01\n        /* \"#utility.yul\":19798:19805   */\n      dup3\n        /* \"#utility.yul\":19794:19809   */\n      add\n        /* \"#utility.yul\":19783:19809   */\n      swap2\n      pop\n        /* \"#utility.yul\":19705:19709   */\n      0x20\n        /* \"#utility.yul\":19702:19703   */\n      dup2\n        /* \"#utility.yul\":19698:19710   */\n      add\n        /* \"#utility.yul\":19693:19710   */\n      swap1\n      pop\n        /* \"#utility.yul\":19669:19823   */\n      jump(tag_449)\n    tag_451:\n        /* \"#utility.yul\":19852:19858   */\n      dup4\n        /* \"#utility.yul\":19847:19850   */\n      dup9\n        /* \"#utility.yul\":19843:19859   */\n      add\n        /* \"#utility.yul\":19836:19859   */\n      swap6\n      pop\n        /* \"#utility.yul\":19535:19869   */\n      pop\n      pop\n        /* \"#utility.yul\":19349:19869   */\n    tag_445:\n      pop\n        /* \"#utility.yul\":19137:19875   */\n      pop\n      pop\n        /* \"#utility.yul\":19030:19875   */\n      swap3\n      swap2\n      pop\n      pop\n      jump\t// out\n        /* \"#utility.yul\":19881:20150   */\n    tag_140:\n        /* \"#utility.yul\":20010:20013   */\n      0x00\n        /* \"#utility.yul\":20032:20124   */\n      tag_453\n        /* \"#utility.yul\":20120:20123   */\n      dup3\n        /* \"#utility.yul\":20111:20117   */\n      dup5\n        /* \"#utility.yul\":20032:20124   */\n      tag_237\n      jump\t// in\n    tag_453:\n        /* \"#utility.yul\":20025:20124   */\n      swap2\n      pop\n        /* \"#utility.yul\":20141:20144   */\n      dup2\n        /* \"#utility.yul\":20134:20144   */\n      swap1\n      pop\n        /* \"#utility.yul\":19881:20150   */\n      swap3\n      swap2\n      pop\n      pop\n      jump\t// out\n    stop\n\n    sub_0: assembly {\n            /* \"ElectronicHealthRegistry.sol\":4323:6526  contract HealthRegistry {... */\n          mstore(0x40, 0x80)\n            /* \"ElectronicHealthRegistry.sol\":5090:5153  constructor(address person) {... */\n          callvalue\n          dup1\n          iszero\n          tag_1\n          jumpi\n          0x00\n          dup1\n          revert\n        tag_1:\n          pop\n          mload(0x40)\n          sub(codesize, bytecodeSize)\n          dup1\n          bytecodeSize\n          dup4\n          codecopy\n          dup2\n          dup2\n          add\n          0x40\n          mstore\n          dup2\n          add\n          swap1\n          tag_2\n          swap2\n          swap1\n          tag_3\n          jump\t// in\n        tag_2:\n            /* \"ElectronicHealthRegistry.sol\":5139:5145  person */\n          dup1\n            /* \"ElectronicHealthRegistry.sol\":5129:5136  patient */\n          0x00\n          dup1\n            /* \"ElectronicHealthRegistry.sol\":5129:5145  patient = person */\n          0x0100\n          exp\n          dup2\n          sload\n          dup2\n          0xffffffffffffffffffffffffffffffffffffffff\n          mul\n          not\n          and\n          swap1\n          dup4\n          0xffffffffffffffffffffffffffffffffffffffff\n          and\n          mul\n          or\n          swap1\n          sstore\n          pop\n            /* \"ElectronicHealthRegistry.sol\":5090:5153  constructor(address person) {... */\n          pop\n            /* \"ElectronicHealthRegistry.sol\":4323:6526  contract HealthRegistry {... */\n          jump(tag_6)\n            /* \"#utility.yul\":88:205   */\n        tag_8:\n            /* \"#utility.yul\":197:198   */\n          0x00\n            /* \"#utility.yul\":194:195   */\n          dup1\n            /* \"#utility.yul\":187:199   */\n          revert\n            /* \"#utility.yul\":334:460   */\n        tag_10:\n            /* \"#utility.yul\":371:378   */\n          0x00\n            /* \"#utility.yul\":411:453   */\n          0xffffffffffffffffffffffffffffffffffffffff\n            /* \"#utility.yul\":404:409   */\n          dup3\n            /* \"#utility.yul\":400:454   */\n          and\n            /* \"#utility.yul\":389:454   */\n          swap1\n          pop\n            /* \"#utility.yul\":334:460   */\n          swap2\n          swap1\n          pop\n          jump\t// out\n            /* \"#utility.yul\":466:562   */\n        tag_11:\n            /* \"#utility.yul\":503:510   */\n          0x00\n            /* \"#utility.yul\":532:556   */\n          tag_20\n            /* \"#utility.yul\":550:555   */\n          dup3\n            /* \"#utility.yul\":532:556   */\n          tag_10\n          jump\t// in\n        tag_20:\n            /* \"#utility.yul\":521:556   */\n          swap1\n          pop\n            /* \"#utility.yul\":466:562   */\n          swap2\n          swap1\n          pop\n          jump\t// out\n            /* \"#utility.yul\":568:690   */\n        tag_12:\n            /* \"#utility.yul\":641:665   */\n          tag_22\n            /* \"#utility.yul\":659:664   */\n          dup2\n            /* \"#utility.yul\":641:665   */\n          tag_11\n          jump\t// in\n        tag_22:\n            /* \"#utility.yul\":634:639   */\n          dup2\n            /* \"#utility.yul\":631:666   */\n          eq\n            /* \"#utility.yul\":621:684   */\n          tag_23\n          jumpi\n            /* \"#utility.yul\":680:681   */\n          0x00\n            /* \"#utility.yul\":677:678   */\n          dup1\n            /* \"#utility.yul\":670:682   */\n          revert\n            /* \"#utility.yul\":621:684   */\n        tag_23:\n            /* \"#utility.yul\":568:690   */\n          pop\n          jump\t// out\n            /* \"#utility.yul\":696:839   */\n        tag_13:\n            /* \"#utility.yul\":753:758   */\n          0x00\n            /* \"#utility.yul\":784:790   */\n          dup2\n            /* \"#utility.yul\":778:791   */\n          mload\n            /* \"#utility.yul\":769:791   */\n          swap1\n          pop\n            /* \"#utility.yul\":800:833   */\n          tag_25\n            /* \"#utility.yul\":827:832   */\n          dup2\n            /* \"#utility.yul\":800:833   */\n          tag_12\n          jump\t// in\n        tag_25:\n            /* \"#utility.yul\":696:839   */\n          swap3\n          swap2\n          pop\n          pop\n          jump\t// out\n            /* \"#utility.yul\":845:1196   */\n        tag_3:\n            /* \"#utility.yul\":915:921   */\n          0x00\n            /* \"#utility.yul\":964:966   */\n          0x20\n            /* \"#utility.yul\":952:961   */\n          dup3\n            /* \"#utility.yul\":943:950   */\n          dup5\n            /* \"#utility.yul\":939:962   */\n          sub\n            /* \"#utility.yul\":935:967   */\n          slt\n            /* \"#utility.yul\":932:1051   */\n          iszero\n          tag_27\n          jumpi\n            /* \"#utility.yul\":970:1049   */\n          tag_28\n          tag_8\n          jump\t// in\n        tag_28:\n            /* \"#utility.yul\":932:1051   */\n        tag_27:\n            /* \"#utility.yul\":1090:1091   */\n          0x00\n            /* \"#utility.yul\":1115:1179   */\n          tag_29\n            /* \"#utility.yul\":1171:1178   */\n          dup5\n            /* \"#utility.yul\":1162:1168   */\n          dup3\n            /* \"#utility.yul\":1151:1160   */\n          dup6\n            /* \"#utility.yul\":1147:1169   */\n          add\n            /* \"#utility.yul\":1115:1179   */\n          tag_13\n          jump\t// in\n        tag_29:\n            /* \"#utility.yul\":1105:1179   */\n          swap2\n          pop\n            /* \"#utility.yul\":1061:1189   */\n          pop\n            /* \"#utility.yul\":845:1196   */\n          swap3\n          swap2\n          pop\n          pop\n          jump\t// out\n            /* \"ElectronicHealthRegistry.sol\":4323:6526  contract HealthRegistry {... */\n        tag_6:\n          dataSize(sub_0)\n          dup1\n          dataOffset(sub_0)\n          0x00\n          codecopy\n          0x00\n          return\n        stop\n\n        sub_0: assembly {\n                /* \"ElectronicHealthRegistry.sol\":4323:6526  contract HealthRegistry {... */\n              mstore(0x40, 0x80)\n              callvalue\n              dup1\n              iszero\n              tag_1\n              jumpi\n              0x00\n              dup1\n              revert\n            tag_1:\n              pop\n              jumpi(tag_2, lt(calldatasize, 0x04))\n              shr(0xe0, calldataload(0x00))\n              dup1\n              0xaeb9e57b\n              gt\n              tag_11\n              jumpi\n              dup1\n              0xaeb9e57b\n              eq\n              tag_7\n              jumpi\n              dup1\n              0xb8306de6\n              eq\n              tag_8\n              jumpi\n              dup1\n              0xbd96bd20\n              eq\n              tag_9\n              jumpi\n              dup1\n              0xe6af705f\n              eq\n              tag_10\n              jumpi\n              jump(tag_2)\n            tag_11:\n              dup1\n              0x124b16ed\n              eq\n              tag_3\n              jumpi\n              dup1\n              0x17674544\n              eq\n              tag_4\n              jumpi\n              dup1\n              0x4780468f\n              eq\n              tag_5\n              jumpi\n              dup1\n              0xab4ccf01\n              eq\n              tag_6\n              jumpi\n            tag_2:\n              0x00\n              dup1\n              revert\n                /* \"ElectronicHealthRegistry.sol\":5399:5530  function retrieveEntryIndex(uint index)... */\n            tag_3:\n              tag_12\n              0x04\n              dup1\n              calldatasize\n              sub\n              dup2\n              add\n              swap1\n              tag_13\n              swap2\n              swap1\n              tag_14\n              jump\t// in\n            tag_13:\n              tag_15\n              jump\t// in\n            tag_12:\n              mload(0x40)\n              tag_16\n              swap2\n              swap1\n              tag_17\n              jump\t// in\n            tag_16:\n              mload(0x40)\n              dup1\n              swap2\n              sub\n              swap1\n              return\n                /* \"ElectronicHealthRegistry.sol\":6094:6426  function deleteEntry(string calldata uuid) public present(uuid) returns(uint) {... */\n            tag_4:\n              tag_18\n              0x04\n              dup1\n              calldatasize\n              sub\n              dup2\n              add\n              swap1\n              tag_19\n              swap2\n              swap1\n              tag_20\n              jump\t// in\n            tag_19:\n              tag_21\n              jump\t// in\n            tag_18:\n              mload(0x40)\n              tag_22\n              swap2\n              swap1\n              tag_23\n              jump\t// in\n            tag_22:\n              mload(0x40)\n              dup1\n              swap2\n              sub\n              swap1\n              return\n                /* \"ElectronicHealthRegistry.sol\":6434:6517  function addDoctor(address doctor) public {... */\n            tag_5:\n              tag_24\n              0x04\n              dup1\n              calldatasize\n              sub\n              dup2\n              add\n              swap1\n              tag_25\n              swap2\n              swap1\n              tag_26\n              jump\t// in\n            tag_25:\n              tag_27\n              jump\t// in\n            tag_24:\n              stop\n                /* \"ElectronicHealthRegistry.sol\":4656:4680  uint public entriesCount */\n            tag_6:\n              tag_28\n              tag_29\n              jump\t// in\n            tag_28:\n              mload(0x40)\n              tag_30\n              swap2\n              swap1\n              tag_23\n              jump\t// in\n            tag_30:\n              mload(0x40)\n              dup1\n              swap2\n              sub\n              swap1\n              return\n                /* \"ElectronicHealthRegistry.sol\":5901:6086  function updateEntry(string calldata uuid, uint newData)... */\n            tag_7:\n              tag_31\n              0x04\n              dup1\n              calldatasize\n              sub\n              dup2\n              add\n              swap1\n              tag_32\n              swap2\n              swap1\n              tag_33\n              jump\t// in\n            tag_32:\n              tag_34\n              jump\t// in\n            tag_31:\n              stop\n                /* \"ElectronicHealthRegistry.sol\":5161:5391  function retrieveEntry(string calldata uuid)... */\n            tag_8:\n              tag_35\n              0x04\n              dup1\n              calldatasize\n              sub\n              dup2\n              add\n              swap1\n              tag_36\n              swap2\n              swap1\n              tag_20\n              jump\t// in\n            tag_36:\n              tag_37\n              jump\t// in\n            tag_35:\n              mload(0x40)\n              tag_38\n              swap4\n              swap3\n              swap2\n              swap1\n              tag_39\n              jump\t// in\n            tag_38:\n              mload(0x40)\n              dup1\n              swap2\n              sub\n              swap1\n              return\n                /* \"ElectronicHealthRegistry.sol\":4475:4497  address public patient */\n            tag_9:\n              tag_40\n              tag_41\n              jump\t// in\n            tag_40:\n              mload(0x40)\n              tag_42\n              swap2\n              swap1\n              tag_43\n              jump\t// in\n            tag_42:\n              mload(0x40)\n              dup1\n              swap2\n              sub\n              swap1\n              return\n                /* \"ElectronicHealthRegistry.sol\":5538:5891  function createEntry(string calldata uuid, uint data)... */\n            tag_10:\n              tag_44\n              0x04\n              dup1\n              calldatasize\n              sub\n              dup2\n              add\n              swap1\n              tag_45\n              swap2\n              swap1\n              tag_33\n              jump\t// in\n            tag_45:\n              tag_46\n              jump\t// in\n            tag_44:\n              stop\n                /* \"ElectronicHealthRegistry.sol\":5399:5530  function retrieveEntryIndex(uint index)... */\n            tag_15:\n                /* \"ElectronicHealthRegistry.sol\":5468:5481  string memory */\n              0x60\n                /* \"ElectronicHealthRegistry.sol\":5505:5515  entryIndex */\n              0x03\n                /* \"ElectronicHealthRegistry.sol\":5505:5522  entryIndex[index] */\n              0x00\n                /* \"ElectronicHealthRegistry.sol\":5516:5521  index */\n              dup4\n                /* \"ElectronicHealthRegistry.sol\":5505:5522  entryIndex[index] */\n              dup2\n              mstore\n              0x20\n              add\n              swap1\n              dup2\n              mstore\n              0x20\n              add\n              0x00\n              keccak256\n                /* \"ElectronicHealthRegistry.sol\":5498:5522  return entryIndex[index] */\n              dup1\n              sload\n              tag_48\n              swap1\n              tag_49\n              jump\t// in\n            tag_48:\n              dup1\n              0x1f\n              add\n              0x20\n              dup1\n              swap2\n              div\n              mul\n              0x20\n              add\n              mload(0x40)\n              swap1\n              dup2\n              add\n              0x40\n              mstore\n              dup1\n              swap3\n              swap2\n              swap1\n              dup2\n              dup2\n              mstore\n              0x20\n              add\n              dup3\n              dup1\n              sload\n              tag_50\n              swap1\n              tag_49\n              jump\t// in\n            tag_50:\n              dup1\n              iszero\n              tag_51\n              jumpi\n              dup1\n              0x1f\n              lt\n              tag_52\n              jumpi\n              0x0100\n              dup1\n              dup4\n              sload\n              div\n              mul\n              dup4\n              mstore\n              swap2\n              0x20\n              add\n              swap2\n              jump(tag_51)\n            tag_52:\n              dup3\n              add\n              swap2\n              swap1\n              0x00\n              mstore\n              keccak256(0x00, 0x20)\n              swap1\n            tag_53:\n              dup2\n              sload\n              dup2\n              mstore\n              swap1\n              0x01\n              add\n              swap1\n              0x20\n              add\n              dup1\n              dup4\n              gt\n              tag_53\n              jumpi\n              dup3\n              swap1\n              sub\n              0x1f\n              and\n              dup3\n              add\n              swap2\n            tag_51:\n              pop\n              pop\n              pop\n              pop\n              pop\n              swap1\n              pop\n                /* \"ElectronicHealthRegistry.sol\":5399:5530  function retrieveEntryIndex(uint index)... */\n              swap2\n              swap1\n              pop\n              jump\t// out\n                /* \"ElectronicHealthRegistry.sol\":6094:6426  function deleteEntry(string calldata uuid) public present(uuid) returns(uint) {... */\n            tag_21:\n                /* \"ElectronicHealthRegistry.sol\":6166:6170  uint */\n              0x00\n                /* \"ElectronicHealthRegistry.sol\":6152:6156  uuid */\n              dup3\n              dup3\n                /* \"ElectronicHealthRegistry.sol\":4943:4944  0 */\n              0x00\n                /* \"ElectronicHealthRegistry.sol\":4928:4940  entriesCount */\n              sload(0x04)\n                /* \"ElectronicHealthRegistry.sol\":4928:4944  entriesCount > 0 */\n              gt\n                /* \"ElectronicHealthRegistry.sol\":4920:4945  require(entriesCount > 0) */\n              tag_55\n              jumpi\n              0x00\n              dup1\n              revert\n            tag_55:\n                /* \"ElectronicHealthRegistry.sol\":5055:5059  uuid */\n              dup2\n              dup2\n                /* \"ElectronicHealthRegistry.sol\":5038:5060  abi.encodePacked(uuid) */\n              add(0x20, mload(0x40))\n              tag_56\n              swap3\n              swap2\n              swap1\n              tag_57\n              jump\t// in\n            tag_56:\n              mload(0x40)\n              0x20\n              dup2\n              dup4\n              sub\n              sub\n              dup2\n              mstore\n              swap1\n              0x40\n              mstore\n                /* \"ElectronicHealthRegistry.sol\":5028:5061  keccak256(abi.encodePacked(uuid)) */\n              dup1\n              mload\n              swap1\n              0x20\n              add\n              keccak256\n                /* \"ElectronicHealthRegistry.sol\":4991:5001  entryIndex */\n              0x03\n                /* \"ElectronicHealthRegistry.sol\":4991:5022  entryIndex[entries[uuid].index] */\n              0x00\n                /* \"ElectronicHealthRegistry.sol\":5002:5009  entries */\n              0x02\n                /* \"ElectronicHealthRegistry.sol\":5010:5014  uuid */\n              dup6\n              dup6\n                /* \"ElectronicHealthRegistry.sol\":5002:5015  entries[uuid] */\n              mload(0x40)\n              tag_58\n              swap3\n              swap2\n              swap1\n              tag_57\n              jump\t// in\n            tag_58:\n              swap1\n              dup2\n              mstore\n              0x20\n              add\n              mload(0x40)\n              dup1\n              swap2\n              sub\n              swap1\n              keccak256\n                /* \"ElectronicHealthRegistry.sol\":5002:5021  entries[uuid].index */\n              0x02\n              add\n              sload\n                /* \"ElectronicHealthRegistry.sol\":4991:5022  entryIndex[entries[uuid].index] */\n              dup2\n              mstore\n              0x20\n              add\n              swap1\n              dup2\n              mstore\n              0x20\n              add\n              0x00\n              keccak256\n                /* \"ElectronicHealthRegistry.sol\":4974:5023  abi.encodePacked(entryIndex[entries[uuid].index]) */\n              add(0x20, mload(0x40))\n              tag_59\n              swap2\n              swap1\n              tag_60\n              jump\t// in\n            tag_59:\n              mload(0x40)\n              0x20\n              dup2\n              dup4\n              sub\n              sub\n              dup2\n              mstore\n              swap1\n              0x40\n              mstore\n                /* \"ElectronicHealthRegistry.sol\":4964:5024  keccak256(abi.encodePacked(entryIndex[entries[uuid].index])) */\n              dup1\n              mload\n              swap1\n              0x20\n              add\n              keccak256\n                /* \"ElectronicHealthRegistry.sol\":4964:5061  keccak256(abi.encodePacked(entryIndex[entries[uuid].index])) == keccak256(abi.encodePacked(uuid)) */\n              eq\n                /* \"ElectronicHealthRegistry.sol\":4956:5062  require(keccak256(abi.encodePacked(entryIndex[entries[uuid].index])) == keccak256(abi.encodePacked(uuid))) */\n              tag_61\n              jumpi\n              0x00\n              dup1\n              revert\n            tag_61:\n                /* \"ElectronicHealthRegistry.sol\":6183:6196  uint oldIndex */\n              0x00\n                /* \"ElectronicHealthRegistry.sol\":6199:6206  entries */\n              0x02\n                /* \"ElectronicHealthRegistry.sol\":6207:6211  uuid */\n              dup7\n              dup7\n                /* \"ElectronicHealthRegistry.sol\":6199:6212  entries[uuid] */\n              mload(0x40)\n              tag_63\n              swap3\n              swap2\n              swap1\n              tag_57\n              jump\t// in\n            tag_63:\n              swap1\n              dup2\n              mstore\n              0x20\n              add\n              mload(0x40)\n              dup1\n              swap2\n              sub\n              swap1\n              keccak256\n                /* \"ElectronicHealthRegistry.sol\":6199:6218  entries[uuid].index */\n              0x02\n              add\n              sload\n                /* \"ElectronicHealthRegistry.sol\":6183:6218  uint oldIndex = entries[uuid].index */\n              swap1\n              pop\n                /* \"ElectronicHealthRegistry.sol\":6229:6251  string storage lastKey */\n              0x00\n                /* \"ElectronicHealthRegistry.sol\":6254:6264  entryIndex */\n              0x03\n                /* \"ElectronicHealthRegistry.sol\":6254:6280  entryIndex[entriesCount-1] */\n              0x00\n                /* \"ElectronicHealthRegistry.sol\":6278:6279  1 */\n              0x01\n                /* \"ElectronicHealthRegistry.sol\":6265:6277  entriesCount */\n              sload(0x04)\n                /* \"ElectronicHealthRegistry.sol\":6265:6279  entriesCount-1 */\n              tag_64\n              swap2\n              swap1\n              tag_65\n              jump\t// in\n            tag_64:\n                /* \"ElectronicHealthRegistry.sol\":6254:6280  entryIndex[entriesCount-1] */\n              dup2\n              mstore\n              0x20\n              add\n              swap1\n              dup2\n              mstore\n              0x20\n              add\n              0x00\n              keccak256\n                /* \"ElectronicHealthRegistry.sol\":6229:6280  string storage lastKey = entryIndex[entriesCount-1] */\n              swap1\n              pop\n                /* \"ElectronicHealthRegistry.sol\":6314:6321  lastKey */\n              dup1\n                /* \"ElectronicHealthRegistry.sol\":6291:6301  entryIndex */\n              0x03\n                /* \"ElectronicHealthRegistry.sol\":6291:6311  entryIndex[oldIndex] */\n              0x00\n                /* \"ElectronicHealthRegistry.sol\":6302:6310  oldIndex */\n              dup5\n                /* \"ElectronicHealthRegistry.sol\":6291:6311  entryIndex[oldIndex] */\n              dup2\n              mstore\n              0x20\n              add\n              swap1\n              dup2\n              mstore\n              0x20\n              add\n              0x00\n              keccak256\n                /* \"ElectronicHealthRegistry.sol\":6291:6321  entryIndex[oldIndex] = lastKey */\n              swap1\n              dup1\n              sload\n              tag_66\n              swap1\n              tag_49\n              jump\t// in\n            tag_66:\n              tag_67\n              swap3\n              swap2\n              swap1\n              tag_68\n              jump\t// in\n            tag_67:\n              pop\n                /* \"ElectronicHealthRegistry.sol\":6357:6365  oldIndex */\n              dup2\n                /* \"ElectronicHealthRegistry.sol\":6332:6339  entries */\n              0x02\n                /* \"ElectronicHealthRegistry.sol\":6340:6347  lastKey */\n              dup3\n                /* \"ElectronicHealthRegistry.sol\":6332:6348  entries[lastKey] */\n              mload(0x40)\n              tag_69\n              swap2\n              swap1\n              tag_70\n              jump\t// in\n            tag_69:\n              swap1\n              dup2\n              mstore\n              0x20\n              add\n              mload(0x40)\n              dup1\n              swap2\n              sub\n              swap1\n              keccak256\n                /* \"ElectronicHealthRegistry.sol\":6332:6354  entries[lastKey].index */\n              0x02\n              add\n                /* \"ElectronicHealthRegistry.sol\":6332:6365  entries[lastKey].index = oldIndex */\n              dup2\n              swap1\n              sstore\n              pop\n                /* \"ElectronicHealthRegistry.sol\":6376:6388  entriesCount */\n              0x04\n              0x00\n                /* \"ElectronicHealthRegistry.sol\":6376:6390  entriesCount-- */\n              dup2\n              sload\n              dup1\n              swap3\n              swap2\n              swap1\n              tag_71\n              swap1\n              tag_72\n              jump\t// in\n            tag_71:\n              swap2\n              swap1\n              pop\n              sstore\n              pop\n                /* \"ElectronicHealthRegistry.sol\":6410:6418  oldIndex */\n              dup2\n                /* \"ElectronicHealthRegistry.sol\":6403:6418  return oldIndex */\n              swap5\n              pop\n              pop\n              pop\n                /* \"ElectronicHealthRegistry.sol\":6094:6426  function deleteEntry(string calldata uuid) public present(uuid) returns(uint) {... */\n              pop\n              pop\n              swap3\n              swap2\n              pop\n              pop\n              jump\t// out\n                /* \"ElectronicHealthRegistry.sol\":6434:6517  function addDoctor(address doctor) public {... */\n            tag_27:\n                /* \"ElectronicHealthRegistry.sol\":6505:6509  true */\n              0x01\n                /* \"ElectronicHealthRegistry.sol\":6487:6494  doctors */\n              dup1\n                /* \"ElectronicHealthRegistry.sol\":6487:6502  doctors[doctor] */\n              0x00\n                /* \"ElectronicHealthRegistry.sol\":6495:6501  doctor */\n              dup4\n                /* \"ElectronicHealthRegistry.sol\":6487:6502  doctors[doctor] */\n              0xffffffffffffffffffffffffffffffffffffffff\n              and\n              0xffffffffffffffffffffffffffffffffffffffff\n              and\n              dup2\n              mstore\n              0x20\n              add\n              swap1\n              dup2\n              mstore\n              0x20\n              add\n              0x00\n              keccak256\n              0x00\n                /* \"ElectronicHealthRegistry.sol\":6487:6509  doctors[doctor] = true */\n              0x0100\n              exp\n              dup2\n              sload\n              dup2\n              0xff\n              mul\n              not\n              and\n              swap1\n              dup4\n              iszero\n              iszero\n              mul\n              or\n              swap1\n              sstore\n              pop\n                /* \"ElectronicHealthRegistry.sol\":6434:6517  function addDoctor(address doctor) public {... */\n              pop\n              jump\t// out\n                /* \"ElectronicHealthRegistry.sol\":4656:4680  uint public entriesCount */\n            tag_29:\n              sload(0x04)\n              dup2\n              jump\t// out\n                /* \"ElectronicHealthRegistry.sol\":5901:6086  function updateEntry(string calldata uuid, uint newData)... */\n            tag_34:\n                /* \"ElectronicHealthRegistry.sol\":4730:4737  doctors */\n              0x01\n                /* \"ElectronicHealthRegistry.sol\":4730:4749  doctors[msg.sender] */\n              0x00\n                /* \"ElectronicHealthRegistry.sol\":4738:4748  msg.sender */\n              caller\n                /* \"ElectronicHealthRegistry.sol\":4730:4749  doctors[msg.sender] */\n              0xffffffffffffffffffffffffffffffffffffffff\n              and\n              0xffffffffffffffffffffffffffffffffffffffff\n              and\n              dup2\n              mstore\n              0x20\n              add\n              swap1\n              dup2\n              mstore\n              0x20\n              add\n              0x00\n              keccak256\n              0x00\n              swap1\n              sload\n              swap1\n              0x0100\n              exp\n              swap1\n              div\n              0xff\n              and\n                /* \"ElectronicHealthRegistry.sol\":4722:4750  require(doctors[msg.sender]) */\n              tag_75\n              jumpi\n              0x00\n              dup1\n              revert\n            tag_75:\n                /* \"ElectronicHealthRegistry.sol\":5993:5997  uuid */\n              dup3\n              dup3\n                /* \"ElectronicHealthRegistry.sol\":4943:4944  0 */\n              0x00\n                /* \"ElectronicHealthRegistry.sol\":4928:4940  entriesCount */\n              sload(0x04)\n                /* \"ElectronicHealthRegistry.sol\":4928:4944  entriesCount > 0 */\n              gt\n                /* \"ElectronicHealthRegistry.sol\":4920:4945  require(entriesCount > 0) */\n              tag_77\n              jumpi\n              0x00\n              dup1\n              revert\n            tag_77:\n                /* \"ElectronicHealthRegistry.sol\":5055:5059  uuid */\n              dup2\n              dup2\n                /* \"ElectronicHealthRegistry.sol\":5038:5060  abi.encodePacked(uuid) */\n              add(0x20, mload(0x40))\n              tag_78\n              swap3\n              swap2\n              swap1\n              tag_57\n              jump\t// in\n            tag_78:\n              mload(0x40)\n              0x20\n              dup2\n              dup4\n              sub\n              sub\n              dup2\n              mstore\n              swap1\n              0x40\n              mstore\n                /* \"ElectronicHealthRegistry.sol\":5028:5061  keccak256(abi.encodePacked(uuid)) */\n              dup1\n              mload\n              swap1\n              0x20\n              add\n              keccak256\n                /* \"ElectronicHealthRegistry.sol\":4991:5001  entryIndex */\n              0x03\n                /* \"ElectronicHealthRegistry.sol\":4991:5022  entryIndex[entries[uuid].index] */\n              0x00\n                /* \"ElectronicHealthRegistry.sol\":5002:5009  entries */\n              0x02\n                /* \"ElectronicHealthRegistry.sol\":5010:5014  uuid */\n              dup6\n              dup6\n                /* \"ElectronicHealthRegistry.sol\":5002:5015  entries[uuid] */\n              mload(0x40)\n              tag_79\n              swap3\n              swap2\n              swap1\n              tag_57\n              jump\t// in\n            tag_79:\n              swap1\n              dup2\n              mstore\n              0x20\n              add\n              mload(0x40)\n              dup1\n              swap2\n              sub\n              swap1\n              keccak256\n                /* \"ElectronicHealthRegistry.sol\":5002:5021  entries[uuid].index */\n              0x02\n              add\n              sload\n                /* \"ElectronicHealthRegistry.sol\":4991:5022  entryIndex[entries[uuid].index] */\n              dup2\n              mstore\n              0x20\n              add\n              swap1\n              dup2\n              mstore\n              0x20\n              add\n              0x00\n              keccak256\n                /* \"ElectronicHealthRegistry.sol\":4974:5023  abi.encodePacked(entryIndex[entries[uuid].index]) */\n              add(0x20, mload(0x40))\n              tag_80\n              swap2\n              swap1\n              tag_60\n              jump\t// in\n            tag_80:\n              mload(0x40)\n              0x20\n              dup2\n              dup4\n              sub\n              sub\n              dup2\n              mstore\n              swap1\n              0x40\n              mstore\n                /* \"ElectronicHealthRegistry.sol\":4964:5024  keccak256(abi.encodePacked(entryIndex[entries[uuid].index])) */\n              dup1\n              mload\n              swap1\n              0x20\n              add\n              keccak256\n                /* \"ElectronicHealthRegistry.sol\":4964:5061  keccak256(abi.encodePacked(entryIndex[entries[uuid].index])) == keccak256(abi.encodePacked(uuid)) */\n              eq\n                /* \"ElectronicHealthRegistry.sol\":4956:5062  require(keccak256(abi.encodePacked(entryIndex[entries[uuid].index])) == keccak256(abi.encodePacked(uuid))) */\n              tag_81\n              jumpi\n              0x00\n              dup1\n              revert\n            tag_81:\n                /* \"ElectronicHealthRegistry.sol\":6012:6034  HealthEntry storage he */\n              0x00\n                /* \"ElectronicHealthRegistry.sol\":6037:6044  entries */\n              0x02\n                /* \"ElectronicHealthRegistry.sol\":6045:6049  uuid */\n              dup7\n              dup7\n                /* \"ElectronicHealthRegistry.sol\":6037:6050  entries[uuid] */\n              mload(0x40)\n              tag_83\n              swap3\n              swap2\n              swap1\n              tag_57\n              jump\t// in\n            tag_83:\n              swap1\n              dup2\n              mstore\n              0x20\n              add\n              mload(0x40)\n              dup1\n              swap2\n              sub\n              swap1\n              keccak256\n                /* \"ElectronicHealthRegistry.sol\":6012:6050  HealthEntry storage he = entries[uuid] */\n              swap1\n              pop\n                /* \"ElectronicHealthRegistry.sol\":6071:6078  newData */\n              dup4\n                /* \"ElectronicHealthRegistry.sol\":6061:6063  he */\n              dup2\n                /* \"ElectronicHealthRegistry.sol\":6061:6068  he.data */\n              0x03\n              add\n                /* \"ElectronicHealthRegistry.sol\":6061:6078  he.data = newData */\n              dup2\n              swap1\n              sstore\n              pop\n                /* \"ElectronicHealthRegistry.sol\":5999:6086  {... */\n              pop\n                /* \"ElectronicHealthRegistry.sol\":4761:4762  _ */\n              pop\n              pop\n                /* \"ElectronicHealthRegistry.sol\":5901:6086  function updateEntry(string calldata uuid, uint newData)... */\n              pop\n              pop\n              pop\n              jump\t// out\n                /* \"ElectronicHealthRegistry.sol\":5161:5391  function retrieveEntry(string calldata uuid)... */\n            tag_37:\n                /* \"ElectronicHealthRegistry.sol\":5249:5253  uint */\n              0x00\n                /* \"ElectronicHealthRegistry.sol\":5255:5259  uint */\n              dup1\n                /* \"ElectronicHealthRegistry.sol\":5261:5268  address */\n              0x00\n                /* \"ElectronicHealthRegistry.sol\":5230:5234  uuid */\n              dup5\n              dup5\n                /* \"ElectronicHealthRegistry.sol\":4943:4944  0 */\n              0x00\n                /* \"ElectronicHealthRegistry.sol\":4928:4940  entriesCount */\n              sload(0x04)\n                /* \"ElectronicHealthRegistry.sol\":4928:4944  entriesCount > 0 */\n              gt\n                /* \"ElectronicHealthRegistry.sol\":4920:4945  require(entriesCount > 0) */\n              tag_85\n              jumpi\n              0x00\n              dup1\n              revert\n            tag_85:\n                /* \"ElectronicHealthRegistry.sol\":5055:5059  uuid */\n              dup2\n              dup2\n                /* \"ElectronicHealthRegistry.sol\":5038:5060  abi.encodePacked(uuid) */\n              add(0x20, mload(0x40))\n              tag_86\n              swap3\n              swap2\n              swap1\n              tag_57\n              jump\t// in\n            tag_86:\n              mload(0x40)\n              0x20\n              dup2\n              dup4\n              sub\n              sub\n              dup2\n              mstore\n              swap1\n              0x40\n              mstore\n                /* \"ElectronicHealthRegistry.sol\":5028:5061  keccak256(abi.encodePacked(uuid)) */\n              dup1\n              mload\n              swap1\n              0x20\n              add\n              keccak256\n                /* \"ElectronicHealthRegistry.sol\":4991:5001  entryIndex */\n              0x03\n                /* \"ElectronicHealthRegistry.sol\":4991:5022  entryIndex[entries[uuid].index] */\n              0x00\n                /* \"ElectronicHealthRegistry.sol\":5002:5009  entries */\n              0x02\n                /* \"ElectronicHealthRegistry.sol\":5010:5014  uuid */\n              dup6\n              dup6\n                /* \"ElectronicHealthRegistry.sol\":5002:5015  entries[uuid] */\n              mload(0x40)\n              tag_87\n              swap3\n              swap2\n              swap1\n              tag_57\n              jump\t// in\n            tag_87:\n              swap1\n              dup2\n              mstore\n              0x20\n              add\n              mload(0x40)\n              dup1\n              swap2\n              sub\n              swap1\n              keccak256\n                /* \"ElectronicHealthRegistry.sol\":5002:5021  entries[uuid].index */\n              0x02\n              add\n              sload\n                /* \"ElectronicHealthRegistry.sol\":4991:5022  entryIndex[entries[uuid].index] */\n              dup2\n              mstore\n              0x20\n              add\n              swap1\n              dup2\n              mstore\n              0x20\n              add\n              0x00\n              keccak256\n                /* \"ElectronicHealthRegistry.sol\":4974:5023  abi.encodePacked(entryIndex[entries[uuid].index]) */\n              add(0x20, mload(0x40))\n              tag_88\n              swap2\n              swap1\n              tag_60\n              jump\t// in\n            tag_88:\n              mload(0x40)\n              0x20\n              dup2\n              dup4\n              sub\n              sub\n              dup2\n              mstore\n              swap1\n              0x40\n              mstore\n                /* \"ElectronicHealthRegistry.sol\":4964:5024  keccak256(abi.encodePacked(entryIndex[entries[uuid].index])) */\n              dup1\n              mload\n              swap1\n              0x20\n              add\n              keccak256\n                /* \"ElectronicHealthRegistry.sol\":4964:5061  keccak256(abi.encodePacked(entryIndex[entries[uuid].index])) == keccak256(abi.encodePacked(uuid)) */\n              eq\n                /* \"ElectronicHealthRegistry.sol\":4956:5062  require(keccak256(abi.encodePacked(entryIndex[entries[uuid].index])) == keccak256(abi.encodePacked(uuid))) */\n              tag_89\n              jumpi\n              0x00\n              dup1\n              revert\n            tag_89:\n                /* \"ElectronicHealthRegistry.sol\":5293:5315  HealthEntry storage he */\n              0x00\n                /* \"ElectronicHealthRegistry.sol\":5318:5325  entries */\n              0x02\n                /* \"ElectronicHealthRegistry.sol\":5326:5330  uuid */\n              dup9\n              dup9\n                /* \"ElectronicHealthRegistry.sol\":5318:5331  entries[uuid] */\n              mload(0x40)\n              tag_91\n              swap3\n              swap2\n              swap1\n              tag_57\n              jump\t// in\n            tag_91:\n              swap1\n              dup2\n              mstore\n              0x20\n              add\n              mload(0x40)\n              dup1\n              swap2\n              sub\n              swap1\n              keccak256\n                /* \"ElectronicHealthRegistry.sol\":5293:5331  HealthEntry storage he = entries[uuid] */\n              swap1\n              pop\n                /* \"ElectronicHealthRegistry.sol\":5355:5357  he */\n              dup1\n                /* \"ElectronicHealthRegistry.sol\":5355:5362  he.date */\n              0x00\n              add\n              sload\n                /* \"ElectronicHealthRegistry.sol\":5364:5366  he */\n              dup2\n                /* \"ElectronicHealthRegistry.sol\":5364:5371  he.data */\n              0x03\n              add\n              sload\n                /* \"ElectronicHealthRegistry.sol\":5373:5375  he */\n              dup3\n                /* \"ElectronicHealthRegistry.sol\":5373:5382  he.doctor */\n              0x01\n              add\n              0x00\n              swap1\n              sload\n              swap1\n              0x0100\n              exp\n              swap1\n              div\n              0xffffffffffffffffffffffffffffffffffffffff\n              and\n                /* \"ElectronicHealthRegistry.sol\":5347:5383  return (he.date, he.data, he.doctor) */\n              swap6\n              pop\n              swap6\n              pop\n              swap6\n              pop\n              pop\n                /* \"ElectronicHealthRegistry.sol\":5161:5391  function retrieveEntry(string calldata uuid)... */\n              pop\n              pop\n              swap3\n              pop\n              swap3\n              pop\n              swap3\n              jump\t// out\n                /* \"ElectronicHealthRegistry.sol\":4475:4497  address public patient */\n            tag_41:\n              0x00\n              dup1\n              sload\n              swap1\n              0x0100\n              exp\n              swap1\n              div\n              0xffffffffffffffffffffffffffffffffffffffff\n              and\n              dup2\n              jump\t// out\n                /* \"ElectronicHealthRegistry.sol\":5538:5891  function createEntry(string calldata uuid, uint data)... */\n            tag_46:\n                /* \"ElectronicHealthRegistry.sol\":4730:4737  doctors */\n              0x01\n                /* \"ElectronicHealthRegistry.sol\":4730:4749  doctors[msg.sender] */\n              0x00\n                /* \"ElectronicHealthRegistry.sol\":4738:4748  msg.sender */\n              caller\n                /* \"ElectronicHealthRegistry.sol\":4730:4749  doctors[msg.sender] */\n              0xffffffffffffffffffffffffffffffffffffffff\n              and\n              0xffffffffffffffffffffffffffffffffffffffff\n              and\n              dup2\n              mstore\n              0x20\n              add\n              swap1\n              dup2\n              mstore\n              0x20\n              add\n              0x00\n              keccak256\n              0x00\n              swap1\n              sload\n              swap1\n              0x0100\n              exp\n              swap1\n              div\n              0xff\n              and\n                /* \"ElectronicHealthRegistry.sol\":4722:4750  require(doctors[msg.sender]) */\n              tag_93\n              jumpi\n              0x00\n              dup1\n              revert\n            tag_93:\n                /* \"ElectronicHealthRegistry.sol\":5641:5663  HealthEntry storage he */\n              0x00\n                /* \"ElectronicHealthRegistry.sol\":5666:5673  entries */\n              0x02\n                /* \"ElectronicHealthRegistry.sol\":5674:5678  uuid */\n              dup5\n              dup5\n                /* \"ElectronicHealthRegistry.sol\":5666:5679  entries[uuid] */\n              mload(0x40)\n              tag_95\n              swap3\n              swap2\n              swap1\n              tag_57\n              jump\t// in\n            tag_95:\n              swap1\n              dup2\n              mstore\n              0x20\n              add\n              mload(0x40)\n              dup1\n              swap2\n              sub\n              swap1\n              keccak256\n                /* \"ElectronicHealthRegistry.sol\":5641:5679  HealthEntry storage he = entries[uuid] */\n              swap1\n              pop\n                /* \"ElectronicHealthRegistry.sol\":5709:5710  0 */\n              0x00\n                /* \"ElectronicHealthRegistry.sol\":5698:5700  he */\n              dup2\n                /* \"ElectronicHealthRegistry.sol\":5698:5705  he.date */\n              0x00\n              add\n              sload\n                /* \"ElectronicHealthRegistry.sol\":5698:5710  he.date == 0 */\n              eq\n                /* \"ElectronicHealthRegistry.sol\":5690:5711  require(he.date == 0) */\n              tag_96\n              jumpi\n              0x00\n              dup1\n              revert\n            tag_96:\n                /* \"ElectronicHealthRegistry.sol\":5732:5747  block.timestamp */\n              timestamp\n                /* \"ElectronicHealthRegistry.sol\":5722:5724  he */\n              dup2\n                /* \"ElectronicHealthRegistry.sol\":5722:5729  he.date */\n              0x00\n              add\n                /* \"ElectronicHealthRegistry.sol\":5722:5747  he.date = block.timestamp */\n              dup2\n              swap1\n              sstore\n              pop\n                /* \"ElectronicHealthRegistry.sol\":5770:5780  msg.sender */\n              caller\n                /* \"ElectronicHealthRegistry.sol\":5758:5760  he */\n              dup2\n                /* \"ElectronicHealthRegistry.sol\":5758:5767  he.doctor */\n              0x01\n              add\n              0x00\n                /* \"ElectronicHealthRegistry.sol\":5758:5780  he.doctor = msg.sender */\n              0x0100\n              exp\n              dup2\n              sload\n              dup2\n              0xffffffffffffffffffffffffffffffffffffffff\n              mul\n              not\n              and\n              swap1\n              dup4\n              0xffffffffffffffffffffffffffffffffffffffff\n              and\n              mul\n              or\n              swap1\n              sstore\n              pop\n                /* \"ElectronicHealthRegistry.sol\":5801:5805  data */\n              dup2\n                /* \"ElectronicHealthRegistry.sol\":5791:5793  he */\n              dup2\n                /* \"ElectronicHealthRegistry.sol\":5791:5798  he.data */\n              0x03\n              add\n                /* \"ElectronicHealthRegistry.sol\":5791:5805  he.data = data */\n              dup2\n              swap1\n              sstore\n              pop\n                /* \"ElectronicHealthRegistry.sol\":5843:5847  uuid */\n              dup4\n              dup4\n                /* \"ElectronicHealthRegistry.sol\":5816:5826  entryIndex */\n              0x03\n                /* \"ElectronicHealthRegistry.sol\":5816:5840  entryIndex[entriesCount] */\n              0x00\n                /* \"ElectronicHealthRegistry.sol\":5827:5839  entriesCount */\n              sload(0x04)\n                /* \"ElectronicHealthRegistry.sol\":5816:5840  entryIndex[entriesCount] */\n              dup2\n              mstore\n              0x20\n              add\n              swap1\n              dup2\n              mstore\n              0x20\n              add\n              0x00\n              keccak256\n                /* \"ElectronicHealthRegistry.sol\":5816:5847  entryIndex[entriesCount] = uuid */\n              swap2\n              swap1\n              tag_97\n              swap3\n              swap2\n              swap1\n              tag_98\n              jump\t// in\n            tag_97:\n              pop\n                /* \"ElectronicHealthRegistry.sol\":5869:5881  entriesCount */\n              0x04\n              0x00\n                /* \"ElectronicHealthRegistry.sol\":5869:5883  entriesCount++ */\n              dup2\n              sload\n              dup1\n              swap3\n              swap2\n              swap1\n              tag_99\n              swap1\n              tag_100\n              jump\t// in\n            tag_99:\n              swap2\n              swap1\n              pop\n              sstore\n                /* \"ElectronicHealthRegistry.sol\":5858:5860  he */\n              dup2\n                /* \"ElectronicHealthRegistry.sol\":5858:5866  he.index */\n              0x02\n              add\n                /* \"ElectronicHealthRegistry.sol\":5858:5883  he.index = entriesCount++ */\n              dup2\n              swap1\n              sstore\n              pop\n                /* \"ElectronicHealthRegistry.sol\":5618:5891  {... */\n              pop\n                /* \"ElectronicHealthRegistry.sol\":5538:5891  function createEntry(string calldata uuid, uint data)... */\n              pop\n              pop\n              pop\n              jump\t// out\n            tag_68:\n              dup3\n              dup1\n              sload\n              tag_101\n              swap1\n              tag_49\n              jump\t// in\n            tag_101:\n              swap1\n              0x00\n              mstore\n              keccak256(0x00, 0x20)\n              swap1\n              0x1f\n              add\n              0x20\n              swap1\n              div\n              dup2\n              add\n              swap3\n              dup3\n              tag_103\n              jumpi\n              0x00\n              dup6\n              sstore\n              jump(tag_102)\n            tag_103:\n              dup3\n              0x1f\n              lt\n              tag_104\n              jumpi\n              dup1\n              sload\n              dup6\n              sstore\n              jump(tag_102)\n            tag_104:\n              dup3\n              dup1\n              add\n              0x01\n              add\n              dup6\n              sstore\n              dup3\n              iszero\n              tag_102\n              jumpi\n              0x00\n              mstore\n              keccak256(0x00, 0x20)\n              swap2\n              0x1f\n              add\n              0x20\n              swap1\n              div\n              dup3\n              add\n            tag_105:\n              dup3\n              dup2\n              gt\n              iszero\n              tag_106\n              jumpi\n              dup3\n              sload\n              dup3\n              sstore\n              swap2\n              0x01\n              add\n              swap2\n              swap1\n              0x01\n              add\n              swap1\n              jump(tag_105)\n            tag_106:\n            tag_102:\n              pop\n              swap1\n              pop\n              tag_107\n              swap2\n              swap1\n              tag_108\n              jump\t// in\n            tag_107:\n              pop\n              swap1\n              jump\t// out\n            tag_98:\n              dup3\n              dup1\n              sload\n              tag_109\n              swap1\n              tag_49\n              jump\t// in\n            tag_109:\n              swap1\n              0x00\n              mstore\n              keccak256(0x00, 0x20)\n              swap1\n              0x1f\n              add\n              0x20\n              swap1\n              div\n              dup2\n              add\n              swap3\n              dup3\n              tag_111\n              jumpi\n              0x00\n              dup6\n              sstore\n              jump(tag_110)\n            tag_111:\n              dup3\n              0x1f\n              lt\n              tag_112\n              jumpi\n              dup1\n              calldataload\n              not(0xff)\n              and\n              dup4\n              dup1\n              add\n              or\n              dup6\n              sstore\n              jump(tag_110)\n            tag_112:\n              dup3\n              dup1\n              add\n              0x01\n              add\n              dup6\n              sstore\n              dup3\n              iszero\n              tag_110\n              jumpi\n              swap2\n              dup3\n              add\n            tag_113:\n              dup3\n              dup2\n              gt\n              iszero\n              tag_114\n              jumpi\n              dup3\n              calldataload\n              dup3\n              sstore\n              swap2\n              0x20\n              add\n              swap2\n              swap1\n              0x01\n              add\n              swap1\n              jump(tag_113)\n            tag_114:\n            tag_110:\n              pop\n              swap1\n              pop\n              tag_115\n              swap2\n              swap1\n              tag_108\n              jump\t// in\n            tag_115:\n              pop\n              swap1\n              jump\t// out\n            tag_108:\n            tag_116:\n              dup1\n              dup3\n              gt\n              iszero\n              tag_117\n              jumpi\n              0x00\n              dup2\n              0x00\n              swap1\n              sstore\n              pop\n              0x01\n              add\n              jump(tag_116)\n            tag_117:\n              pop\n              swap1\n              jump\t// out\n                /* \"#utility.yul\":88:205   */\n            tag_119:\n                /* \"#utility.yul\":197:198   */\n              0x00\n                /* \"#utility.yul\":194:195   */\n              dup1\n                /* \"#utility.yul\":187:199   */\n              revert\n                /* \"#utility.yul\":211:328   */\n            tag_120:\n                /* \"#utility.yul\":320:321   */\n              0x00\n                /* \"#utility.yul\":317:318   */\n              dup1\n                /* \"#utility.yul\":310:322   */\n              revert\n                /* \"#utility.yul\":334:411   */\n            tag_121:\n                /* \"#utility.yul\":371:378   */\n              0x00\n                /* \"#utility.yul\":400:405   */\n              dup2\n                /* \"#utility.yul\":389:405   */\n              swap1\n              pop\n                /* \"#utility.yul\":334:411   */\n              swap2\n              swap1\n              pop\n              jump\t// out\n                /* \"#utility.yul\":417:539   */\n            tag_122:\n                /* \"#utility.yul\":490:514   */\n              tag_154\n                /* \"#utility.yul\":508:513   */\n              dup2\n                /* \"#utility.yul\":490:514   */\n              tag_121\n              jump\t// in\n            tag_154:\n                /* \"#utility.yul\":483:488   */\n              dup2\n                /* \"#utility.yul\":480:515   */\n              eq\n                /* \"#utility.yul\":470:533   */\n              tag_155\n              jumpi\n                /* \"#utility.yul\":529:530   */\n              0x00\n                /* \"#utility.yul\":526:527   */\n              dup1\n                /* \"#utility.yul\":519:531   */\n              revert\n                /* \"#utility.yul\":470:533   */\n            tag_155:\n                /* \"#utility.yul\":417:539   */\n              pop\n              jump\t// out\n                /* \"#utility.yul\":545:684   */\n            tag_123:\n                /* \"#utility.yul\":591:596   */\n              0x00\n                /* \"#utility.yul\":629:635   */\n              dup2\n                /* \"#utility.yul\":616:636   */\n              calldataload\n                /* \"#utility.yul\":607:636   */\n              swap1\n              pop\n                /* \"#utility.yul\":645:678   */\n              tag_157\n                /* \"#utility.yul\":672:677   */\n              dup2\n                /* \"#utility.yul\":645:678   */\n              tag_122\n              jump\t// in\n            tag_157:\n                /* \"#utility.yul\":545:684   */\n              swap3\n              swap2\n              pop\n              pop\n              jump\t// out\n                /* \"#utility.yul\":690:1019   */\n            tag_14:\n                /* \"#utility.yul\":749:755   */\n              0x00\n                /* \"#utility.yul\":798:800   */\n              0x20\n                /* \"#utility.yul\":786:795   */\n              dup3\n                /* \"#utility.yul\":777:784   */\n              dup5\n                /* \"#utility.yul\":773:796   */\n              sub\n                /* \"#utility.yul\":769:801   */\n              slt\n                /* \"#utility.yul\":766:885   */\n              iszero\n              tag_159\n              jumpi\n                /* \"#utility.yul\":804:883   */\n              tag_160\n              tag_119\n              jump\t// in\n            tag_160:\n                /* \"#utility.yul\":766:885   */\n            tag_159:\n                /* \"#utility.yul\":924:925   */\n              0x00\n                /* \"#utility.yul\":949:1002   */\n              tag_161\n                /* \"#utility.yul\":994:1001   */\n              dup5\n                /* \"#utility.yul\":985:991   */\n              dup3\n                /* \"#utility.yul\":974:983   */\n              dup6\n                /* \"#utility.yul\":970:992   */\n              add\n                /* \"#utility.yul\":949:1002   */\n              tag_123\n              jump\t// in\n            tag_161:\n                /* \"#utility.yul\":939:1002   */\n              swap2\n              pop\n                /* \"#utility.yul\":895:1012   */\n              pop\n                /* \"#utility.yul\":690:1019   */\n              swap3\n              swap2\n              pop\n              pop\n              jump\t// out\n                /* \"#utility.yul\":1025:1124   */\n            tag_124:\n                /* \"#utility.yul\":1077:1083   */\n              0x00\n                /* \"#utility.yul\":1111:1116   */\n              dup2\n                /* \"#utility.yul\":1105:1117   */\n              mload\n                /* \"#utility.yul\":1095:1117   */\n              swap1\n              pop\n                /* \"#utility.yul\":1025:1124   */\n              swap2\n              swap1\n              pop\n              jump\t// out\n                /* \"#utility.yul\":1130:1299   */\n            tag_125:\n                /* \"#utility.yul\":1214:1225   */\n              0x00\n                /* \"#utility.yul\":1248:1254   */\n              dup3\n                /* \"#utility.yul\":1243:1246   */\n              dup3\n                /* \"#utility.yul\":1236:1255   */\n              mstore\n                /* \"#utility.yul\":1288:1292   */\n              0x20\n                /* \"#utility.yul\":1283:1286   */\n              dup3\n                /* \"#utility.yul\":1279:1293   */\n              add\n                /* \"#utility.yul\":1264:1293   */\n              swap1\n              pop\n                /* \"#utility.yul\":1130:1299   */\n              swap3\n              swap2\n              pop\n              pop\n              jump\t// out\n                /* \"#utility.yul\":1305:1612   */\n            tag_126:\n                /* \"#utility.yul\":1373:1374   */\n              0x00\n                /* \"#utility.yul\":1383:1496   */\n            tag_165:\n                /* \"#utility.yul\":1397:1403   */\n              dup4\n                /* \"#utility.yul\":1394:1395   */\n              dup2\n                /* \"#utility.yul\":1391:1404   */\n              lt\n                /* \"#utility.yul\":1383:1496   */\n              iszero\n              tag_167\n              jumpi\n                /* \"#utility.yul\":1482:1483   */\n              dup1\n                /* \"#utility.yul\":1477:1480   */\n              dup3\n                /* \"#utility.yul\":1473:1484   */\n              add\n                /* \"#utility.yul\":1467:1485   */\n              mload\n                /* \"#utility.yul\":1463:1464   */\n              dup2\n                /* \"#utility.yul\":1458:1461   */\n              dup5\n                /* \"#utility.yul\":1454:1465   */\n              add\n                /* \"#utility.yul\":1447:1486   */\n              mstore\n                /* \"#utility.yul\":1419:1421   */\n              0x20\n                /* \"#utility.yul\":1416:1417   */\n              dup2\n                /* \"#utility.yul\":1412:1422   */\n              add\n                /* \"#utility.yul\":1407:1422   */\n              swap1\n              pop\n                /* \"#utility.yul\":1383:1496   */\n              jump(tag_165)\n            tag_167:\n                /* \"#utility.yul\":1514:1520   */\n              dup4\n                /* \"#utility.yul\":1511:1512   */\n              dup2\n                /* \"#utility.yul\":1508:1521   */\n              gt\n                /* \"#utility.yul\":1505:1606   */\n              iszero\n              tag_168\n              jumpi\n                /* \"#utility.yul\":1594:1595   */\n              0x00\n                /* \"#utility.yul\":1585:1591   */\n              dup5\n                /* \"#utility.yul\":1580:1583   */\n              dup5\n                /* \"#utility.yul\":1576:1592   */\n              add\n                /* \"#utility.yul\":1569:1596   */\n              mstore\n                /* \"#utility.yul\":1505:1606   */\n            tag_168:\n                /* \"#utility.yul\":1354:1612   */\n              pop\n                /* \"#utility.yul\":1305:1612   */\n              pop\n              pop\n              pop\n              jump\t// out\n                /* \"#utility.yul\":1618:1720   */\n            tag_127:\n                /* \"#utility.yul\":1659:1665   */\n              0x00\n                /* \"#utility.yul\":1710:1712   */\n              0x1f\n                /* \"#utility.yul\":1706:1713   */\n              not\n                /* \"#utility.yul\":1701:1703   */\n              0x1f\n                /* \"#utility.yul\":1694:1699   */\n              dup4\n                /* \"#utility.yul\":1690:1704   */\n              add\n                /* \"#utility.yul\":1686:1714   */\n              and\n                /* \"#utility.yul\":1676:1714   */\n              swap1\n              pop\n                /* \"#utility.yul\":1618:1720   */\n              swap2\n              swap1\n              pop\n              jump\t// out\n                /* \"#utility.yul\":1726:2090   */\n            tag_128:\n                /* \"#utility.yul\":1814:1817   */\n              0x00\n                /* \"#utility.yul\":1842:1881   */\n              tag_171\n                /* \"#utility.yul\":1875:1880   */\n              dup3\n                /* \"#utility.yul\":1842:1881   */\n              tag_124\n              jump\t// in\n            tag_171:\n                /* \"#utility.yul\":1897:1968   */\n              tag_172\n                /* \"#utility.yul\":1961:1967   */\n              dup2\n                /* \"#utility.yul\":1956:1959   */\n              dup6\n                /* \"#utility.yul\":1897:1968   */\n              tag_125\n              jump\t// in\n            tag_172:\n                /* \"#utility.yul\":1890:1968   */\n              swap4\n              pop\n                /* \"#utility.yul\":1977:2029   */\n              tag_173\n                /* \"#utility.yul\":2022:2028   */\n              dup2\n                /* \"#utility.yul\":2017:2020   */\n              dup6\n                /* \"#utility.yul\":2010:2014   */\n              0x20\n                /* \"#utility.yul\":2003:2008   */\n              dup7\n                /* \"#utility.yul\":1999:2015   */\n              add\n                /* \"#utility.yul\":1977:2029   */\n              tag_126\n              jump\t// in\n            tag_173:\n                /* \"#utility.yul\":2054:2083   */\n              tag_174\n                /* \"#utility.yul\":2076:2082   */\n              dup2\n                /* \"#utility.yul\":2054:2083   */\n              tag_127\n              jump\t// in\n            tag_174:\n                /* \"#utility.yul\":2049:2052   */\n              dup5\n                /* \"#utility.yul\":2045:2084   */\n              add\n                /* \"#utility.yul\":2038:2084   */\n              swap2\n              pop\n                /* \"#utility.yul\":1818:2090   */\n              pop\n                /* \"#utility.yul\":1726:2090   */\n              swap3\n              swap2\n              pop\n              pop\n              jump\t// out\n                /* \"#utility.yul\":2096:2409   */\n            tag_17:\n                /* \"#utility.yul\":2209:2213   */\n              0x00\n                /* \"#utility.yul\":2247:2249   */\n              0x20\n                /* \"#utility.yul\":2236:2245   */\n              dup3\n                /* \"#utility.yul\":2232:2250   */\n              add\n                /* \"#utility.yul\":2224:2250   */\n              swap1\n              pop\n                /* \"#utility.yul\":2296:2305   */\n              dup2\n                /* \"#utility.yul\":2290:2294   */\n              dup2\n                /* \"#utility.yul\":2286:2306   */\n              sub\n                /* \"#utility.yul\":2282:2283   */\n              0x00\n                /* \"#utility.yul\":2271:2280   */\n              dup4\n                /* \"#utility.yul\":2267:2284   */\n              add\n                /* \"#utility.yul\":2260:2307   */\n              mstore\n                /* \"#utility.yul\":2324:2402   */\n              tag_176\n                /* \"#utility.yul\":2397:2401   */\n              dup2\n                /* \"#utility.yul\":2388:2394   */\n              dup5\n                /* \"#utility.yul\":2324:2402   */\n              tag_128\n              jump\t// in\n            tag_176:\n                /* \"#utility.yul\":2316:2402   */\n              swap1\n              pop\n                /* \"#utility.yul\":2096:2409   */\n              swap3\n              swap2\n              pop\n              pop\n              jump\t// out\n                /* \"#utility.yul\":2415:2532   */\n            tag_129:\n                /* \"#utility.yul\":2524:2525   */\n              0x00\n                /* \"#utility.yul\":2521:2522   */\n              dup1\n                /* \"#utility.yul\":2514:2526   */\n              revert\n                /* \"#utility.yul\":2538:2655   */\n            tag_130:\n                /* \"#utility.yul\":2647:2648   */\n              0x00\n                /* \"#utility.yul\":2644:2645   */\n              dup1\n                /* \"#utility.yul\":2637:2649   */\n              revert\n                /* \"#utility.yul\":2661:2778   */\n            tag_131:\n                /* \"#utility.yul\":2770:2771   */\n              0x00\n                /* \"#utility.yul\":2767:2768   */\n              dup1\n                /* \"#utility.yul\":2760:2772   */\n              revert\n                /* \"#utility.yul\":2798:3351   */\n            tag_132:\n                /* \"#utility.yul\":2856:2864   */\n              0x00\n                /* \"#utility.yul\":2866:2872   */\n              dup1\n                /* \"#utility.yul\":2916:2919   */\n              dup4\n                /* \"#utility.yul\":2909:2913   */\n              0x1f\n                /* \"#utility.yul\":2901:2907   */\n              dup5\n                /* \"#utility.yul\":2897:2914   */\n              add\n                /* \"#utility.yul\":2893:2920   */\n              slt\n                /* \"#utility.yul\":2883:3005   */\n              tag_181\n              jumpi\n                /* \"#utility.yul\":2924:3003   */\n              tag_182\n              tag_129\n              jump\t// in\n            tag_182:\n                /* \"#utility.yul\":2883:3005   */\n            tag_181:\n                /* \"#utility.yul\":3037:3043   */\n              dup3\n                /* \"#utility.yul\":3024:3044   */\n              calldataload\n                /* \"#utility.yul\":3014:3044   */\n              swap1\n              pop\n                /* \"#utility.yul\":3067:3085   */\n              0xffffffffffffffff\n                /* \"#utility.yul\":3059:3065   */\n              dup2\n                /* \"#utility.yul\":3056:3086   */\n              gt\n                /* \"#utility.yul\":3053:3170   */\n              iszero\n              tag_183\n              jumpi\n                /* \"#utility.yul\":3089:3168   */\n              tag_184\n              tag_130\n              jump\t// in\n            tag_184:\n                /* \"#utility.yul\":3053:3170   */\n            tag_183:\n                /* \"#utility.yul\":3203:3207   */\n              0x20\n                /* \"#utility.yul\":3195:3201   */\n              dup4\n                /* \"#utility.yul\":3191:3208   */\n              add\n                /* \"#utility.yul\":3179:3208   */\n              swap2\n              pop\n                /* \"#utility.yul\":3257:3260   */\n              dup4\n                /* \"#utility.yul\":3249:3253   */\n              0x01\n                /* \"#utility.yul\":3241:3247   */\n              dup3\n                /* \"#utility.yul\":3237:3254   */\n              mul\n                /* \"#utility.yul\":3227:3235   */\n              dup4\n                /* \"#utility.yul\":3223:3255   */\n              add\n                /* \"#utility.yul\":3220:3261   */\n              gt\n                /* \"#utility.yul\":3217:3345   */\n              iszero\n              tag_185\n              jumpi\n                /* \"#utility.yul\":3264:3343   */\n              tag_186\n              tag_131\n              jump\t// in\n            tag_186:\n                /* \"#utility.yul\":3217:3345   */\n            tag_185:\n                /* \"#utility.yul\":2798:3351   */\n              swap3\n              pop\n              swap3\n              swap1\n              pop\n              jump\t// out\n                /* \"#utility.yul\":3357:3886   */\n            tag_20:\n                /* \"#utility.yul\":3428:3434   */\n              0x00\n                /* \"#utility.yul\":3436:3442   */\n              dup1\n                /* \"#utility.yul\":3485:3487   */\n              0x20\n                /* \"#utility.yul\":3473:3482   */\n              dup4\n                /* \"#utility.yul\":3464:3471   */\n              dup6\n                /* \"#utility.yul\":3460:3483   */\n              sub\n                /* \"#utility.yul\":3456:3488   */\n              slt\n                /* \"#utility.yul\":3453:3572   */\n              iszero\n              tag_188\n              jumpi\n                /* \"#utility.yul\":3491:3570   */\n              tag_189\n              tag_119\n              jump\t// in\n            tag_189:\n                /* \"#utility.yul\":3453:3572   */\n            tag_188:\n                /* \"#utility.yul\":3639:3640   */\n              0x00\n                /* \"#utility.yul\":3628:3637   */\n              dup4\n                /* \"#utility.yul\":3624:3641   */\n              add\n                /* \"#utility.yul\":3611:3642   */\n              calldataload\n                /* \"#utility.yul\":3669:3687   */\n              0xffffffffffffffff\n                /* \"#utility.yul\":3661:3667   */\n              dup2\n                /* \"#utility.yul\":3658:3688   */\n              gt\n                /* \"#utility.yul\":3655:3772   */\n              iszero\n              tag_190\n              jumpi\n                /* \"#utility.yul\":3691:3770   */\n              tag_191\n              tag_120\n              jump\t// in\n            tag_191:\n                /* \"#utility.yul\":3655:3772   */\n            tag_190:\n                /* \"#utility.yul\":3804:3869   */\n              tag_192\n                /* \"#utility.yul\":3861:3868   */\n              dup6\n                /* \"#utility.yul\":3852:3858   */\n              dup3\n                /* \"#utility.yul\":3841:3850   */\n              dup7\n                /* \"#utility.yul\":3837:3859   */\n              add\n                /* \"#utility.yul\":3804:3869   */\n              tag_132\n              jump\t// in\n            tag_192:\n                /* \"#utility.yul\":3786:3869   */\n              swap3\n              pop\n              swap3\n              pop\n                /* \"#utility.yul\":3582:3879   */\n              pop\n                /* \"#utility.yul\":3357:3886   */\n              swap3\n              pop\n              swap3\n              swap1\n              pop\n              jump\t// out\n                /* \"#utility.yul\":3892:4010   */\n            tag_133:\n                /* \"#utility.yul\":3979:4003   */\n              tag_194\n                /* \"#utility.yul\":3997:4002   */\n              dup2\n                /* \"#utility.yul\":3979:4003   */\n              tag_121\n              jump\t// in\n            tag_194:\n                /* \"#utility.yul\":3974:3977   */\n              dup3\n                /* \"#utility.yul\":3967:4004   */\n              mstore\n                /* \"#utility.yul\":3892:4010   */\n              pop\n              pop\n              jump\t// out\n                /* \"#utility.yul\":4016:4238   */\n            tag_23:\n                /* \"#utility.yul\":4109:4113   */\n              0x00\n                /* \"#utility.yul\":4147:4149   */\n              0x20\n                /* \"#utility.yul\":4136:4145   */\n              dup3\n                /* \"#utility.yul\":4132:4150   */\n              add\n                /* \"#utility.yul\":4124:4150   */\n              swap1\n              pop\n                /* \"#utility.yul\":4160:4231   */\n              tag_196\n                /* \"#utility.yul\":4228:4229   */\n              0x00\n                /* \"#utility.yul\":4217:4226   */\n              dup4\n                /* \"#utility.yul\":4213:4230   */\n              add\n                /* \"#utility.yul\":4204:4210   */\n              dup5\n                /* \"#utility.yul\":4160:4231   */\n              tag_133\n              jump\t// in\n            tag_196:\n                /* \"#utility.yul\":4016:4238   */\n              swap3\n              swap2\n              pop\n              pop\n              jump\t// out\n                /* \"#utility.yul\":4244:4370   */\n            tag_134:\n                /* \"#utility.yul\":4281:4288   */\n              0x00\n                /* \"#utility.yul\":4321:4363   */\n              0xffffffffffffffffffffffffffffffffffffffff\n                /* \"#utility.yul\":4314:4319   */\n              dup3\n                /* \"#utility.yul\":4310:4364   */\n              and\n                /* \"#utility.yul\":4299:4364   */\n              swap1\n              pop\n                /* \"#utility.yul\":4244:4370   */\n              swap2\n              swap1\n              pop\n              jump\t// out\n                /* \"#utility.yul\":4376:4472   */\n            tag_135:\n                /* \"#utility.yul\":4413:4420   */\n              0x00\n                /* \"#utility.yul\":4442:4466   */\n              tag_199\n                /* \"#utility.yul\":4460:4465   */\n              dup3\n                /* \"#utility.yul\":4442:4466   */\n              tag_134\n              jump\t// in\n            tag_199:\n                /* \"#utility.yul\":4431:4466   */\n              swap1\n              pop\n                /* \"#utility.yul\":4376:4472   */\n              swap2\n              swap1\n              pop\n              jump\t// out\n                /* \"#utility.yul\":4478:4600   */\n            tag_136:\n                /* \"#utility.yul\":4551:4575   */\n              tag_201\n                /* \"#utility.yul\":4569:4574   */\n              dup2\n                /* \"#utility.yul\":4551:4575   */\n              tag_135\n              jump\t// in\n            tag_201:\n                /* \"#utility.yul\":4544:4549   */\n              dup2\n                /* \"#utility.yul\":4541:4576   */\n              eq\n                /* \"#utility.yul\":4531:4594   */\n              tag_202\n              jumpi\n                /* \"#utility.yul\":4590:4591   */\n              0x00\n                /* \"#utility.yul\":4587:4588   */\n              dup1\n                /* \"#utility.yul\":4580:4592   */\n              revert\n                /* \"#utility.yul\":4531:4594   */\n            tag_202:\n                /* \"#utility.yul\":4478:4600   */\n              pop\n              jump\t// out\n                /* \"#utility.yul\":4606:4745   */\n            tag_137:\n                /* \"#utility.yul\":4652:4657   */\n              0x00\n                /* \"#utility.yul\":4690:4696   */\n              dup2\n                /* \"#utility.yul\":4677:4697   */\n              calldataload\n                /* \"#utility.yul\":4668:4697   */\n              swap1\n              pop\n                /* \"#utility.yul\":4706:4739   */\n              tag_204\n                /* \"#utility.yul\":4733:4738   */\n              dup2\n                /* \"#utility.yul\":4706:4739   */\n              tag_136\n              jump\t// in\n            tag_204:\n                /* \"#utility.yul\":4606:4745   */\n              swap3\n              swap2\n              pop\n              pop\n              jump\t// out\n                /* \"#utility.yul\":4751:5080   */\n            tag_26:\n                /* \"#utility.yul\":4810:4816   */\n              0x00\n                /* \"#utility.yul\":4859:4861   */\n              0x20\n                /* \"#utility.yul\":4847:4856   */\n              dup3\n                /* \"#utility.yul\":4838:4845   */\n              dup5\n                /* \"#utility.yul\":4834:4857   */\n              sub\n                /* \"#utility.yul\":4830:4862   */\n              slt\n                /* \"#utility.yul\":4827:4946   */\n              iszero\n              tag_206\n              jumpi\n                /* \"#utility.yul\":4865:4944   */\n              tag_207\n              tag_119\n              jump\t// in\n            tag_207:\n                /* \"#utility.yul\":4827:4946   */\n            tag_206:\n                /* \"#utility.yul\":4985:4986   */\n              0x00\n                /* \"#utility.yul\":5010:5063   */\n              tag_208\n                /* \"#utility.yul\":5055:5062   */\n              dup5\n                /* \"#utility.yul\":5046:5052   */\n              dup3\n                /* \"#utility.yul\":5035:5044   */\n              dup6\n                /* \"#utility.yul\":5031:5053   */\n              add\n                /* \"#utility.yul\":5010:5063   */\n              tag_137\n              jump\t// in\n            tag_208:\n                /* \"#utility.yul\":5000:5063   */\n              swap2\n              pop\n                /* \"#utility.yul\":4956:5073   */\n              pop\n                /* \"#utility.yul\":4751:5080   */\n              swap3\n              swap2\n              pop\n              pop\n              jump\t// out\n                /* \"#utility.yul\":5086:5760   */\n            tag_33:\n                /* \"#utility.yul\":5166:5172   */\n              0x00\n                /* \"#utility.yul\":5174:5180   */\n              dup1\n                /* \"#utility.yul\":5182:5188   */\n              0x00\n                /* \"#utility.yul\":5231:5233   */\n              0x40\n                /* \"#utility.yul\":5219:5228   */\n              dup5\n                /* \"#utility.yul\":5210:5217   */\n              dup7\n                /* \"#utility.yul\":5206:5229   */\n              sub\n                /* \"#utility.yul\":5202:5234   */\n              slt\n                /* \"#utility.yul\":5199:5318   */\n              iszero\n              tag_210\n              jumpi\n                /* \"#utility.yul\":5237:5316   */\n              tag_211\n              tag_119\n              jump\t// in\n            tag_211:\n                /* \"#utility.yul\":5199:5318   */\n            tag_210:\n                /* \"#utility.yul\":5385:5386   */\n              0x00\n                /* \"#utility.yul\":5374:5383   */\n              dup5\n                /* \"#utility.yul\":5370:5387   */\n              add\n                /* \"#utility.yul\":5357:5388   */\n              calldataload\n                /* \"#utility.yul\":5415:5433   */\n              0xffffffffffffffff\n                /* \"#utility.yul\":5407:5413   */\n              dup2\n                /* \"#utility.yul\":5404:5434   */\n              gt\n                /* \"#utility.yul\":5401:5518   */\n              iszero\n              tag_212\n              jumpi\n                /* \"#utility.yul\":5437:5516   */\n              tag_213\n              tag_120\n              jump\t// in\n            tag_213:\n                /* \"#utility.yul\":5401:5518   */\n            tag_212:\n                /* \"#utility.yul\":5550:5615   */\n              tag_214\n                /* \"#utility.yul\":5607:5614   */\n              dup7\n                /* \"#utility.yul\":5598:5604   */\n              dup3\n                /* \"#utility.yul\":5587:5596   */\n              dup8\n                /* \"#utility.yul\":5583:5605   */\n              add\n                /* \"#utility.yul\":5550:5615   */\n              tag_132\n              jump\t// in\n            tag_214:\n                /* \"#utility.yul\":5532:5615   */\n              swap4\n              pop\n              swap4\n              pop\n                /* \"#utility.yul\":5328:5625   */\n              pop\n                /* \"#utility.yul\":5664:5666   */\n              0x20\n                /* \"#utility.yul\":5690:5743   */\n              tag_215\n                /* \"#utility.yul\":5735:5742   */\n              dup7\n                /* \"#utility.yul\":5726:5732   */\n              dup3\n                /* \"#utility.yul\":5715:5724   */\n              dup8\n                /* \"#utility.yul\":5711:5733   */\n              add\n                /* \"#utility.yul\":5690:5743   */\n              tag_123\n              jump\t// in\n            tag_215:\n                /* \"#utility.yul\":5680:5743   */\n              swap2\n              pop\n                /* \"#utility.yul\":5635:5753   */\n              pop\n                /* \"#utility.yul\":5086:5760   */\n              swap3\n              pop\n              swap3\n              pop\n              swap3\n              jump\t// out\n                /* \"#utility.yul\":5766:5884   */\n            tag_138:\n                /* \"#utility.yul\":5853:5877   */\n              tag_217\n                /* \"#utility.yul\":5871:5876   */\n              dup2\n                /* \"#utility.yul\":5853:5877   */\n              tag_135\n              jump\t// in\n            tag_217:\n                /* \"#utility.yul\":5848:5851   */\n              dup3\n                /* \"#utility.yul\":5841:5878   */\n              mstore\n                /* \"#utility.yul\":5766:5884   */\n              pop\n              pop\n              jump\t// out\n                /* \"#utility.yul\":5890:6332   */\n            tag_39:\n                /* \"#utility.yul\":6039:6043   */\n              0x00\n                /* \"#utility.yul\":6077:6079   */\n              0x60\n                /* \"#utility.yul\":6066:6075   */\n              dup3\n                /* \"#utility.yul\":6062:6080   */\n              add\n                /* \"#utility.yul\":6054:6080   */\n              swap1\n              pop\n                /* \"#utility.yul\":6090:6161   */\n              tag_219\n                /* \"#utility.yul\":6158:6159   */\n              0x00\n                /* \"#utility.yul\":6147:6156   */\n              dup4\n                /* \"#utility.yul\":6143:6160   */\n              add\n                /* \"#utility.yul\":6134:6140   */\n              dup7\n                /* \"#utility.yul\":6090:6161   */\n              tag_133\n              jump\t// in\n            tag_219:\n                /* \"#utility.yul\":6171:6243   */\n              tag_220\n                /* \"#utility.yul\":6239:6241   */\n              0x20\n                /* \"#utility.yul\":6228:6237   */\n              dup4\n                /* \"#utility.yul\":6224:6242   */\n              add\n                /* \"#utility.yul\":6215:6221   */\n              dup6\n                /* \"#utility.yul\":6171:6243   */\n              tag_133\n              jump\t// in\n            tag_220:\n                /* \"#utility.yul\":6253:6325   */\n              tag_221\n                /* \"#utility.yul\":6321:6323   */\n              0x40\n                /* \"#utility.yul\":6310:6319   */\n              dup4\n                /* \"#utility.yul\":6306:6324   */\n              add\n                /* \"#utility.yul\":6297:6303   */\n              dup5\n                /* \"#utility.yul\":6253:6325   */\n              tag_138\n              jump\t// in\n            tag_221:\n                /* \"#utility.yul\":5890:6332   */\n              swap5\n              swap4\n              pop\n              pop\n              pop\n              pop\n              jump\t// out\n                /* \"#utility.yul\":6338:6560   */\n            tag_43:\n                /* \"#utility.yul\":6431:6435   */\n              0x00\n                /* \"#utility.yul\":6469:6471   */\n              0x20\n                /* \"#utility.yul\":6458:6467   */\n              dup3\n                /* \"#utility.yul\":6454:6472   */\n              add\n                /* \"#utility.yul\":6446:6472   */\n              swap1\n              pop\n                /* \"#utility.yul\":6482:6553   */\n              tag_223\n                /* \"#utility.yul\":6550:6551   */\n              0x00\n                /* \"#utility.yul\":6539:6548   */\n              dup4\n                /* \"#utility.yul\":6535:6552   */\n              add\n                /* \"#utility.yul\":6526:6532   */\n              dup5\n                /* \"#utility.yul\":6482:6553   */\n              tag_138\n              jump\t// in\n            tag_223:\n                /* \"#utility.yul\":6338:6560   */\n              swap3\n              swap2\n              pop\n              pop\n              jump\t// out\n                /* \"#utility.yul\":6566:6746   */\n            tag_139:\n                /* \"#utility.yul\":6614:6691   */\n              0x4e487b7100000000000000000000000000000000000000000000000000000000\n                /* \"#utility.yul\":6611:6612   */\n              0x00\n                /* \"#utility.yul\":6604:6692   */\n              mstore\n                /* \"#utility.yul\":6711:6715   */\n              0x22\n                /* \"#utility.yul\":6708:6709   */\n              0x04\n                /* \"#utility.yul\":6701:6716   */\n              mstore\n                /* \"#utility.yul\":6735:6739   */\n              0x24\n                /* \"#utility.yul\":6732:6733   */\n              0x00\n                /* \"#utility.yul\":6725:6740   */\n              revert\n                /* \"#utility.yul\":6752:7072   */\n            tag_49:\n                /* \"#utility.yul\":6796:6802   */\n              0x00\n                /* \"#utility.yul\":6833:6834   */\n              0x02\n                /* \"#utility.yul\":6827:6831   */\n              dup3\n                /* \"#utility.yul\":6823:6835   */\n              div\n                /* \"#utility.yul\":6813:6835   */\n              swap1\n              pop\n                /* \"#utility.yul\":6880:6881   */\n              0x01\n                /* \"#utility.yul\":6874:6878   */\n              dup3\n                /* \"#utility.yul\":6870:6882   */\n              and\n                /* \"#utility.yul\":6901:6919   */\n              dup1\n                /* \"#utility.yul\":6891:6972   */\n              tag_226\n              jumpi\n                /* \"#utility.yul\":6957:6961   */\n              0x7f\n                /* \"#utility.yul\":6949:6955   */\n              dup3\n                /* \"#utility.yul\":6945:6962   */\n              and\n                /* \"#utility.yul\":6935:6962   */\n              swap2\n              pop\n                /* \"#utility.yul\":6891:6972   */\n            tag_226:\n                /* \"#utility.yul\":7019:7021   */\n              0x20\n                /* \"#utility.yul\":7011:7017   */\n              dup3\n                /* \"#utility.yul\":7008:7022   */\n              lt\n                /* \"#utility.yul\":6988:7006   */\n              dup2\n                /* \"#utility.yul\":6985:7023   */\n              eq\n                /* \"#utility.yul\":6982:7066   */\n              iszero\n              tag_227\n              jumpi\n                /* \"#utility.yul\":7038:7056   */\n              tag_228\n              tag_139\n              jump\t// in\n            tag_228:\n                /* \"#utility.yul\":6982:7066   */\n            tag_227:\n                /* \"#utility.yul\":6803:7072   */\n              pop\n                /* \"#utility.yul\":6752:7072   */\n              swap2\n              swap1\n              pop\n              jump\t// out\n                /* \"#utility.yul\":7078:7226   */\n            tag_140:\n                /* \"#utility.yul\":7180:7191   */\n              0x00\n                /* \"#utility.yul\":7217:7220   */\n              dup2\n                /* \"#utility.yul\":7202:7220   */\n              swap1\n              pop\n                /* \"#utility.yul\":7078:7226   */\n              swap3\n              swap2\n              pop\n              pop\n              jump\t// out\n                /* \"#utility.yul\":7232:7386   */\n            tag_141:\n                /* \"#utility.yul\":7316:7322   */\n              dup3\n                /* \"#utility.yul\":7311:7314   */\n              dup2\n                /* \"#utility.yul\":7306:7309   */\n              dup4\n                /* \"#utility.yul\":7293:7323   */\n              calldatacopy\n                /* \"#utility.yul\":7378:7379   */\n              0x00\n                /* \"#utility.yul\":7369:7375   */\n              dup4\n                /* \"#utility.yul\":7364:7367   */\n              dup4\n                /* \"#utility.yul\":7360:7376   */\n              add\n                /* \"#utility.yul\":7353:7380   */\n              mstore\n                /* \"#utility.yul\":7232:7386   */\n              pop\n              pop\n              pop\n              jump\t// out\n                /* \"#utility.yul\":7416:7733   */\n            tag_142:\n                /* \"#utility.yul\":7532:7535   */\n              0x00\n                /* \"#utility.yul\":7553:7642   */\n              tag_232\n                /* \"#utility.yul\":7635:7641   */\n              dup4\n                /* \"#utility.yul\":7630:7633   */\n              dup6\n                /* \"#utility.yul\":7553:7642   */\n              tag_140\n              jump\t// in\n            tag_232:\n                /* \"#utility.yul\":7546:7642   */\n              swap4\n              pop\n                /* \"#utility.yul\":7652:7695   */\n              tag_233\n                /* \"#utility.yul\":7688:7694   */\n              dup4\n                /* \"#utility.yul\":7683:7686   */\n              dup6\n                /* \"#utility.yul\":7676:7681   */\n              dup5\n                /* \"#utility.yul\":7652:7695   */\n              tag_141\n              jump\t// in\n            tag_233:\n                /* \"#utility.yul\":7720:7726   */\n              dup3\n                /* \"#utility.yul\":7715:7718   */\n              dup5\n                /* \"#utility.yul\":7711:7727   */\n              add\n                /* \"#utility.yul\":7704:7727   */\n              swap1\n              pop\n                /* \"#utility.yul\":7416:7733   */\n              swap4\n              swap3\n              pop\n              pop\n              pop\n              jump\t// out\n                /* \"#utility.yul\":7739:8034   */\n            tag_57:\n                /* \"#utility.yul\":7881:7884   */\n              0x00\n                /* \"#utility.yul\":7903:8008   */\n              tag_235\n                /* \"#utility.yul\":8004:8007   */\n              dup3\n                /* \"#utility.yul\":7995:8001   */\n              dup5\n                /* \"#utility.yul\":7987:7993   */\n              dup7\n                /* \"#utility.yul\":7903:8008   */\n              tag_142\n              jump\t// in\n            tag_235:\n                /* \"#utility.yul\":7896:8008   */\n              swap2\n              pop\n                /* \"#utility.yul\":8025:8028   */\n              dup2\n                /* \"#utility.yul\":8018:8028   */\n              swap1\n              pop\n                /* \"#utility.yul\":7739:8034   */\n              swap4\n              swap3\n              pop\n              pop\n              pop\n              jump\t// out\n                /* \"#utility.yul\":8040:8181   */\n            tag_143:\n                /* \"#utility.yul\":8089:8093   */\n              0x00\n                /* \"#utility.yul\":8112:8115   */\n              dup2\n                /* \"#utility.yul\":8104:8115   */\n              swap1\n              pop\n                /* \"#utility.yul\":8135:8138   */\n              dup2\n                /* \"#utility.yul\":8132:8133   */\n              0x00\n                /* \"#utility.yul\":8125:8139   */\n              mstore\n                /* \"#utility.yul\":8169:8173   */\n              0x20\n                /* \"#utility.yul\":8166:8167   */\n              0x00\n                /* \"#utility.yul\":8156:8174   */\n              keccak256\n                /* \"#utility.yul\":8148:8174   */\n              swap1\n              pop\n                /* \"#utility.yul\":8040:8181   */\n              swap2\n              swap1\n              pop\n              jump\t// out\n                /* \"#utility.yul\":8211:9056   */\n            tag_144:\n                /* \"#utility.yul\":8314:8317   */\n              0x00\n                /* \"#utility.yul\":8351:8356   */\n              dup2\n                /* \"#utility.yul\":8345:8357   */\n              sload\n                /* \"#utility.yul\":8380:8416   */\n              tag_238\n                /* \"#utility.yul\":8406:8415   */\n              dup2\n                /* \"#utility.yul\":8380:8416   */\n              tag_49\n              jump\t// in\n            tag_238:\n                /* \"#utility.yul\":8432:8521   */\n              tag_239\n                /* \"#utility.yul\":8514:8520   */\n              dup2\n                /* \"#utility.yul\":8509:8512   */\n              dup7\n                /* \"#utility.yul\":8432:8521   */\n              tag_140\n              jump\t// in\n            tag_239:\n                /* \"#utility.yul\":8425:8521   */\n              swap5\n              pop\n                /* \"#utility.yul\":8552:8553   */\n              0x01\n                /* \"#utility.yul\":8541:8550   */\n              dup3\n                /* \"#utility.yul\":8537:8554   */\n              and\n                /* \"#utility.yul\":8568:8569   */\n              0x00\n                /* \"#utility.yul\":8563:8700   */\n              dup2\n              eq\n              tag_241\n              jumpi\n                /* \"#utility.yul\":8714:8715   */\n              0x01\n                /* \"#utility.yul\":8709:9050   */\n              dup2\n              eq\n              tag_242\n              jumpi\n                /* \"#utility.yul\":8530:9050   */\n              jump(tag_240)\n                /* \"#utility.yul\":8563:8700   */\n            tag_241:\n                /* \"#utility.yul\":8647:8651   */\n              0xff\n                /* \"#utility.yul\":8643:8652   */\n              not\n                /* \"#utility.yul\":8632:8641   */\n              dup4\n                /* \"#utility.yul\":8628:8653   */\n              and\n                /* \"#utility.yul\":8623:8626   */\n              dup7\n                /* \"#utility.yul\":8616:8654   */\n              mstore\n                /* \"#utility.yul\":8683:8689   */\n              dup2\n                /* \"#utility.yul\":8678:8681   */\n              dup7\n                /* \"#utility.yul\":8674:8690   */\n              add\n                /* \"#utility.yul\":8667:8690   */\n              swap4\n              pop\n                /* \"#utility.yul\":8563:8700   */\n              jump(tag_240)\n                /* \"#utility.yul\":8709:9050   */\n            tag_242:\n                /* \"#utility.yul\":8776:8814   */\n              tag_243\n                /* \"#utility.yul\":8808:8813   */\n              dup6\n                /* \"#utility.yul\":8776:8814   */\n              tag_143\n              jump\t// in\n            tag_243:\n                /* \"#utility.yul\":8836:8837   */\n              0x00\n                /* \"#utility.yul\":8850:9004   */\n            tag_244:\n                /* \"#utility.yul\":8864:8870   */\n              dup4\n                /* \"#utility.yul\":8861:8862   */\n              dup2\n                /* \"#utility.yul\":8858:8871   */\n              lt\n                /* \"#utility.yul\":8850:9004   */\n              iszero\n              tag_246\n              jumpi\n                /* \"#utility.yul\":8938:8945   */\n              dup2\n                /* \"#utility.yul\":8932:8946   */\n              sload\n                /* \"#utility.yul\":8928:8929   */\n              dup2\n                /* \"#utility.yul\":8923:8926   */\n              dup10\n                /* \"#utility.yul\":8919:8930   */\n              add\n                /* \"#utility.yul\":8912:8947   */\n              mstore\n                /* \"#utility.yul\":8988:8989   */\n              0x01\n                /* \"#utility.yul\":8979:8986   */\n              dup3\n                /* \"#utility.yul\":8975:8990   */\n              add\n                /* \"#utility.yul\":8964:8990   */\n              swap2\n              pop\n                /* \"#utility.yul\":8886:8890   */\n              0x20\n                /* \"#utility.yul\":8883:8884   */\n              dup2\n                /* \"#utility.yul\":8879:8891   */\n              add\n                /* \"#utility.yul\":8874:8891   */\n              swap1\n              pop\n                /* \"#utility.yul\":8850:9004   */\n              jump(tag_244)\n            tag_246:\n                /* \"#utility.yul\":9033:9039   */\n              dup4\n                /* \"#utility.yul\":9028:9031   */\n              dup9\n                /* \"#utility.yul\":9024:9040   */\n              add\n                /* \"#utility.yul\":9017:9040   */\n              swap6\n              pop\n                /* \"#utility.yul\":8716:9050   */\n              pop\n              pop\n                /* \"#utility.yul\":8530:9050   */\n            tag_240:\n              pop\n                /* \"#utility.yul\":8318:9056   */\n              pop\n              pop\n                /* \"#utility.yul\":8211:9056   */\n              swap3\n              swap2\n              pop\n              pop\n              jump\t// out\n                /* \"#utility.yul\":9062:9331   */\n            tag_60:\n                /* \"#utility.yul\":9191:9194   */\n              0x00\n                /* \"#utility.yul\":9213:9305   */\n              tag_248\n                /* \"#utility.yul\":9301:9304   */\n              dup3\n                /* \"#utility.yul\":9292:9298   */\n              dup5\n                /* \"#utility.yul\":9213:9305   */\n              tag_144\n              jump\t// in\n            tag_248:\n                /* \"#utility.yul\":9206:9305   */\n              swap2\n              pop\n                /* \"#utility.yul\":9322:9325   */\n              dup2\n                /* \"#utility.yul\":9315:9325   */\n              swap1\n              pop\n                /* \"#utility.yul\":9062:9331   */\n              swap3\n              swap2\n              pop\n              pop\n              jump\t// out\n                /* \"#utility.yul\":9337:9517   */\n            tag_145:\n                /* \"#utility.yul\":9385:9462   */\n              0x4e487b7100000000000000000000000000000000000000000000000000000000\n                /* \"#utility.yul\":9382:9383   */\n              0x00\n                /* \"#utility.yul\":9375:9463   */\n              mstore\n                /* \"#utility.yul\":9482:9486   */\n              0x11\n                /* \"#utility.yul\":9479:9480   */\n              0x04\n                /* \"#utility.yul\":9472:9487   */\n              mstore\n                /* \"#utility.yul\":9506:9510   */\n              0x24\n                /* \"#utility.yul\":9503:9504   */\n              0x00\n                /* \"#utility.yul\":9496:9511   */\n              revert\n                /* \"#utility.yul\":9523:9714   */\n            tag_65:\n                /* \"#utility.yul\":9563:9567   */\n              0x00\n                /* \"#utility.yul\":9583:9603   */\n              tag_251\n                /* \"#utility.yul\":9601:9602   */\n              dup3\n                /* \"#utility.yul\":9583:9603   */\n              tag_121\n              jump\t// in\n            tag_251:\n                /* \"#utility.yul\":9578:9603   */\n              swap2\n              pop\n                /* \"#utility.yul\":9617:9637   */\n              tag_252\n                /* \"#utility.yul\":9635:9636   */\n              dup4\n                /* \"#utility.yul\":9617:9637   */\n              tag_121\n              jump\t// in\n            tag_252:\n                /* \"#utility.yul\":9612:9637   */\n              swap3\n              pop\n                /* \"#utility.yul\":9656:9657   */\n              dup3\n                /* \"#utility.yul\":9653:9654   */\n              dup3\n                /* \"#utility.yul\":9650:9658   */\n              lt\n                /* \"#utility.yul\":9647:9681   */\n              iszero\n              tag_253\n              jumpi\n                /* \"#utility.yul\":9661:9679   */\n              tag_254\n              tag_145\n              jump\t// in\n            tag_254:\n                /* \"#utility.yul\":9647:9681   */\n            tag_253:\n                /* \"#utility.yul\":9706:9707   */\n              dup3\n                /* \"#utility.yul\":9703:9704   */\n              dup3\n                /* \"#utility.yul\":9699:9708   */\n              sub\n                /* \"#utility.yul\":9691:9708   */\n              swap1\n              pop\n                /* \"#utility.yul\":9523:9714   */\n              swap3\n              swap2\n              pop\n              pop\n              jump\t// out\n                /* \"#utility.yul\":9720:9865   */\n            tag_146:\n                /* \"#utility.yul\":9773:9777   */\n              0x00\n                /* \"#utility.yul\":9796:9799   */\n              dup2\n                /* \"#utility.yul\":9788:9799   */\n              swap1\n              pop\n                /* \"#utility.yul\":9819:9822   */\n              dup2\n                /* \"#utility.yul\":9816:9817   */\n              0x00\n                /* \"#utility.yul\":9809:9823   */\n              mstore\n                /* \"#utility.yul\":9853:9857   */\n              0x20\n                /* \"#utility.yul\":9850:9851   */\n              0x00\n                /* \"#utility.yul\":9840:9858   */\n              keccak256\n                /* \"#utility.yul\":9832:9858   */\n              swap1\n              pop\n                /* \"#utility.yul\":9720:9865   */\n              swap2\n              swap1\n              pop\n              jump\t// out\n                /* \"#utility.yul\":9895:10748   */\n            tag_147:\n                /* \"#utility.yul\":10002:10005   */\n              0x00\n                /* \"#utility.yul\":10039:10044   */\n              dup2\n                /* \"#utility.yul\":10033:10045   */\n              sload\n                /* \"#utility.yul\":10068:10104   */\n              tag_257\n                /* \"#utility.yul\":10094:10103   */\n              dup2\n                /* \"#utility.yul\":10068:10104   */\n              tag_49\n              jump\t// in\n            tag_257:\n                /* \"#utility.yul\":10120:10209   */\n              tag_258\n                /* \"#utility.yul\":10202:10208   */\n              dup2\n                /* \"#utility.yul\":10197:10200   */\n              dup7\n                /* \"#utility.yul\":10120:10209   */\n              tag_140\n              jump\t// in\n            tag_258:\n                /* \"#utility.yul\":10113:10209   */\n              swap5\n              pop\n                /* \"#utility.yul\":10240:10241   */\n              0x01\n                /* \"#utility.yul\":10229:10238   */\n              dup3\n                /* \"#utility.yul\":10225:10242   */\n              and\n                /* \"#utility.yul\":10256:10257   */\n              0x00\n                /* \"#utility.yul\":10251:10388   */\n              dup2\n              eq\n              tag_260\n              jumpi\n                /* \"#utility.yul\":10402:10403   */\n              0x01\n                /* \"#utility.yul\":10397:10742   */\n              dup2\n              eq\n              tag_261\n              jumpi\n                /* \"#utility.yul\":10218:10742   */\n              jump(tag_259)\n                /* \"#utility.yul\":10251:10388   */\n            tag_260:\n                /* \"#utility.yul\":10335:10339   */\n              0xff\n                /* \"#utility.yul\":10331:10340   */\n              not\n                /* \"#utility.yul\":10320:10329   */\n              dup4\n                /* \"#utility.yul\":10316:10341   */\n              and\n                /* \"#utility.yul\":10311:10314   */\n              dup7\n                /* \"#utility.yul\":10304:10342   */\n              mstore\n                /* \"#utility.yul\":10371:10377   */\n              dup2\n                /* \"#utility.yul\":10366:10369   */\n              dup7\n                /* \"#utility.yul\":10362:10378   */\n              add\n                /* \"#utility.yul\":10355:10378   */\n              swap4\n              pop\n                /* \"#utility.yul\":10251:10388   */\n              jump(tag_259)\n                /* \"#utility.yul\":10397:10742   */\n            tag_261:\n                /* \"#utility.yul\":10464:10506   */\n              tag_262\n                /* \"#utility.yul\":10500:10505   */\n              dup6\n                /* \"#utility.yul\":10464:10506   */\n              tag_146\n              jump\t// in\n            tag_262:\n                /* \"#utility.yul\":10528:10529   */\n              0x00\n                /* \"#utility.yul\":10542:10696   */\n            tag_263:\n                /* \"#utility.yul\":10556:10562   */\n              dup4\n                /* \"#utility.yul\":10553:10554   */\n              dup2\n                /* \"#utility.yul\":10550:10563   */\n              lt\n                /* \"#utility.yul\":10542:10696   */\n              iszero\n              tag_265\n              jumpi\n                /* \"#utility.yul\":10630:10637   */\n              dup2\n                /* \"#utility.yul\":10624:10638   */\n              sload\n                /* \"#utility.yul\":10620:10621   */\n              dup2\n                /* \"#utility.yul\":10615:10618   */\n              dup10\n                /* \"#utility.yul\":10611:10622   */\n              add\n                /* \"#utility.yul\":10604:10639   */\n              mstore\n                /* \"#utility.yul\":10680:10681   */\n              0x01\n                /* \"#utility.yul\":10671:10678   */\n              dup3\n                /* \"#utility.yul\":10667:10682   */\n              add\n                /* \"#utility.yul\":10656:10682   */\n              swap2\n              pop\n                /* \"#utility.yul\":10578:10582   */\n              0x20\n                /* \"#utility.yul\":10575:10576   */\n              dup2\n                /* \"#utility.yul\":10571:10583   */\n              add\n                /* \"#utility.yul\":10566:10583   */\n              swap1\n              pop\n                /* \"#utility.yul\":10542:10696   */\n              jump(tag_263)\n            tag_265:\n                /* \"#utility.yul\":10725:10731   */\n              dup4\n                /* \"#utility.yul\":10720:10723   */\n              dup9\n                /* \"#utility.yul\":10716:10732   */\n              add\n                /* \"#utility.yul\":10709:10732   */\n              swap6\n              pop\n                /* \"#utility.yul\":10404:10742   */\n              pop\n              pop\n                /* \"#utility.yul\":10218:10742   */\n            tag_259:\n              pop\n                /* \"#utility.yul\":10006:10748   */\n              pop\n              pop\n                /* \"#utility.yul\":9895:10748   */\n              swap3\n              swap2\n              pop\n              pop\n              jump\t// out\n                /* \"#utility.yul\":10754:11031   */\n            tag_70:\n                /* \"#utility.yul\":10887:10890   */\n              0x00\n                /* \"#utility.yul\":10909:11005   */\n              tag_267\n                /* \"#utility.yul\":11001:11004   */\n              dup3\n                /* \"#utility.yul\":10992:10998   */\n              dup5\n                /* \"#utility.yul\":10909:11005   */\n              tag_147\n              jump\t// in\n            tag_267:\n                /* \"#utility.yul\":10902:11005   */\n              swap2\n              pop\n                /* \"#utility.yul\":11022:11025   */\n              dup2\n                /* \"#utility.yul\":11015:11025   */\n              swap1\n              pop\n                /* \"#utility.yul\":10754:11031   */\n              swap3\n              swap2\n              pop\n              pop\n              jump\t// out\n                /* \"#utility.yul\":11037:11208   */\n            tag_72:\n                /* \"#utility.yul\":11076:11079   */\n              0x00\n                /* \"#utility.yul\":11099:11123   */\n              tag_269\n                /* \"#utility.yul\":11117:11122   */\n              dup3\n                /* \"#utility.yul\":11099:11123   */\n              tag_121\n              jump\t// in\n            tag_269:\n                /* \"#utility.yul\":11090:11123   */\n              swap2\n              pop\n                /* \"#utility.yul\":11145:11149   */\n              0x00\n                /* \"#utility.yul\":11138:11143   */\n              dup3\n                /* \"#utility.yul\":11135:11150   */\n              eq\n                /* \"#utility.yul\":11132:11173   */\n              iszero\n              tag_270\n              jumpi\n                /* \"#utility.yul\":11153:11171   */\n              tag_271\n              tag_145\n              jump\t// in\n            tag_271:\n                /* \"#utility.yul\":11132:11173   */\n            tag_270:\n                /* \"#utility.yul\":11200:11201   */\n              0x01\n                /* \"#utility.yul\":11193:11198   */\n              dup3\n                /* \"#utility.yul\":11189:11202   */\n              sub\n                /* \"#utility.yul\":11182:11202   */\n              swap1\n              pop\n                /* \"#utility.yul\":11037:11208   */\n              swap2\n              swap1\n              pop\n              jump\t// out\n                /* \"#utility.yul\":11214:11447   */\n            tag_100:\n                /* \"#utility.yul\":11253:11256   */\n              0x00\n                /* \"#utility.yul\":11276:11300   */\n              tag_273\n                /* \"#utility.yul\":11294:11299   */\n              dup3\n                /* \"#utility.yul\":11276:11300   */\n              tag_121\n              jump\t// in\n            tag_273:\n                /* \"#utility.yul\":11267:11300   */\n              swap2\n              pop\n                /* \"#utility.yul\":11322:11388   */\n              0xffffffffffffffffffffffffffffffffffffffffffffffffffffffffffffffff\n                /* \"#utility.yul\":11315:11320   */\n              dup3\n                /* \"#utility.yul\":11312:11389   */\n              eq\n                /* \"#utility.yul\":11309:11412   */\n              iszero\n              tag_274\n              jumpi\n                /* \"#utility.yul\":11392:11410   */\n              tag_275\n              tag_145\n              jump\t// in\n            tag_275:\n                /* \"#utility.yul\":11309:11412   */\n            tag_274:\n                /* \"#utility.yul\":11439:11440   */\n              0x01\n                /* \"#utility.yul\":11432:11437   */\n              dup3\n                /* \"#utility.yul\":11428:11441   */\n              add\n                /* \"#utility.yul\":11421:11441   */\n              swap1\n              pop\n                /* \"#utility.yul\":11214:11447   */\n              swap2\n              swap1\n              pop\n              jump\t// out\n\n            auxdata: 0xa2646970667358221220aa3059d4907e8838f2444600e46e85fa9dbb80a13f7a1e48ca2a5bc4ee56f4c264736f6c63430008090033\n        }\n    }\n\n    auxdata: 0xa2646970667358221220e0063c403076cb0229675348ab44cf26d0e65c093a69291b8c337781a8ee0f2764736f6c63430008090033\n}\n","bytecode":{"linkReferences":{},"object":"608060405234801561001057600080fd5b50612fd0806100206000396000f3fe60806040523480156200001157600080fd5b5060043610620000b85760003560e01c8063c37dfd6e116200007b578063c37dfd6e1462000195578063d184232a14620001cb578063d7d1bbdb14620001eb578063db5f3683146200020b578063f4028d111462000241578063fdf97ce9146200027757620000b8565b80635badbe4c14620000bd5780636546755714620000df5780637073d87f14620000ff578063a86653fe1462000135578063a87430ba1462000155575b600080fd5b620000c7620002b0565b604051620000d6919062001348565b60405180910390f35b620000fd6004803603810190620000f79190620013de565b620002b6565b005b6200011d600480360381019062000117919062001441565b620003ce565b6040516200012c919062001517565b60405180910390f35b6200015360048036038101906200014d919062001709565b6200047b565b005b6200017360048036038101906200016d9190620013de565b62000779565b6040516200018c9b9a99989796959493929190620019da565b60405180910390f35b620001b36004803603810190620001ad919062001441565b620009ed565b604051620001c2919062001ac1565b60405180910390f35b620001e96004803603810190620001e3919062001b47565b62000a2d565b005b62000209600480360381019062000203919062001441565b62000c7e565b005b62000229600480360381019062000223919062001beb565b62000fb6565b60405162000238919062001c40565b60405180910390f35b6200025f6004803603810190620002599190620013de565b62001062565b6040516200026e919062001ac1565b60405180910390f35b6200029560048036038101906200028f919062001beb565b62001095565b604051620002a7949392919062001c5d565b60405180910390f35b60055481565b6000808273ffffffffffffffffffffffffffffffffffffffff1673ffffffffffffffffffffffffffffffffffffffff16815260200190815260200160002060060160059054906101000a900460ff166200030f57600080fd5b6000816040516200032090620011de565b6200032c919062001ac1565b604051809103906000f08015801562000349573d6000803e3d6000fd5b50905080600260008473ffffffffffffffffffffffffffffffffffffffff1673ffffffffffffffffffffffffffffffffffffffff16815260200190815260200160002060006101000a81548173ffffffffffffffffffffffffffffffffffffffff021916908373ffffffffffffffffffffffffffffffffffffffff1602179055505050565b6060600460008381526020019081526020016000208054620003f09062001ce0565b80601f01602080910402602001604051908101604052809291908181526020018280546200041e9062001ce0565b80156200046f5780601f1062000443576101008083540402835291602001916200046f565b820191906000526020600020905b8154815290600101906020018083116200045157829003601f168201915b50505050509050919050565b60008060008373ffffffffffffffffffffffffffffffffffffffff1673ffffffffffffffffffffffffffffffffffffffff16815260200190815260200160002090508a620004c99062001d55565b8160000160106101000a8154816fffffffffffffffffffffffffffffffff021916908360801c02179055508b620005009062001d55565b8160000160006101000a8154816fffffffffffffffffffffffffffffffff021916908360801c021790555089620005379062001d55565b8160010160006101000a8154816fffffffffffffffffffffffffffffffff021916908360801c0217905550888160020190805190602001906200057c929190620011ec565b508781600301908051906020019062000597929190620011ec565b5086620005a49062001d55565b8160040160006101000a8154816fffffffffffffffffffffffffffffffff021916908360801c021790555085816005019080519060200190620005e9929190620011ec565b50848160060160006101000a81548161ffff021916908361ffff160217905550838160060160026101000a81548161ffff021916908361ffff16021790555060018160060160056101000a81548160ff02191690831515021790555060008360ff161415620006885760008160060160046101000a81548160ff021916908360028111156200067d576200067c6200193d565b5b021790555062000708565b60018360ff161415620006cb5760018160060160046101000a81548160ff02191690836002811115620006c057620006bf6200193d565b5b021790555062000707565b60028160060160046101000a81548160ff02191690836002811115620006f657620006f56200193d565b5b02179055506200070682620002b6565b5b5b6001829080600181540180825580915050600190039060005260206000200160009091909190916101000a81548173ffffffffffffffffffffffffffffffffffffffff021916908373ffffffffffffffffffffffffffffffffffffffff160217905550505050505050505050505050565b60006020528060005260406000206000915090508060000160009054906101000a900460801b908060000160109054906101000a900460801b908060010160009054906101000a900460801b90806002018054620007d79062001ce0565b80601f0160208091040260200160405190810160405280929190818152602001828054620008059062001ce0565b8015620008565780601f106200082a5761010080835404028352916020019162000856565b820191906000526020600020905b8154815290600101906020018083116200083857829003601f168201915b5050505050908060030180546200086d9062001ce0565b80601f01602080910402602001604051908101604052809291908181526020018280546200089b9062001ce0565b8015620008ec5780601f10620008c057610100808354040283529160200191620008ec565b820191906000526020600020905b815481529060010190602001808311620008ce57829003601f168201915b5050505050908060040160009054906101000a900460801b90806005018054620009169062001ce0565b80601f0160208091040260200160405190810160405280929190818152602001828054620009449062001ce0565b8015620009955780601f10620009695761010080835404028352916020019162000995565b820191906000526020600020905b8154815290600101906020018083116200097757829003601f168201915b5050505050908060060160009054906101000a900461ffff16908060060160029054906101000a900461ffff16908060060160049054906101000a900460ff16908060060160059054906101000a900460ff1690508b565b60018181548110620009fe57600080fd5b906000526020600020016000915054906101000a900473ffffffffffffffffffffffffffffffffffffffff1681565b62000a39838362000fb6565b1562000a4457600080fd5b6001600281111562000a5b5762000a5a6200193d565b5b6000803373ffffffffffffffffffffffffffffffffffffffff1673ffffffffffffffffffffffffffffffffffffffff16815260200190815260200160002060060160049054906101000a900460ff16600281111562000abf5762000abe6200193d565b5b1462000aca57600080fd5b60028081111562000ae05762000adf6200193d565b5b6000808373ffffffffffffffffffffffffffffffffffffffff1673ffffffffffffffffffffffffffffffffffffffff16815260200190815260200160002060060160049054906101000a900460ff16600281111562000b445762000b436200193d565b5b1462000b4f57600080fd5b60006003848460405162000b6592919062001df9565b90815260200160405180910390209050858582600001919062000b8a9291906200127d565b50338160010160006101000a81548173ffffffffffffffffffffffffffffffffffffffff021916908373ffffffffffffffffffffffffffffffffffffffff160217905550818160020160006101000a81548173ffffffffffffffffffffffffffffffffffffffff021916908373ffffffffffffffffffffffffffffffffffffffff16021790555060008160020160146101000a81548160ff0219169083151502179055508383600460006005548152602001908152602001600020919062000c549291906200127d565b506005600081548092919062000c6a9062001e43565b919050558160030181905550505050505050565b600060036004600084815260200190815260200160002060405162000ca4919062001f31565b908152602001604051809103902090503373ffffffffffffffffffffffffffffffffffffffff168160020160009054906101000a900473ffffffffffffffffffffffffffffffffffffffff1673ffffffffffffffffffffffffffffffffffffffff161462000d1157600080fd5b60028081111562000d275762000d266200193d565b5b6000808360020160009054906101000a900473ffffffffffffffffffffffffffffffffffffffff1673ffffffffffffffffffffffffffffffffffffffff1673ffffffffffffffffffffffffffffffffffffffff16815260200190815260200160002060060160049054906101000a900460ff16600281111562000daf5762000dae6200193d565b5b1462000dba57600080fd5b8060020160149054906101000a900460ff161562000dd757600080fd5b60018160020160146101000a81548160ff0219169083151502179055506000600260003373ffffffffffffffffffffffffffffffffffffffff1673ffffffffffffffffffffffffffffffffffffffff16815260200190815260200160002060009054906101000a900473ffffffffffffffffffffffffffffffffffffffff1690508073ffffffffffffffffffffffffffffffffffffffff16634780468f8360010160009054906101000a900473ffffffffffffffffffffffffffffffffffffffff166040518263ffffffff1660e01b815260040162000eb7919062001ac1565b600060405180830381600087803b15801562000ed257600080fd5b505af115801562000ee7573d6000803e3d6000fd5b505050506000808360010160009054906101000a900473ffffffffffffffffffffffffffffffffffffffff1673ffffffffffffffffffffffffffffffffffffffff1673ffffffffffffffffffffffffffffffffffffffff168152602001908152602001600020600701339080600181540180825580915050600190039060005260206000200160009091909190916101000a81548173ffffffffffffffffffffffffffffffffffffffff021916908373ffffffffffffffffffffffffffffffffffffffff160217905550505050565b600080600554141562000fcd57600090506200105c565b828260405160200162000fe292919062001df9565b6040516020818303038152906040528051906020012060046000600386866040516200101092919062001df9565b908152602001604051809103902060030154815260200190815260200160002060405160200162001042919062001f31565b604051602081830303815290604052805190602001201490505b92915050565b60026020528060005260406000206000915054906101000a900473ffffffffffffffffffffffffffffffffffffffff1681565b60606000806000620010a8868662000fb6565b620010b257600080fd5b600060038787604051620010c892919062001df9565b90815260200160405180910390209050806000018160010160009054906101000a900473ffffffffffffffffffffffffffffffffffffffff168260020160009054906101000a900473ffffffffffffffffffffffffffffffffffffffff168360020160149054906101000a900460ff16838054620011469062001ce0565b80601f0160208091040260200160405190810160405280929190818152602001828054620011749062001ce0565b8015620011c55780601f106200119957610100808354040283529160200191620011c5565b820191906000526020600020905b815481529060010190602001808311620011a757829003601f168201915b5050505050935094509450945094505092959194509250565b6110508062001f4b83390190565b828054620011fa9062001ce0565b90600052602060002090601f0160209004810192826200121e57600085556200126a565b82601f106200123957805160ff19168380011785556200126a565b828001600101855582156200126a579182015b82811115620012695782518255916020019190600101906200124c565b5b5090506200127991906200130e565b5090565b8280546200128b9062001ce0565b90600052602060002090601f016020900481019282620012af5760008555620012fb565b82601f10620012ca57803560ff1916838001178555620012fb565b82800160010185558215620012fb579182015b82811115620012fa578235825591602001919060010190620012dd565b5b5090506200130a91906200130e565b5090565b5b80821115620013295760008160009055506001016200130f565b5090565b6000819050919050565b62001342816200132d565b82525050565b60006020820190506200135f600083018462001337565b92915050565b6000604051905090565b600080fd5b600080fd5b600073ffffffffffffffffffffffffffffffffffffffff82169050919050565b6000620013a68262001379565b9050919050565b620013b88162001399565b8114620013c457600080fd5b50565b600081359050620013d881620013ad565b92915050565b600060208284031215620013f757620013f66200136f565b5b60006200140784828501620013c7565b91505092915050565b6200141b816200132d565b81146200142757600080fd5b50565b6000813590506200143b8162001410565b92915050565b6000602082840312156200145a57620014596200136f565b5b60006200146a848285016200142a565b91505092915050565b600081519050919050565b600082825260208201905092915050565b60005b83811015620014af57808201518184015260208101905062001492565b83811115620014bf576000848401525b50505050565b6000601f19601f8301169050919050565b6000620014e38262001473565b620014ef81856200147e565b9350620015018185602086016200148f565b6200150c81620014c5565b840191505092915050565b60006020820190508181036000830152620015338184620014d6565b905092915050565b600080fd5b600080fd5b7f4e487b7100000000000000000000000000000000000000000000000000000000600052604160045260246000fd5b6200157f82620014c5565b810181811067ffffffffffffffff82111715620015a157620015a062001545565b5b80604052505050565b6000620015b662001365565b9050620015c4828262001574565b919050565b600067ffffffffffffffff821115620015e757620015e662001545565b5b620015f282620014c5565b9050602081019050919050565b82818337600083830152505050565b6000620016256200161f84620015c9565b620015aa565b90508281526020810184848401111562001644576200164362001540565b5b62001651848285620015ff565b509392505050565b600082601f8301126200167157620016706200153b565b5b8135620016838482602086016200160e565b91505092915050565b600061ffff82169050919050565b620016a5816200168c565b8114620016b157600080fd5b50565b600081359050620016c5816200169a565b92915050565b600060ff82169050919050565b620016e381620016cb565b8114620016ef57600080fd5b50565b6000813590506200170381620016d8565b92915050565b60008060008060008060008060008060006101608c8e0312156200173257620017316200136f565b5b60008c013567ffffffffffffffff81111562001753576200175262001374565b5b620017618e828f0162001659565b9b505060208c013567ffffffffffffffff81111562001785576200178462001374565b5b620017938e828f0162001659565b9a505060408c013567ffffffffffffffff811115620017b757620017b662001374565b5b620017c58e828f0162001659565b99505060608c013567ffffffffffffffff811115620017e957620017e862001374565b5b620017f78e828f0162001659565b98505060808c013567ffffffffffffffff8111156200181b576200181a62001374565b5b620018298e828f0162001659565b97505060a08c013567ffffffffffffffff8111156200184d576200184c62001374565b5b6200185b8e828f0162001659565b96505060c08c013567ffffffffffffffff8111156200187f576200187e62001374565b5b6200188d8e828f0162001659565b95505060e0620018a08e828f01620016b4565b945050610100620018b48e828f01620016b4565b935050610120620018c88e828f01620016f2565b925050610140620018dc8e828f01620013c7565b9150509295989b509295989b9093969950565b60007fffffffffffffffffffffffffffffffff0000000000000000000000000000000082169050919050565b6200192681620018ef565b82525050565b62001937816200168c565b82525050565b7f4e487b7100000000000000000000000000000000000000000000000000000000600052602160045260246000fd5b6003811062001980576200197f6200193d565b5b50565b600081905062001993826200196c565b919050565b6000620019a58262001983565b9050919050565b620019b78162001998565b82525050565b60008115159050919050565b620019d481620019bd565b82525050565b600061016082019050620019f2600083018e6200191b565b62001a01602083018d6200191b565b62001a10604083018c6200191b565b818103606083015262001a24818b620014d6565b9050818103608083015262001a3a818a620014d6565b905062001a4b60a08301896200191b565b81810360c083015262001a5f8188620014d6565b905062001a7060e08301876200192c565b62001a806101008301866200192c565b62001a90610120830185620019ac565b62001aa0610140830184620019c9565b9c9b505050505050505050505050565b62001abb8162001399565b82525050565b600060208201905062001ad8600083018462001ab0565b92915050565b600080fd5b600080fd5b60008083601f84011262001b015762001b006200153b565b5b8235905067ffffffffffffffff81111562001b215762001b2062001ade565b5b60208301915083600182028301111562001b405762001b3f62001ae3565b5b9250929050565b60008060008060006060868803121562001b665762001b656200136f565b5b600086013567ffffffffffffffff81111562001b875762001b8662001374565b5b62001b958882890162001ae8565b9550955050602086013567ffffffffffffffff81111562001bbb5762001bba62001374565b5b62001bc98882890162001ae8565b9350935050604062001bde88828901620013c7565b9150509295509295909350565b6000806020838503121562001c055762001c046200136f565b5b600083013567ffffffffffffffff81111562001c265762001c2562001374565b5b62001c348582860162001ae8565b92509250509250929050565b600060208201905062001c576000830184620019c9565b92915050565b6000608082019050818103600083015262001c798187620014d6565b905062001c8a602083018662001ab0565b62001c99604083018562001ab0565b62001ca86060830184620019c9565b95945050505050565b7f4e487b7100000000000000000000000000000000000000000000000000000000600052602260045260246000fd5b6000600282049050600182168062001cf957607f821691505b6020821081141562001d105762001d0f62001cb1565b5b50919050565b600081519050919050565b6000819050602082019050919050565b600062001d3f8251620018ef565b80915050919050565b600082821b905092915050565b600062001d628262001d16565b8262001d6e8462001d21565b905062001d7b8162001d31565b9250601082101562001dbe5762001db97fffffffffffffffffffffffffffffffff000000000000000000000000000000008360100360080262001d48565b831692505b5050919050565b600081905092915050565b600062001dde838562001dc5565b935062001ded838584620015ff565b82840190509392505050565b600062001e0882848662001dd0565b91508190509392505050565b7f4e487b7100000000000000000000000000000000000000000000000000000000600052601160045260246000fd5b600062001e50826200132d565b91507fffffffffffffffffffffffffffffffffffffffffffffffffffffffffffffffff82141562001e865762001e8562001e14565b5b600182019050919050565b60008190508160005260206000209050919050565b6000815462001eb58162001ce0565b62001ec1818662001dc5565b9450600182166000811462001edf576001811462001ef15762001f28565b60ff1983168652818601935062001f28565b62001efc8562001e91565b60005b8381101562001f205781548189015260018201915060208101905062001eff565b838801955050505b50505092915050565b600062001f3f828462001ea6565b91508190509291505056fe608060405234801561001057600080fd5b506040516200105038038062001050833981810160405281019061003491906100dd565b806000806101000a81548173ffffffffffffffffffffffffffffffffffffffff021916908373ffffffffffffffffffffffffffffffffffffffff1602179055505061010a565b600080fd5b600073ffffffffffffffffffffffffffffffffffffffff82169050919050565b60006100aa8261007f565b9050919050565b6100ba8161009f565b81146100c557600080fd5b50565b6000815190506100d7816100b1565b92915050565b6000602082840312156100f3576100f261007a565b5b6000610101848285016100c8565b91505092915050565b610f36806200011a6000396000f3fe608060405234801561001057600080fd5b50600436106100885760003560e01c8063aeb9e57b1161005b578063aeb9e57b14610127578063b8306de614610143578063bd96bd2014610175578063e6af705f1461019357610088565b8063124b16ed1461008d57806317674544146100bd5780634780468f146100ed578063ab4ccf0114610109575b600080fd5b6100a760048036038101906100a2919061090b565b6101af565b6040516100b491906109d1565b60405180910390f35b6100d760048036038101906100d29190610a58565b610254565b6040516100e49190610ab4565b60405180910390f35b61010760048036038101906101029190610b2d565b6103ba565b005b610111610414565b60405161011e9190610ab4565b60405180910390f35b610141600480360381019061013c9190610b5a565b61041a565b005b61015d60048036038101906101589190610a58565b610545565b60405161016c93929190610bc9565b60405180910390f35b61017d61064d565b60405161018a9190610c00565b60405180910390f35b6101ad60048036038101906101a89190610b5a565b610671565b005b60606003600083815260200190815260200160002080546101cf90610c4a565b80601f01602080910402602001604051908101604052809291908181526020018280546101fb90610c4a565b80156102485780601f1061021d57610100808354040283529160200191610248565b820191906000526020600020905b81548152906001019060200180831161022b57829003601f168201915b50505050509050919050565b6000828260006004541161026757600080fd5b818160405160200161027a929190610cbb565b6040516020818303038152906040528051906020012060036000600285856040516102a6929190610cbb565b90815260200160405180910390206002015481526020019081526020016000206040516020016102d69190610d68565b60405160208183030381529060405280519060200120146102f657600080fd5b60006002868660405161030a929190610cbb565b908152602001604051809103902060020154905060006003600060016004546103339190610dae565b81526020019081526020016000209050806003600084815260200190815260200160002090805461036390610c4a565b61036e92919061079b565b50816002826040516103809190610e76565b908152602001604051809103902060020181905550600460008154809291906103a890610e8d565b91905055508194505050505092915050565b60018060008373ffffffffffffffffffffffffffffffffffffffff1673ffffffffffffffffffffffffffffffffffffffff16815260200190815260200160002060006101000a81548160ff02191690831515021790555050565b60045481565b600160003373ffffffffffffffffffffffffffffffffffffffff1673ffffffffffffffffffffffffffffffffffffffff16815260200190815260200160002060009054906101000a900460ff1661047057600080fd5b828260006004541161048157600080fd5b8181604051602001610494929190610cbb565b6040516020818303038152906040528051906020012060036000600285856040516104c0929190610cbb565b90815260200160405180910390206002015481526020019081526020016000206040516020016104f09190610d68565b604051602081830303815290604052805190602001201461051057600080fd5b600060028686604051610524929190610cbb565b90815260200160405180910390209050838160030181905550505050505050565b6000806000848460006004541161055b57600080fd5b818160405160200161056e929190610cbb565b60405160208183030381529060405280519060200120600360006002858560405161059a929190610cbb565b90815260200160405180910390206002015481526020019081526020016000206040516020016105ca9190610d68565b60405160208183030381529060405280519060200120146105ea57600080fd5b6000600288886040516105fe929190610cbb565b90815260200160405180910390209050806000015481600301548260010160009054906101000a900473ffffffffffffffffffffffffffffffffffffffff169550955095505050509250925092565b60008054906101000a900473ffffffffffffffffffffffffffffffffffffffff1681565b600160003373ffffffffffffffffffffffffffffffffffffffff1673ffffffffffffffffffffffffffffffffffffffff16815260200190815260200160002060009054906101000a900460ff166106c757600080fd5b6000600284846040516106db929190610cbb565b9081526020016040518091039020905060008160000154146106fc57600080fd5b428160000181905550338160010160006101000a81548173ffffffffffffffffffffffffffffffffffffffff021916908373ffffffffffffffffffffffffffffffffffffffff16021790555081816003018190555083836003600060045481526020019081526020016000209190610775929190610828565b506004600081548092919061078990610eb7565b91905055816002018190555050505050565b8280546107a790610c4a565b90600052602060002090601f0160209004810192826107c95760008555610817565b82601f106107da5780548555610817565b8280016001018555821561081757600052602060002091601f016020900482015b828111156108165782548255916001019190600101906107fb565b5b50905061082491906108ae565b5090565b82805461083490610c4a565b90600052602060002090601f016020900481019282610856576000855561089d565b82601f1061086f57803560ff191683800117855561089d565b8280016001018555821561089d579182015b8281111561089c578235825591602001919060010190610881565b5b5090506108aa91906108ae565b5090565b5b808211156108c75760008160009055506001016108af565b5090565b600080fd5b600080fd5b6000819050919050565b6108e8816108d5565b81146108f357600080fd5b50565b600081359050610905816108df565b92915050565b600060208284031215610921576109206108cb565b5b600061092f848285016108f6565b91505092915050565b600081519050919050565b600082825260208201905092915050565b60005b83811015610972578082015181840152602081019050610957565b83811115610981576000848401525b50505050565b6000601f19601f8301169050919050565b60006109a382610938565b6109ad8185610943565b93506109bd818560208601610954565b6109c681610987565b840191505092915050565b600060208201905081810360008301526109eb8184610998565b905092915050565b600080fd5b600080fd5b600080fd5b60008083601f840112610a1857610a176109f3565b5b8235905067ffffffffffffffff811115610a3557610a346109f8565b5b602083019150836001820283011115610a5157610a506109fd565b5b9250929050565b60008060208385031215610a6f57610a6e6108cb565b5b600083013567ffffffffffffffff811115610a8d57610a8c6108d0565b5b610a9985828601610a02565b92509250509250929050565b610aae816108d5565b82525050565b6000602082019050610ac96000830184610aa5565b92915050565b600073ffffffffffffffffffffffffffffffffffffffff82169050919050565b6000610afa82610acf565b9050919050565b610b0a81610aef565b8114610b1557600080fd5b50565b600081359050610b2781610b01565b92915050565b600060208284031215610b4357610b426108cb565b5b6000610b5184828501610b18565b91505092915050565b600080600060408486031215610b7357610b726108cb565b5b600084013567ffffffffffffffff811115610b9157610b906108d0565b5b610b9d86828701610a02565b93509350506020610bb0868287016108f6565b9150509250925092565b610bc381610aef565b82525050565b6000606082019050610bde6000830186610aa5565b610beb6020830185610aa5565b610bf86040830184610bba565b949350505050565b6000602082019050610c156000830184610bba565b92915050565b7f4e487b7100000000000000000000000000000000000000000000000000000000600052602260045260246000fd5b60006002820490506001821680610c6257607f821691505b60208210811415610c7657610c75610c1b565b5b50919050565b600081905092915050565b82818337600083830152505050565b6000610ca28385610c7c565b9350610caf838584610c87565b82840190509392505050565b6000610cc8828486610c96565b91508190509392505050565b60008190508160005260206000209050919050565b60008154610cf681610c4a565b610d008186610c7c565b94506001821660008114610d1b5760018114610d2c57610d5f565b60ff19831686528186019350610d5f565b610d3585610cd4565b60005b83811015610d5757815481890152600182019150602081019050610d38565b838801955050505b50505092915050565b6000610d748284610ce9565b915081905092915050565b7f4e487b7100000000000000000000000000000000000000000000000000000000600052601160045260246000fd5b6000610db9826108d5565b9150610dc4836108d5565b925082821015610dd757610dd6610d7f565b5b828203905092915050565b60008190508160005260206000209050919050565b60008154610e0481610c4a565b610e0e8186610c7c565b94506001821660008114610e295760018114610e3a57610e6d565b60ff19831686528186019350610e6d565b610e4385610de2565b60005b83811015610e6557815481890152600182019150602081019050610e46565b838801955050505b50505092915050565b6000610e828284610df7565b915081905092915050565b6000610e98826108d5565b91506000821415610eac57610eab610d7f565b5b600182039050919050565b6000610ec2826108d5565b91507fffffffffffffffffffffffffffffffffffffffffffffffffffffffffffffffff821415610ef557610ef4610d7f565b5b60018201905091905056fea2646970667358221220aa3059d4907e8838f2444600e46e85fa9dbb80a13f7a1e48ca2a5bc4ee56f4c264736f6c63430008090033a2646970667358221220e0063c403076cb0229675348ab44cf26d0e65c093a69291b8c337781a8ee0f2764736f6c63430008090033","opcodes":"PUSH1 0x80 PUSH1 0x40 MSTORE CALLVALUE DUP1 ISZERO PUSH2 0x10 JUMPI PUSH1 0x0 DUP1 REVERT JUMPDEST POP PUSH2 0x2FD0 DUP1 PUSH2 0x20 PUSH1 0x0 CODECOPY PUSH1 0x0 RETURN INVALID PUSH1 0x80 PUSH1 0x40 MSTORE CALLVALUE DUP1 ISZERO PUSH3 0x11 JUMPI PUSH1 0x0 DUP1 REVERT JUMPDEST POP PUSH1 0x4 CALLDATASIZE LT PUSH3 0xB8 JUMPI PUSH1 0x0 CALLDATALOAD PUSH1 0xE0 SHR DUP1 PUSH4 0xC37DFD6E GT PUSH3 0x7B JUMPI DUP1 PUSH4 0xC37DFD6E EQ PUSH3 0x195 JUMPI DUP1 PUSH4 0xD184232A EQ PUSH3 0x1CB JUMPI DUP1 PUSH4 0xD7D1BBDB EQ PUSH3 0x1EB JUMPI DUP1 PUSH4 0xDB5F3683 EQ PUSH3 0x20B JUMPI DUP1 PUSH4 0xF4028D11 EQ PUSH3 0x241 JUMPI DUP1 PUSH4 0xFDF97CE9 EQ PUSH3 0x277 JUMPI PUSH3 0xB8 JUMP JUMPDEST DUP1 PUSH4 0x5BADBE4C EQ PUSH3 0xBD JUMPI DUP1 PUSH4 0x65467557 EQ PUSH3 0xDF JUMPI DUP1 PUSH4 0x7073D87F EQ PUSH3 0xFF JUMPI DUP1 PUSH4 0xA86653FE EQ PUSH3 0x135 JUMPI DUP1 PUSH4 0xA87430BA EQ PUSH3 0x155 JUMPI JUMPDEST PUSH1 0x0 DUP1 REVERT JUMPDEST PUSH3 0xC7 PUSH3 0x2B0 JUMP JUMPDEST PUSH1 0x40 MLOAD PUSH3 0xD6 SWAP2 SWAP1 PUSH3 0x1348 JUMP JUMPDEST PUSH1 0x40 MLOAD DUP1 SWAP2 SUB SWAP1 RETURN JUMPDEST PUSH3 0xFD PUSH1 0x4 DUP1 CALLDATASIZE SUB DUP2 ADD SWAP1 PUSH3 0xF7 SWAP2 SWAP1 PUSH3 0x13DE JUMP JUMPDEST PUSH3 0x2B6 JUMP JUMPDEST STOP JUMPDEST PUSH3 0x11D PUSH1 0x4 DUP1 CALLDATASIZE SUB DUP2 ADD SWAP1 PUSH3 0x117 SWAP2 SWAP1 PUSH3 0x1441 JUMP JUMPDEST PUSH3 0x3CE JUMP JUMPDEST PUSH1 0x40 MLOAD PUSH3 0x12C SWAP2 SWAP1 PUSH3 0x1517 JUMP JUMPDEST PUSH1 0x40 MLOAD DUP1 SWAP2 SUB SWAP1 RETURN JUMPDEST PUSH3 0x153 PUSH1 0x4 DUP1 CALLDATASIZE SUB DUP2 ADD SWAP1 PUSH3 0x14D SWAP2 SWAP1 PUSH3 0x1709 JUMP JUMPDEST PUSH3 0x47B JUMP JUMPDEST STOP JUMPDEST PUSH3 0x173 PUSH1 0x4 DUP1 CALLDATASIZE SUB DUP2 ADD SWAP1 PUSH3 0x16D SWAP2 SWAP1 PUSH3 0x13DE JUMP JUMPDEST PUSH3 0x779 JUMP JUMPDEST PUSH1 0x40 MLOAD PUSH3 0x18C SWAP12 SWAP11 SWAP10 SWAP9 SWAP8 SWAP7 SWAP6 SWAP5 SWAP4 SWAP3 SWAP2 SWAP1 PUSH3 0x19DA JUMP JUMPDEST PUSH1 0x40 MLOAD DUP1 SWAP2 SUB SWAP1 RETURN JUMPDEST PUSH3 0x1B3 PUSH1 0x4 DUP1 CALLDATASIZE SUB DUP2 ADD SWAP1 PUSH3 0x1AD SWAP2 SWAP1 PUSH3 0x1441 JUMP JUMPDEST PUSH3 0x9ED JUMP JUMPDEST PUSH1 0x40 MLOAD PUSH3 0x1C2 SWAP2 SWAP1 PUSH3 0x1AC1 JUMP JUMPDEST PUSH1 0x40 MLOAD DUP1 SWAP2 SUB SWAP1 RETURN JUMPDEST PUSH3 0x1E9 PUSH1 0x4 DUP1 CALLDATASIZE SUB DUP2 ADD SWAP1 PUSH3 0x1E3 SWAP2 SWAP1 PUSH3 0x1B47 JUMP JUMPDEST PUSH3 0xA2D JUMP JUMPDEST STOP JUMPDEST PUSH3 0x209 PUSH1 0x4 DUP1 CALLDATASIZE SUB DUP2 ADD SWAP1 PUSH3 0x203 SWAP2 SWAP1 PUSH3 0x1441 JUMP JUMPDEST PUSH3 0xC7E JUMP JUMPDEST STOP JUMPDEST PUSH3 0x229 PUSH1 0x4 DUP1 CALLDATASIZE SUB DUP2 ADD SWAP1 PUSH3 0x223 SWAP2 SWAP1 PUSH3 0x1BEB JUMP JUMPDEST PUSH3 0xFB6 JUMP JUMPDEST PUSH1 0x40 MLOAD PUSH3 0x238 SWAP2 SWAP1 PUSH3 0x1C40 JUMP JUMPDEST PUSH1 0x40 MLOAD DUP1 SWAP2 SUB SWAP1 RETURN JUMPDEST PUSH3 0x25F PUSH1 0x4 DUP1 CALLDATASIZE SUB DUP2 ADD SWAP1 PUSH3 0x259 SWAP2 SWAP1 PUSH3 0x13DE JUMP JUMPDEST PUSH3 0x1062 JUMP JUMPDEST PUSH1 0x40 MLOAD PUSH3 0x26E SWAP2 SWAP1 PUSH3 0x1AC1 JUMP JUMPDEST PUSH1 0x40 MLOAD DUP1 SWAP2 SUB SWAP1 RETURN JUMPDEST PUSH3 0x295 PUSH1 0x4 DUP1 CALLDATASIZE SUB DUP2 ADD SWAP1 PUSH3 0x28F SWAP2 SWAP1 PUSH3 0x1BEB JUMP JUMPDEST PUSH3 0x1095 JUMP JUMPDEST PUSH1 0x40 MLOAD PUSH3 0x2A7 SWAP5 SWAP4 SWAP3 SWAP2 SWAP1 PUSH3 0x1C5D JUMP JUMPDEST PUSH1 0x40 MLOAD DUP1 SWAP2 SUB SWAP1 RETURN JUMPDEST PUSH1 0x5 SLOAD DUP2 JUMP JUMPDEST PUSH1 0x0 DUP1 DUP3 PUSH20 0xFFFFFFFFFFFFFFFFFFFFFFFFFFFFFFFFFFFFFFFF AND PUSH20 0xFFFFFFFFFFFFFFFFFFFFFFFFFFFFFFFFFFFFFFFF AND DUP2 MSTORE PUSH1 0x20 ADD SWAP1 DUP2 MSTORE PUSH1 0x20 ADD PUSH1 0x0 KECCAK256 PUSH1 0x6 ADD PUSH1 0x5 SWAP1 SLOAD SWAP1 PUSH2 0x100 EXP SWAP1 DIV PUSH1 0xFF AND PUSH3 0x30F JUMPI PUSH1 0x0 DUP1 REVERT JUMPDEST PUSH1 0x0 DUP2 PUSH1 0x40 MLOAD PUSH3 0x320 SWAP1 PUSH3 0x11DE JUMP JUMPDEST PUSH3 0x32C SWAP2 SWAP1 PUSH3 0x1AC1 JUMP JUMPDEST PUSH1 0x40 MLOAD DUP1 SWAP2 SUB SWAP1 PUSH1 0x0 CREATE DUP1 ISZERO DUP1 ISZERO PUSH3 0x349 JUMPI RETURNDATASIZE PUSH1 0x0 DUP1 RETURNDATACOPY RETURNDATASIZE PUSH1 0x0 REVERT JUMPDEST POP SWAP1 POP DUP1 PUSH1 0x2 PUSH1 0x0 DUP5 PUSH20 0xFFFFFFFFFFFFFFFFFFFFFFFFFFFFFFFFFFFFFFFF AND PUSH20 0xFFFFFFFFFFFFFFFFFFFFFFFFFFFFFFFFFFFFFFFF AND DUP2 MSTORE PUSH1 0x20 ADD SWAP1 DUP2 MSTORE PUSH1 0x20 ADD PUSH1 0x0 KECCAK256 PUSH1 0x0 PUSH2 0x100 EXP DUP2 SLOAD DUP2 PUSH20 0xFFFFFFFFFFFFFFFFFFFFFFFFFFFFFFFFFFFFFFFF MUL NOT AND SWAP1 DUP4 PUSH20 0xFFFFFFFFFFFFFFFFFFFFFFFFFFFFFFFFFFFFFFFF AND MUL OR SWAP1 SSTORE POP POP POP JUMP JUMPDEST PUSH1 0x60 PUSH1 0x4 PUSH1 0x0 DUP4 DUP2 MSTORE PUSH1 0x20 ADD SWAP1 DUP2 MSTORE PUSH1 0x20 ADD PUSH1 0x0 KECCAK256 DUP1 SLOAD PUSH3 0x3F0 SWAP1 PUSH3 0x1CE0 JUMP JUMPDEST DUP1 PUSH1 0x1F ADD PUSH1 0x20 DUP1 SWAP2 DIV MUL PUSH1 0x20 ADD PUSH1 0x40 MLOAD SWAP1 DUP2 ADD PUSH1 0x40 MSTORE DUP1 SWAP3 SWAP2 SWAP1 DUP2 DUP2 MSTORE PUSH1 0x20 ADD DUP3 DUP1 SLOAD PUSH3 0x41E SWAP1 PUSH3 0x1CE0 JUMP JUMPDEST DUP1 ISZERO PUSH3 0x46F JUMPI DUP1 PUSH1 0x1F LT PUSH3 0x443 JUMPI PUSH2 0x100 DUP1 DUP4 SLOAD DIV MUL DUP4 MSTORE SWAP2 PUSH1 0x20 ADD SWAP2 PUSH3 0x46F JUMP JUMPDEST DUP3 ADD SWAP2 SWAP1 PUSH1 0x0 MSTORE PUSH1 0x20 PUSH1 0x0 KECCAK256 SWAP1 JUMPDEST DUP2 SLOAD DUP2 MSTORE SWAP1 PUSH1 0x1 ADD SWAP1 PUSH1 0x20 ADD DUP1 DUP4 GT PUSH3 0x451 JUMPI DUP3 SWAP1 SUB PUSH1 0x1F AND DUP3 ADD SWAP2 JUMPDEST POP POP POP POP POP SWAP1 POP SWAP2 SWAP1 POP JUMP JUMPDEST PUSH1 0x0 DUP1 PUSH1 0x0 DUP4 PUSH20 0xFFFFFFFFFFFFFFFFFFFFFFFFFFFFFFFFFFFFFFFF AND PUSH20 0xFFFFFFFFFFFFFFFFFFFFFFFFFFFFFFFFFFFFFFFF AND DUP2 MSTORE PUSH1 0x20 ADD SWAP1 DUP2 MSTORE PUSH1 0x20 ADD PUSH1 0x0 KECCAK256 SWAP1 POP DUP11 PUSH3 0x4C9 SWAP1 PUSH3 0x1D55 JUMP JUMPDEST DUP2 PUSH1 0x0 ADD PUSH1 0x10 PUSH2 0x100 EXP DUP2 SLOAD DUP2 PUSH16 0xFFFFFFFFFFFFFFFFFFFFFFFFFFFFFFFF MUL NOT AND SWAP1 DUP4 PUSH1 0x80 SHR MUL OR SWAP1 SSTORE POP DUP12 PUSH3 0x500 SWAP1 PUSH3 0x1D55 JUMP JUMPDEST DUP2 PUSH1 0x0 ADD PUSH1 0x0 PUSH2 0x100 EXP DUP2 SLOAD DUP2 PUSH16 0xFFFFFFFFFFFFFFFFFFFFFFFFFFFFFFFF MUL NOT AND SWAP1 DUP4 PUSH1 0x80 SHR MUL OR SWAP1 SSTORE POP DUP10 PUSH3 0x537 SWAP1 PUSH3 0x1D55 JUMP JUMPDEST DUP2 PUSH1 0x1 ADD PUSH1 0x0 PUSH2 0x100 EXP DUP2 SLOAD DUP2 PUSH16 0xFFFFFFFFFFFFFFFFFFFFFFFFFFFFFFFF MUL NOT AND SWAP1 DUP4 PUSH1 0x80 SHR MUL OR SWAP1 SSTORE POP DUP9 DUP2 PUSH1 0x2 ADD SWAP1 DUP1 MLOAD SWAP1 PUSH1 0x20 ADD SWAP1 PUSH3 0x57C SWAP3 SWAP2 SWAP1 PUSH3 0x11EC JUMP JUMPDEST POP DUP8 DUP2 PUSH1 0x3 ADD SWAP1 DUP1 MLOAD SWAP1 PUSH1 0x20 ADD SWAP1 PUSH3 0x597 SWAP3 SWAP2 SWAP1 PUSH3 0x11EC JUMP JUMPDEST POP DUP7 PUSH3 0x5A4 SWAP1 PUSH3 0x1D55 JUMP JUMPDEST DUP2 PUSH1 0x4 ADD PUSH1 0x0 PUSH2 0x100 EXP DUP2 SLOAD DUP2 PUSH16 0xFFFFFFFFFFFFFFFFFFFFFFFFFFFFFFFF MUL NOT AND SWAP1 DUP4 PUSH1 0x80 SHR MUL OR SWAP1 SSTORE POP DUP6 DUP2 PUSH1 0x5 ADD SWAP1 DUP1 MLOAD SWAP1 PUSH1 0x20 ADD SWAP1 PUSH3 0x5E9 SWAP3 SWAP2 SWAP1 PUSH3 0x11EC JUMP JUMPDEST POP DUP5 DUP2 PUSH1 0x6 ADD PUSH1 0x0 PUSH2 0x100 EXP DUP2 SLOAD DUP2 PUSH2 0xFFFF MUL NOT AND SWAP1 DUP4 PUSH2 0xFFFF AND MUL OR SWAP1 SSTORE POP DUP4 DUP2 PUSH1 0x6 ADD PUSH1 0x2 PUSH2 0x100 EXP DUP2 SLOAD DUP2 PUSH2 0xFFFF MUL NOT AND SWAP1 DUP4 PUSH2 0xFFFF AND MUL OR SWAP1 SSTORE POP PUSH1 0x1 DUP2 PUSH1 0x6 ADD PUSH1 0x5 PUSH2 0x100 EXP DUP2 SLOAD DUP2 PUSH1 0xFF MUL NOT AND SWAP1 DUP4 ISZERO ISZERO MUL OR SWAP1 SSTORE POP PUSH1 0x0 DUP4 PUSH1 0xFF AND EQ ISZERO PUSH3 0x688 JUMPI PUSH1 0x0 DUP2 PUSH1 0x6 ADD PUSH1 0x4 PUSH2 0x100 EXP DUP2 SLOAD DUP2 PUSH1 0xFF MUL NOT AND SWAP1 DUP4 PUSH1 0x2 DUP2 GT ISZERO PUSH3 0x67D JUMPI PUSH3 0x67C PUSH3 0x193D JUMP JUMPDEST JUMPDEST MUL OR SWAP1 SSTORE POP PUSH3 0x708 JUMP JUMPDEST PUSH1 0x1 DUP4 PUSH1 0xFF AND EQ ISZERO PUSH3 0x6CB JUMPI PUSH1 0x1 DUP2 PUSH1 0x6 ADD PUSH1 0x4 PUSH2 0x100 EXP DUP2 SLOAD DUP2 PUSH1 0xFF MUL NOT AND SWAP1 DUP4 PUSH1 0x2 DUP2 GT ISZERO PUSH3 0x6C0 JUMPI PUSH3 0x6BF PUSH3 0x193D JUMP JUMPDEST JUMPDEST MUL OR SWAP1 SSTORE POP PUSH3 0x707 JUMP JUMPDEST PUSH1 0x2 DUP2 PUSH1 0x6 ADD PUSH1 0x4 PUSH2 0x100 EXP DUP2 SLOAD DUP2 PUSH1 0xFF MUL NOT AND SWAP1 DUP4 PUSH1 0x2 DUP2 GT ISZERO PUSH3 0x6F6 JUMPI PUSH3 0x6F5 PUSH3 0x193D JUMP JUMPDEST JUMPDEST MUL OR SWAP1 SSTORE POP PUSH3 0x706 DUP3 PUSH3 0x2B6 JUMP JUMPDEST JUMPDEST JUMPDEST PUSH1 0x1 DUP3 SWAP1 DUP1 PUSH1 0x1 DUP2 SLOAD ADD DUP1 DUP3 SSTORE DUP1 SWAP2 POP POP PUSH1 0x1 SWAP1 SUB SWAP1 PUSH1 0x0 MSTORE PUSH1 0x20 PUSH1 0x0 KECCAK256 ADD PUSH1 0x0 SWAP1 SWAP2 SWAP1 SWAP2 SWAP1 SWAP2 PUSH2 0x100 EXP DUP2 SLOAD DUP2 PUSH20 0xFFFFFFFFFFFFFFFFFFFFFFFFFFFFFFFFFFFFFFFF MUL NOT AND SWAP1 DUP4 PUSH20 0xFFFFFFFFFFFFFFFFFFFFFFFFFFFFFFFFFFFFFFFF AND MUL OR SWAP1 SSTORE POP POP POP POP POP POP POP POP POP POP POP POP POP JUMP JUMPDEST PUSH1 0x0 PUSH1 0x20 MSTORE DUP1 PUSH1 0x0 MSTORE PUSH1 0x40 PUSH1 0x0 KECCAK256 PUSH1 0x0 SWAP2 POP SWAP1 POP DUP1 PUSH1 0x0 ADD PUSH1 0x0 SWAP1 SLOAD SWAP1 PUSH2 0x100 EXP SWAP1 DIV PUSH1 0x80 SHL SWAP1 DUP1 PUSH1 0x0 ADD PUSH1 0x10 SWAP1 SLOAD SWAP1 PUSH2 0x100 EXP SWAP1 DIV PUSH1 0x80 SHL SWAP1 DUP1 PUSH1 0x1 ADD PUSH1 0x0 SWAP1 SLOAD SWAP1 PUSH2 0x100 EXP SWAP1 DIV PUSH1 0x80 SHL SWAP1 DUP1 PUSH1 0x2 ADD DUP1 SLOAD PUSH3 0x7D7 SWAP1 PUSH3 0x1CE0 JUMP JUMPDEST DUP1 PUSH1 0x1F ADD PUSH1 0x20 DUP1 SWAP2 DIV MUL PUSH1 0x20 ADD PUSH1 0x40 MLOAD SWAP1 DUP2 ADD PUSH1 0x40 MSTORE DUP1 SWAP3 SWAP2 SWAP1 DUP2 DUP2 MSTORE PUSH1 0x20 ADD DUP3 DUP1 SLOAD PUSH3 0x805 SWAP1 PUSH3 0x1CE0 JUMP JUMPDEST DUP1 ISZERO PUSH3 0x856 JUMPI DUP1 PUSH1 0x1F LT PUSH3 0x82A JUMPI PUSH2 0x100 DUP1 DUP4 SLOAD DIV MUL DUP4 MSTORE SWAP2 PUSH1 0x20 ADD SWAP2 PUSH3 0x856 JUMP JUMPDEST DUP3 ADD SWAP2 SWAP1 PUSH1 0x0 MSTORE PUSH1 0x20 PUSH1 0x0 KECCAK256 SWAP1 JUMPDEST DUP2 SLOAD DUP2 MSTORE SWAP1 PUSH1 0x1 ADD SWAP1 PUSH1 0x20 ADD DUP1 DUP4 GT PUSH3 0x838 JUMPI DUP3 SWAP1 SUB PUSH1 0x1F AND DUP3 ADD SWAP2 JUMPDEST POP POP POP POP POP SWAP1 DUP1 PUSH1 0x3 ADD DUP1 SLOAD PUSH3 0x86D SWAP1 PUSH3 0x1CE0 JUMP JUMPDEST DUP1 PUSH1 0x1F ADD PUSH1 0x20 DUP1 SWAP2 DIV MUL PUSH1 0x20 ADD PUSH1 0x40 MLOAD SWAP1 DUP2 ADD PUSH1 0x40 MSTORE DUP1 SWAP3 SWAP2 SWAP1 DUP2 DUP2 MSTORE PUSH1 0x20 ADD DUP3 DUP1 SLOAD PUSH3 0x89B SWAP1 PUSH3 0x1CE0 JUMP JUMPDEST DUP1 ISZERO PUSH3 0x8EC JUMPI DUP1 PUSH1 0x1F LT PUSH3 0x8C0 JUMPI PUSH2 0x100 DUP1 DUP4 SLOAD DIV MUL DUP4 MSTORE SWAP2 PUSH1 0x20 ADD SWAP2 PUSH3 0x8EC JUMP JUMPDEST DUP3 ADD SWAP2 SWAP1 PUSH1 0x0 MSTORE PUSH1 0x20 PUSH1 0x0 KECCAK256 SWAP1 JUMPDEST DUP2 SLOAD DUP2 MSTORE SWAP1 PUSH1 0x1 ADD SWAP1 PUSH1 0x20 ADD DUP1 DUP4 GT PUSH3 0x8CE JUMPI DUP3 SWAP1 SUB PUSH1 0x1F AND DUP3 ADD SWAP2 JUMPDEST POP POP POP POP POP SWAP1 DUP1 PUSH1 0x4 ADD PUSH1 0x0 SWAP1 SLOAD SWAP1 PUSH2 0x100 EXP SWAP1 DIV PUSH1 0x80 SHL SWAP1 DUP1 PUSH1 0x5 ADD DUP1 SLOAD PUSH3 0x916 SWAP1 PUSH3 0x1CE0 JUMP JUMPDEST DUP1 PUSH1 0x1F ADD PUSH1 0x20 DUP1 SWAP2 DIV MUL PUSH1 0x20 ADD PUSH1 0x40 MLOAD SWAP1 DUP2 ADD PUSH1 0x40 MSTORE DUP1 SWAP3 SWAP2 SWAP1 DUP2 DUP2 MSTORE PUSH1 0x20 ADD DUP3 DUP1 SLOAD PUSH3 0x944 SWAP1 PUSH3 0x1CE0 JUMP JUMPDEST DUP1 ISZERO PUSH3 0x995 JUMPI DUP1 PUSH1 0x1F LT PUSH3 0x969 JUMPI PUSH2 0x100 DUP1 DUP4 SLOAD DIV MUL DUP4 MSTORE SWAP2 PUSH1 0x20 ADD SWAP2 PUSH3 0x995 JUMP JUMPDEST DUP3 ADD SWAP2 SWAP1 PUSH1 0x0 MSTORE PUSH1 0x20 PUSH1 0x0 KECCAK256 SWAP1 JUMPDEST DUP2 SLOAD DUP2 MSTORE SWAP1 PUSH1 0x1 ADD SWAP1 PUSH1 0x20 ADD DUP1 DUP4 GT PUSH3 0x977 JUMPI DUP3 SWAP1 SUB PUSH1 0x1F AND DUP3 ADD SWAP2 JUMPDEST POP POP POP POP POP SWAP1 DUP1 PUSH1 0x6 ADD PUSH1 0x0 SWAP1 SLOAD SWAP1 PUSH2 0x100 EXP SWAP1 DIV PUSH2 0xFFFF AND SWAP1 DUP1 PUSH1 0x6 ADD PUSH1 0x2 SWAP1 SLOAD SWAP1 PUSH2 0x100 EXP SWAP1 DIV PUSH2 0xFFFF AND SWAP1 DUP1 PUSH1 0x6 ADD PUSH1 0x4 SWAP1 SLOAD SWAP1 PUSH2 0x100 EXP SWAP1 DIV PUSH1 0xFF AND SWAP1 DUP1 PUSH1 0x6 ADD PUSH1 0x5 SWAP1 SLOAD SWAP1 PUSH2 0x100 EXP SWAP1 DIV PUSH1 0xFF AND SWAP1 POP DUP12 JUMP JUMPDEST PUSH1 0x1 DUP2 DUP2 SLOAD DUP2 LT PUSH3 0x9FE JUMPI PUSH1 0x0 DUP1 REVERT JUMPDEST SWAP1 PUSH1 0x0 MSTORE PUSH1 0x20 PUSH1 0x0 KECCAK256 ADD PUSH1 0x0 SWAP2 POP SLOAD SWAP1 PUSH2 0x100 EXP SWAP1 DIV PUSH20 0xFFFFFFFFFFFFFFFFFFFFFFFFFFFFFFFFFFFFFFFF AND DUP2 JUMP JUMPDEST PUSH3 0xA39 DUP4 DUP4 PUSH3 0xFB6 JUMP JUMPDEST ISZERO PUSH3 0xA44 JUMPI PUSH1 0x0 DUP1 REVERT JUMPDEST PUSH1 0x1 PUSH1 0x2 DUP2 GT ISZERO PUSH3 0xA5B JUMPI PUSH3 0xA5A PUSH3 0x193D JUMP JUMPDEST JUMPDEST PUSH1 0x0 DUP1 CALLER PUSH20 0xFFFFFFFFFFFFFFFFFFFFFFFFFFFFFFFFFFFFFFFF AND PUSH20 0xFFFFFFFFFFFFFFFFFFFFFFFFFFFFFFFFFFFFFFFF AND DUP2 MSTORE PUSH1 0x20 ADD SWAP1 DUP2 MSTORE PUSH1 0x20 ADD PUSH1 0x0 KECCAK256 PUSH1 0x6 ADD PUSH1 0x4 SWAP1 SLOAD SWAP1 PUSH2 0x100 EXP SWAP1 DIV PUSH1 0xFF AND PUSH1 0x2 DUP2 GT ISZERO PUSH3 0xABF JUMPI PUSH3 0xABE PUSH3 0x193D JUMP JUMPDEST JUMPDEST EQ PUSH3 0xACA JUMPI PUSH1 0x0 DUP1 REVERT JUMPDEST PUSH1 0x2 DUP1 DUP2 GT ISZERO PUSH3 0xAE0 JUMPI PUSH3 0xADF PUSH3 0x193D JUMP JUMPDEST JUMPDEST PUSH1 0x0 DUP1 DUP4 PUSH20 0xFFFFFFFFFFFFFFFFFFFFFFFFFFFFFFFFFFFFFFFF AND PUSH20 0xFFFFFFFFFFFFFFFFFFFFFFFFFFFFFFFFFFFFFFFF AND DUP2 MSTORE PUSH1 0x20 ADD SWAP1 DUP2 MSTORE PUSH1 0x20 ADD PUSH1 0x0 KECCAK256 PUSH1 0x6 ADD PUSH1 0x4 SWAP1 SLOAD SWAP1 PUSH2 0x100 EXP SWAP1 DIV PUSH1 0xFF AND PUSH1 0x2 DUP2 GT ISZERO PUSH3 0xB44 JUMPI PUSH3 0xB43 PUSH3 0x193D JUMP JUMPDEST JUMPDEST EQ PUSH3 0xB4F JUMPI PUSH1 0x0 DUP1 REVERT JUMPDEST PUSH1 0x0 PUSH1 0x3 DUP5 DUP5 PUSH1 0x40 MLOAD PUSH3 0xB65 SWAP3 SWAP2 SWAP1 PUSH3 0x1DF9 JUMP JUMPDEST SWAP1 DUP2 MSTORE PUSH1 0x20 ADD PUSH1 0x40 MLOAD DUP1 SWAP2 SUB SWAP1 KECCAK256 SWAP1 POP DUP6 DUP6 DUP3 PUSH1 0x0 ADD SWAP2 SWAP1 PUSH3 0xB8A SWAP3 SWAP2 SWAP1 PUSH3 0x127D JUMP JUMPDEST POP CALLER DUP2 PUSH1 0x1 ADD PUSH1 0x0 PUSH2 0x100 EXP DUP2 SLOAD DUP2 PUSH20 0xFFFFFFFFFFFFFFFFFFFFFFFFFFFFFFFFFFFFFFFF MUL NOT AND SWAP1 DUP4 PUSH20 0xFFFFFFFFFFFFFFFFFFFFFFFFFFFFFFFFFFFFFFFF AND MUL OR SWAP1 SSTORE POP DUP2 DUP2 PUSH1 0x2 ADD PUSH1 0x0 PUSH2 0x100 EXP DUP2 SLOAD DUP2 PUSH20 0xFFFFFFFFFFFFFFFFFFFFFFFFFFFFFFFFFFFFFFFF MUL NOT AND SWAP1 DUP4 PUSH20 0xFFFFFFFFFFFFFFFFFFFFFFFFFFFFFFFFFFFFFFFF AND MUL OR SWAP1 SSTORE POP PUSH1 0x0 DUP2 PUSH1 0x2 ADD PUSH1 0x14 PUSH2 0x100 EXP DUP2 SLOAD DUP2 PUSH1 0xFF MUL NOT AND SWAP1 DUP4 ISZERO ISZERO MUL OR SWAP1 SSTORE POP DUP4 DUP4 PUSH1 0x4 PUSH1 0x0 PUSH1 0x5 SLOAD DUP2 MSTORE PUSH1 0x20 ADD SWAP1 DUP2 MSTORE PUSH1 0x20 ADD PUSH1 0x0 KECCAK256 SWAP2 SWAP1 PUSH3 0xC54 SWAP3 SWAP2 SWAP1 PUSH3 0x127D JUMP JUMPDEST POP PUSH1 0x5 PUSH1 0x0 DUP2 SLOAD DUP1 SWAP3 SWAP2 SWAP1 PUSH3 0xC6A SWAP1 PUSH3 0x1E43 JUMP JUMPDEST SWAP2 SWAP1 POP SSTORE DUP2 PUSH1 0x3 ADD DUP2 SWAP1 SSTORE POP POP POP POP POP POP POP JUMP JUMPDEST PUSH1 0x0 PUSH1 0x3 PUSH1 0x4 PUSH1 0x0 DUP5 DUP2 MSTORE PUSH1 0x20 ADD SWAP1 DUP2 MSTORE PUSH1 0x20 ADD PUSH1 0x0 KECCAK256 PUSH1 0x40 MLOAD PUSH3 0xCA4 SWAP2 SWAP1 PUSH3 0x1F31 JUMP JUMPDEST SWAP1 DUP2 MSTORE PUSH1 0x20 ADD PUSH1 0x40 MLOAD DUP1 SWAP2 SUB SWAP1 KECCAK256 SWAP1 POP CALLER PUSH20 0xFFFFFFFFFFFFFFFFFFFFFFFFFFFFFFFFFFFFFFFF AND DUP2 PUSH1 0x2 ADD PUSH1 0x0 SWAP1 SLOAD SWAP1 PUSH2 0x100 EXP SWAP1 DIV PUSH20 0xFFFFFFFFFFFFFFFFFFFFFFFFFFFFFFFFFFFFFFFF AND PUSH20 0xFFFFFFFFFFFFFFFFFFFFFFFFFFFFFFFFFFFFFFFF AND EQ PUSH3 0xD11 JUMPI PUSH1 0x0 DUP1 REVERT JUMPDEST PUSH1 0x2 DUP1 DUP2 GT ISZERO PUSH3 0xD27 JUMPI PUSH3 0xD26 PUSH3 0x193D JUMP JUMPDEST JUMPDEST PUSH1 0x0 DUP1 DUP4 PUSH1 0x2 ADD PUSH1 0x0 SWAP1 SLOAD SWAP1 PUSH2 0x100 EXP SWAP1 DIV PUSH20 0xFFFFFFFFFFFFFFFFFFFFFFFFFFFFFFFFFFFFFFFF AND PUSH20 0xFFFFFFFFFFFFFFFFFFFFFFFFFFFFFFFFFFFFFFFF AND PUSH20 0xFFFFFFFFFFFFFFFFFFFFFFFFFFFFFFFFFFFFFFFF AND DUP2 MSTORE PUSH1 0x20 ADD SWAP1 DUP2 MSTORE PUSH1 0x20 ADD PUSH1 0x0 KECCAK256 PUSH1 0x6 ADD PUSH1 0x4 SWAP1 SLOAD SWAP1 PUSH2 0x100 EXP SWAP1 DIV PUSH1 0xFF AND PUSH1 0x2 DUP2 GT ISZERO PUSH3 0xDAF JUMPI PUSH3 0xDAE PUSH3 0x193D JUMP JUMPDEST JUMPDEST EQ PUSH3 0xDBA JUMPI PUSH1 0x0 DUP1 REVERT JUMPDEST DUP1 PUSH1 0x2 ADD PUSH1 0x14 SWAP1 SLOAD SWAP1 PUSH2 0x100 EXP SWAP1 DIV PUSH1 0xFF AND ISZERO PUSH3 0xDD7 JUMPI PUSH1 0x0 DUP1 REVERT JUMPDEST PUSH1 0x1 DUP2 PUSH1 0x2 ADD PUSH1 0x14 PUSH2 0x100 EXP DUP2 SLOAD DUP2 PUSH1 0xFF MUL NOT AND SWAP1 DUP4 ISZERO ISZERO MUL OR SWAP1 SSTORE POP PUSH1 0x0 PUSH1 0x2 PUSH1 0x0 CALLER PUSH20 0xFFFFFFFFFFFFFFFFFFFFFFFFFFFFFFFFFFFFFFFF AND PUSH20 0xFFFFFFFFFFFFFFFFFFFFFFFFFFFFFFFFFFFFFFFF AND DUP2 MSTORE PUSH1 0x20 ADD SWAP1 DUP2 MSTORE PUSH1 0x20 ADD PUSH1 0x0 KECCAK256 PUSH1 0x0 SWAP1 SLOAD SWAP1 PUSH2 0x100 EXP SWAP1 DIV PUSH20 0xFFFFFFFFFFFFFFFFFFFFFFFFFFFFFFFFFFFFFFFF AND SWAP1 POP DUP1 PUSH20 0xFFFFFFFFFFFFFFFFFFFFFFFFFFFFFFFFFFFFFFFF AND PUSH4 0x4780468F DUP4 PUSH1 0x1 ADD PUSH1 0x0 SWAP1 SLOAD SWAP1 PUSH2 0x100 EXP SWAP1 DIV PUSH20 0xFFFFFFFFFFFFFFFFFFFFFFFFFFFFFFFFFFFFFFFF AND PUSH1 0x40 MLOAD DUP3 PUSH4 0xFFFFFFFF AND PUSH1 0xE0 SHL DUP2 MSTORE PUSH1 0x4 ADD PUSH3 0xEB7 SWAP2 SWAP1 PUSH3 0x1AC1 JUMP JUMPDEST PUSH1 0x0 PUSH1 0x40 MLOAD DUP1 DUP4 SUB DUP2 PUSH1 0x0 DUP8 DUP1 EXTCODESIZE ISZERO DUP1 ISZERO PUSH3 0xED2 JUMPI PUSH1 0x0 DUP1 REVERT JUMPDEST POP GAS CALL ISZERO DUP1 ISZERO PUSH3 0xEE7 JUMPI RETURNDATASIZE PUSH1 0x0 DUP1 RETURNDATACOPY RETURNDATASIZE PUSH1 0x0 REVERT JUMPDEST POP POP POP POP PUSH1 0x0 DUP1 DUP4 PUSH1 0x1 ADD PUSH1 0x0 SWAP1 SLOAD SWAP1 PUSH2 0x100 EXP SWAP1 DIV PUSH20 0xFFFFFFFFFFFFFFFFFFFFFFFFFFFFFFFFFFFFFFFF AND PUSH20 0xFFFFFFFFFFFFFFFFFFFFFFFFFFFFFFFFFFFFFFFF AND PUSH20 0xFFFFFFFFFFFFFFFFFFFFFFFFFFFFFFFFFFFFFFFF AND DUP2 MSTORE PUSH1 0x20 ADD SWAP1 DUP2 MSTORE PUSH1 0x20 ADD PUSH1 0x0 KECCAK256 PUSH1 0x7 ADD CALLER SWAP1 DUP1 PUSH1 0x1 DUP2 SLOAD ADD DUP1 DUP3 SSTORE DUP1 SWAP2 POP POP PUSH1 0x1 SWAP1 SUB SWAP1 PUSH1 0x0 MSTORE PUSH1 0x20 PUSH1 0x0 KECCAK256 ADD PUSH1 0x0 SWAP1 SWAP2 SWAP1 SWAP2 SWAP1 SWAP2 PUSH2 0x100 EXP DUP2 SLOAD DUP2 PUSH20 0xFFFFFFFFFFFFFFFFFFFFFFFFFFFFFFFFFFFFFFFF MUL NOT AND SWAP1 DUP4 PUSH20 0xFFFFFFFFFFFFFFFFFFFFFFFFFFFFFFFFFFFFFFFF AND MUL OR SWAP1 SSTORE POP POP POP POP JUMP JUMPDEST PUSH1 0x0 DUP1 PUSH1 0x5 SLOAD EQ ISZERO PUSH3 0xFCD JUMPI PUSH1 0x0 SWAP1 POP PUSH3 0x105C JUMP JUMPDEST DUP3 DUP3 PUSH1 0x40 MLOAD PUSH1 0x20 ADD PUSH3 0xFE2 SWAP3 SWAP2 SWAP1 PUSH3 0x1DF9 JUMP JUMPDEST PUSH1 0x40 MLOAD PUSH1 0x20 DUP2 DUP4 SUB SUB DUP2 MSTORE SWAP1 PUSH1 0x40 MSTORE DUP1 MLOAD SWAP1 PUSH1 0x20 ADD KECCAK256 PUSH1 0x4 PUSH1 0x0 PUSH1 0x3 DUP7 DUP7 PUSH1 0x40 MLOAD PUSH3 0x1010 SWAP3 SWAP2 SWAP1 PUSH3 0x1DF9 JUMP JUMPDEST SWAP1 DUP2 MSTORE PUSH1 0x20 ADD PUSH1 0x40 MLOAD DUP1 SWAP2 SUB SWAP1 KECCAK256 PUSH1 0x3 ADD SLOAD DUP2 MSTORE PUSH1 0x20 ADD SWAP1 DUP2 MSTORE PUSH1 0x20 ADD PUSH1 0x0 KECCAK256 PUSH1 0x40 MLOAD PUSH1 0x20 ADD PUSH3 0x1042 SWAP2 SWAP1 PUSH3 0x1F31 JUMP JUMPDEST PUSH1 0x40 MLOAD PUSH1 0x20 DUP2 DUP4 SUB SUB DUP2 MSTORE SWAP1 PUSH1 0x40 MSTORE DUP1 MLOAD SWAP1 PUSH1 0x20 ADD KECCAK256 EQ SWAP1 POP JUMPDEST SWAP3 SWAP2 POP POP JUMP JUMPDEST PUSH1 0x2 PUSH1 0x20 MSTORE DUP1 PUSH1 0x0 MSTORE PUSH1 0x40 PUSH1 0x0 KECCAK256 PUSH1 0x0 SWAP2 POP SLOAD SWAP1 PUSH2 0x100 EXP SWAP1 DIV PUSH20 0xFFFFFFFFFFFFFFFFFFFFFFFFFFFFFFFFFFFFFFFF AND DUP2 JUMP JUMPDEST PUSH1 0x60 PUSH1 0x0 DUP1 PUSH1 0x0 PUSH3 0x10A8 DUP7 DUP7 PUSH3 0xFB6 JUMP JUMPDEST PUSH3 0x10B2 JUMPI PUSH1 0x0 DUP1 REVERT JUMPDEST PUSH1 0x0 PUSH1 0x3 DUP8 DUP8 PUSH1 0x40 MLOAD PUSH3 0x10C8 SWAP3 SWAP2 SWAP1 PUSH3 0x1DF9 JUMP JUMPDEST SWAP1 DUP2 MSTORE PUSH1 0x20 ADD PUSH1 0x40 MLOAD DUP1 SWAP2 SUB SWAP1 KECCAK256 SWAP1 POP DUP1 PUSH1 0x0 ADD DUP2 PUSH1 0x1 ADD PUSH1 0x0 SWAP1 SLOAD SWAP1 PUSH2 0x100 EXP SWAP1 DIV PUSH20 0xFFFFFFFFFFFFFFFFFFFFFFFFFFFFFFFFFFFFFFFF AND DUP3 PUSH1 0x2 ADD PUSH1 0x0 SWAP1 SLOAD SWAP1 PUSH2 0x100 EXP SWAP1 DIV PUSH20 0xFFFFFFFFFFFFFFFFFFFFFFFFFFFFFFFFFFFFFFFF AND DUP4 PUSH1 0x2 ADD PUSH1 0x14 SWAP1 SLOAD SWAP1 PUSH2 0x100 EXP SWAP1 DIV PUSH1 0xFF AND DUP4 DUP1 SLOAD PUSH3 0x1146 SWAP1 PUSH3 0x1CE0 JUMP JUMPDEST DUP1 PUSH1 0x1F ADD PUSH1 0x20 DUP1 SWAP2 DIV MUL PUSH1 0x20 ADD PUSH1 0x40 MLOAD SWAP1 DUP2 ADD PUSH1 0x40 MSTORE DUP1 SWAP3 SWAP2 SWAP1 DUP2 DUP2 MSTORE PUSH1 0x20 ADD DUP3 DUP1 SLOAD PUSH3 0x1174 SWAP1 PUSH3 0x1CE0 JUMP JUMPDEST DUP1 ISZERO PUSH3 0x11C5 JUMPI DUP1 PUSH1 0x1F LT PUSH3 0x1199 JUMPI PUSH2 0x100 DUP1 DUP4 SLOAD DIV MUL DUP4 MSTORE SWAP2 PUSH1 0x20 ADD SWAP2 PUSH3 0x11C5 JUMP JUMPDEST DUP3 ADD SWAP2 SWAP1 PUSH1 0x0 MSTORE PUSH1 0x20 PUSH1 0x0 KECCAK256 SWAP1 JUMPDEST DUP2 SLOAD DUP2 MSTORE SWAP1 PUSH1 0x1 ADD SWAP1 PUSH1 0x20 ADD DUP1 DUP4 GT PUSH3 0x11A7 JUMPI DUP3 SWAP1 SUB PUSH1 0x1F AND DUP3 ADD SWAP2 JUMPDEST POP POP POP POP POP SWAP4 POP SWAP5 POP SWAP5 POP SWAP5 POP SWAP5 POP POP SWAP3 SWAP6 SWAP2 SWAP5 POP SWAP3 POP JUMP JUMPDEST PUSH2 0x1050 DUP1 PUSH3 0x1F4B DUP4 CODECOPY ADD SWAP1 JUMP JUMPDEST DUP3 DUP1 SLOAD PUSH3 0x11FA SWAP1 PUSH3 0x1CE0 JUMP JUMPDEST SWAP1 PUSH1 0x0 MSTORE PUSH1 0x20 PUSH1 0x0 KECCAK256 SWAP1 PUSH1 0x1F ADD PUSH1 0x20 SWAP1 DIV DUP2 ADD SWAP3 DUP3 PUSH3 0x121E JUMPI PUSH1 0x0 DUP6 SSTORE PUSH3 0x126A JUMP JUMPDEST DUP3 PUSH1 0x1F LT PUSH3 0x1239 JUMPI DUP1 MLOAD PUSH1 0xFF NOT AND DUP4 DUP1 ADD OR DUP6 SSTORE PUSH3 0x126A JUMP JUMPDEST DUP3 DUP1 ADD PUSH1 0x1 ADD DUP6 SSTORE DUP3 ISZERO PUSH3 0x126A JUMPI SWAP2 DUP3 ADD JUMPDEST DUP3 DUP2 GT ISZERO PUSH3 0x1269 JUMPI DUP3 MLOAD DUP3 SSTORE SWAP2 PUSH1 0x20 ADD SWAP2 SWAP1 PUSH1 0x1 ADD SWAP1 PUSH3 0x124C JUMP JUMPDEST JUMPDEST POP SWAP1 POP PUSH3 0x1279 SWAP2 SWAP1 PUSH3 0x130E JUMP JUMPDEST POP SWAP1 JUMP JUMPDEST DUP3 DUP1 SLOAD PUSH3 0x128B SWAP1 PUSH3 0x1CE0 JUMP JUMPDEST SWAP1 PUSH1 0x0 MSTORE PUSH1 0x20 PUSH1 0x0 KECCAK256 SWAP1 PUSH1 0x1F ADD PUSH1 0x20 SWAP1 DIV DUP2 ADD SWAP3 DUP3 PUSH3 0x12AF JUMPI PUSH1 0x0 DUP6 SSTORE PUSH3 0x12FB JUMP JUMPDEST DUP3 PUSH1 0x1F LT PUSH3 0x12CA JUMPI DUP1 CALLDATALOAD PUSH1 0xFF NOT AND DUP4 DUP1 ADD OR DUP6 SSTORE PUSH3 0x12FB JUMP JUMPDEST DUP3 DUP1 ADD PUSH1 0x1 ADD DUP6 SSTORE DUP3 ISZERO PUSH3 0x12FB JUMPI SWAP2 DUP3 ADD JUMPDEST DUP3 DUP2 GT ISZERO PUSH3 0x12FA JUMPI DUP3 CALLDATALOAD DUP3 SSTORE SWAP2 PUSH1 0x20 ADD SWAP2 SWAP1 PUSH1 0x1 ADD SWAP1 PUSH3 0x12DD JUMP JUMPDEST JUMPDEST POP SWAP1 POP PUSH3 0x130A SWAP2 SWAP1 PUSH3 0x130E JUMP JUMPDEST POP SWAP1 JUMP JUMPDEST JUMPDEST DUP1 DUP3 GT ISZERO PUSH3 0x1329 JUMPI PUSH1 0x0 DUP2 PUSH1 0x0 SWAP1 SSTORE POP PUSH1 0x1 ADD PUSH3 0x130F JUMP JUMPDEST POP SWAP1 JUMP JUMPDEST PUSH1 0x0 DUP2 SWAP1 POP SWAP2 SWAP1 POP JUMP JUMPDEST PUSH3 0x1342 DUP2 PUSH3 0x132D JUMP JUMPDEST DUP3 MSTORE POP POP JUMP JUMPDEST PUSH1 0x0 PUSH1 0x20 DUP3 ADD SWAP1 POP PUSH3 0x135F PUSH1 0x0 DUP4 ADD DUP5 PUSH3 0x1337 JUMP JUMPDEST SWAP3 SWAP2 POP POP JUMP JUMPDEST PUSH1 0x0 PUSH1 0x40 MLOAD SWAP1 POP SWAP1 JUMP JUMPDEST PUSH1 0x0 DUP1 REVERT JUMPDEST PUSH1 0x0 DUP1 REVERT JUMPDEST PUSH1 0x0 PUSH20 0xFFFFFFFFFFFFFFFFFFFFFFFFFFFFFFFFFFFFFFFF DUP3 AND SWAP1 POP SWAP2 SWAP1 POP JUMP JUMPDEST PUSH1 0x0 PUSH3 0x13A6 DUP3 PUSH3 0x1379 JUMP JUMPDEST SWAP1 POP SWAP2 SWAP1 POP JUMP JUMPDEST PUSH3 0x13B8 DUP2 PUSH3 0x1399 JUMP JUMPDEST DUP2 EQ PUSH3 0x13C4 JUMPI PUSH1 0x0 DUP1 REVERT JUMPDEST POP JUMP JUMPDEST PUSH1 0x0 DUP2 CALLDATALOAD SWAP1 POP PUSH3 0x13D8 DUP2 PUSH3 0x13AD JUMP JUMPDEST SWAP3 SWAP2 POP POP JUMP JUMPDEST PUSH1 0x0 PUSH1 0x20 DUP3 DUP5 SUB SLT ISZERO PUSH3 0x13F7 JUMPI PUSH3 0x13F6 PUSH3 0x136F JUMP JUMPDEST JUMPDEST PUSH1 0x0 PUSH3 0x1407 DUP5 DUP3 DUP6 ADD PUSH3 0x13C7 JUMP JUMPDEST SWAP2 POP POP SWAP3 SWAP2 POP POP JUMP JUMPDEST PUSH3 0x141B DUP2 PUSH3 0x132D JUMP JUMPDEST DUP2 EQ PUSH3 0x1427 JUMPI PUSH1 0x0 DUP1 REVERT JUMPDEST POP JUMP JUMPDEST PUSH1 0x0 DUP2 CALLDATALOAD SWAP1 POP PUSH3 0x143B DUP2 PUSH3 0x1410 JUMP JUMPDEST SWAP3 SWAP2 POP POP JUMP JUMPDEST PUSH1 0x0 PUSH1 0x20 DUP3 DUP5 SUB SLT ISZERO PUSH3 0x145A JUMPI PUSH3 0x1459 PUSH3 0x136F JUMP JUMPDEST JUMPDEST PUSH1 0x0 PUSH3 0x146A DUP5 DUP3 DUP6 ADD PUSH3 0x142A JUMP JUMPDEST SWAP2 POP POP SWAP3 SWAP2 POP POP JUMP JUMPDEST PUSH1 0x0 DUP2 MLOAD SWAP1 POP SWAP2 SWAP1 POP JUMP JUMPDEST PUSH1 0x0 DUP3 DUP3 MSTORE PUSH1 0x20 DUP3 ADD SWAP1 POP SWAP3 SWAP2 POP POP JUMP JUMPDEST PUSH1 0x0 JUMPDEST DUP4 DUP2 LT ISZERO PUSH3 0x14AF JUMPI DUP1 DUP3 ADD MLOAD DUP2 DUP5 ADD MSTORE PUSH1 0x20 DUP2 ADD SWAP1 POP PUSH3 0x1492 JUMP JUMPDEST DUP4 DUP2 GT ISZERO PUSH3 0x14BF JUMPI PUSH1 0x0 DUP5 DUP5 ADD MSTORE JUMPDEST POP POP POP POP JUMP JUMPDEST PUSH1 0x0 PUSH1 0x1F NOT PUSH1 0x1F DUP4 ADD AND SWAP1 POP SWAP2 SWAP1 POP JUMP JUMPDEST PUSH1 0x0 PUSH3 0x14E3 DUP3 PUSH3 0x1473 JUMP JUMPDEST PUSH3 0x14EF DUP2 DUP6 PUSH3 0x147E JUMP JUMPDEST SWAP4 POP PUSH3 0x1501 DUP2 DUP6 PUSH1 0x20 DUP7 ADD PUSH3 0x148F JUMP JUMPDEST PUSH3 0x150C DUP2 PUSH3 0x14C5 JUMP JUMPDEST DUP5 ADD SWAP2 POP POP SWAP3 SWAP2 POP POP JUMP JUMPDEST PUSH1 0x0 PUSH1 0x20 DUP3 ADD SWAP1 POP DUP2 DUP2 SUB PUSH1 0x0 DUP4 ADD MSTORE PUSH3 0x1533 DUP2 DUP5 PUSH3 0x14D6 JUMP JUMPDEST SWAP1 POP SWAP3 SWAP2 POP POP JUMP JUMPDEST PUSH1 0x0 DUP1 REVERT JUMPDEST PUSH1 0x0 DUP1 REVERT JUMPDEST PUSH32 0x4E487B7100000000000000000000000000000000000000000000000000000000 PUSH1 0x0 MSTORE PUSH1 0x41 PUSH1 0x4 MSTORE PUSH1 0x24 PUSH1 0x0 REVERT JUMPDEST PUSH3 0x157F DUP3 PUSH3 0x14C5 JUMP JUMPDEST DUP2 ADD DUP2 DUP2 LT PUSH8 0xFFFFFFFFFFFFFFFF DUP3 GT OR ISZERO PUSH3 0x15A1 JUMPI PUSH3 0x15A0 PUSH3 0x1545 JUMP JUMPDEST JUMPDEST DUP1 PUSH1 0x40 MSTORE POP POP POP JUMP JUMPDEST PUSH1 0x0 PUSH3 0x15B6 PUSH3 0x1365 JUMP JUMPDEST SWAP1 POP PUSH3 0x15C4 DUP3 DUP3 PUSH3 0x1574 JUMP JUMPDEST SWAP2 SWAP1 POP JUMP JUMPDEST PUSH1 0x0 PUSH8 0xFFFFFFFFFFFFFFFF DUP3 GT ISZERO PUSH3 0x15E7 JUMPI PUSH3 0x15E6 PUSH3 0x1545 JUMP JUMPDEST JUMPDEST PUSH3 0x15F2 DUP3 PUSH3 0x14C5 JUMP JUMPDEST SWAP1 POP PUSH1 0x20 DUP2 ADD SWAP1 POP SWAP2 SWAP1 POP JUMP JUMPDEST DUP3 DUP2 DUP4 CALLDATACOPY PUSH1 0x0 DUP4 DUP4 ADD MSTORE POP POP POP JUMP JUMPDEST PUSH1 0x0 PUSH3 0x1625 PUSH3 0x161F DUP5 PUSH3 0x15C9 JUMP JUMPDEST PUSH3 0x15AA JUMP JUMPDEST SWAP1 POP DUP3 DUP2 MSTORE PUSH1 0x20 DUP2 ADD DUP5 DUP5 DUP5 ADD GT ISZERO PUSH3 0x1644 JUMPI PUSH3 0x1643 PUSH3 0x1540 JUMP JUMPDEST JUMPDEST PUSH3 0x1651 DUP5 DUP3 DUP6 PUSH3 0x15FF JUMP JUMPDEST POP SWAP4 SWAP3 POP POP POP JUMP JUMPDEST PUSH1 0x0 DUP3 PUSH1 0x1F DUP4 ADD SLT PUSH3 0x1671 JUMPI PUSH3 0x1670 PUSH3 0x153B JUMP JUMPDEST JUMPDEST DUP2 CALLDATALOAD PUSH3 0x1683 DUP5 DUP3 PUSH1 0x20 DUP7 ADD PUSH3 0x160E JUMP JUMPDEST SWAP2 POP POP SWAP3 SWAP2 POP POP JUMP JUMPDEST PUSH1 0x0 PUSH2 0xFFFF DUP3 AND SWAP1 POP SWAP2 SWAP1 POP JUMP JUMPDEST PUSH3 0x16A5 DUP2 PUSH3 0x168C JUMP JUMPDEST DUP2 EQ PUSH3 0x16B1 JUMPI PUSH1 0x0 DUP1 REVERT JUMPDEST POP JUMP JUMPDEST PUSH1 0x0 DUP2 CALLDATALOAD SWAP1 POP PUSH3 0x16C5 DUP2 PUSH3 0x169A JUMP JUMPDEST SWAP3 SWAP2 POP POP JUMP JUMPDEST PUSH1 0x0 PUSH1 0xFF DUP3 AND SWAP1 POP SWAP2 SWAP1 POP JUMP JUMPDEST PUSH3 0x16E3 DUP2 PUSH3 0x16CB JUMP JUMPDEST DUP2 EQ PUSH3 0x16EF JUMPI PUSH1 0x0 DUP1 REVERT JUMPDEST POP JUMP JUMPDEST PUSH1 0x0 DUP2 CALLDATALOAD SWAP1 POP PUSH3 0x1703 DUP2 PUSH3 0x16D8 JUMP JUMPDEST SWAP3 SWAP2 POP POP JUMP JUMPDEST PUSH1 0x0 DUP1 PUSH1 0x0 DUP1 PUSH1 0x0 DUP1 PUSH1 0x0 DUP1 PUSH1 0x0 DUP1 PUSH1 0x0 PUSH2 0x160 DUP13 DUP15 SUB SLT ISZERO PUSH3 0x1732 JUMPI PUSH3 0x1731 PUSH3 0x136F JUMP JUMPDEST JUMPDEST PUSH1 0x0 DUP13 ADD CALLDATALOAD PUSH8 0xFFFFFFFFFFFFFFFF DUP2 GT ISZERO PUSH3 0x1753 JUMPI PUSH3 0x1752 PUSH3 0x1374 JUMP JUMPDEST JUMPDEST PUSH3 0x1761 DUP15 DUP3 DUP16 ADD PUSH3 0x1659 JUMP JUMPDEST SWAP12 POP POP PUSH1 0x20 DUP13 ADD CALLDATALOAD PUSH8 0xFFFFFFFFFFFFFFFF DUP2 GT ISZERO PUSH3 0x1785 JUMPI PUSH3 0x1784 PUSH3 0x1374 JUMP JUMPDEST JUMPDEST PUSH3 0x1793 DUP15 DUP3 DUP16 ADD PUSH3 0x1659 JUMP JUMPDEST SWAP11 POP POP PUSH1 0x40 DUP13 ADD CALLDATALOAD PUSH8 0xFFFFFFFFFFFFFFFF DUP2 GT ISZERO PUSH3 0x17B7 JUMPI PUSH3 0x17B6 PUSH3 0x1374 JUMP JUMPDEST JUMPDEST PUSH3 0x17C5 DUP15 DUP3 DUP16 ADD PUSH3 0x1659 JUMP JUMPDEST SWAP10 POP POP PUSH1 0x60 DUP13 ADD CALLDATALOAD PUSH8 0xFFFFFFFFFFFFFFFF DUP2 GT ISZERO PUSH3 0x17E9 JUMPI PUSH3 0x17E8 PUSH3 0x1374 JUMP JUMPDEST JUMPDEST PUSH3 0x17F7 DUP15 DUP3 DUP16 ADD PUSH3 0x1659 JUMP JUMPDEST SWAP9 POP POP PUSH1 0x80 DUP13 ADD CALLDATALOAD PUSH8 0xFFFFFFFFFFFFFFFF DUP2 GT ISZERO PUSH3 0x181B JUMPI PUSH3 0x181A PUSH3 0x1374 JUMP JUMPDEST JUMPDEST PUSH3 0x1829 DUP15 DUP3 DUP16 ADD PUSH3 0x1659 JUMP JUMPDEST SWAP8 POP POP PUSH1 0xA0 DUP13 ADD CALLDATALOAD PUSH8 0xFFFFFFFFFFFFFFFF DUP2 GT ISZERO PUSH3 0x184D JUMPI PUSH3 0x184C PUSH3 0x1374 JUMP JUMPDEST JUMPDEST PUSH3 0x185B DUP15 DUP3 DUP16 ADD PUSH3 0x1659 JUMP JUMPDEST SWAP7 POP POP PUSH1 0xC0 DUP13 ADD CALLDATALOAD PUSH8 0xFFFFFFFFFFFFFFFF DUP2 GT ISZERO PUSH3 0x187F JUMPI PUSH3 0x187E PUSH3 0x1374 JUMP JUMPDEST JUMPDEST PUSH3 0x188D DUP15 DUP3 DUP16 ADD PUSH3 0x1659 JUMP JUMPDEST SWAP6 POP POP PUSH1 0xE0 PUSH3 0x18A0 DUP15 DUP3 DUP16 ADD PUSH3 0x16B4 JUMP JUMPDEST SWAP5 POP POP PUSH2 0x100 PUSH3 0x18B4 DUP15 DUP3 DUP16 ADD PUSH3 0x16B4 JUMP JUMPDEST SWAP4 POP POP PUSH2 0x120 PUSH3 0x18C8 DUP15 DUP3 DUP16 ADD PUSH3 0x16F2 JUMP JUMPDEST SWAP3 POP POP PUSH2 0x140 PUSH3 0x18DC DUP15 DUP3 DUP16 ADD PUSH3 0x13C7 JUMP JUMPDEST SWAP2 POP POP SWAP3 SWAP6 SWAP9 SWAP12 POP SWAP3 SWAP6 SWAP9 SWAP12 SWAP1 SWAP4 SWAP7 SWAP10 POP JUMP JUMPDEST PUSH1 0x0 PUSH32 0xFFFFFFFFFFFFFFFFFFFFFFFFFFFFFFFF00000000000000000000000000000000 DUP3 AND SWAP1 POP SWAP2 SWAP1 POP JUMP JUMPDEST PUSH3 0x1926 DUP2 PUSH3 0x18EF JUMP JUMPDEST DUP3 MSTORE POP POP JUMP JUMPDEST PUSH3 0x1937 DUP2 PUSH3 0x168C JUMP JUMPDEST DUP3 MSTORE POP POP JUMP JUMPDEST PUSH32 0x4E487B7100000000000000000000000000000000000000000000000000000000 PUSH1 0x0 MSTORE PUSH1 0x21 PUSH1 0x4 MSTORE PUSH1 0x24 PUSH1 0x0 REVERT JUMPDEST PUSH1 0x3 DUP2 LT PUSH3 0x1980 JUMPI PUSH3 0x197F PUSH3 0x193D JUMP JUMPDEST JUMPDEST POP JUMP JUMPDEST PUSH1 0x0 DUP2 SWAP1 POP PUSH3 0x1993 DUP3 PUSH3 0x196C JUMP JUMPDEST SWAP2 SWAP1 POP JUMP JUMPDEST PUSH1 0x0 PUSH3 0x19A5 DUP3 PUSH3 0x1983 JUMP JUMPDEST SWAP1 POP SWAP2 SWAP1 POP JUMP JUMPDEST PUSH3 0x19B7 DUP2 PUSH3 0x1998 JUMP JUMPDEST DUP3 MSTORE POP POP JUMP JUMPDEST PUSH1 0x0 DUP2 ISZERO ISZERO SWAP1 POP SWAP2 SWAP1 POP JUMP JUMPDEST PUSH3 0x19D4 DUP2 PUSH3 0x19BD JUMP JUMPDEST DUP3 MSTORE POP POP JUMP JUMPDEST PUSH1 0x0 PUSH2 0x160 DUP3 ADD SWAP1 POP PUSH3 0x19F2 PUSH1 0x0 DUP4 ADD DUP15 PUSH3 0x191B JUMP JUMPDEST PUSH3 0x1A01 PUSH1 0x20 DUP4 ADD DUP14 PUSH3 0x191B JUMP JUMPDEST PUSH3 0x1A10 PUSH1 0x40 DUP4 ADD DUP13 PUSH3 0x191B JUMP JUMPDEST DUP2 DUP2 SUB PUSH1 0x60 DUP4 ADD MSTORE PUSH3 0x1A24 DUP2 DUP12 PUSH3 0x14D6 JUMP JUMPDEST SWAP1 POP DUP2 DUP2 SUB PUSH1 0x80 DUP4 ADD MSTORE PUSH3 0x1A3A DUP2 DUP11 PUSH3 0x14D6 JUMP JUMPDEST SWAP1 POP PUSH3 0x1A4B PUSH1 0xA0 DUP4 ADD DUP10 PUSH3 0x191B JUMP JUMPDEST DUP2 DUP2 SUB PUSH1 0xC0 DUP4 ADD MSTORE PUSH3 0x1A5F DUP2 DUP9 PUSH3 0x14D6 JUMP JUMPDEST SWAP1 POP PUSH3 0x1A70 PUSH1 0xE0 DUP4 ADD DUP8 PUSH3 0x192C JUMP JUMPDEST PUSH3 0x1A80 PUSH2 0x100 DUP4 ADD DUP7 PUSH3 0x192C JUMP JUMPDEST PUSH3 0x1A90 PUSH2 0x120 DUP4 ADD DUP6 PUSH3 0x19AC JUMP JUMPDEST PUSH3 0x1AA0 PUSH2 0x140 DUP4 ADD DUP5 PUSH3 0x19C9 JUMP JUMPDEST SWAP13 SWAP12 POP POP POP POP POP POP POP POP POP POP POP POP JUMP JUMPDEST PUSH3 0x1ABB DUP2 PUSH3 0x1399 JUMP JUMPDEST DUP3 MSTORE POP POP JUMP JUMPDEST PUSH1 0x0 PUSH1 0x20 DUP3 ADD SWAP1 POP PUSH3 0x1AD8 PUSH1 0x0 DUP4 ADD DUP5 PUSH3 0x1AB0 JUMP JUMPDEST SWAP3 SWAP2 POP POP JUMP JUMPDEST PUSH1 0x0 DUP1 REVERT JUMPDEST PUSH1 0x0 DUP1 REVERT JUMPDEST PUSH1 0x0 DUP1 DUP4 PUSH1 0x1F DUP5 ADD SLT PUSH3 0x1B01 JUMPI PUSH3 0x1B00 PUSH3 0x153B JUMP JUMPDEST JUMPDEST DUP3 CALLDATALOAD SWAP1 POP PUSH8 0xFFFFFFFFFFFFFFFF DUP2 GT ISZERO PUSH3 0x1B21 JUMPI PUSH3 0x1B20 PUSH3 0x1ADE JUMP JUMPDEST JUMPDEST PUSH1 0x20 DUP4 ADD SWAP2 POP DUP4 PUSH1 0x1 DUP3 MUL DUP4 ADD GT ISZERO PUSH3 0x1B40 JUMPI PUSH3 0x1B3F PUSH3 0x1AE3 JUMP JUMPDEST JUMPDEST SWAP3 POP SWAP3 SWAP1 POP JUMP JUMPDEST PUSH1 0x0 DUP1 PUSH1 0x0 DUP1 PUSH1 0x0 PUSH1 0x60 DUP7 DUP9 SUB SLT ISZERO PUSH3 0x1B66 JUMPI PUSH3 0x1B65 PUSH3 0x136F JUMP JUMPDEST JUMPDEST PUSH1 0x0 DUP7 ADD CALLDATALOAD PUSH8 0xFFFFFFFFFFFFFFFF DUP2 GT ISZERO PUSH3 0x1B87 JUMPI PUSH3 0x1B86 PUSH3 0x1374 JUMP JUMPDEST JUMPDEST PUSH3 0x1B95 DUP9 DUP3 DUP10 ADD PUSH3 0x1AE8 JUMP JUMPDEST SWAP6 POP SWAP6 POP POP PUSH1 0x20 DUP7 ADD CALLDATALOAD PUSH8 0xFFFFFFFFFFFFFFFF DUP2 GT ISZERO PUSH3 0x1BBB JUMPI PUSH3 0x1BBA PUSH3 0x1374 JUMP JUMPDEST JUMPDEST PUSH3 0x1BC9 DUP9 DUP3 DUP10 ADD PUSH3 0x1AE8 JUMP JUMPDEST SWAP4 POP SWAP4 POP POP PUSH1 0x40 PUSH3 0x1BDE DUP9 DUP3 DUP10 ADD PUSH3 0x13C7 JUMP JUMPDEST SWAP2 POP POP SWAP3 SWAP6 POP SWAP3 SWAP6 SWAP1 SWAP4 POP JUMP JUMPDEST PUSH1 0x0 DUP1 PUSH1 0x20 DUP4 DUP6 SUB SLT ISZERO PUSH3 0x1C05 JUMPI PUSH3 0x1C04 PUSH3 0x136F JUMP JUMPDEST JUMPDEST PUSH1 0x0 DUP4 ADD CALLDATALOAD PUSH8 0xFFFFFFFFFFFFFFFF DUP2 GT ISZERO PUSH3 0x1C26 JUMPI PUSH3 0x1C25 PUSH3 0x1374 JUMP JUMPDEST JUMPDEST PUSH3 0x1C34 DUP6 DUP3 DUP7 ADD PUSH3 0x1AE8 JUMP JUMPDEST SWAP3 POP SWAP3 POP POP SWAP3 POP SWAP3 SWAP1 POP JUMP JUMPDEST PUSH1 0x0 PUSH1 0x20 DUP3 ADD SWAP1 POP PUSH3 0x1C57 PUSH1 0x0 DUP4 ADD DUP5 PUSH3 0x19C9 JUMP JUMPDEST SWAP3 SWAP2 POP POP JUMP JUMPDEST PUSH1 0x0 PUSH1 0x80 DUP3 ADD SWAP1 POP DUP2 DUP2 SUB PUSH1 0x0 DUP4 ADD MSTORE PUSH3 0x1C79 DUP2 DUP8 PUSH3 0x14D6 JUMP JUMPDEST SWAP1 POP PUSH3 0x1C8A PUSH1 0x20 DUP4 ADD DUP7 PUSH3 0x1AB0 JUMP JUMPDEST PUSH3 0x1C99 PUSH1 0x40 DUP4 ADD DUP6 PUSH3 0x1AB0 JUMP JUMPDEST PUSH3 0x1CA8 PUSH1 0x60 DUP4 ADD DUP5 PUSH3 0x19C9 JUMP JUMPDEST SWAP6 SWAP5 POP POP POP POP POP JUMP JUMPDEST PUSH32 0x4E487B7100000000000000000000000000000000000000000000000000000000 PUSH1 0x0 MSTORE PUSH1 0x22 PUSH1 0x4 MSTORE PUSH1 0x24 PUSH1 0x0 REVERT JUMPDEST PUSH1 0x0 PUSH1 0x2 DUP3 DIV SWAP1 POP PUSH1 0x1 DUP3 AND DUP1 PUSH3 0x1CF9 JUMPI PUSH1 0x7F DUP3 AND SWAP2 POP JUMPDEST PUSH1 0x20 DUP3 LT DUP2 EQ ISZERO PUSH3 0x1D10 JUMPI PUSH3 0x1D0F PUSH3 0x1CB1 JUMP JUMPDEST JUMPDEST POP SWAP2 SWAP1 POP JUMP JUMPDEST PUSH1 0x0 DUP2 MLOAD SWAP1 POP SWAP2 SWAP1 POP JUMP JUMPDEST PUSH1 0x0 DUP2 SWAP1 POP PUSH1 0x20 DUP3 ADD SWAP1 POP SWAP2 SWAP1 POP JUMP JUMPDEST PUSH1 0x0 PUSH3 0x1D3F DUP3 MLOAD PUSH3 0x18EF JUMP JUMPDEST DUP1 SWAP2 POP POP SWAP2 SWAP1 POP JUMP JUMPDEST PUSH1 0x0 DUP3 DUP3 SHL SWAP1 POP SWAP3 SWAP2 POP POP JUMP JUMPDEST PUSH1 0x0 PUSH3 0x1D62 DUP3 PUSH3 0x1D16 JUMP JUMPDEST DUP3 PUSH3 0x1D6E DUP5 PUSH3 0x1D21 JUMP JUMPDEST SWAP1 POP PUSH3 0x1D7B DUP2 PUSH3 0x1D31 JUMP JUMPDEST SWAP3 POP PUSH1 0x10 DUP3 LT ISZERO PUSH3 0x1DBE JUMPI PUSH3 0x1DB9 PUSH32 0xFFFFFFFFFFFFFFFFFFFFFFFFFFFFFFFF00000000000000000000000000000000 DUP4 PUSH1 0x10 SUB PUSH1 0x8 MUL PUSH3 0x1D48 JUMP JUMPDEST DUP4 AND SWAP3 POP JUMPDEST POP POP SWAP2 SWAP1 POP JUMP JUMPDEST PUSH1 0x0 DUP2 SWAP1 POP SWAP3 SWAP2 POP POP JUMP JUMPDEST PUSH1 0x0 PUSH3 0x1DDE DUP4 DUP6 PUSH3 0x1DC5 JUMP JUMPDEST SWAP4 POP PUSH3 0x1DED DUP4 DUP6 DUP5 PUSH3 0x15FF JUMP JUMPDEST DUP3 DUP5 ADD SWAP1 POP SWAP4 SWAP3 POP POP POP JUMP JUMPDEST PUSH1 0x0 PUSH3 0x1E08 DUP3 DUP5 DUP7 PUSH3 0x1DD0 JUMP JUMPDEST SWAP2 POP DUP2 SWAP1 POP SWAP4 SWAP3 POP POP POP JUMP JUMPDEST PUSH32 0x4E487B7100000000000000000000000000000000000000000000000000000000 PUSH1 0x0 MSTORE PUSH1 0x11 PUSH1 0x4 MSTORE PUSH1 0x24 PUSH1 0x0 REVERT JUMPDEST PUSH1 0x0 PUSH3 0x1E50 DUP3 PUSH3 0x132D JUMP JUMPDEST SWAP2 POP PUSH32 0xFFFFFFFFFFFFFFFFFFFFFFFFFFFFFFFFFFFFFFFFFFFFFFFFFFFFFFFFFFFFFFFF DUP3 EQ ISZERO PUSH3 0x1E86 JUMPI PUSH3 0x1E85 PUSH3 0x1E14 JUMP JUMPDEST JUMPDEST PUSH1 0x1 DUP3 ADD SWAP1 POP SWAP2 SWAP1 POP JUMP JUMPDEST PUSH1 0x0 DUP2 SWAP1 POP DUP2 PUSH1 0x0 MSTORE PUSH1 0x20 PUSH1 0x0 KECCAK256 SWAP1 POP SWAP2 SWAP1 POP JUMP JUMPDEST PUSH1 0x0 DUP2 SLOAD PUSH3 0x1EB5 DUP2 PUSH3 0x1CE0 JUMP JUMPDEST PUSH3 0x1EC1 DUP2 DUP7 PUSH3 0x1DC5 JUMP JUMPDEST SWAP5 POP PUSH1 0x1 DUP3 AND PUSH1 0x0 DUP2 EQ PUSH3 0x1EDF JUMPI PUSH1 0x1 DUP2 EQ PUSH3 0x1EF1 JUMPI PUSH3 0x1F28 JUMP JUMPDEST PUSH1 0xFF NOT DUP4 AND DUP7 MSTORE DUP2 DUP7 ADD SWAP4 POP PUSH3 0x1F28 JUMP JUMPDEST PUSH3 0x1EFC DUP6 PUSH3 0x1E91 JUMP JUMPDEST PUSH1 0x0 JUMPDEST DUP4 DUP2 LT ISZERO PUSH3 0x1F20 JUMPI DUP2 SLOAD DUP2 DUP10 ADD MSTORE PUSH1 0x1 DUP3 ADD SWAP2 POP PUSH1 0x20 DUP2 ADD SWAP1 POP PUSH3 0x1EFF JUMP JUMPDEST DUP4 DUP9 ADD SWAP6 POP POP POP JUMPDEST POP POP POP SWAP3 SWAP2 POP POP JUMP JUMPDEST PUSH1 0x0 PUSH3 0x1F3F DUP3 DUP5 PUSH3 0x1EA6 JUMP JUMPDEST SWAP2 POP DUP2 SWAP1 POP SWAP3 SWAP2 POP POP JUMP INVALID PUSH1 0x80 PUSH1 0x40 MSTORE CALLVALUE DUP1 ISZERO PUSH2 0x10 JUMPI PUSH1 0x0 DUP1 REVERT JUMPDEST POP PUSH1 0x40 MLOAD PUSH3 0x1050 CODESIZE SUB DUP1 PUSH3 0x1050 DUP4 CODECOPY DUP2 DUP2 ADD PUSH1 0x40 MSTORE DUP2 ADD SWAP1 PUSH2 0x34 SWAP2 SWAP1 PUSH2 0xDD JUMP JUMPDEST DUP1 PUSH1 0x0 DUP1 PUSH2 0x100 EXP DUP2 SLOAD DUP2 PUSH20 0xFFFFFFFFFFFFFFFFFFFFFFFFFFFFFFFFFFFFFFFF MUL NOT AND SWAP1 DUP4 PUSH20 0xFFFFFFFFFFFFFFFFFFFFFFFFFFFFFFFFFFFFFFFF AND MUL OR SWAP1 SSTORE POP POP PUSH2 0x10A JUMP JUMPDEST PUSH1 0x0 DUP1 REVERT JUMPDEST PUSH1 0x0 PUSH20 0xFFFFFFFFFFFFFFFFFFFFFFFFFFFFFFFFFFFFFFFF DUP3 AND SWAP1 POP SWAP2 SWAP1 POP JUMP JUMPDEST PUSH1 0x0 PUSH2 0xAA DUP3 PUSH2 0x7F JUMP JUMPDEST SWAP1 POP SWAP2 SWAP1 POP JUMP JUMPDEST PUSH2 0xBA DUP2 PUSH2 0x9F JUMP JUMPDEST DUP2 EQ PUSH2 0xC5 JUMPI PUSH1 0x0 DUP1 REVERT JUMPDEST POP JUMP JUMPDEST PUSH1 0x0 DUP2 MLOAD SWAP1 POP PUSH2 0xD7 DUP2 PUSH2 0xB1 JUMP JUMPDEST SWAP3 SWAP2 POP POP JUMP JUMPDEST PUSH1 0x0 PUSH1 0x20 DUP3 DUP5 SUB SLT ISZERO PUSH2 0xF3 JUMPI PUSH2 0xF2 PUSH2 0x7A JUMP JUMPDEST JUMPDEST PUSH1 0x0 PUSH2 0x101 DUP5 DUP3 DUP6 ADD PUSH2 0xC8 JUMP JUMPDEST SWAP2 POP POP SWAP3 SWAP2 POP POP JUMP JUMPDEST PUSH2 0xF36 DUP1 PUSH3 0x11A PUSH1 0x0 CODECOPY PUSH1 0x0 RETURN INVALID PUSH1 0x80 PUSH1 0x40 MSTORE CALLVALUE DUP1 ISZERO PUSH2 0x10 JUMPI PUSH1 0x0 DUP1 REVERT JUMPDEST POP PUSH1 0x4 CALLDATASIZE LT PUSH2 0x88 JUMPI PUSH1 0x0 CALLDATALOAD PUSH1 0xE0 SHR DUP1 PUSH4 0xAEB9E57B GT PUSH2 0x5B JUMPI DUP1 PUSH4 0xAEB9E57B EQ PUSH2 0x127 JUMPI DUP1 PUSH4 0xB8306DE6 EQ PUSH2 0x143 JUMPI DUP1 PUSH4 0xBD96BD20 EQ PUSH2 0x175 JUMPI DUP1 PUSH4 0xE6AF705F EQ PUSH2 0x193 JUMPI PUSH2 0x88 JUMP JUMPDEST DUP1 PUSH4 0x124B16ED EQ PUSH2 0x8D JUMPI DUP1 PUSH4 0x17674544 EQ PUSH2 0xBD JUMPI DUP1 PUSH4 0x4780468F EQ PUSH2 0xED JUMPI DUP1 PUSH4 0xAB4CCF01 EQ PUSH2 0x109 JUMPI JUMPDEST PUSH1 0x0 DUP1 REVERT JUMPDEST PUSH2 0xA7 PUSH1 0x4 DUP1 CALLDATASIZE SUB DUP2 ADD SWAP1 PUSH2 0xA2 SWAP2 SWAP1 PUSH2 0x90B JUMP JUMPDEST PUSH2 0x1AF JUMP JUMPDEST PUSH1 0x40 MLOAD PUSH2 0xB4 SWAP2 SWAP1 PUSH2 0x9D1 JUMP JUMPDEST PUSH1 0x40 MLOAD DUP1 SWAP2 SUB SWAP1 RETURN JUMPDEST PUSH2 0xD7 PUSH1 0x4 DUP1 CALLDATASIZE SUB DUP2 ADD SWAP1 PUSH2 0xD2 SWAP2 SWAP1 PUSH2 0xA58 JUMP JUMPDEST PUSH2 0x254 JUMP JUMPDEST PUSH1 0x40 MLOAD PUSH2 0xE4 SWAP2 SWAP1 PUSH2 0xAB4 JUMP JUMPDEST PUSH1 0x40 MLOAD DUP1 SWAP2 SUB SWAP1 RETURN JUMPDEST PUSH2 0x107 PUSH1 0x4 DUP1 CALLDATASIZE SUB DUP2 ADD SWAP1 PUSH2 0x102 SWAP2 SWAP1 PUSH2 0xB2D JUMP JUMPDEST PUSH2 0x3BA JUMP JUMPDEST STOP JUMPDEST PUSH2 0x111 PUSH2 0x414 JUMP JUMPDEST PUSH1 0x40 MLOAD PUSH2 0x11E SWAP2 SWAP1 PUSH2 0xAB4 JUMP JUMPDEST PUSH1 0x40 MLOAD DUP1 SWAP2 SUB SWAP1 RETURN JUMPDEST PUSH2 0x141 PUSH1 0x4 DUP1 CALLDATASIZE SUB DUP2 ADD SWAP1 PUSH2 0x13C SWAP2 SWAP1 PUSH2 0xB5A JUMP JUMPDEST PUSH2 0x41A JUMP JUMPDEST STOP JUMPDEST PUSH2 0x15D PUSH1 0x4 DUP1 CALLDATASIZE SUB DUP2 ADD SWAP1 PUSH2 0x158 SWAP2 SWAP1 PUSH2 0xA58 JUMP JUMPDEST PUSH2 0x545 JUMP JUMPDEST PUSH1 0x40 MLOAD PUSH2 0x16C SWAP4 SWAP3 SWAP2 SWAP1 PUSH2 0xBC9 JUMP JUMPDEST PUSH1 0x40 MLOAD DUP1 SWAP2 SUB SWAP1 RETURN JUMPDEST PUSH2 0x17D PUSH2 0x64D JUMP JUMPDEST PUSH1 0x40 MLOAD PUSH2 0x18A SWAP2 SWAP1 PUSH2 0xC00 JUMP JUMPDEST PUSH1 0x40 MLOAD DUP1 SWAP2 SUB SWAP1 RETURN JUMPDEST PUSH2 0x1AD PUSH1 0x4 DUP1 CALLDATASIZE SUB DUP2 ADD SWAP1 PUSH2 0x1A8 SWAP2 SWAP1 PUSH2 0xB5A JUMP JUMPDEST PUSH2 0x671 JUMP JUMPDEST STOP JUMPDEST PUSH1 0x60 PUSH1 0x3 PUSH1 0x0 DUP4 DUP2 MSTORE PUSH1 0x20 ADD SWAP1 DUP2 MSTORE PUSH1 0x20 ADD PUSH1 0x0 KECCAK256 DUP1 SLOAD PUSH2 0x1CF SWAP1 PUSH2 0xC4A JUMP JUMPDEST DUP1 PUSH1 0x1F ADD PUSH1 0x20 DUP1 SWAP2 DIV MUL PUSH1 0x20 ADD PUSH1 0x40 MLOAD SWAP1 DUP2 ADD PUSH1 0x40 MSTORE DUP1 SWAP3 SWAP2 SWAP1 DUP2 DUP2 MSTORE PUSH1 0x20 ADD DUP3 DUP1 SLOAD PUSH2 0x1FB SWAP1 PUSH2 0xC4A JUMP JUMPDEST DUP1 ISZERO PUSH2 0x248 JUMPI DUP1 PUSH1 0x1F LT PUSH2 0x21D JUMPI PUSH2 0x100 DUP1 DUP4 SLOAD DIV MUL DUP4 MSTORE SWAP2 PUSH1 0x20 ADD SWAP2 PUSH2 0x248 JUMP JUMPDEST DUP3 ADD SWAP2 SWAP1 PUSH1 0x0 MSTORE PUSH1 0x20 PUSH1 0x0 KECCAK256 SWAP1 JUMPDEST DUP2 SLOAD DUP2 MSTORE SWAP1 PUSH1 0x1 ADD SWAP1 PUSH1 0x20 ADD DUP1 DUP4 GT PUSH2 0x22B JUMPI DUP3 SWAP1 SUB PUSH1 0x1F AND DUP3 ADD SWAP2 JUMPDEST POP POP POP POP POP SWAP1 POP SWAP2 SWAP1 POP JUMP JUMPDEST PUSH1 0x0 DUP3 DUP3 PUSH1 0x0 PUSH1 0x4 SLOAD GT PUSH2 0x267 JUMPI PUSH1 0x0 DUP1 REVERT JUMPDEST DUP2 DUP2 PUSH1 0x40 MLOAD PUSH1 0x20 ADD PUSH2 0x27A SWAP3 SWAP2 SWAP1 PUSH2 0xCBB JUMP JUMPDEST PUSH1 0x40 MLOAD PUSH1 0x20 DUP2 DUP4 SUB SUB DUP2 MSTORE SWAP1 PUSH1 0x40 MSTORE DUP1 MLOAD SWAP1 PUSH1 0x20 ADD KECCAK256 PUSH1 0x3 PUSH1 0x0 PUSH1 0x2 DUP6 DUP6 PUSH1 0x40 MLOAD PUSH2 0x2A6 SWAP3 SWAP2 SWAP1 PUSH2 0xCBB JUMP JUMPDEST SWAP1 DUP2 MSTORE PUSH1 0x20 ADD PUSH1 0x40 MLOAD DUP1 SWAP2 SUB SWAP1 KECCAK256 PUSH1 0x2 ADD SLOAD DUP2 MSTORE PUSH1 0x20 ADD SWAP1 DUP2 MSTORE PUSH1 0x20 ADD PUSH1 0x0 KECCAK256 PUSH1 0x40 MLOAD PUSH1 0x20 ADD PUSH2 0x2D6 SWAP2 SWAP1 PUSH2 0xD68 JUMP JUMPDEST PUSH1 0x40 MLOAD PUSH1 0x20 DUP2 DUP4 SUB SUB DUP2 MSTORE SWAP1 PUSH1 0x40 MSTORE DUP1 MLOAD SWAP1 PUSH1 0x20 ADD KECCAK256 EQ PUSH2 0x2F6 JUMPI PUSH1 0x0 DUP1 REVERT JUMPDEST PUSH1 0x0 PUSH1 0x2 DUP7 DUP7 PUSH1 0x40 MLOAD PUSH2 0x30A SWAP3 SWAP2 SWAP1 PUSH2 0xCBB JUMP JUMPDEST SWAP1 DUP2 MSTORE PUSH1 0x20 ADD PUSH1 0x40 MLOAD DUP1 SWAP2 SUB SWAP1 KECCAK256 PUSH1 0x2 ADD SLOAD SWAP1 POP PUSH1 0x0 PUSH1 0x3 PUSH1 0x0 PUSH1 0x1 PUSH1 0x4 SLOAD PUSH2 0x333 SWAP2 SWAP1 PUSH2 0xDAE JUMP JUMPDEST DUP2 MSTORE PUSH1 0x20 ADD SWAP1 DUP2 MSTORE PUSH1 0x20 ADD PUSH1 0x0 KECCAK256 SWAP1 POP DUP1 PUSH1 0x3 PUSH1 0x0 DUP5 DUP2 MSTORE PUSH1 0x20 ADD SWAP1 DUP2 MSTORE PUSH1 0x20 ADD PUSH1 0x0 KECCAK256 SWAP1 DUP1 SLOAD PUSH2 0x363 SWAP1 PUSH2 0xC4A JUMP JUMPDEST PUSH2 0x36E SWAP3 SWAP2 SWAP1 PUSH2 0x79B JUMP JUMPDEST POP DUP2 PUSH1 0x2 DUP3 PUSH1 0x40 MLOAD PUSH2 0x380 SWAP2 SWAP1 PUSH2 0xE76 JUMP JUMPDEST SWAP1 DUP2 MSTORE PUSH1 0x20 ADD PUSH1 0x40 MLOAD DUP1 SWAP2 SUB SWAP1 KECCAK256 PUSH1 0x2 ADD DUP2 SWAP1 SSTORE POP PUSH1 0x4 PUSH1 0x0 DUP2 SLOAD DUP1 SWAP3 SWAP2 SWAP1 PUSH2 0x3A8 SWAP1 PUSH2 0xE8D JUMP JUMPDEST SWAP2 SWAP1 POP SSTORE POP DUP2 SWAP5 POP POP POP POP POP SWAP3 SWAP2 POP POP JUMP JUMPDEST PUSH1 0x1 DUP1 PUSH1 0x0 DUP4 PUSH20 0xFFFFFFFFFFFFFFFFFFFFFFFFFFFFFFFFFFFFFFFF AND PUSH20 0xFFFFFFFFFFFFFFFFFFFFFFFFFFFFFFFFFFFFFFFF AND DUP2 MSTORE PUSH1 0x20 ADD SWAP1 DUP2 MSTORE PUSH1 0x20 ADD PUSH1 0x0 KECCAK256 PUSH1 0x0 PUSH2 0x100 EXP DUP2 SLOAD DUP2 PUSH1 0xFF MUL NOT AND SWAP1 DUP4 ISZERO ISZERO MUL OR SWAP1 SSTORE POP POP JUMP JUMPDEST PUSH1 0x4 SLOAD DUP2 JUMP JUMPDEST PUSH1 0x1 PUSH1 0x0 CALLER PUSH20 0xFFFFFFFFFFFFFFFFFFFFFFFFFFFFFFFFFFFFFFFF AND PUSH20 0xFFFFFFFFFFFFFFFFFFFFFFFFFFFFFFFFFFFFFFFF AND DUP2 MSTORE PUSH1 0x20 ADD SWAP1 DUP2 MSTORE PUSH1 0x20 ADD PUSH1 0x0 KECCAK256 PUSH1 0x0 SWAP1 SLOAD SWAP1 PUSH2 0x100 EXP SWAP1 DIV PUSH1 0xFF AND PUSH2 0x470 JUMPI PUSH1 0x0 DUP1 REVERT JUMPDEST DUP3 DUP3 PUSH1 0x0 PUSH1 0x4 SLOAD GT PUSH2 0x481 JUMPI PUSH1 0x0 DUP1 REVERT JUMPDEST DUP2 DUP2 PUSH1 0x40 MLOAD PUSH1 0x20 ADD PUSH2 0x494 SWAP3 SWAP2 SWAP1 PUSH2 0xCBB JUMP JUMPDEST PUSH1 0x40 MLOAD PUSH1 0x20 DUP2 DUP4 SUB SUB DUP2 MSTORE SWAP1 PUSH1 0x40 MSTORE DUP1 MLOAD SWAP1 PUSH1 0x20 ADD KECCAK256 PUSH1 0x3 PUSH1 0x0 PUSH1 0x2 DUP6 DUP6 PUSH1 0x40 MLOAD PUSH2 0x4C0 SWAP3 SWAP2 SWAP1 PUSH2 0xCBB JUMP JUMPDEST SWAP1 DUP2 MSTORE PUSH1 0x20 ADD PUSH1 0x40 MLOAD DUP1 SWAP2 SUB SWAP1 KECCAK256 PUSH1 0x2 ADD SLOAD DUP2 MSTORE PUSH1 0x20 ADD SWAP1 DUP2 MSTORE PUSH1 0x20 ADD PUSH1 0x0 KECCAK256 PUSH1 0x40 MLOAD PUSH1 0x20 ADD PUSH2 0x4F0 SWAP2 SWAP1 PUSH2 0xD68 JUMP JUMPDEST PUSH1 0x40 MLOAD PUSH1 0x20 DUP2 DUP4 SUB SUB DUP2 MSTORE SWAP1 PUSH1 0x40 MSTORE DUP1 MLOAD SWAP1 PUSH1 0x20 ADD KECCAK256 EQ PUSH2 0x510 JUMPI PUSH1 0x0 DUP1 REVERT JUMPDEST PUSH1 0x0 PUSH1 0x2 DUP7 DUP7 PUSH1 0x40 MLOAD PUSH2 0x524 SWAP3 SWAP2 SWAP1 PUSH2 0xCBB JUMP JUMPDEST SWAP1 DUP2 MSTORE PUSH1 0x20 ADD PUSH1 0x40 MLOAD DUP1 SWAP2 SUB SWAP1 KECCAK256 SWAP1 POP DUP4 DUP2 PUSH1 0x3 ADD DUP2 SWAP1 SSTORE POP POP POP POP POP POP POP JUMP JUMPDEST PUSH1 0x0 DUP1 PUSH1 0x0 DUP5 DUP5 PUSH1 0x0 PUSH1 0x4 SLOAD GT PUSH2 0x55B JUMPI PUSH1 0x0 DUP1 REVERT JUMPDEST DUP2 DUP2 PUSH1 0x40 MLOAD PUSH1 0x20 ADD PUSH2 0x56E SWAP3 SWAP2 SWAP1 PUSH2 0xCBB JUMP JUMPDEST PUSH1 0x40 MLOAD PUSH1 0x20 DUP2 DUP4 SUB SUB DUP2 MSTORE SWAP1 PUSH1 0x40 MSTORE DUP1 MLOAD SWAP1 PUSH1 0x20 ADD KECCAK256 PUSH1 0x3 PUSH1 0x0 PUSH1 0x2 DUP6 DUP6 PUSH1 0x40 MLOAD PUSH2 0x59A SWAP3 SWAP2 SWAP1 PUSH2 0xCBB JUMP JUMPDEST SWAP1 DUP2 MSTORE PUSH1 0x20 ADD PUSH1 0x40 MLOAD DUP1 SWAP2 SUB SWAP1 KECCAK256 PUSH1 0x2 ADD SLOAD DUP2 MSTORE PUSH1 0x20 ADD SWAP1 DUP2 MSTORE PUSH1 0x20 ADD PUSH1 0x0 KECCAK256 PUSH1 0x40 MLOAD PUSH1 0x20 ADD PUSH2 0x5CA SWAP2 SWAP1 PUSH2 0xD68 JUMP JUMPDEST PUSH1 0x40 MLOAD PUSH1 0x20 DUP2 DUP4 SUB SUB DUP2 MSTORE SWAP1 PUSH1 0x40 MSTORE DUP1 MLOAD SWAP1 PUSH1 0x20 ADD KECCAK256 EQ PUSH2 0x5EA JUMPI PUSH1 0x0 DUP1 REVERT JUMPDEST PUSH1 0x0 PUSH1 0x2 DUP9 DUP9 PUSH1 0x40 MLOAD PUSH2 0x5FE SWAP3 SWAP2 SWAP1 PUSH2 0xCBB JUMP JUMPDEST SWAP1 DUP2 MSTORE PUSH1 0x20 ADD PUSH1 0x40 MLOAD DUP1 SWAP2 SUB SWAP1 KECCAK256 SWAP1 POP DUP1 PUSH1 0x0 ADD SLOAD DUP2 PUSH1 0x3 ADD SLOAD DUP3 PUSH1 0x1 ADD PUSH1 0x0 SWAP1 SLOAD SWAP1 PUSH2 0x100 EXP SWAP1 DIV PUSH20 0xFFFFFFFFFFFFFFFFFFFFFFFFFFFFFFFFFFFFFFFF AND SWAP6 POP SWAP6 POP SWAP6 POP POP POP POP SWAP3 POP SWAP3 POP SWAP3 JUMP JUMPDEST PUSH1 0x0 DUP1 SLOAD SWAP1 PUSH2 0x100 EXP SWAP1 DIV PUSH20 0xFFFFFFFFFFFFFFFFFFFFFFFFFFFFFFFFFFFFFFFF AND DUP2 JUMP JUMPDEST PUSH1 0x1 PUSH1 0x0 CALLER PUSH20 0xFFFFFFFFFFFFFFFFFFFFFFFFFFFFFFFFFFFFFFFF AND PUSH20 0xFFFFFFFFFFFFFFFFFFFFFFFFFFFFFFFFFFFFFFFF AND DUP2 MSTORE PUSH1 0x20 ADD SWAP1 DUP2 MSTORE PUSH1 0x20 ADD PUSH1 0x0 KECCAK256 PUSH1 0x0 SWAP1 SLOAD SWAP1 PUSH2 0x100 EXP SWAP1 DIV PUSH1 0xFF AND PUSH2 0x6C7 JUMPI PUSH1 0x0 DUP1 REVERT JUMPDEST PUSH1 0x0 PUSH1 0x2 DUP5 DUP5 PUSH1 0x40 MLOAD PUSH2 0x6DB SWAP3 SWAP2 SWAP1 PUSH2 0xCBB JUMP JUMPDEST SWAP1 DUP2 MSTORE PUSH1 0x20 ADD PUSH1 0x40 MLOAD DUP1 SWAP2 SUB SWAP1 KECCAK256 SWAP1 POP PUSH1 0x0 DUP2 PUSH1 0x0 ADD SLOAD EQ PUSH2 0x6FC JUMPI PUSH1 0x0 DUP1 REVERT JUMPDEST TIMESTAMP DUP2 PUSH1 0x0 ADD DUP2 SWAP1 SSTORE POP CALLER DUP2 PUSH1 0x1 ADD PUSH1 0x0 PUSH2 0x100 EXP DUP2 SLOAD DUP2 PUSH20 0xFFFFFFFFFFFFFFFFFFFFFFFFFFFFFFFFFFFFFFFF MUL NOT AND SWAP1 DUP4 PUSH20 0xFFFFFFFFFFFFFFFFFFFFFFFFFFFFFFFFFFFFFFFF AND MUL OR SWAP1 SSTORE POP DUP2 DUP2 PUSH1 0x3 ADD DUP2 SWAP1 SSTORE POP DUP4 DUP4 PUSH1 0x3 PUSH1 0x0 PUSH1 0x4 SLOAD DUP2 MSTORE PUSH1 0x20 ADD SWAP1 DUP2 MSTORE PUSH1 0x20 ADD PUSH1 0x0 KECCAK256 SWAP2 SWAP1 PUSH2 0x775 SWAP3 SWAP2 SWAP1 PUSH2 0x828 JUMP JUMPDEST POP PUSH1 0x4 PUSH1 0x0 DUP2 SLOAD DUP1 SWAP3 SWAP2 SWAP1 PUSH2 0x789 SWAP1 PUSH2 0xEB7 JUMP JUMPDEST SWAP2 SWAP1 POP SSTORE DUP2 PUSH1 0x2 ADD DUP2 SWAP1 SSTORE POP POP POP POP POP JUMP JUMPDEST DUP3 DUP1 SLOAD PUSH2 0x7A7 SWAP1 PUSH2 0xC4A JUMP JUMPDEST SWAP1 PUSH1 0x0 MSTORE PUSH1 0x20 PUSH1 0x0 KECCAK256 SWAP1 PUSH1 0x1F ADD PUSH1 0x20 SWAP1 DIV DUP2 ADD SWAP3 DUP3 PUSH2 0x7C9 JUMPI PUSH1 0x0 DUP6 SSTORE PUSH2 0x817 JUMP JUMPDEST DUP3 PUSH1 0x1F LT PUSH2 0x7DA JUMPI DUP1 SLOAD DUP6 SSTORE PUSH2 0x817 JUMP JUMPDEST DUP3 DUP1 ADD PUSH1 0x1 ADD DUP6 SSTORE DUP3 ISZERO PUSH2 0x817 JUMPI PUSH1 0x0 MSTORE PUSH1 0x20 PUSH1 0x0 KECCAK256 SWAP2 PUSH1 0x1F ADD PUSH1 0x20 SWAP1 DIV DUP3 ADD JUMPDEST DUP3 DUP2 GT ISZERO PUSH2 0x816 JUMPI DUP3 SLOAD DUP3 SSTORE SWAP2 PUSH1 0x1 ADD SWAP2 SWAP1 PUSH1 0x1 ADD SWAP1 PUSH2 0x7FB JUMP JUMPDEST JUMPDEST POP SWAP1 POP PUSH2 0x824 SWAP2 SWAP1 PUSH2 0x8AE JUMP JUMPDEST POP SWAP1 JUMP JUMPDEST DUP3 DUP1 SLOAD PUSH2 0x834 SWAP1 PUSH2 0xC4A JUMP JUMPDEST SWAP1 PUSH1 0x0 MSTORE PUSH1 0x20 PUSH1 0x0 KECCAK256 SWAP1 PUSH1 0x1F ADD PUSH1 0x20 SWAP1 DIV DUP2 ADD SWAP3 DUP3 PUSH2 0x856 JUMPI PUSH1 0x0 DUP6 SSTORE PUSH2 0x89D JUMP JUMPDEST DUP3 PUSH1 0x1F LT PUSH2 0x86F JUMPI DUP1 CALLDATALOAD PUSH1 0xFF NOT AND DUP4 DUP1 ADD OR DUP6 SSTORE PUSH2 0x89D JUMP JUMPDEST DUP3 DUP1 ADD PUSH1 0x1 ADD DUP6 SSTORE DUP3 ISZERO PUSH2 0x89D JUMPI SWAP2 DUP3 ADD JUMPDEST DUP3 DUP2 GT ISZERO PUSH2 0x89C JUMPI DUP3 CALLDATALOAD DUP3 SSTORE SWAP2 PUSH1 0x20 ADD SWAP2 SWAP1 PUSH1 0x1 ADD SWAP1 PUSH2 0x881 JUMP JUMPDEST JUMPDEST POP SWAP1 POP PUSH2 0x8AA SWAP2 SWAP1 PUSH2 0x8AE JUMP JUMPDEST POP SWAP1 JUMP JUMPDEST JUMPDEST DUP1 DUP3 GT ISZERO PUSH2 0x8C7 JUMPI PUSH1 0x0 DUP2 PUSH1 0x0 SWAP1 SSTORE POP PUSH1 0x1 ADD PUSH2 0x8AF JUMP JUMPDEST POP SWAP1 JUMP JUMPDEST PUSH1 0x0 DUP1 REVERT JUMPDEST PUSH1 0x0 DUP1 REVERT JUMPDEST PUSH1 0x0 DUP2 SWAP1 POP SWAP2 SWAP1 POP JUMP JUMPDEST PUSH2 0x8E8 DUP2 PUSH2 0x8D5 JUMP JUMPDEST DUP2 EQ PUSH2 0x8F3 JUMPI PUSH1 0x0 DUP1 REVERT JUMPDEST POP JUMP JUMPDEST PUSH1 0x0 DUP2 CALLDATALOAD SWAP1 POP PUSH2 0x905 DUP2 PUSH2 0x8DF JUMP JUMPDEST SWAP3 SWAP2 POP POP JUMP JUMPDEST PUSH1 0x0 PUSH1 0x20 DUP3 DUP5 SUB SLT ISZERO PUSH2 0x921 JUMPI PUSH2 0x920 PUSH2 0x8CB JUMP JUMPDEST JUMPDEST PUSH1 0x0 PUSH2 0x92F DUP5 DUP3 DUP6 ADD PUSH2 0x8F6 JUMP JUMPDEST SWAP2 POP POP SWAP3 SWAP2 POP POP JUMP JUMPDEST PUSH1 0x0 DUP2 MLOAD SWAP1 POP SWAP2 SWAP1 POP JUMP JUMPDEST PUSH1 0x0 DUP3 DUP3 MSTORE PUSH1 0x20 DUP3 ADD SWAP1 POP SWAP3 SWAP2 POP POP JUMP JUMPDEST PUSH1 0x0 JUMPDEST DUP4 DUP2 LT ISZERO PUSH2 0x972 JUMPI DUP1 DUP3 ADD MLOAD DUP2 DUP5 ADD MSTORE PUSH1 0x20 DUP2 ADD SWAP1 POP PUSH2 0x957 JUMP JUMPDEST DUP4 DUP2 GT ISZERO PUSH2 0x981 JUMPI PUSH1 0x0 DUP5 DUP5 ADD MSTORE JUMPDEST POP POP POP POP JUMP JUMPDEST PUSH1 0x0 PUSH1 0x1F NOT PUSH1 0x1F DUP4 ADD AND SWAP1 POP SWAP2 SWAP1 POP JUMP JUMPDEST PUSH1 0x0 PUSH2 0x9A3 DUP3 PUSH2 0x938 JUMP JUMPDEST PUSH2 0x9AD DUP2 DUP6 PUSH2 0x943 JUMP JUMPDEST SWAP4 POP PUSH2 0x9BD DUP2 DUP6 PUSH1 0x20 DUP7 ADD PUSH2 0x954 JUMP JUMPDEST PUSH2 0x9C6 DUP2 PUSH2 0x987 JUMP JUMPDEST DUP5 ADD SWAP2 POP POP SWAP3 SWAP2 POP POP JUMP JUMPDEST PUSH1 0x0 PUSH1 0x20 DUP3 ADD SWAP1 POP DUP2 DUP2 SUB PUSH1 0x0 DUP4 ADD MSTORE PUSH2 0x9EB DUP2 DUP5 PUSH2 0x998 JUMP JUMPDEST SWAP1 POP SWAP3 SWAP2 POP POP JUMP JUMPDEST PUSH1 0x0 DUP1 REVERT JUMPDEST PUSH1 0x0 DUP1 REVERT JUMPDEST PUSH1 0x0 DUP1 REVERT JUMPDEST PUSH1 0x0 DUP1 DUP4 PUSH1 0x1F DUP5 ADD SLT PUSH2 0xA18 JUMPI PUSH2 0xA17 PUSH2 0x9F3 JUMP JUMPDEST JUMPDEST DUP3 CALLDATALOAD SWAP1 POP PUSH8 0xFFFFFFFFFFFFFFFF DUP2 GT ISZERO PUSH2 0xA35 JUMPI PUSH2 0xA34 PUSH2 0x9F8 JUMP JUMPDEST JUMPDEST PUSH1 0x20 DUP4 ADD SWAP2 POP DUP4 PUSH1 0x1 DUP3 MUL DUP4 ADD GT ISZERO PUSH2 0xA51 JUMPI PUSH2 0xA50 PUSH2 0x9FD JUMP JUMPDEST JUMPDEST SWAP3 POP SWAP3 SWAP1 POP JUMP JUMPDEST PUSH1 0x0 DUP1 PUSH1 0x20 DUP4 DUP6 SUB SLT ISZERO PUSH2 0xA6F JUMPI PUSH2 0xA6E PUSH2 0x8CB JUMP JUMPDEST JUMPDEST PUSH1 0x0 DUP4 ADD CALLDATALOAD PUSH8 0xFFFFFFFFFFFFFFFF DUP2 GT ISZERO PUSH2 0xA8D JUMPI PUSH2 0xA8C PUSH2 0x8D0 JUMP JUMPDEST JUMPDEST PUSH2 0xA99 DUP6 DUP3 DUP7 ADD PUSH2 0xA02 JUMP JUMPDEST SWAP3 POP SWAP3 POP POP SWAP3 POP SWAP3 SWAP1 POP JUMP JUMPDEST PUSH2 0xAAE DUP2 PUSH2 0x8D5 JUMP JUMPDEST DUP3 MSTORE POP POP JUMP JUMPDEST PUSH1 0x0 PUSH1 0x20 DUP3 ADD SWAP1 POP PUSH2 0xAC9 PUSH1 0x0 DUP4 ADD DUP5 PUSH2 0xAA5 JUMP JUMPDEST SWAP3 SWAP2 POP POP JUMP JUMPDEST PUSH1 0x0 PUSH20 0xFFFFFFFFFFFFFFFFFFFFFFFFFFFFFFFFFFFFFFFF DUP3 AND SWAP1 POP SWAP2 SWAP1 POP JUMP JUMPDEST PUSH1 0x0 PUSH2 0xAFA DUP3 PUSH2 0xACF JUMP JUMPDEST SWAP1 POP SWAP2 SWAP1 POP JUMP JUMPDEST PUSH2 0xB0A DUP2 PUSH2 0xAEF JUMP JUMPDEST DUP2 EQ PUSH2 0xB15 JUMPI PUSH1 0x0 DUP1 REVERT JUMPDEST POP JUMP JUMPDEST PUSH1 0x0 DUP2 CALLDATALOAD SWAP1 POP PUSH2 0xB27 DUP2 PUSH2 0xB01 JUMP JUMPDEST SWAP3 SWAP2 POP POP JUMP JUMPDEST PUSH1 0x0 PUSH1 0x20 DUP3 DUP5 SUB SLT ISZERO PUSH2 0xB43 JUMPI PUSH2 0xB42 PUSH2 0x8CB JUMP JUMPDEST JUMPDEST PUSH1 0x0 PUSH2 0xB51 DUP5 DUP3 DUP6 ADD PUSH2 0xB18 JUMP JUMPDEST SWAP2 POP POP SWAP3 SWAP2 POP POP JUMP JUMPDEST PUSH1 0x0 DUP1 PUSH1 0x0 PUSH1 0x40 DUP5 DUP7 SUB SLT ISZERO PUSH2 0xB73 JUMPI PUSH2 0xB72 PUSH2 0x8CB JUMP JUMPDEST JUMPDEST PUSH1 0x0 DUP5 ADD CALLDATALOAD PUSH8 0xFFFFFFFFFFFFFFFF DUP2 GT ISZERO PUSH2 0xB91 JUMPI PUSH2 0xB90 PUSH2 0x8D0 JUMP JUMPDEST JUMPDEST PUSH2 0xB9D DUP7 DUP3 DUP8 ADD PUSH2 0xA02 JUMP JUMPDEST SWAP4 POP SWAP4 POP POP PUSH1 0x20 PUSH2 0xBB0 DUP7 DUP3 DUP8 ADD PUSH2 0x8F6 JUMP JUMPDEST SWAP2 POP POP SWAP3 POP SWAP3 POP SWAP3 JUMP JUMPDEST PUSH2 0xBC3 DUP2 PUSH2 0xAEF JUMP JUMPDEST DUP3 MSTORE POP POP JUMP JUMPDEST PUSH1 0x0 PUSH1 0x60 DUP3 ADD SWAP1 POP PUSH2 0xBDE PUSH1 0x0 DUP4 ADD DUP7 PUSH2 0xAA5 JUMP JUMPDEST PUSH2 0xBEB PUSH1 0x20 DUP4 ADD DUP6 PUSH2 0xAA5 JUMP JUMPDEST PUSH2 0xBF8 PUSH1 0x40 DUP4 ADD DUP5 PUSH2 0xBBA JUMP JUMPDEST SWAP5 SWAP4 POP POP POP POP JUMP JUMPDEST PUSH1 0x0 PUSH1 0x20 DUP3 ADD SWAP1 POP PUSH2 0xC15 PUSH1 0x0 DUP4 ADD DUP5 PUSH2 0xBBA JUMP JUMPDEST SWAP3 SWAP2 POP POP JUMP JUMPDEST PUSH32 0x4E487B7100000000000000000000000000000000000000000000000000000000 PUSH1 0x0 MSTORE PUSH1 0x22 PUSH1 0x4 MSTORE PUSH1 0x24 PUSH1 0x0 REVERT JUMPDEST PUSH1 0x0 PUSH1 0x2 DUP3 DIV SWAP1 POP PUSH1 0x1 DUP3 AND DUP1 PUSH2 0xC62 JUMPI PUSH1 0x7F DUP3 AND SWAP2 POP JUMPDEST PUSH1 0x20 DUP3 LT DUP2 EQ ISZERO PUSH2 0xC76 JUMPI PUSH2 0xC75 PUSH2 0xC1B JUMP JUMPDEST JUMPDEST POP SWAP2 SWAP1 POP JUMP JUMPDEST PUSH1 0x0 DUP2 SWAP1 POP SWAP3 SWAP2 POP POP JUMP JUMPDEST DUP3 DUP2 DUP4 CALLDATACOPY PUSH1 0x0 DUP4 DUP4 ADD MSTORE POP POP POP JUMP JUMPDEST PUSH1 0x0 PUSH2 0xCA2 DUP4 DUP6 PUSH2 0xC7C JUMP JUMPDEST SWAP4 POP PUSH2 0xCAF DUP4 DUP6 DUP5 PUSH2 0xC87 JUMP JUMPDEST DUP3 DUP5 ADD SWAP1 POP SWAP4 SWAP3 POP POP POP JUMP JUMPDEST PUSH1 0x0 PUSH2 0xCC8 DUP3 DUP5 DUP7 PUSH2 0xC96 JUMP JUMPDEST SWAP2 POP DUP2 SWAP1 POP SWAP4 SWAP3 POP POP POP JUMP JUMPDEST PUSH1 0x0 DUP2 SWAP1 POP DUP2 PUSH1 0x0 MSTORE PUSH1 0x20 PUSH1 0x0 KECCAK256 SWAP1 POP SWAP2 SWAP1 POP JUMP JUMPDEST PUSH1 0x0 DUP2 SLOAD PUSH2 0xCF6 DUP2 PUSH2 0xC4A JUMP JUMPDEST PUSH2 0xD00 DUP2 DUP7 PUSH2 0xC7C JUMP JUMPDEST SWAP5 POP PUSH1 0x1 DUP3 AND PUSH1 0x0 DUP2 EQ PUSH2 0xD1B JUMPI PUSH1 0x1 DUP2 EQ PUSH2 0xD2C JUMPI PUSH2 0xD5F JUMP JUMPDEST PUSH1 0xFF NOT DUP4 AND DUP7 MSTORE DUP2 DUP7 ADD SWAP4 POP PUSH2 0xD5F JUMP JUMPDEST PUSH2 0xD35 DUP6 PUSH2 0xCD4 JUMP JUMPDEST PUSH1 0x0 JUMPDEST DUP4 DUP2 LT ISZERO PUSH2 0xD57 JUMPI DUP2 SLOAD DUP2 DUP10 ADD MSTORE PUSH1 0x1 DUP3 ADD SWAP2 POP PUSH1 0x20 DUP2 ADD SWAP1 POP PUSH2 0xD38 JUMP JUMPDEST DUP4 DUP9 ADD SWAP6 POP POP POP JUMPDEST POP POP POP SWAP3 SWAP2 POP POP JUMP JUMPDEST PUSH1 0x0 PUSH2 0xD74 DUP3 DUP5 PUSH2 0xCE9 JUMP JUMPDEST SWAP2 POP DUP2 SWAP1 POP SWAP3 SWAP2 POP POP JUMP JUMPDEST PUSH32 0x4E487B7100000000000000000000000000000000000000000000000000000000 PUSH1 0x0 MSTORE PUSH1 0x11 PUSH1 0x4 MSTORE PUSH1 0x24 PUSH1 0x0 REVERT JUMPDEST PUSH1 0x0 PUSH2 0xDB9 DUP3 PUSH2 0x8D5 JUMP JUMPDEST SWAP2 POP PUSH2 0xDC4 DUP4 PUSH2 0x8D5 JUMP JUMPDEST SWAP3 POP DUP3 DUP3 LT ISZERO PUSH2 0xDD7 JUMPI PUSH2 0xDD6 PUSH2 0xD7F JUMP JUMPDEST JUMPDEST DUP3 DUP3 SUB SWAP1 POP SWAP3 SWAP2 POP POP JUMP JUMPDEST PUSH1 0x0 DUP2 SWAP1 POP DUP2 PUSH1 0x0 MSTORE PUSH1 0x20 PUSH1 0x0 KECCAK256 SWAP1 POP SWAP2 SWAP1 POP JUMP JUMPDEST PUSH1 0x0 DUP2 SLOAD PUSH2 0xE04 DUP2 PUSH2 0xC4A JUMP JUMPDEST PUSH2 0xE0E DUP2 DUP7 PUSH2 0xC7C JUMP JUMPDEST SWAP5 POP PUSH1 0x1 DUP3 AND PUSH1 0x0 DUP2 EQ PUSH2 0xE29 JUMPI PUSH1 0x1 DUP2 EQ PUSH2 0xE3A JUMPI PUSH2 0xE6D JUMP JUMPDEST PUSH1 0xFF NOT DUP4 AND DUP7 MSTORE DUP2 DUP7 ADD SWAP4 POP PUSH2 0xE6D JUMP JUMPDEST PUSH2 0xE43 DUP6 PUSH2 0xDE2 JUMP JUMPDEST PUSH1 0x0 JUMPDEST DUP4 DUP2 LT ISZERO PUSH2 0xE65 JUMPI DUP2 SLOAD DUP2 DUP10 ADD MSTORE PUSH1 0x1 DUP3 ADD SWAP2 POP PUSH1 0x20 DUP2 ADD SWAP1 POP PUSH2 0xE46 JUMP JUMPDEST DUP4 DUP9 ADD SWAP6 POP POP POP JUMPDEST POP POP POP SWAP3 SWAP2 POP POP JUMP JUMPDEST PUSH1 0x0 PUSH2 0xE82 DUP3 DUP5 PUSH2 0xDF7 JUMP JUMPDEST SWAP2 POP DUP2 SWAP1 POP SWAP3 SWAP2 POP POP JUMP JUMPDEST PUSH1 0x0 PUSH2 0xE98 DUP3 PUSH2 0x8D5 JUMP JUMPDEST SWAP2 POP PUSH1 0x0 DUP3 EQ ISZERO PUSH2 0xEAC JUMPI PUSH2 0xEAB PUSH2 0xD7F JUMP JUMPDEST JUMPDEST PUSH1 0x1 DUP3 SUB SWAP1 POP SWAP2 SWAP1 POP JUMP JUMPDEST PUSH1 0x0 PUSH2 0xEC2 DUP3 PUSH2 0x8D5 JUMP JUMPDEST SWAP2 POP PUSH32 0xFFFFFFFFFFFFFFFFFFFFFFFFFFFFFFFFFFFFFFFFFFFFFFFFFFFFFFFFFFFFFFFF DUP3 EQ ISZERO PUSH2 0xEF5 JUMPI PUSH2 0xEF4 PUSH2 0xD7F JUMP JUMPDEST JUMPDEST PUSH1 0x1 DUP3 ADD SWAP1 POP SWAP2 SWAP1 POP JUMP INVALID LOG2 PUSH5 0x6970667358 0x22 SLT KECCAK256 0xAA ADDRESS MSIZE 0xD4 SWAP1 PUSH31 0x8838F2444600E46E85FA9DBB80A13F7A1E48CA2A5BC4EE56F4C264736F6C63 NUMBER STOP ADDMOD MULMOD STOP CALLER LOG2 PUSH5 0x6970667358 0x22 SLT KECCAK256 0xE0 MOD EXTCODECOPY BLOCKHASH ADDRESS PUSH23 0xCB0229675348AB44CF26D0E65C093A69291B8C337781A8 0xEE 0xF 0x27 PUSH5 0x736F6C6343 STOP ADDMOD MULMOD STOP CALLER "},"gasEstimates":{"creation":{"codeDepositCost":"2448000","executionCost":"2635","totalCost":"2450635"},"external":{"approveRequest(uint256)":"infinite","createRegistry(address)":"infinite","createRequest(string,string,address)":"infinite","createUser(string,string,string,string,string,string,string,uint16,uint16,uint8,address)":"infinite","deployedRegistries(address)":"infinite","isRequest(string)":"infinite","requestCount()":"2430","retrieveRequest(string)":"infinite","retrieveRequestIndex(uint256)":"infinite","userIndex(uint256)":"4956","users(address)":"infinite"}},"methodIdentifiers":{"approveRequest(uint256)":"d7d1bbdb","createRegistry(address)":"65467557","createRequest(string,string,address)":"d184232a","createUser(string,string,string,string,string,string,string,uint16,uint16,uint8,address)":"a86653fe","deployedRegistries(address)":"f4028d11","isRequest(string)":"db5f3683","requestCount()":"5badbe4c","retrieveRequest(string)":"fdf97ce9","retrieveRequestIndex(uint256)":"7073d87f","userIndex(uint256)":"c37dfd6e","users(address)":"a87430ba"}},"storageLayout":{"storage":[{"astId":48,"contract":"ElectronicHealthRegistry.sol:ElectronicHealthRegistry","label":"users","offset":0,"slot":"0","type":"t_mapping(t_address,t_struct(User)32_storage)"},{"astId":51,"contract":"ElectronicHealthRegistry.sol:ElectronicHealthRegistry","label":"userIndex","offset":0,"slot":"1","type":"t_array(t_address)dyn_storage"},{"astId":55,"contract":"ElectronicHealthRegistry.sol:ElectronicHealthRegistry","label":"deployedRegistries","offset":0,"slot":"2","type":"t_mapping(t_address,t_address)"},{"astId":60,"contract":"ElectronicHealthRegistry.sol:ElectronicHealthRegistry","label":"requests","offset":0,"slot":"3","type":"t_mapping(t_string_memory_ptr,t_struct(Request)43_storage)"},{"astId":64,"contract":"ElectronicHealthRegistry.sol:ElectronicHealthRegistry","label":"requestIndex","offset":0,"slot":"4","type":"t_mapping(t_uint256,t_string_storage)"},{"astId":66,"contract":"ElectronicHealthRegistry.sol:ElectronicHealthRegistry","label":"requestCount","offset":0,"slot":"5","type":"t_uint256"}],"types":{"t_address":{"encoding":"inplace","label":"address","numberOfBytes":"20"},"t_array(t_address)dyn_storage":{"base":"t_address","encoding":"dynamic_array","label":"address[]","numberOfBytes":"32"},"t_bool":{"encoding":"inplace","label":"bool","numberOfBytes":"1"},"t_bytes16":{"encoding":"inplace","label":"bytes16","numberOfBytes":"16"},"t_enum(UserRole)5":{"encoding":"inplace","label":"enum ElectronicHealthRegistry.UserRole","numberOfBytes":"1"},"t_mapping(t_address,t_address)":{"encoding":"mapping","key":"t_address","label":"mapping(address => address)","numberOfBytes":"32","value":"t_address"},"t_mapping(t_address,t_struct(User)32_storage)":{"encoding":"mapping","key":"t_address","label":"mapping(address => struct ElectronicHealthRegistry.User)","numberOfBytes":"32","value":"t_struct(User)32_storage"},"t_mapping(t_string_memory_ptr,t_struct(Request)43_storage)":{"encoding":"mapping","key":"t_string_memory_ptr","label":"mapping(string => struct ElectronicHealthRegistry.Request)","numberOfBytes":"32","value":"t_struct(Request)43_storage"},"t_mapping(t_uint256,t_string_storage)":{"encoding":"mapping","key":"t_uint256","label":"mapping(uint256 => string)","numberOfBytes":"32","value":"t_string_storage"},"t_string_memory_ptr":{"encoding":"bytes","label":"string","numberOfBytes":"32"},"t_string_storage":{"encoding":"bytes","label":"string","numberOfBytes":"32"},"t_struct(Request)43_storage":{"encoding":"inplace","label":"struct ElectronicHealthRegistry.Request","members":[{"astId":34,"contract":"ElectronicHealthRegistry.sol:ElectronicHealthRegistry","label":"description","offset":0,"slot":"0","type":"t_string_storage"},{"astId":36,"contract":"ElectronicHealthRegistry.sol:ElectronicHealthRegistry","label":"sender","offset":0,"slot":"1","type":"t_address"},{"astId":38,"contract":"ElectronicHealthRegistry.sol:ElectronicHealthRegistry","label":"recipient","offset":0,"slot":"2","type":"t_address"},{"astId":40,"contract":"ElectronicHealthRegistry.sol:ElectronicHealthRegistry","label":"approved","offset":20,"slot":"2","type":"t_bool"},{"astId":42,"contract":"ElectronicHealthRegistry.sol:ElectronicHealthRegistry","label":"index","offset":0,"slot":"3","type":"t_uint256"}],"numberOfBytes":"128"},"t_struct(User)32_storage":{"encoding":"inplace","label":"struct ElectronicHealthRegistry.User","members":[{"astId":7,"contract":"ElectronicHealthRegistry.sol:ElectronicHealthRegistry","label":"firstName","offset":0,"slot":"0","type":"t_bytes16"},{"astId":9,"contract":"ElectronicHealthRegistry.sol:ElectronicHealthRegistry","label":"lastName","offset":16,"slot":"0","type":"t_bytes16"},{"astId":11,"contract":"ElectronicHealthRegistry.sol:ElectronicHealthRegistry","label":"personalNumber","offset":0,"slot":"1","type":"t_bytes16"},{"astId":13,"contract":"ElectronicHealthRegistry.sol:ElectronicHealthRegistry","label":"personalAddress","offset":0,"slot":"2","type":"t_string_storage"},{"astId":15,"contract":"ElectronicHealthRegistry.sol:ElectronicHealthRegistry","label":"emailAddress","offset":0,"slot":"3","type":"t_string_storage"},{"astId":17,"contract":"ElectronicHealthRegistry.sol:ElectronicHealthRegistry","label":"phoneNumber","offset":0,"slot":"4","type":"t_bytes16"},{"astId":19,"contract":"ElectronicHealthRegistry.sol:ElectronicHealthRegistry","label":"birthDate","offset":0,"slot":"5","type":"t_string_storage"},{"astId":21,"contract":"ElectronicHealthRegistry.sol:ElectronicHealthRegistry","label":"height","offset":0,"slot":"6","type":"t_uint16"},{"astId":23,"contract":"ElectronicHealthRegistry.sol:ElectronicHealthRegistry","label":"weight","offset":2,"slot":"6","type":"t_uint16"},{"astId":26,"contract":"ElectronicHealthRegistry.sol:ElectronicHealthRegistry","label":"privileges","offset":4,"slot":"6","type":"t_enum(UserRole)5"},{"astId":28,"contract":"ElectronicHealthRegistry.sol:ElectronicHealthRegistry","label":"isUser","offset":5,"slot":"6","type":"t_bool"},{"astId":31,"contract":"ElectronicHealthRegistry.sol:ElectronicHealthRegistry","label":"patients","offset":0,"slot":"7","type":"t_array(t_address)dyn_storage"}],"numberOfBytes":"256"},"t_uint16":{"encoding":"inplace","label":"uint16","numberOfBytes":"2"},"t_uint256":{"encoding":"inplace","label":"uint256","numberOfBytes":"32"}}},"userdoc":{"kind":"user","methods":{},"version":1}}