{"abi":[{"inputs":[{"internalType":"address","name":"person","type":"address"}],"stateMutability":"nonpayable","type":"constructor"},{"inputs":[{"internalType":"address","name":"doctor","type":"address"}],"name":"addDoctor","outputs":[],"stateMutability":"nonpayable","type":"function"},{"inputs":[{"internalType":"string","name":"uuid","type":"string"},{"internalType":"uint256","name":"data","type":"uint256"}],"name":"createEntry","outputs":[],"stateMutability":"nonpayable","type":"function"},{"inputs":[{"internalType":"string","name":"uuid","type":"string"}],"name":"deleteEntry","outputs":[{"internalType":"uint256","name":"","type":"uint256"}],"stateMutability":"nonpayable","type":"function"},{"inputs":[],"name":"entriesCount","outputs":[{"internalType":"uint256","name":"","type":"uint256"}],"stateMutability":"view","type":"function"},{"inputs":[],"name":"patient","outputs":[{"internalType":"address","name":"","type":"address"}],"stateMutability":"view","type":"function"},{"inputs":[{"internalType":"string","name":"uuid","type":"string"}],"name":"retrieveEntry","outputs":[{"internalType":"uint256","name":"","type":"uint256"},{"internalType":"uint256","name":"","type":"uint256"},{"internalType":"address","name":"","type":"address"}],"stateMutability":"view","type":"function"},{"inputs":[{"internalType":"uint256","name":"index","type":"uint256"}],"name":"retrieveEntryIndex","outputs":[{"internalType":"string","name":"","type":"string"}],"stateMutability":"view","type":"function"},{"inputs":[{"internalType":"string","name":"uuid","type":"string"},{"internalType":"uint256","name":"newData","type":"uint256"}],"name":"updateEntry","outputs":[],"stateMutability":"nonpayable","type":"function"}],"devdoc":{"kind":"dev","methods":{},"version":1},"evm":{"assembly":"    /* \"ElectronicHealthRegistry.sol\":4323:6526  contract HealthRegistry {... */\n  mstore(0x40, 0x80)\n    /* \"ElectronicHealthRegistry.sol\":5090:5153  constructor(address person) {... */\n  callvalue\n  dup1\n  iszero\n  tag_1\n  jumpi\n  0x00\n  dup1\n  revert\ntag_1:\n  pop\n  mload(0x40)\n  sub(codesize, bytecodeSize)\n  dup1\n  bytecodeSize\n  dup4\n  codecopy\n  dup2\n  dup2\n  add\n  0x40\n  mstore\n  dup2\n  add\n  swap1\n  tag_2\n  swap2\n  swap1\n  tag_3\n  jump\t// in\ntag_2:\n    /* \"ElectronicHealthRegistry.sol\":5139:5145  person */\n  dup1\n    /* \"ElectronicHealthRegistry.sol\":5129:5136  patient */\n  0x00\n  dup1\n    /* \"ElectronicHealthRegistry.sol\":5129:5145  patient = person */\n  0x0100\n  exp\n  dup2\n  sload\n  dup2\n  0xffffffffffffffffffffffffffffffffffffffff\n  mul\n  not\n  and\n  swap1\n  dup4\n  0xffffffffffffffffffffffffffffffffffffffff\n  and\n  mul\n  or\n  swap1\n  sstore\n  pop\n    /* \"ElectronicHealthRegistry.sol\":5090:5153  constructor(address person) {... */\n  pop\n    /* \"ElectronicHealthRegistry.sol\":4323:6526  contract HealthRegistry {... */\n  jump(tag_6)\n    /* \"#utility.yul\":88:205   */\ntag_8:\n    /* \"#utility.yul\":197:198   */\n  0x00\n    /* \"#utility.yul\":194:195   */\n  dup1\n    /* \"#utility.yul\":187:199   */\n  revert\n    /* \"#utility.yul\":334:460   */\ntag_10:\n    /* \"#utility.yul\":371:378   */\n  0x00\n    /* \"#utility.yul\":411:453   */\n  0xffffffffffffffffffffffffffffffffffffffff\n    /* \"#utility.yul\":404:409   */\n  dup3\n    /* \"#utility.yul\":400:454   */\n  and\n    /* \"#utility.yul\":389:454   */\n  swap1\n  pop\n    /* \"#utility.yul\":334:460   */\n  swap2\n  swap1\n  pop\n  jump\t// out\n    /* \"#utility.yul\":466:562   */\ntag_11:\n    /* \"#utility.yul\":503:510   */\n  0x00\n    /* \"#utility.yul\":532:556   */\n  tag_20\n    /* \"#utility.yul\":550:555   */\n  dup3\n    /* \"#utility.yul\":532:556   */\n  tag_10\n  jump\t// in\ntag_20:\n    /* \"#utility.yul\":521:556   */\n  swap1\n  pop\n    /* \"#utility.yul\":466:562   */\n  swap2\n  swap1\n  pop\n  jump\t// out\n    /* \"#utility.yul\":568:690   */\ntag_12:\n    /* \"#utility.yul\":641:665   */\n  tag_22\n    /* \"#utility.yul\":659:664   */\n  dup2\n    /* \"#utility.yul\":641:665   */\n  tag_11\n  jump\t// in\ntag_22:\n    /* \"#utility.yul\":634:639   */\n  dup2\n    /* \"#utility.yul\":631:666   */\n  eq\n    /* \"#utility.yul\":621:684   */\n  tag_23\n  jumpi\n    /* \"#utility.yul\":680:681   */\n  0x00\n    /* \"#utility.yul\":677:678   */\n  dup1\n    /* \"#utility.yul\":670:682   */\n  revert\n    /* \"#utility.yul\":621:684   */\ntag_23:\n    /* \"#utility.yul\":568:690   */\n  pop\n  jump\t// out\n    /* \"#utility.yul\":696:839   */\ntag_13:\n    /* \"#utility.yul\":753:758   */\n  0x00\n    /* \"#utility.yul\":784:790   */\n  dup2\n    /* \"#utility.yul\":778:791   */\n  mload\n    /* \"#utility.yul\":769:791   */\n  swap1\n  pop\n    /* \"#utility.yul\":800:833   */\n  tag_25\n    /* \"#utility.yul\":827:832   */\n  dup2\n    /* \"#utility.yul\":800:833   */\n  tag_12\n  jump\t// in\ntag_25:\n    /* \"#utility.yul\":696:839   */\n  swap3\n  swap2\n  pop\n  pop\n  jump\t// out\n    /* \"#utility.yul\":845:1196   */\ntag_3:\n    /* \"#utility.yul\":915:921   */\n  0x00\n    /* \"#utility.yul\":964:966   */\n  0x20\n    /* \"#utility.yul\":952:961   */\n  dup3\n    /* \"#utility.yul\":943:950   */\n  dup5\n    /* \"#utility.yul\":939:962   */\n  sub\n    /* \"#utility.yul\":935:967   */\n  slt\n    /* \"#utility.yul\":932:1051   */\n  iszero\n  tag_27\n  jumpi\n    /* \"#utility.yul\":970:1049   */\n  tag_28\n  tag_8\n  jump\t// in\ntag_28:\n    /* \"#utility.yul\":932:1051   */\ntag_27:\n    /* \"#utility.yul\":1090:1091   */\n  0x00\n    /* \"#utility.yul\":1115:1179   */\n  tag_29\n    /* \"#utility.yul\":1171:1178   */\n  dup5\n    /* \"#utility.yul\":1162:1168   */\n  dup3\n    /* \"#utility.yul\":1151:1160   */\n  dup6\n    /* \"#utility.yul\":1147:1169   */\n  add\n    /* \"#utility.yul\":1115:1179   */\n  tag_13\n  jump\t// in\ntag_29:\n    /* \"#utility.yul\":1105:1179   */\n  swap2\n  pop\n    /* \"#utility.yul\":1061:1189   */\n  pop\n    /* \"#utility.yul\":845:1196   */\n  swap3\n  swap2\n  pop\n  pop\n  jump\t// out\n    /* \"ElectronicHealthRegistry.sol\":4323:6526  contract HealthRegistry {... */\ntag_6:\n  dataSize(sub_0)\n  dup1\n  dataOffset(sub_0)\n  0x00\n  codecopy\n  0x00\n  return\nstop\n\nsub_0: assembly {\n        /* \"ElectronicHealthRegistry.sol\":4323:6526  contract HealthRegistry {... */\n      mstore(0x40, 0x80)\n      callvalue\n      dup1\n      iszero\n      tag_1\n      jumpi\n      0x00\n      dup1\n      revert\n    tag_1:\n      pop\n      jumpi(tag_2, lt(calldatasize, 0x04))\n      shr(0xe0, calldataload(0x00))\n      dup1\n      0xaeb9e57b\n      gt\n      tag_11\n      jumpi\n      dup1\n      0xaeb9e57b\n      eq\n      tag_7\n      jumpi\n      dup1\n      0xb8306de6\n      eq\n      tag_8\n      jumpi\n      dup1\n      0xbd96bd20\n      eq\n      tag_9\n      jumpi\n      dup1\n      0xe6af705f\n      eq\n      tag_10\n      jumpi\n      jump(tag_2)\n    tag_11:\n      dup1\n      0x124b16ed\n      eq\n      tag_3\n      jumpi\n      dup1\n      0x17674544\n      eq\n      tag_4\n      jumpi\n      dup1\n      0x4780468f\n      eq\n      tag_5\n      jumpi\n      dup1\n      0xab4ccf01\n      eq\n      tag_6\n      jumpi\n    tag_2:\n      0x00\n      dup1\n      revert\n        /* \"ElectronicHealthRegistry.sol\":5399:5530  function retrieveEntryIndex(uint index)... */\n    tag_3:\n      tag_12\n      0x04\n      dup1\n      calldatasize\n      sub\n      dup2\n      add\n      swap1\n      tag_13\n      swap2\n      swap1\n      tag_14\n      jump\t// in\n    tag_13:\n      tag_15\n      jump\t// in\n    tag_12:\n      mload(0x40)\n      tag_16\n      swap2\n      swap1\n      tag_17\n      jump\t// in\n    tag_16:\n      mload(0x40)\n      dup1\n      swap2\n      sub\n      swap1\n      return\n        /* \"ElectronicHealthRegistry.sol\":6094:6426  function deleteEntry(string calldata uuid) public present(uuid) returns(uint) {... */\n    tag_4:\n      tag_18\n      0x04\n      dup1\n      calldatasize\n      sub\n      dup2\n      add\n      swap1\n      tag_19\n      swap2\n      swap1\n      tag_20\n      jump\t// in\n    tag_19:\n      tag_21\n      jump\t// in\n    tag_18:\n      mload(0x40)\n      tag_22\n      swap2\n      swap1\n      tag_23\n      jump\t// in\n    tag_22:\n      mload(0x40)\n      dup1\n      swap2\n      sub\n      swap1\n      return\n        /* \"ElectronicHealthRegistry.sol\":6434:6517  function addDoctor(address doctor) public {... */\n    tag_5:\n      tag_24\n      0x04\n      dup1\n      calldatasize\n      sub\n      dup2\n      add\n      swap1\n      tag_25\n      swap2\n      swap1\n      tag_26\n      jump\t// in\n    tag_25:\n      tag_27\n      jump\t// in\n    tag_24:\n      stop\n        /* \"ElectronicHealthRegistry.sol\":4656:4680  uint public entriesCount */\n    tag_6:\n      tag_28\n      tag_29\n      jump\t// in\n    tag_28:\n      mload(0x40)\n      tag_30\n      swap2\n      swap1\n      tag_23\n      jump\t// in\n    tag_30:\n      mload(0x40)\n      dup1\n      swap2\n      sub\n      swap1\n      return\n        /* \"ElectronicHealthRegistry.sol\":5901:6086  function updateEntry(string calldata uuid, uint newData)... */\n    tag_7:\n      tag_31\n      0x04\n      dup1\n      calldatasize\n      sub\n      dup2\n      add\n      swap1\n      tag_32\n      swap2\n      swap1\n      tag_33\n      jump\t// in\n    tag_32:\n      tag_34\n      jump\t// in\n    tag_31:\n      stop\n        /* \"ElectronicHealthRegistry.sol\":5161:5391  function retrieveEntry(string calldata uuid)... */\n    tag_8:\n      tag_35\n      0x04\n      dup1\n      calldatasize\n      sub\n      dup2\n      add\n      swap1\n      tag_36\n      swap2\n      swap1\n      tag_20\n      jump\t// in\n    tag_36:\n      tag_37\n      jump\t// in\n    tag_35:\n      mload(0x40)\n      tag_38\n      swap4\n      swap3\n      swap2\n      swap1\n      tag_39\n      jump\t// in\n    tag_38:\n      mload(0x40)\n      dup1\n      swap2\n      sub\n      swap1\n      return\n        /* \"ElectronicHealthRegistry.sol\":4475:4497  address public patient */\n    tag_9:\n      tag_40\n      tag_41\n      jump\t// in\n    tag_40:\n      mload(0x40)\n      tag_42\n      swap2\n      swap1\n      tag_43\n      jump\t// in\n    tag_42:\n      mload(0x40)\n      dup1\n      swap2\n      sub\n      swap1\n      return\n        /* \"ElectronicHealthRegistry.sol\":5538:5891  function createEntry(string calldata uuid, uint data)... */\n    tag_10:\n      tag_44\n      0x04\n      dup1\n      calldatasize\n      sub\n      dup2\n      add\n      swap1\n      tag_45\n      swap2\n      swap1\n      tag_33\n      jump\t// in\n    tag_45:\n      tag_46\n      jump\t// in\n    tag_44:\n      stop\n        /* \"ElectronicHealthRegistry.sol\":5399:5530  function retrieveEntryIndex(uint index)... */\n    tag_15:\n        /* \"ElectronicHealthRegistry.sol\":5468:5481  string memory */\n      0x60\n        /* \"ElectronicHealthRegistry.sol\":5505:5515  entryIndex */\n      0x03\n        /* \"ElectronicHealthRegistry.sol\":5505:5522  entryIndex[index] */\n      0x00\n        /* \"ElectronicHealthRegistry.sol\":5516:5521  index */\n      dup4\n        /* \"ElectronicHealthRegistry.sol\":5505:5522  entryIndex[index] */\n      dup2\n      mstore\n      0x20\n      add\n      swap1\n      dup2\n      mstore\n      0x20\n      add\n      0x00\n      keccak256\n        /* \"ElectronicHealthRegistry.sol\":5498:5522  return entryIndex[index] */\n      dup1\n      sload\n      tag_48\n      swap1\n      tag_49\n      jump\t// in\n    tag_48:\n      dup1\n      0x1f\n      add\n      0x20\n      dup1\n      swap2\n      div\n      mul\n      0x20\n      add\n      mload(0x40)\n      swap1\n      dup2\n      add\n      0x40\n      mstore\n      dup1\n      swap3\n      swap2\n      swap1\n      dup2\n      dup2\n      mstore\n      0x20\n      add\n      dup3\n      dup1\n      sload\n      tag_50\n      swap1\n      tag_49\n      jump\t// in\n    tag_50:\n      dup1\n      iszero\n      tag_51\n      jumpi\n      dup1\n      0x1f\n      lt\n      tag_52\n      jumpi\n      0x0100\n      dup1\n      dup4\n      sload\n      div\n      mul\n      dup4\n      mstore\n      swap2\n      0x20\n      add\n      swap2\n      jump(tag_51)\n    tag_52:\n      dup3\n      add\n      swap2\n      swap1\n      0x00\n      mstore\n      keccak256(0x00, 0x20)\n      swap1\n    tag_53:\n      dup2\n      sload\n      dup2\n      mstore\n      swap1\n      0x01\n      add\n      swap1\n      0x20\n      add\n      dup1\n      dup4\n      gt\n      tag_53\n      jumpi\n      dup3\n      swap1\n      sub\n      0x1f\n      and\n      dup3\n      add\n      swap2\n    tag_51:\n      pop\n      pop\n      pop\n      pop\n      pop\n      swap1\n      pop\n        /* \"ElectronicHealthRegistry.sol\":5399:5530  function retrieveEntryIndex(uint index)... */\n      swap2\n      swap1\n      pop\n      jump\t// out\n        /* \"ElectronicHealthRegistry.sol\":6094:6426  function deleteEntry(string calldata uuid) public present(uuid) returns(uint) {... */\n    tag_21:\n        /* \"ElectronicHealthRegistry.sol\":6166:6170  uint */\n      0x00\n        /* \"ElectronicHealthRegistry.sol\":6152:6156  uuid */\n      dup3\n      dup3\n        /* \"ElectronicHealthRegistry.sol\":4943:4944  0 */\n      0x00\n        /* \"ElectronicHealthRegistry.sol\":4928:4940  entriesCount */\n      sload(0x04)\n        /* \"ElectronicHealthRegistry.sol\":4928:4944  entriesCount > 0 */\n      gt\n        /* \"ElectronicHealthRegistry.sol\":4920:4945  require(entriesCount > 0) */\n      tag_55\n      jumpi\n      0x00\n      dup1\n      revert\n    tag_55:\n        /* \"ElectronicHealthRegistry.sol\":5055:5059  uuid */\n      dup2\n      dup2\n        /* \"ElectronicHealthRegistry.sol\":5038:5060  abi.encodePacked(uuid) */\n      add(0x20, mload(0x40))\n      tag_56\n      swap3\n      swap2\n      swap1\n      tag_57\n      jump\t// in\n    tag_56:\n      mload(0x40)\n      0x20\n      dup2\n      dup4\n      sub\n      sub\n      dup2\n      mstore\n      swap1\n      0x40\n      mstore\n        /* \"ElectronicHealthRegistry.sol\":5028:5061  keccak256(abi.encodePacked(uuid)) */\n      dup1\n      mload\n      swap1\n      0x20\n      add\n      keccak256\n        /* \"ElectronicHealthRegistry.sol\":4991:5001  entryIndex */\n      0x03\n        /* \"ElectronicHealthRegistry.sol\":4991:5022  entryIndex[entries[uuid].index] */\n      0x00\n        /* \"ElectronicHealthRegistry.sol\":5002:5009  entries */\n      0x02\n        /* \"ElectronicHealthRegistry.sol\":5010:5014  uuid */\n      dup6\n      dup6\n        /* \"ElectronicHealthRegistry.sol\":5002:5015  entries[uuid] */\n      mload(0x40)\n      tag_58\n      swap3\n      swap2\n      swap1\n      tag_57\n      jump\t// in\n    tag_58:\n      swap1\n      dup2\n      mstore\n      0x20\n      add\n      mload(0x40)\n      dup1\n      swap2\n      sub\n      swap1\n      keccak256\n        /* \"ElectronicHealthRegistry.sol\":5002:5021  entries[uuid].index */\n      0x02\n      add\n      sload\n        /* \"ElectronicHealthRegistry.sol\":4991:5022  entryIndex[entries[uuid].index] */\n      dup2\n      mstore\n      0x20\n      add\n      swap1\n      dup2\n      mstore\n      0x20\n      add\n      0x00\n      keccak256\n        /* \"ElectronicHealthRegistry.sol\":4974:5023  abi.encodePacked(entryIndex[entries[uuid].index]) */\n      add(0x20, mload(0x40))\n      tag_59\n      swap2\n      swap1\n      tag_60\n      jump\t// in\n    tag_59:\n      mload(0x40)\n      0x20\n      dup2\n      dup4\n      sub\n      sub\n      dup2\n      mstore\n      swap1\n      0x40\n      mstore\n        /* \"ElectronicHealthRegistry.sol\":4964:5024  keccak256(abi.encodePacked(entryIndex[entries[uuid].index])) */\n      dup1\n      mload\n      swap1\n      0x20\n      add\n      keccak256\n        /* \"ElectronicHealthRegistry.sol\":4964:5061  keccak256(abi.encodePacked(entryIndex[entries[uuid].index])) == keccak256(abi.encodePacked(uuid)) */\n      eq\n        /* \"ElectronicHealthRegistry.sol\":4956:5062  require(keccak256(abi.encodePacked(entryIndex[entries[uuid].index])) == keccak256(abi.encodePacked(uuid))) */\n      tag_61\n      jumpi\n      0x00\n      dup1\n      revert\n    tag_61:\n        /* \"ElectronicHealthRegistry.sol\":6183:6196  uint oldIndex */\n      0x00\n        /* \"ElectronicHealthRegistry.sol\":6199:6206  entries */\n      0x02\n        /* \"ElectronicHealthRegistry.sol\":6207:6211  uuid */\n      dup7\n      dup7\n        /* \"ElectronicHealthRegistry.sol\":6199:6212  entries[uuid] */\n      mload(0x40)\n      tag_63\n      swap3\n      swap2\n      swap1\n      tag_57\n      jump\t// in\n    tag_63:\n      swap1\n      dup2\n      mstore\n      0x20\n      add\n      mload(0x40)\n      dup1\n      swap2\n      sub\n      swap1\n      keccak256\n        /* \"ElectronicHealthRegistry.sol\":6199:6218  entries[uuid].index */\n      0x02\n      add\n      sload\n        /* \"ElectronicHealthRegistry.sol\":6183:6218  uint oldIndex = entries[uuid].index */\n      swap1\n      pop\n        /* \"ElectronicHealthRegistry.sol\":6229:6251  string storage lastKey */\n      0x00\n        /* \"ElectronicHealthRegistry.sol\":6254:6264  entryIndex */\n      0x03\n        /* \"ElectronicHealthRegistry.sol\":6254:6280  entryIndex[entriesCount-1] */\n      0x00\n        /* \"ElectronicHealthRegistry.sol\":6278:6279  1 */\n      0x01\n        /* \"ElectronicHealthRegistry.sol\":6265:6277  entriesCount */\n      sload(0x04)\n        /* \"ElectronicHealthRegistry.sol\":6265:6279  entriesCount-1 */\n      tag_64\n      swap2\n      swap1\n      tag_65\n      jump\t// in\n    tag_64:\n        /* \"ElectronicHealthRegistry.sol\":6254:6280  entryIndex[entriesCount-1] */\n      dup2\n      mstore\n      0x20\n      add\n      swap1\n      dup2\n      mstore\n      0x20\n      add\n      0x00\n      keccak256\n        /* \"ElectronicHealthRegistry.sol\":6229:6280  string storage lastKey = entryIndex[entriesCount-1] */\n      swap1\n      pop\n        /* \"ElectronicHealthRegistry.sol\":6314:6321  lastKey */\n      dup1\n        /* \"ElectronicHealthRegistry.sol\":6291:6301  entryIndex */\n      0x03\n        /* \"ElectronicHealthRegistry.sol\":6291:6311  entryIndex[oldIndex] */\n      0x00\n        /* \"ElectronicHealthRegistry.sol\":6302:6310  oldIndex */\n      dup5\n        /* \"ElectronicHealthRegistry.sol\":6291:6311  entryIndex[oldIndex] */\n      dup2\n      mstore\n      0x20\n      add\n      swap1\n      dup2\n      mstore\n      0x20\n      add\n      0x00\n      keccak256\n        /* \"ElectronicHealthRegistry.sol\":6291:6321  entryIndex[oldIndex] = lastKey */\n      swap1\n      dup1\n      sload\n      tag_66\n      swap1\n      tag_49\n      jump\t// in\n    tag_66:\n      tag_67\n      swap3\n      swap2\n      swap1\n      tag_68\n      jump\t// in\n    tag_67:\n      pop\n        /* \"ElectronicHealthRegistry.sol\":6357:6365  oldIndex */\n      dup2\n        /* \"ElectronicHealthRegistry.sol\":6332:6339  entries */\n      0x02\n        /* \"ElectronicHealthRegistry.sol\":6340:6347  lastKey */\n      dup3\n        /* \"ElectronicHealthRegistry.sol\":6332:6348  entries[lastKey] */\n      mload(0x40)\n      tag_69\n      swap2\n      swap1\n      tag_70\n      jump\t// in\n    tag_69:\n      swap1\n      dup2\n      mstore\n      0x20\n      add\n      mload(0x40)\n      dup1\n      swap2\n      sub\n      swap1\n      keccak256\n        /* \"ElectronicHealthRegistry.sol\":6332:6354  entries[lastKey].index */\n      0x02\n      add\n        /* \"ElectronicHealthRegistry.sol\":6332:6365  entries[lastKey].index = oldIndex */\n      dup2\n      swap1\n      sstore\n      pop\n        /* \"ElectronicHealthRegistry.sol\":6376:6388  entriesCount */\n      0x04\n      0x00\n        /* \"ElectronicHealthRegistry.sol\":6376:6390  entriesCount-- */\n      dup2\n      sload\n      dup1\n      swap3\n      swap2\n      swap1\n      tag_71\n      swap1\n      tag_72\n      jump\t// in\n    tag_71:\n      swap2\n      swap1\n      pop\n      sstore\n      pop\n        /* \"ElectronicHealthRegistry.sol\":6410:6418  oldIndex */\n      dup2\n        /* \"ElectronicHealthRegistry.sol\":6403:6418  return oldIndex */\n      swap5\n      pop\n      pop\n      pop\n        /* \"ElectronicHealthRegistry.sol\":6094:6426  function deleteEntry(string calldata uuid) public present(uuid) returns(uint) {... */\n      pop\n      pop\n      swap3\n      swap2\n      pop\n      pop\n      jump\t// out\n        /* \"ElectronicHealthRegistry.sol\":6434:6517  function addDoctor(address doctor) public {... */\n    tag_27:\n        /* \"ElectronicHealthRegistry.sol\":6505:6509  true */\n      0x01\n        /* \"ElectronicHealthRegistry.sol\":6487:6494  doctors */\n      dup1\n        /* \"ElectronicHealthRegistry.sol\":6487:6502  doctors[doctor] */\n      0x00\n        /* \"ElectronicHealthRegistry.sol\":6495:6501  doctor */\n      dup4\n        /* \"ElectronicHealthRegistry.sol\":6487:6502  doctors[doctor] */\n      0xffffffffffffffffffffffffffffffffffffffff\n      and\n      0xffffffffffffffffffffffffffffffffffffffff\n      and\n      dup2\n      mstore\n      0x20\n      add\n      swap1\n      dup2\n      mstore\n      0x20\n      add\n      0x00\n      keccak256\n      0x00\n        /* \"ElectronicHealthRegistry.sol\":6487:6509  doctors[doctor] = true */\n      0x0100\n      exp\n      dup2\n      sload\n      dup2\n      0xff\n      mul\n      not\n      and\n      swap1\n      dup4\n      iszero\n      iszero\n      mul\n      or\n      swap1\n      sstore\n      pop\n        /* \"ElectronicHealthRegistry.sol\":6434:6517  function addDoctor(address doctor) public {... */\n      pop\n      jump\t// out\n        /* \"ElectronicHealthRegistry.sol\":4656:4680  uint public entriesCount */\n    tag_29:\n      sload(0x04)\n      dup2\n      jump\t// out\n        /* \"ElectronicHealthRegistry.sol\":5901:6086  function updateEntry(string calldata uuid, uint newData)... */\n    tag_34:\n        /* \"ElectronicHealthRegistry.sol\":4730:4737  doctors */\n      0x01\n        /* \"ElectronicHealthRegistry.sol\":4730:4749  doctors[msg.sender] */\n      0x00\n        /* \"ElectronicHealthRegistry.sol\":4738:4748  msg.sender */\n      caller\n        /* \"ElectronicHealthRegistry.sol\":4730:4749  doctors[msg.sender] */\n      0xffffffffffffffffffffffffffffffffffffffff\n      and\n      0xffffffffffffffffffffffffffffffffffffffff\n      and\n      dup2\n      mstore\n      0x20\n      add\n      swap1\n      dup2\n      mstore\n      0x20\n      add\n      0x00\n      keccak256\n      0x00\n      swap1\n      sload\n      swap1\n      0x0100\n      exp\n      swap1\n      div\n      0xff\n      and\n        /* \"ElectronicHealthRegistry.sol\":4722:4750  require(doctors[msg.sender]) */\n      tag_75\n      jumpi\n      0x00\n      dup1\n      revert\n    tag_75:\n        /* \"ElectronicHealthRegistry.sol\":5993:5997  uuid */\n      dup3\n      dup3\n        /* \"ElectronicHealthRegistry.sol\":4943:4944  0 */\n      0x00\n        /* \"ElectronicHealthRegistry.sol\":4928:4940  entriesCount */\n      sload(0x04)\n        /* \"ElectronicHealthRegistry.sol\":4928:4944  entriesCount > 0 */\n      gt\n        /* \"ElectronicHealthRegistry.sol\":4920:4945  require(entriesCount > 0) */\n      tag_77\n      jumpi\n      0x00\n      dup1\n      revert\n    tag_77:\n        /* \"ElectronicHealthRegistry.sol\":5055:5059  uuid */\n      dup2\n      dup2\n        /* \"ElectronicHealthRegistry.sol\":5038:5060  abi.encodePacked(uuid) */\n      add(0x20, mload(0x40))\n      tag_78\n      swap3\n      swap2\n      swap1\n      tag_57\n      jump\t// in\n    tag_78:\n      mload(0x40)\n      0x20\n      dup2\n      dup4\n      sub\n      sub\n      dup2\n      mstore\n      swap1\n      0x40\n      mstore\n        /* \"ElectronicHealthRegistry.sol\":5028:5061  keccak256(abi.encodePacked(uuid)) */\n      dup1\n      mload\n      swap1\n      0x20\n      add\n      keccak256\n        /* \"ElectronicHealthRegistry.sol\":4991:5001  entryIndex */\n      0x03\n        /* \"ElectronicHealthRegistry.sol\":4991:5022  entryIndex[entries[uuid].index] */\n      0x00\n        /* \"ElectronicHealthRegistry.sol\":5002:5009  entries */\n      0x02\n        /* \"ElectronicHealthRegistry.sol\":5010:5014  uuid */\n      dup6\n      dup6\n        /* \"ElectronicHealthRegistry.sol\":5002:5015  entries[uuid] */\n      mload(0x40)\n      tag_79\n      swap3\n      swap2\n      swap1\n      tag_57\n      jump\t// in\n    tag_79:\n      swap1\n      dup2\n      mstore\n      0x20\n      add\n      mload(0x40)\n      dup1\n      swap2\n      sub\n      swap1\n      keccak256\n        /* \"ElectronicHealthRegistry.sol\":5002:5021  entries[uuid].index */\n      0x02\n      add\n      sload\n        /* \"ElectronicHealthRegistry.sol\":4991:5022  entryIndex[entries[uuid].index] */\n      dup2\n      mstore\n      0x20\n      add\n      swap1\n      dup2\n      mstore\n      0x20\n      add\n      0x00\n      keccak256\n        /* \"ElectronicHealthRegistry.sol\":4974:5023  abi.encodePacked(entryIndex[entries[uuid].index]) */\n      add(0x20, mload(0x40))\n      tag_80\n      swap2\n      swap1\n      tag_60\n      jump\t// in\n    tag_80:\n      mload(0x40)\n      0x20\n      dup2\n      dup4\n      sub\n      sub\n      dup2\n      mstore\n      swap1\n      0x40\n      mstore\n        /* \"ElectronicHealthRegistry.sol\":4964:5024  keccak256(abi.encodePacked(entryIndex[entries[uuid].index])) */\n      dup1\n      mload\n      swap1\n      0x20\n      add\n      keccak256\n        /* \"ElectronicHealthRegistry.sol\":4964:5061  keccak256(abi.encodePacked(entryIndex[entries[uuid].index])) == keccak256(abi.encodePacked(uuid)) */\n      eq\n        /* \"ElectronicHealthRegistry.sol\":4956:5062  require(keccak256(abi.encodePacked(entryIndex[entries[uuid].index])) == keccak256(abi.encodePacked(uuid))) */\n      tag_81\n      jumpi\n      0x00\n      dup1\n      revert\n    tag_81:\n        /* \"ElectronicHealthRegistry.sol\":6012:6034  HealthEntry storage he */\n      0x00\n        /* \"ElectronicHealthRegistry.sol\":6037:6044  entries */\n      0x02\n        /* \"ElectronicHealthRegistry.sol\":6045:6049  uuid */\n      dup7\n      dup7\n        /* \"ElectronicHealthRegistry.sol\":6037:6050  entries[uuid] */\n      mload(0x40)\n      tag_83\n      swap3\n      swap2\n      swap1\n      tag_57\n      jump\t// in\n    tag_83:\n      swap1\n      dup2\n      mstore\n      0x20\n      add\n      mload(0x40)\n      dup1\n      swap2\n      sub\n      swap1\n      keccak256\n        /* \"ElectronicHealthRegistry.sol\":6012:6050  HealthEntry storage he = entries[uuid] */\n      swap1\n      pop\n        /* \"ElectronicHealthRegistry.sol\":6071:6078  newData */\n      dup4\n        /* \"ElectronicHealthRegistry.sol\":6061:6063  he */\n      dup2\n        /* \"ElectronicHealthRegistry.sol\":6061:6068  he.data */\n      0x03\n      add\n        /* \"ElectronicHealthRegistry.sol\":6061:6078  he.data = newData */\n      dup2\n      swap1\n      sstore\n      pop\n        /* \"ElectronicHealthRegistry.sol\":5999:6086  {... */\n      pop\n        /* \"ElectronicHealthRegistry.sol\":4761:4762  _ */\n      pop\n      pop\n        /* \"ElectronicHealthRegistry.sol\":5901:6086  function updateEntry(string calldata uuid, uint newData)... */\n      pop\n      pop\n      pop\n      jump\t// out\n        /* \"ElectronicHealthRegistry.sol\":5161:5391  function retrieveEntry(string calldata uuid)... */\n    tag_37:\n        /* \"ElectronicHealthRegistry.sol\":5249:5253  uint */\n      0x00\n        /* \"ElectronicHealthRegistry.sol\":5255:5259  uint */\n      dup1\n        /* \"ElectronicHealthRegistry.sol\":5261:5268  address */\n      0x00\n        /* \"ElectronicHealthRegistry.sol\":5230:5234  uuid */\n      dup5\n      dup5\n        /* \"ElectronicHealthRegistry.sol\":4943:4944  0 */\n      0x00\n        /* \"ElectronicHealthRegistry.sol\":4928:4940  entriesCount */\n      sload(0x04)\n        /* \"ElectronicHealthRegistry.sol\":4928:4944  entriesCount > 0 */\n      gt\n        /* \"ElectronicHealthRegistry.sol\":4920:4945  require(entriesCount > 0) */\n      tag_85\n      jumpi\n      0x00\n      dup1\n      revert\n    tag_85:\n        /* \"ElectronicHealthRegistry.sol\":5055:5059  uuid */\n      dup2\n      dup2\n        /* \"ElectronicHealthRegistry.sol\":5038:5060  abi.encodePacked(uuid) */\n      add(0x20, mload(0x40))\n      tag_86\n      swap3\n      swap2\n      swap1\n      tag_57\n      jump\t// in\n    tag_86:\n      mload(0x40)\n      0x20\n      dup2\n      dup4\n      sub\n      sub\n      dup2\n      mstore\n      swap1\n      0x40\n      mstore\n        /* \"ElectronicHealthRegistry.sol\":5028:5061  keccak256(abi.encodePacked(uuid)) */\n      dup1\n      mload\n      swap1\n      0x20\n      add\n      keccak256\n        /* \"ElectronicHealthRegistry.sol\":4991:5001  entryIndex */\n      0x03\n        /* \"ElectronicHealthRegistry.sol\":4991:5022  entryIndex[entries[uuid].index] */\n      0x00\n        /* \"ElectronicHealthRegistry.sol\":5002:5009  entries */\n      0x02\n        /* \"ElectronicHealthRegistry.sol\":5010:5014  uuid */\n      dup6\n      dup6\n        /* \"ElectronicHealthRegistry.sol\":5002:5015  entries[uuid] */\n      mload(0x40)\n      tag_87\n      swap3\n      swap2\n      swap1\n      tag_57\n      jump\t// in\n    tag_87:\n      swap1\n      dup2\n      mstore\n      0x20\n      add\n      mload(0x40)\n      dup1\n      swap2\n      sub\n      swap1\n      keccak256\n        /* \"ElectronicHealthRegistry.sol\":5002:5021  entries[uuid].index */\n      0x02\n      add\n      sload\n        /* \"ElectronicHealthRegistry.sol\":4991:5022  entryIndex[entries[uuid].index] */\n      dup2\n      mstore\n      0x20\n      add\n      swap1\n      dup2\n      mstore\n      0x20\n      add\n      0x00\n      keccak256\n        /* \"ElectronicHealthRegistry.sol\":4974:5023  abi.encodePacked(entryIndex[entries[uuid].index]) */\n      add(0x20, mload(0x40))\n      tag_88\n      swap2\n      swap1\n      tag_60\n      jump\t// in\n    tag_88:\n      mload(0x40)\n      0x20\n      dup2\n      dup4\n      sub\n      sub\n      dup2\n      mstore\n      swap1\n      0x40\n      mstore\n        /* \"ElectronicHealthRegistry.sol\":4964:5024  keccak256(abi.encodePacked(entryIndex[entries[uuid].index])) */\n      dup1\n      mload\n      swap1\n      0x20\n      add\n      keccak256\n        /* \"ElectronicHealthRegistry.sol\":4964:5061  keccak256(abi.encodePacked(entryIndex[entries[uuid].index])) == keccak256(abi.encodePacked(uuid)) */\n      eq\n        /* \"ElectronicHealthRegistry.sol\":4956:5062  require(keccak256(abi.encodePacked(entryIndex[entries[uuid].index])) == keccak256(abi.encodePacked(uuid))) */\n      tag_89\n      jumpi\n      0x00\n      dup1\n      revert\n    tag_89:\n        /* \"ElectronicHealthRegistry.sol\":5293:5315  HealthEntry storage he */\n      0x00\n        /* \"ElectronicHealthRegistry.sol\":5318:5325  entries */\n      0x02\n        /* \"ElectronicHealthRegistry.sol\":5326:5330  uuid */\n      dup9\n      dup9\n        /* \"ElectronicHealthRegistry.sol\":5318:5331  entries[uuid] */\n      mload(0x40)\n      tag_91\n      swap3\n      swap2\n      swap1\n      tag_57\n      jump\t// in\n    tag_91:\n      swap1\n      dup2\n      mstore\n      0x20\n      add\n      mload(0x40)\n      dup1\n      swap2\n      sub\n      swap1\n      keccak256\n        /* \"ElectronicHealthRegistry.sol\":5293:5331  HealthEntry storage he = entries[uuid] */\n      swap1\n      pop\n        /* \"ElectronicHealthRegistry.sol\":5355:5357  he */\n      dup1\n        /* \"ElectronicHealthRegistry.sol\":5355:5362  he.date */\n      0x00\n      add\n      sload\n        /* \"ElectronicHealthRegistry.sol\":5364:5366  he */\n      dup2\n        /* \"ElectronicHealthRegistry.sol\":5364:5371  he.data */\n      0x03\n      add\n      sload\n        /* \"ElectronicHealthRegistry.sol\":5373:5375  he */\n      dup3\n        /* \"ElectronicHealthRegistry.sol\":5373:5382  he.doctor */\n      0x01\n      add\n      0x00\n      swap1\n      sload\n      swap1\n      0x0100\n      exp\n      swap1\n      div\n      0xffffffffffffffffffffffffffffffffffffffff\n      and\n        /* \"ElectronicHealthRegistry.sol\":5347:5383  return (he.date, he.data, he.doctor) */\n      swap6\n      pop\n      swap6\n      pop\n      swap6\n      pop\n      pop\n        /* \"ElectronicHealthRegistry.sol\":5161:5391  function retrieveEntry(string calldata uuid)... */\n      pop\n      pop\n      swap3\n      pop\n      swap3\n      pop\n      swap3\n      jump\t// out\n        /* \"ElectronicHealthRegistry.sol\":4475:4497  address public patient */\n    tag_41:\n      0x00\n      dup1\n      sload\n      swap1\n      0x0100\n      exp\n      swap1\n      div\n      0xffffffffffffffffffffffffffffffffffffffff\n      and\n      dup2\n      jump\t// out\n        /* \"ElectronicHealthRegistry.sol\":5538:5891  function createEntry(string calldata uuid, uint data)... */\n    tag_46:\n        /* \"ElectronicHealthRegistry.sol\":4730:4737  doctors */\n      0x01\n        /* \"ElectronicHealthRegistry.sol\":4730:4749  doctors[msg.sender] */\n      0x00\n        /* \"ElectronicHealthRegistry.sol\":4738:4748  msg.sender */\n      caller\n        /* \"ElectronicHealthRegistry.sol\":4730:4749  doctors[msg.sender] */\n      0xffffffffffffffffffffffffffffffffffffffff\n      and\n      0xffffffffffffffffffffffffffffffffffffffff\n      and\n      dup2\n      mstore\n      0x20\n      add\n      swap1\n      dup2\n      mstore\n      0x20\n      add\n      0x00\n      keccak256\n      0x00\n      swap1\n      sload\n      swap1\n      0x0100\n      exp\n      swap1\n      div\n      0xff\n      and\n        /* \"ElectronicHealthRegistry.sol\":4722:4750  require(doctors[msg.sender]) */\n      tag_93\n      jumpi\n      0x00\n      dup1\n      revert\n    tag_93:\n        /* \"ElectronicHealthRegistry.sol\":5641:5663  HealthEntry storage he */\n      0x00\n        /* \"ElectronicHealthRegistry.sol\":5666:5673  entries */\n      0x02\n        /* \"ElectronicHealthRegistry.sol\":5674:5678  uuid */\n      dup5\n      dup5\n        /* \"ElectronicHealthRegistry.sol\":5666:5679  entries[uuid] */\n      mload(0x40)\n      tag_95\n      swap3\n      swap2\n      swap1\n      tag_57\n      jump\t// in\n    tag_95:\n      swap1\n      dup2\n      mstore\n      0x20\n      add\n      mload(0x40)\n      dup1\n      swap2\n      sub\n      swap1\n      keccak256\n        /* \"ElectronicHealthRegistry.sol\":5641:5679  HealthEntry storage he = entries[uuid] */\n      swap1\n      pop\n        /* \"ElectronicHealthRegistry.sol\":5709:5710  0 */\n      0x00\n        /* \"ElectronicHealthRegistry.sol\":5698:5700  he */\n      dup2\n        /* \"ElectronicHealthRegistry.sol\":5698:5705  he.date */\n      0x00\n      add\n      sload\n        /* \"ElectronicHealthRegistry.sol\":5698:5710  he.date == 0 */\n      eq\n        /* \"ElectronicHealthRegistry.sol\":5690:5711  require(he.date == 0) */\n      tag_96\n      jumpi\n      0x00\n      dup1\n      revert\n    tag_96:\n        /* \"ElectronicHealthRegistry.sol\":5732:5747  block.timestamp */\n      timestamp\n        /* \"ElectronicHealthRegistry.sol\":5722:5724  he */\n      dup2\n        /* \"ElectronicHealthRegistry.sol\":5722:5729  he.date */\n      0x00\n      add\n        /* \"ElectronicHealthRegistry.sol\":5722:5747  he.date = block.timestamp */\n      dup2\n      swap1\n      sstore\n      pop\n        /* \"ElectronicHealthRegistry.sol\":5770:5780  msg.sender */\n      caller\n        /* \"ElectronicHealthRegistry.sol\":5758:5760  he */\n      dup2\n        /* \"ElectronicHealthRegistry.sol\":5758:5767  he.doctor */\n      0x01\n      add\n      0x00\n        /* \"ElectronicHealthRegistry.sol\":5758:5780  he.doctor = msg.sender */\n      0x0100\n      exp\n      dup2\n      sload\n      dup2\n      0xffffffffffffffffffffffffffffffffffffffff\n      mul\n      not\n      and\n      swap1\n      dup4\n      0xffffffffffffffffffffffffffffffffffffffff\n      and\n      mul\n      or\n      swap1\n      sstore\n      pop\n        /* \"ElectronicHealthRegistry.sol\":5801:5805  data */\n      dup2\n        /* \"ElectronicHealthRegistry.sol\":5791:5793  he */\n      dup2\n        /* \"ElectronicHealthRegistry.sol\":5791:5798  he.data */\n      0x03\n      add\n        /* \"ElectronicHealthRegistry.sol\":5791:5805  he.data = data */\n      dup2\n      swap1\n      sstore\n      pop\n        /* \"ElectronicHealthRegistry.sol\":5843:5847  uuid */\n      dup4\n      dup4\n        /* \"ElectronicHealthRegistry.sol\":5816:5826  entryIndex */\n      0x03\n        /* \"ElectronicHealthRegistry.sol\":5816:5840  entryIndex[entriesCount] */\n      0x00\n        /* \"ElectronicHealthRegistry.sol\":5827:5839  entriesCount */\n      sload(0x04)\n        /* \"ElectronicHealthRegistry.sol\":5816:5840  entryIndex[entriesCount] */\n      dup2\n      mstore\n      0x20\n      add\n      swap1\n      dup2\n      mstore\n      0x20\n      add\n      0x00\n      keccak256\n        /* \"ElectronicHealthRegistry.sol\":5816:5847  entryIndex[entriesCount] = uuid */\n      swap2\n      swap1\n      tag_97\n      swap3\n      swap2\n      swap1\n      tag_98\n      jump\t// in\n    tag_97:\n      pop\n        /* \"ElectronicHealthRegistry.sol\":5869:5881  entriesCount */\n      0x04\n      0x00\n        /* \"ElectronicHealthRegistry.sol\":5869:5883  entriesCount++ */\n      dup2\n      sload\n      dup1\n      swap3\n      swap2\n      swap1\n      tag_99\n      swap1\n      tag_100\n      jump\t// in\n    tag_99:\n      swap2\n      swap1\n      pop\n      sstore\n        /* \"ElectronicHealthRegistry.sol\":5858:5860  he */\n      dup2\n        /* \"ElectronicHealthRegistry.sol\":5858:5866  he.index */\n      0x02\n      add\n        /* \"ElectronicHealthRegistry.sol\":5858:5883  he.index = entriesCount++ */\n      dup2\n      swap1\n      sstore\n      pop\n        /* \"ElectronicHealthRegistry.sol\":5618:5891  {... */\n      pop\n        /* \"ElectronicHealthRegistry.sol\":5538:5891  function createEntry(string calldata uuid, uint data)... */\n      pop\n      pop\n      pop\n      jump\t// out\n    tag_68:\n      dup3\n      dup1\n      sload\n      tag_101\n      swap1\n      tag_49\n      jump\t// in\n    tag_101:\n      swap1\n      0x00\n      mstore\n      keccak256(0x00, 0x20)\n      swap1\n      0x1f\n      add\n      0x20\n      swap1\n      div\n      dup2\n      add\n      swap3\n      dup3\n      tag_103\n      jumpi\n      0x00\n      dup6\n      sstore\n      jump(tag_102)\n    tag_103:\n      dup3\n      0x1f\n      lt\n      tag_104\n      jumpi\n      dup1\n      sload\n      dup6\n      sstore\n      jump(tag_102)\n    tag_104:\n      dup3\n      dup1\n      add\n      0x01\n      add\n      dup6\n      sstore\n      dup3\n      iszero\n      tag_102\n      jumpi\n      0x00\n      mstore\n      keccak256(0x00, 0x20)\n      swap2\n      0x1f\n      add\n      0x20\n      swap1\n      div\n      dup3\n      add\n    tag_105:\n      dup3\n      dup2\n      gt\n      iszero\n      tag_106\n      jumpi\n      dup3\n      sload\n      dup3\n      sstore\n      swap2\n      0x01\n      add\n      swap2\n      swap1\n      0x01\n      add\n      swap1\n      jump(tag_105)\n    tag_106:\n    tag_102:\n      pop\n      swap1\n      pop\n      tag_107\n      swap2\n      swap1\n      tag_108\n      jump\t// in\n    tag_107:\n      pop\n      swap1\n      jump\t// out\n    tag_98:\n      dup3\n      dup1\n      sload\n      tag_109\n      swap1\n      tag_49\n      jump\t// in\n    tag_109:\n      swap1\n      0x00\n      mstore\n      keccak256(0x00, 0x20)\n      swap1\n      0x1f\n      add\n      0x20\n      swap1\n      div\n      dup2\n      add\n      swap3\n      dup3\n      tag_111\n      jumpi\n      0x00\n      dup6\n      sstore\n      jump(tag_110)\n    tag_111:\n      dup3\n      0x1f\n      lt\n      tag_112\n      jumpi\n      dup1\n      calldataload\n      not(0xff)\n      and\n      dup4\n      dup1\n      add\n      or\n      dup6\n      sstore\n      jump(tag_110)\n    tag_112:\n      dup3\n      dup1\n      add\n      0x01\n      add\n      dup6\n      sstore\n      dup3\n      iszero\n      tag_110\n      jumpi\n      swap2\n      dup3\n      add\n    tag_113:\n      dup3\n      dup2\n      gt\n      iszero\n      tag_114\n      jumpi\n      dup3\n      calldataload\n      dup3\n      sstore\n      swap2\n      0x20\n      add\n      swap2\n      swap1\n      0x01\n      add\n      swap1\n      jump(tag_113)\n    tag_114:\n    tag_110:\n      pop\n      swap1\n      pop\n      tag_115\n      swap2\n      swap1\n      tag_108\n      jump\t// in\n    tag_115:\n      pop\n      swap1\n      jump\t// out\n    tag_108:\n    tag_116:\n      dup1\n      dup3\n      gt\n      iszero\n      tag_117\n      jumpi\n      0x00\n      dup2\n      0x00\n      swap1\n      sstore\n      pop\n      0x01\n      add\n      jump(tag_116)\n    tag_117:\n      pop\n      swap1\n      jump\t// out\n        /* \"#utility.yul\":88:205   */\n    tag_119:\n        /* \"#utility.yul\":197:198   */\n      0x00\n        /* \"#utility.yul\":194:195   */\n      dup1\n        /* \"#utility.yul\":187:199   */\n      revert\n        /* \"#utility.yul\":211:328   */\n    tag_120:\n        /* \"#utility.yul\":320:321   */\n      0x00\n        /* \"#utility.yul\":317:318   */\n      dup1\n        /* \"#utility.yul\":310:322   */\n      revert\n        /* \"#utility.yul\":334:411   */\n    tag_121:\n        /* \"#utility.yul\":371:378   */\n      0x00\n        /* \"#utility.yul\":400:405   */\n      dup2\n        /* \"#utility.yul\":389:405   */\n      swap1\n      pop\n        /* \"#utility.yul\":334:411   */\n      swap2\n      swap1\n      pop\n      jump\t// out\n        /* \"#utility.yul\":417:539   */\n    tag_122:\n        /* \"#utility.yul\":490:514   */\n      tag_154\n        /* \"#utility.yul\":508:513   */\n      dup2\n        /* \"#utility.yul\":490:514   */\n      tag_121\n      jump\t// in\n    tag_154:\n        /* \"#utility.yul\":483:488   */\n      dup2\n        /* \"#utility.yul\":480:515   */\n      eq\n        /* \"#utility.yul\":470:533   */\n      tag_155\n      jumpi\n        /* \"#utility.yul\":529:530   */\n      0x00\n        /* \"#utility.yul\":526:527   */\n      dup1\n        /* \"#utility.yul\":519:531   */\n      revert\n        /* \"#utility.yul\":470:533   */\n    tag_155:\n        /* \"#utility.yul\":417:539   */\n      pop\n      jump\t// out\n        /* \"#utility.yul\":545:684   */\n    tag_123:\n        /* \"#utility.yul\":591:596   */\n      0x00\n        /* \"#utility.yul\":629:635   */\n      dup2\n        /* \"#utility.yul\":616:636   */\n      calldataload\n        /* \"#utility.yul\":607:636   */\n      swap1\n      pop\n        /* \"#utility.yul\":645:678   */\n      tag_157\n        /* \"#utility.yul\":672:677   */\n      dup2\n        /* \"#utility.yul\":645:678   */\n      tag_122\n      jump\t// in\n    tag_157:\n        /* \"#utility.yul\":545:684   */\n      swap3\n      swap2\n      pop\n      pop\n      jump\t// out\n        /* \"#utility.yul\":690:1019   */\n    tag_14:\n        /* \"#utility.yul\":749:755   */\n      0x00\n        /* \"#utility.yul\":798:800   */\n      0x20\n        /* \"#utility.yul\":786:795   */\n      dup3\n        /* \"#utility.yul\":777:784   */\n      dup5\n        /* \"#utility.yul\":773:796   */\n      sub\n        /* \"#utility.yul\":769:801   */\n      slt\n        /* \"#utility.yul\":766:885   */\n      iszero\n      tag_159\n      jumpi\n        /* \"#utility.yul\":804:883   */\n      tag_160\n      tag_119\n      jump\t// in\n    tag_160:\n        /* \"#utility.yul\":766:885   */\n    tag_159:\n        /* \"#utility.yul\":924:925   */\n      0x00\n        /* \"#utility.yul\":949:1002   */\n      tag_161\n        /* \"#utility.yul\":994:1001   */\n      dup5\n        /* \"#utility.yul\":985:991   */\n      dup3\n        /* \"#utility.yul\":974:983   */\n      dup6\n        /* \"#utility.yul\":970:992   */\n      add\n        /* \"#utility.yul\":949:1002   */\n      tag_123\n      jump\t// in\n    tag_161:\n        /* \"#utility.yul\":939:1002   */\n      swap2\n      pop\n        /* \"#utility.yul\":895:1012   */\n      pop\n        /* \"#utility.yul\":690:1019   */\n      swap3\n      swap2\n      pop\n      pop\n      jump\t// out\n        /* \"#utility.yul\":1025:1124   */\n    tag_124:\n        /* \"#utility.yul\":1077:1083   */\n      0x00\n        /* \"#utility.yul\":1111:1116   */\n      dup2\n        /* \"#utility.yul\":1105:1117   */\n      mload\n        /* \"#utility.yul\":1095:1117   */\n      swap1\n      pop\n        /* \"#utility.yul\":1025:1124   */\n      swap2\n      swap1\n      pop\n      jump\t// out\n        /* \"#utility.yul\":1130:1299   */\n    tag_125:\n        /* \"#utility.yul\":1214:1225   */\n      0x00\n        /* \"#utility.yul\":1248:1254   */\n      dup3\n        /* \"#utility.yul\":1243:1246   */\n      dup3\n        /* \"#utility.yul\":1236:1255   */\n      mstore\n        /* \"#utility.yul\":1288:1292   */\n      0x20\n        /* \"#utility.yul\":1283:1286   */\n      dup3\n        /* \"#utility.yul\":1279:1293   */\n      add\n        /* \"#utility.yul\":1264:1293   */\n      swap1\n      pop\n        /* \"#utility.yul\":1130:1299   */\n      swap3\n      swap2\n      pop\n      pop\n      jump\t// out\n        /* \"#utility.yul\":1305:1612   */\n    tag_126:\n        /* \"#utility.yul\":1373:1374   */\n      0x00\n        /* \"#utility.yul\":1383:1496   */\n    tag_165:\n        /* \"#utility.yul\":1397:1403   */\n      dup4\n        /* \"#utility.yul\":1394:1395   */\n      dup2\n        /* \"#utility.yul\":1391:1404   */\n      lt\n        /* \"#utility.yul\":1383:1496   */\n      iszero\n      tag_167\n      jumpi\n        /* \"#utility.yul\":1482:1483   */\n      dup1\n        /* \"#utility.yul\":1477:1480   */\n      dup3\n        /* \"#utility.yul\":1473:1484   */\n      add\n        /* \"#utility.yul\":1467:1485   */\n      mload\n        /* \"#utility.yul\":1463:1464   */\n      dup2\n        /* \"#utility.yul\":1458:1461   */\n      dup5\n        /* \"#utility.yul\":1454:1465   */\n      add\n        /* \"#utility.yul\":1447:1486   */\n      mstore\n        /* \"#utility.yul\":1419:1421   */\n      0x20\n        /* \"#utility.yul\":1416:1417   */\n      dup2\n        /* \"#utility.yul\":1412:1422   */\n      add\n        /* \"#utility.yul\":1407:1422   */\n      swap1\n      pop\n        /* \"#utility.yul\":1383:1496   */\n      jump(tag_165)\n    tag_167:\n        /* \"#utility.yul\":1514:1520   */\n      dup4\n        /* \"#utility.yul\":1511:1512   */\n      dup2\n        /* \"#utility.yul\":1508:1521   */\n      gt\n        /* \"#utility.yul\":1505:1606   */\n      iszero\n      tag_168\n      jumpi\n        /* \"#utility.yul\":1594:1595   */\n      0x00\n        /* \"#utility.yul\":1585:1591   */\n      dup5\n        /* \"#utility.yul\":1580:1583   */\n      dup5\n        /* \"#utility.yul\":1576:1592   */\n      add\n        /* \"#utility.yul\":1569:1596   */\n      mstore\n        /* \"#utility.yul\":1505:1606   */\n    tag_168:\n        /* \"#utility.yul\":1354:1612   */\n      pop\n        /* \"#utility.yul\":1305:1612   */\n      pop\n      pop\n      pop\n      jump\t// out\n        /* \"#utility.yul\":1618:1720   */\n    tag_127:\n        /* \"#utility.yul\":1659:1665   */\n      0x00\n        /* \"#utility.yul\":1710:1712   */\n      0x1f\n        /* \"#utility.yul\":1706:1713   */\n      not\n        /* \"#utility.yul\":1701:1703   */\n      0x1f\n        /* \"#utility.yul\":1694:1699   */\n      dup4\n        /* \"#utility.yul\":1690:1704   */\n      add\n        /* \"#utility.yul\":1686:1714   */\n      and\n        /* \"#utility.yul\":1676:1714   */\n      swap1\n      pop\n        /* \"#utility.yul\":1618:1720   */\n      swap2\n      swap1\n      pop\n      jump\t// out\n        /* \"#utility.yul\":1726:2090   */\n    tag_128:\n        /* \"#utility.yul\":1814:1817   */\n      0x00\n        /* \"#utility.yul\":1842:1881   */\n      tag_171\n        /* \"#utility.yul\":1875:1880   */\n      dup3\n        /* \"#utility.yul\":1842:1881   */\n      tag_124\n      jump\t// in\n    tag_171:\n        /* \"#utility.yul\":1897:1968   */\n      tag_172\n        /* \"#utility.yul\":1961:1967   */\n      dup2\n        /* \"#utility.yul\":1956:1959   */\n      dup6\n        /* \"#utility.yul\":1897:1968   */\n      tag_125\n      jump\t// in\n    tag_172:\n        /* \"#utility.yul\":1890:1968   */\n      swap4\n      pop\n        /* \"#utility.yul\":1977:2029   */\n      tag_173\n        /* \"#utility.yul\":2022:2028   */\n      dup2\n        /* \"#utility.yul\":2017:2020   */\n      dup6\n        /* \"#utility.yul\":2010:2014   */\n      0x20\n        /* \"#utility.yul\":2003:2008   */\n      dup7\n        /* \"#utility.yul\":1999:2015   */\n      add\n        /* \"#utility.yul\":1977:2029   */\n      tag_126\n      jump\t// in\n    tag_173:\n        /* \"#utility.yul\":2054:2083   */\n      tag_174\n        /* \"#utility.yul\":2076:2082   */\n      dup2\n        /* \"#utility.yul\":2054:2083   */\n      tag_127\n      jump\t// in\n    tag_174:\n        /* \"#utility.yul\":2049:2052   */\n      dup5\n        /* \"#utility.yul\":2045:2084   */\n      add\n        /* \"#utility.yul\":2038:2084   */\n      swap2\n      pop\n        /* \"#utility.yul\":1818:2090   */\n      pop\n        /* \"#utility.yul\":1726:2090   */\n      swap3\n      swap2\n      pop\n      pop\n      jump\t// out\n        /* \"#utility.yul\":2096:2409   */\n    tag_17:\n        /* \"#utility.yul\":2209:2213   */\n      0x00\n        /* \"#utility.yul\":2247:2249   */\n      0x20\n        /* \"#utility.yul\":2236:2245   */\n      dup3\n        /* \"#utility.yul\":2232:2250   */\n      add\n        /* \"#utility.yul\":2224:2250   */\n      swap1\n      pop\n        /* \"#utility.yul\":2296:2305   */\n      dup2\n        /* \"#utility.yul\":2290:2294   */\n      dup2\n        /* \"#utility.yul\":2286:2306   */\n      sub\n        /* \"#utility.yul\":2282:2283   */\n      0x00\n        /* \"#utility.yul\":2271:2280   */\n      dup4\n        /* \"#utility.yul\":2267:2284   */\n      add\n        /* \"#utility.yul\":2260:2307   */\n      mstore\n        /* \"#utility.yul\":2324:2402   */\n      tag_176\n        /* \"#utility.yul\":2397:2401   */\n      dup2\n        /* \"#utility.yul\":2388:2394   */\n      dup5\n        /* \"#utility.yul\":2324:2402   */\n      tag_128\n      jump\t// in\n    tag_176:\n        /* \"#utility.yul\":2316:2402   */\n      swap1\n      pop\n        /* \"#utility.yul\":2096:2409   */\n      swap3\n      swap2\n      pop\n      pop\n      jump\t// out\n        /* \"#utility.yul\":2415:2532   */\n    tag_129:\n        /* \"#utility.yul\":2524:2525   */\n      0x00\n        /* \"#utility.yul\":2521:2522   */\n      dup1\n        /* \"#utility.yul\":2514:2526   */\n      revert\n        /* \"#utility.yul\":2538:2655   */\n    tag_130:\n        /* \"#utility.yul\":2647:2648   */\n      0x00\n        /* \"#utility.yul\":2644:2645   */\n      dup1\n        /* \"#utility.yul\":2637:2649   */\n      revert\n        /* \"#utility.yul\":2661:2778   */\n    tag_131:\n        /* \"#utility.yul\":2770:2771   */\n      0x00\n        /* \"#utility.yul\":2767:2768   */\n      dup1\n        /* \"#utility.yul\":2760:2772   */\n      revert\n        /* \"#utility.yul\":2798:3351   */\n    tag_132:\n        /* \"#utility.yul\":2856:2864   */\n      0x00\n        /* \"#utility.yul\":2866:2872   */\n      dup1\n        /* \"#utility.yul\":2916:2919   */\n      dup4\n        /* \"#utility.yul\":2909:2913   */\n      0x1f\n        /* \"#utility.yul\":2901:2907   */\n      dup5\n        /* \"#utility.yul\":2897:2914   */\n      add\n        /* \"#utility.yul\":2893:2920   */\n      slt\n        /* \"#utility.yul\":2883:3005   */\n      tag_181\n      jumpi\n        /* \"#utility.yul\":2924:3003   */\n      tag_182\n      tag_129\n      jump\t// in\n    tag_182:\n        /* \"#utility.yul\":2883:3005   */\n    tag_181:\n        /* \"#utility.yul\":3037:3043   */\n      dup3\n        /* \"#utility.yul\":3024:3044   */\n      calldataload\n        /* \"#utility.yul\":3014:3044   */\n      swap1\n      pop\n        /* \"#utility.yul\":3067:3085   */\n      0xffffffffffffffff\n        /* \"#utility.yul\":3059:3065   */\n      dup2\n        /* \"#utility.yul\":3056:3086   */\n      gt\n        /* \"#utility.yul\":3053:3170   */\n      iszero\n      tag_183\n      jumpi\n        /* \"#utility.yul\":3089:3168   */\n      tag_184\n      tag_130\n      jump\t// in\n    tag_184:\n        /* \"#utility.yul\":3053:3170   */\n    tag_183:\n        /* \"#utility.yul\":3203:3207   */\n      0x20\n        /* \"#utility.yul\":3195:3201   */\n      dup4\n        /* \"#utility.yul\":3191:3208   */\n      add\n        /* \"#utility.yul\":3179:3208   */\n      swap2\n      pop\n        /* \"#utility.yul\":3257:3260   */\n      dup4\n        /* \"#utility.yul\":3249:3253   */\n      0x01\n        /* \"#utility.yul\":3241:3247   */\n      dup3\n        /* \"#utility.yul\":3237:3254   */\n      mul\n        /* \"#utility.yul\":3227:3235   */\n      dup4\n        /* \"#utility.yul\":3223:3255   */\n      add\n        /* \"#utility.yul\":3220:3261   */\n      gt\n        /* \"#utility.yul\":3217:3345   */\n      iszero\n      tag_185\n      jumpi\n        /* \"#utility.yul\":3264:3343   */\n      tag_186\n      tag_131\n      jump\t// in\n    tag_186:\n        /* \"#utility.yul\":3217:3345   */\n    tag_185:\n        /* \"#utility.yul\":2798:3351   */\n      swap3\n      pop\n      swap3\n      swap1\n      pop\n      jump\t// out\n        /* \"#utility.yul\":3357:3886   */\n    tag_20:\n        /* \"#utility.yul\":3428:3434   */\n      0x00\n        /* \"#utility.yul\":3436:3442   */\n      dup1\n        /* \"#utility.yul\":3485:3487   */\n      0x20\n        /* \"#utility.yul\":3473:3482   */\n      dup4\n        /* \"#utility.yul\":3464:3471   */\n      dup6\n        /* \"#utility.yul\":3460:3483   */\n      sub\n        /* \"#utility.yul\":3456:3488   */\n      slt\n        /* \"#utility.yul\":3453:3572   */\n      iszero\n      tag_188\n      jumpi\n        /* \"#utility.yul\":3491:3570   */\n      tag_189\n      tag_119\n      jump\t// in\n    tag_189:\n        /* \"#utility.yul\":3453:3572   */\n    tag_188:\n        /* \"#utility.yul\":3639:3640   */\n      0x00\n        /* \"#utility.yul\":3628:3637   */\n      dup4\n        /* \"#utility.yul\":3624:3641   */\n      add\n        /* \"#utility.yul\":3611:3642   */\n      calldataload\n        /* \"#utility.yul\":3669:3687   */\n      0xffffffffffffffff\n        /* \"#utility.yul\":3661:3667   */\n      dup2\n        /* \"#utility.yul\":3658:3688   */\n      gt\n        /* \"#utility.yul\":3655:3772   */\n      iszero\n      tag_190\n      jumpi\n        /* \"#utility.yul\":3691:3770   */\n      tag_191\n      tag_120\n      jump\t// in\n    tag_191:\n        /* \"#utility.yul\":3655:3772   */\n    tag_190:\n        /* \"#utility.yul\":3804:3869   */\n      tag_192\n        /* \"#utility.yul\":3861:3868   */\n      dup6\n        /* \"#utility.yul\":3852:3858   */\n      dup3\n        /* \"#utility.yul\":3841:3850   */\n      dup7\n        /* \"#utility.yul\":3837:3859   */\n      add\n        /* \"#utility.yul\":3804:3869   */\n      tag_132\n      jump\t// in\n    tag_192:\n        /* \"#utility.yul\":3786:3869   */\n      swap3\n      pop\n      swap3\n      pop\n        /* \"#utility.yul\":3582:3879   */\n      pop\n        /* \"#utility.yul\":3357:3886   */\n      swap3\n      pop\n      swap3\n      swap1\n      pop\n      jump\t// out\n        /* \"#utility.yul\":3892:4010   */\n    tag_133:\n        /* \"#utility.yul\":3979:4003   */\n      tag_194\n        /* \"#utility.yul\":3997:4002   */\n      dup2\n        /* \"#utility.yul\":3979:4003   */\n      tag_121\n      jump\t// in\n    tag_194:\n        /* \"#utility.yul\":3974:3977   */\n      dup3\n        /* \"#utility.yul\":3967:4004   */\n      mstore\n        /* \"#utility.yul\":3892:4010   */\n      pop\n      pop\n      jump\t// out\n        /* \"#utility.yul\":4016:4238   */\n    tag_23:\n        /* \"#utility.yul\":4109:4113   */\n      0x00\n        /* \"#utility.yul\":4147:4149   */\n      0x20\n        /* \"#utility.yul\":4136:4145   */\n      dup3\n        /* \"#utility.yul\":4132:4150   */\n      add\n        /* \"#utility.yul\":4124:4150   */\n      swap1\n      pop\n        /* \"#utility.yul\":4160:4231   */\n      tag_196\n        /* \"#utility.yul\":4228:4229   */\n      0x00\n        /* \"#utility.yul\":4217:4226   */\n      dup4\n        /* \"#utility.yul\":4213:4230   */\n      add\n        /* \"#utility.yul\":4204:4210   */\n      dup5\n        /* \"#utility.yul\":4160:4231   */\n      tag_133\n      jump\t// in\n    tag_196:\n        /* \"#utility.yul\":4016:4238   */\n      swap3\n      swap2\n      pop\n      pop\n      jump\t// out\n        /* \"#utility.yul\":4244:4370   */\n    tag_134:\n        /* \"#utility.yul\":4281:4288   */\n      0x00\n        /* \"#utility.yul\":4321:4363   */\n      0xffffffffffffffffffffffffffffffffffffffff\n        /* \"#utility.yul\":4314:4319   */\n      dup3\n        /* \"#utility.yul\":4310:4364   */\n      and\n        /* \"#utility.yul\":4299:4364   */\n      swap1\n      pop\n        /* \"#utility.yul\":4244:4370   */\n      swap2\n      swap1\n      pop\n      jump\t// out\n        /* \"#utility.yul\":4376:4472   */\n    tag_135:\n        /* \"#utility.yul\":4413:4420   */\n      0x00\n        /* \"#utility.yul\":4442:4466   */\n      tag_199\n        /* \"#utility.yul\":4460:4465   */\n      dup3\n        /* \"#utility.yul\":4442:4466   */\n      tag_134\n      jump\t// in\n    tag_199:\n        /* \"#utility.yul\":4431:4466   */\n      swap1\n      pop\n        /* \"#utility.yul\":4376:4472   */\n      swap2\n      swap1\n      pop\n      jump\t// out\n        /* \"#utility.yul\":4478:4600   */\n    tag_136:\n        /* \"#utility.yul\":4551:4575   */\n      tag_201\n        /* \"#utility.yul\":4569:4574   */\n      dup2\n        /* \"#utility.yul\":4551:4575   */\n      tag_135\n      jump\t// in\n    tag_201:\n        /* \"#utility.yul\":4544:4549   */\n      dup2\n        /* \"#utility.yul\":4541:4576   */\n      eq\n        /* \"#utility.yul\":4531:4594   */\n      tag_202\n      jumpi\n        /* \"#utility.yul\":4590:4591   */\n      0x00\n        /* \"#utility.yul\":4587:4588   */\n      dup1\n        /* \"#utility.yul\":4580:4592   */\n      revert\n        /* \"#utility.yul\":4531:4594   */\n    tag_202:\n        /* \"#utility.yul\":4478:4600   */\n      pop\n      jump\t// out\n        /* \"#utility.yul\":4606:4745   */\n    tag_137:\n        /* \"#utility.yul\":4652:4657   */\n      0x00\n        /* \"#utility.yul\":4690:4696   */\n      dup2\n        /* \"#utility.yul\":4677:4697   */\n      calldataload\n        /* \"#utility.yul\":4668:4697   */\n      swap1\n      pop\n        /* \"#utility.yul\":4706:4739   */\n      tag_204\n        /* \"#utility.yul\":4733:4738   */\n      dup2\n        /* \"#utility.yul\":4706:4739   */\n      tag_136\n      jump\t// in\n    tag_204:\n        /* \"#utility.yul\":4606:4745   */\n      swap3\n      swap2\n      pop\n      pop\n      jump\t// out\n        /* \"#utility.yul\":4751:5080   */\n    tag_26:\n        /* \"#utility.yul\":4810:4816   */\n      0x00\n        /* \"#utility.yul\":4859:4861   */\n      0x20\n        /* \"#utility.yul\":4847:4856   */\n      dup3\n        /* \"#utility.yul\":4838:4845   */\n      dup5\n        /* \"#utility.yul\":4834:4857   */\n      sub\n        /* \"#utility.yul\":4830:4862   */\n      slt\n        /* \"#utility.yul\":4827:4946   */\n      iszero\n      tag_206\n      jumpi\n        /* \"#utility.yul\":4865:4944   */\n      tag_207\n      tag_119\n      jump\t// in\n    tag_207:\n        /* \"#utility.yul\":4827:4946   */\n    tag_206:\n        /* \"#utility.yul\":4985:4986   */\n      0x00\n        /* \"#utility.yul\":5010:5063   */\n      tag_208\n        /* \"#utility.yul\":5055:5062   */\n      dup5\n        /* \"#utility.yul\":5046:5052   */\n      dup3\n        /* \"#utility.yul\":5035:5044   */\n      dup6\n        /* \"#utility.yul\":5031:5053   */\n      add\n        /* \"#utility.yul\":5010:5063   */\n      tag_137\n      jump\t// in\n    tag_208:\n        /* \"#utility.yul\":5000:5063   */\n      swap2\n      pop\n        /* \"#utility.yul\":4956:5073   */\n      pop\n        /* \"#utility.yul\":4751:5080   */\n      swap3\n      swap2\n      pop\n      pop\n      jump\t// out\n        /* \"#utility.yul\":5086:5760   */\n    tag_33:\n        /* \"#utility.yul\":5166:5172   */\n      0x00\n        /* \"#utility.yul\":5174:5180   */\n      dup1\n        /* \"#utility.yul\":5182:5188   */\n      0x00\n        /* \"#utility.yul\":5231:5233   */\n      0x40\n        /* \"#utility.yul\":5219:5228   */\n      dup5\n        /* \"#utility.yul\":5210:5217   */\n      dup7\n        /* \"#utility.yul\":5206:5229   */\n      sub\n        /* \"#utility.yul\":5202:5234   */\n      slt\n        /* \"#utility.yul\":5199:5318   */\n      iszero\n      tag_210\n      jumpi\n        /* \"#utility.yul\":5237:5316   */\n      tag_211\n      tag_119\n      jump\t// in\n    tag_211:\n        /* \"#utility.yul\":5199:5318   */\n    tag_210:\n        /* \"#utility.yul\":5385:5386   */\n      0x00\n        /* \"#utility.yul\":5374:5383   */\n      dup5\n        /* \"#utility.yul\":5370:5387   */\n      add\n        /* \"#utility.yul\":5357:5388   */\n      calldataload\n        /* \"#utility.yul\":5415:5433   */\n      0xffffffffffffffff\n        /* \"#utility.yul\":5407:5413   */\n      dup2\n        /* \"#utility.yul\":5404:5434   */\n      gt\n        /* \"#utility.yul\":5401:5518   */\n      iszero\n      tag_212\n      jumpi\n        /* \"#utility.yul\":5437:5516   */\n      tag_213\n      tag_120\n      jump\t// in\n    tag_213:\n        /* \"#utility.yul\":5401:5518   */\n    tag_212:\n        /* \"#utility.yul\":5550:5615   */\n      tag_214\n        /* \"#utility.yul\":5607:5614   */\n      dup7\n        /* \"#utility.yul\":5598:5604   */\n      dup3\n        /* \"#utility.yul\":5587:5596   */\n      dup8\n        /* \"#utility.yul\":5583:5605   */\n      add\n        /* \"#utility.yul\":5550:5615   */\n      tag_132\n      jump\t// in\n    tag_214:\n        /* \"#utility.yul\":5532:5615   */\n      swap4\n      pop\n      swap4\n      pop\n        /* \"#utility.yul\":5328:5625   */\n      pop\n        /* \"#utility.yul\":5664:5666   */\n      0x20\n        /* \"#utility.yul\":5690:5743   */\n      tag_215\n        /* \"#utility.yul\":5735:5742   */\n      dup7\n        /* \"#utility.yul\":5726:5732   */\n      dup3\n        /* \"#utility.yul\":5715:5724   */\n      dup8\n        /* \"#utility.yul\":5711:5733   */\n      add\n        /* \"#utility.yul\":5690:5743   */\n      tag_123\n      jump\t// in\n    tag_215:\n        /* \"#utility.yul\":5680:5743   */\n      swap2\n      pop\n        /* \"#utility.yul\":5635:5753   */\n      pop\n        /* \"#utility.yul\":5086:5760   */\n      swap3\n      pop\n      swap3\n      pop\n      swap3\n      jump\t// out\n        /* \"#utility.yul\":5766:5884   */\n    tag_138:\n        /* \"#utility.yul\":5853:5877   */\n      tag_217\n        /* \"#utility.yul\":5871:5876   */\n      dup2\n        /* \"#utility.yul\":5853:5877   */\n      tag_135\n      jump\t// in\n    tag_217:\n        /* \"#utility.yul\":5848:5851   */\n      dup3\n        /* \"#utility.yul\":5841:5878   */\n      mstore\n        /* \"#utility.yul\":5766:5884   */\n      pop\n      pop\n      jump\t// out\n        /* \"#utility.yul\":5890:6332   */\n    tag_39:\n        /* \"#utility.yul\":6039:6043   */\n      0x00\n        /* \"#utility.yul\":6077:6079   */\n      0x60\n        /* \"#utility.yul\":6066:6075   */\n      dup3\n        /* \"#utility.yul\":6062:6080   */\n      add\n        /* \"#utility.yul\":6054:6080   */\n      swap1\n      pop\n        /* \"#utility.yul\":6090:6161   */\n      tag_219\n        /* \"#utility.yul\":6158:6159   */\n      0x00\n        /* \"#utility.yul\":6147:6156   */\n      dup4\n        /* \"#utility.yul\":6143:6160   */\n      add\n        /* \"#utility.yul\":6134:6140   */\n      dup7\n        /* \"#utility.yul\":6090:6161   */\n      tag_133\n      jump\t// in\n    tag_219:\n        /* \"#utility.yul\":6171:6243   */\n      tag_220\n        /* \"#utility.yul\":6239:6241   */\n      0x20\n        /* \"#utility.yul\":6228:6237   */\n      dup4\n        /* \"#utility.yul\":6224:6242   */\n      add\n        /* \"#utility.yul\":6215:6221   */\n      dup6\n        /* \"#utility.yul\":6171:6243   */\n      tag_133\n      jump\t// in\n    tag_220:\n        /* \"#utility.yul\":6253:6325   */\n      tag_221\n        /* \"#utility.yul\":6321:6323   */\n      0x40\n        /* \"#utility.yul\":6310:6319   */\n      dup4\n        /* \"#utility.yul\":6306:6324   */\n      add\n        /* \"#utility.yul\":6297:6303   */\n      dup5\n        /* \"#utility.yul\":6253:6325   */\n      tag_138\n      jump\t// in\n    tag_221:\n        /* \"#utility.yul\":5890:6332   */\n      swap5\n      swap4\n      pop\n      pop\n      pop\n      pop\n      jump\t// out\n        /* \"#utility.yul\":6338:6560   */\n    tag_43:\n        /* \"#utility.yul\":6431:6435   */\n      0x00\n        /* \"#utility.yul\":6469:6471   */\n      0x20\n        /* \"#utility.yul\":6458:6467   */\n      dup3\n        /* \"#utility.yul\":6454:6472   */\n      add\n        /* \"#utility.yul\":6446:6472   */\n      swap1\n      pop\n        /* \"#utility.yul\":6482:6553   */\n      tag_223\n        /* \"#utility.yul\":6550:6551   */\n      0x00\n        /* \"#utility.yul\":6539:6548   */\n      dup4\n        /* \"#utility.yul\":6535:6552   */\n      add\n        /* \"#utility.yul\":6526:6532   */\n      dup5\n        /* \"#utility.yul\":6482:6553   */\n      tag_138\n      jump\t// in\n    tag_223:\n        /* \"#utility.yul\":6338:6560   */\n      swap3\n      swap2\n      pop\n      pop\n      jump\t// out\n        /* \"#utility.yul\":6566:6746   */\n    tag_139:\n        /* \"#utility.yul\":6614:6691   */\n      0x4e487b7100000000000000000000000000000000000000000000000000000000\n        /* \"#utility.yul\":6611:6612   */\n      0x00\n        /* \"#utility.yul\":6604:6692   */\n      mstore\n        /* \"#utility.yul\":6711:6715   */\n      0x22\n        /* \"#utility.yul\":6708:6709   */\n      0x04\n        /* \"#utility.yul\":6701:6716   */\n      mstore\n        /* \"#utility.yul\":6735:6739   */\n      0x24\n        /* \"#utility.yul\":6732:6733   */\n      0x00\n        /* \"#utility.yul\":6725:6740   */\n      revert\n        /* \"#utility.yul\":6752:7072   */\n    tag_49:\n        /* \"#utility.yul\":6796:6802   */\n      0x00\n        /* \"#utility.yul\":6833:6834   */\n      0x02\n        /* \"#utility.yul\":6827:6831   */\n      dup3\n        /* \"#utility.yul\":6823:6835   */\n      div\n        /* \"#utility.yul\":6813:6835   */\n      swap1\n      pop\n        /* \"#utility.yul\":6880:6881   */\n      0x01\n        /* \"#utility.yul\":6874:6878   */\n      dup3\n        /* \"#utility.yul\":6870:6882   */\n      and\n        /* \"#utility.yul\":6901:6919   */\n      dup1\n        /* \"#utility.yul\":6891:6972   */\n      tag_226\n      jumpi\n        /* \"#utility.yul\":6957:6961   */\n      0x7f\n        /* \"#utility.yul\":6949:6955   */\n      dup3\n        /* \"#utility.yul\":6945:6962   */\n      and\n        /* \"#utility.yul\":6935:6962   */\n      swap2\n      pop\n        /* \"#utility.yul\":6891:6972   */\n    tag_226:\n        /* \"#utility.yul\":7019:7021   */\n      0x20\n        /* \"#utility.yul\":7011:7017   */\n      dup3\n        /* \"#utility.yul\":7008:7022   */\n      lt\n        /* \"#utility.yul\":6988:7006   */\n      dup2\n        /* \"#utility.yul\":6985:7023   */\n      eq\n        /* \"#utility.yul\":6982:7066   */\n      iszero\n      tag_227\n      jumpi\n        /* \"#utility.yul\":7038:7056   */\n      tag_228\n      tag_139\n      jump\t// in\n    tag_228:\n        /* \"#utility.yul\":6982:7066   */\n    tag_227:\n        /* \"#utility.yul\":6803:7072   */\n      pop\n        /* \"#utility.yul\":6752:7072   */\n      swap2\n      swap1\n      pop\n      jump\t// out\n        /* \"#utility.yul\":7078:7226   */\n    tag_140:\n        /* \"#utility.yul\":7180:7191   */\n      0x00\n        /* \"#utility.yul\":7217:7220   */\n      dup2\n        /* \"#utility.yul\":7202:7220   */\n      swap1\n      pop\n        /* \"#utility.yul\":7078:7226   */\n      swap3\n      swap2\n      pop\n      pop\n      jump\t// out\n        /* \"#utility.yul\":7232:7386   */\n    tag_141:\n        /* \"#utility.yul\":7316:7322   */\n      dup3\n        /* \"#utility.yul\":7311:7314   */\n      dup2\n        /* \"#utility.yul\":7306:7309   */\n      dup4\n        /* \"#utility.yul\":7293:7323   */\n      calldatacopy\n        /* \"#utility.yul\":7378:7379   */\n      0x00\n        /* \"#utility.yul\":7369:7375   */\n      dup4\n        /* \"#utility.yul\":7364:7367   */\n      dup4\n        /* \"#utility.yul\":7360:7376   */\n      add\n        /* \"#utility.yul\":7353:7380   */\n      mstore\n        /* \"#utility.yul\":7232:7386   */\n      pop\n      pop\n      pop\n      jump\t// out\n        /* \"#utility.yul\":7416:7733   */\n    tag_142:\n        /* \"#utility.yul\":7532:7535   */\n      0x00\n        /* \"#utility.yul\":7553:7642   */\n      tag_232\n        /* \"#utility.yul\":7635:7641   */\n      dup4\n        /* \"#utility.yul\":7630:7633   */\n      dup6\n        /* \"#utility.yul\":7553:7642   */\n      tag_140\n      jump\t// in\n    tag_232:\n        /* \"#utility.yul\":7546:7642   */\n      swap4\n      pop\n        /* \"#utility.yul\":7652:7695   */\n      tag_233\n        /* \"#utility.yul\":7688:7694   */\n      dup4\n        /* \"#utility.yul\":7683:7686   */\n      dup6\n        /* \"#utility.yul\":7676:7681   */\n      dup5\n        /* \"#utility.yul\":7652:7695   */\n      tag_141\n      jump\t// in\n    tag_233:\n        /* \"#utility.yul\":7720:7726   */\n      dup3\n        /* \"#utility.yul\":7715:7718   */\n      dup5\n        /* \"#utility.yul\":7711:7727   */\n      add\n        /* \"#utility.yul\":7704:7727   */\n      swap1\n      pop\n        /* \"#utility.yul\":7416:7733   */\n      swap4\n      swap3\n      pop\n      pop\n      pop\n      jump\t// out\n        /* \"#utility.yul\":7739:8034   */\n    tag_57:\n        /* \"#utility.yul\":7881:7884   */\n      0x00\n        /* \"#utility.yul\":7903:8008   */\n      tag_235\n        /* \"#utility.yul\":8004:8007   */\n      dup3\n        /* \"#utility.yul\":7995:8001   */\n      dup5\n        /* \"#utility.yul\":7987:7993   */\n      dup7\n        /* \"#utility.yul\":7903:8008   */\n      tag_142\n      jump\t// in\n    tag_235:\n        /* \"#utility.yul\":7896:8008   */\n      swap2\n      pop\n        /* \"#utility.yul\":8025:8028   */\n      dup2\n        /* \"#utility.yul\":8018:8028   */\n      swap1\n      pop\n        /* \"#utility.yul\":7739:8034   */\n      swap4\n      swap3\n      pop\n      pop\n      pop\n      jump\t// out\n        /* \"#utility.yul\":8040:8181   */\n    tag_143:\n        /* \"#utility.yul\":8089:8093   */\n      0x00\n        /* \"#utility.yul\":8112:8115   */\n      dup2\n        /* \"#utility.yul\":8104:8115   */\n      swap1\n      pop\n        /* \"#utility.yul\":8135:8138   */\n      dup2\n        /* \"#utility.yul\":8132:8133   */\n      0x00\n        /* \"#utility.yul\":8125:8139   */\n      mstore\n        /* \"#utility.yul\":8169:8173   */\n      0x20\n        /* \"#utility.yul\":8166:8167   */\n      0x00\n        /* \"#utility.yul\":8156:8174   */\n      keccak256\n        /* \"#utility.yul\":8148:8174   */\n      swap1\n      pop\n        /* \"#utility.yul\":8040:8181   */\n      swap2\n      swap1\n      pop\n      jump\t// out\n        /* \"#utility.yul\":8211:9056   */\n    tag_144:\n        /* \"#utility.yul\":8314:8317   */\n      0x00\n        /* \"#utility.yul\":8351:8356   */\n      dup2\n        /* \"#utility.yul\":8345:8357   */\n      sload\n        /* \"#utility.yul\":8380:8416   */\n      tag_238\n        /* \"#utility.yul\":8406:8415   */\n      dup2\n        /* \"#utility.yul\":8380:8416   */\n      tag_49\n      jump\t// in\n    tag_238:\n        /* \"#utility.yul\":8432:8521   */\n      tag_239\n        /* \"#utility.yul\":8514:8520   */\n      dup2\n        /* \"#utility.yul\":8509:8512   */\n      dup7\n        /* \"#utility.yul\":8432:8521   */\n      tag_140\n      jump\t// in\n    tag_239:\n        /* \"#utility.yul\":8425:8521   */\n      swap5\n      pop\n        /* \"#utility.yul\":8552:8553   */\n      0x01\n        /* \"#utility.yul\":8541:8550   */\n      dup3\n        /* \"#utility.yul\":8537:8554   */\n      and\n        /* \"#utility.yul\":8568:8569   */\n      0x00\n        /* \"#utility.yul\":8563:8700   */\n      dup2\n      eq\n      tag_241\n      jumpi\n        /* \"#utility.yul\":8714:8715   */\n      0x01\n        /* \"#utility.yul\":8709:9050   */\n      dup2\n      eq\n      tag_242\n      jumpi\n        /* \"#utility.yul\":8530:9050   */\n      jump(tag_240)\n        /* \"#utility.yul\":8563:8700   */\n    tag_241:\n        /* \"#utility.yul\":8647:8651   */\n      0xff\n        /* \"#utility.yul\":8643:8652   */\n      not\n        /* \"#utility.yul\":8632:8641   */\n      dup4\n        /* \"#utility.yul\":8628:8653   */\n      and\n        /* \"#utility.yul\":8623:8626   */\n      dup7\n        /* \"#utility.yul\":8616:8654   */\n      mstore\n        /* \"#utility.yul\":8683:8689   */\n      dup2\n        /* \"#utility.yul\":8678:8681   */\n      dup7\n        /* \"#utility.yul\":8674:8690   */\n      add\n        /* \"#utility.yul\":8667:8690   */\n      swap4\n      pop\n        /* \"#utility.yul\":8563:8700   */\n      jump(tag_240)\n        /* \"#utility.yul\":8709:9050   */\n    tag_242:\n        /* \"#utility.yul\":8776:8814   */\n      tag_243\n        /* \"#utility.yul\":8808:8813   */\n      dup6\n        /* \"#utility.yul\":8776:8814   */\n      tag_143\n      jump\t// in\n    tag_243:\n        /* \"#utility.yul\":8836:8837   */\n      0x00\n        /* \"#utility.yul\":8850:9004   */\n    tag_244:\n        /* \"#utility.yul\":8864:8870   */\n      dup4\n        /* \"#utility.yul\":8861:8862   */\n      dup2\n        /* \"#utility.yul\":8858:8871   */\n      lt\n        /* \"#utility.yul\":8850:9004   */\n      iszero\n      tag_246\n      jumpi\n        /* \"#utility.yul\":8938:8945   */\n      dup2\n        /* \"#utility.yul\":8932:8946   */\n      sload\n        /* \"#utility.yul\":8928:8929   */\n      dup2\n        /* \"#utility.yul\":8923:8926   */\n      dup10\n        /* \"#utility.yul\":8919:8930   */\n      add\n        /* \"#utility.yul\":8912:8947   */\n      mstore\n        /* \"#utility.yul\":8988:8989   */\n      0x01\n        /* \"#utility.yul\":8979:8986   */\n      dup3\n        /* \"#utility.yul\":8975:8990   */\n      add\n        /* \"#utility.yul\":8964:8990   */\n      swap2\n      pop\n        /* \"#utility.yul\":8886:8890   */\n      0x20\n        /* \"#utility.yul\":8883:8884   */\n      dup2\n        /* \"#utility.yul\":8879:8891   */\n      add\n        /* \"#utility.yul\":8874:8891   */\n      swap1\n      pop\n        /* \"#utility.yul\":8850:9004   */\n      jump(tag_244)\n    tag_246:\n        /* \"#utility.yul\":9033:9039   */\n      dup4\n        /* \"#utility.yul\":9028:9031   */\n      dup9\n        /* \"#utility.yul\":9024:9040   */\n      add\n        /* \"#utility.yul\":9017:9040   */\n      swap6\n      pop\n        /* \"#utility.yul\":8716:9050   */\n      pop\n      pop\n        /* \"#utility.yul\":8530:9050   */\n    tag_240:\n      pop\n        /* \"#utility.yul\":8318:9056   */\n      pop\n      pop\n        /* \"#utility.yul\":8211:9056   */\n      swap3\n      swap2\n      pop\n      pop\n      jump\t// out\n        /* \"#utility.yul\":9062:9331   */\n    tag_60:\n        /* \"#utility.yul\":9191:9194   */\n      0x00\n        /* \"#utility.yul\":9213:9305   */\n      tag_248\n        /* \"#utility.yul\":9301:9304   */\n      dup3\n        /* \"#utility.yul\":9292:9298   */\n      dup5\n        /* \"#utility.yul\":9213:9305   */\n      tag_144\n      jump\t// in\n    tag_248:\n        /* \"#utility.yul\":9206:9305   */\n      swap2\n      pop\n        /* \"#utility.yul\":9322:9325   */\n      dup2\n        /* \"#utility.yul\":9315:9325   */\n      swap1\n      pop\n        /* \"#utility.yul\":9062:9331   */\n      swap3\n      swap2\n      pop\n      pop\n      jump\t// out\n        /* \"#utility.yul\":9337:9517   */\n    tag_145:\n        /* \"#utility.yul\":9385:9462   */\n      0x4e487b7100000000000000000000000000000000000000000000000000000000\n        /* \"#utility.yul\":9382:9383   */\n      0x00\n        /* \"#utility.yul\":9375:9463   */\n      mstore\n        /* \"#utility.yul\":9482:9486   */\n      0x11\n        /* \"#utility.yul\":9479:9480   */\n      0x04\n        /* \"#utility.yul\":9472:9487   */\n      mstore\n        /* \"#utility.yul\":9506:9510   */\n      0x24\n        /* \"#utility.yul\":9503:9504   */\n      0x00\n        /* \"#utility.yul\":9496:9511   */\n      revert\n        /* \"#utility.yul\":9523:9714   */\n    tag_65:\n        /* \"#utility.yul\":9563:9567   */\n      0x00\n        /* \"#utility.yul\":9583:9603   */\n      tag_251\n        /* \"#utility.yul\":9601:9602   */\n      dup3\n        /* \"#utility.yul\":9583:9603   */\n      tag_121\n      jump\t// in\n    tag_251:\n        /* \"#utility.yul\":9578:9603   */\n      swap2\n      pop\n        /* \"#utility.yul\":9617:9637   */\n      tag_252\n        /* \"#utility.yul\":9635:9636   */\n      dup4\n        /* \"#utility.yul\":9617:9637   */\n      tag_121\n      jump\t// in\n    tag_252:\n        /* \"#utility.yul\":9612:9637   */\n      swap3\n      pop\n        /* \"#utility.yul\":9656:9657   */\n      dup3\n        /* \"#utility.yul\":9653:9654   */\n      dup3\n        /* \"#utility.yul\":9650:9658   */\n      lt\n        /* \"#utility.yul\":9647:9681   */\n      iszero\n      tag_253\n      jumpi\n        /* \"#utility.yul\":9661:9679   */\n      tag_254\n      tag_145\n      jump\t// in\n    tag_254:\n        /* \"#utility.yul\":9647:9681   */\n    tag_253:\n        /* \"#utility.yul\":9706:9707   */\n      dup3\n        /* \"#utility.yul\":9703:9704   */\n      dup3\n        /* \"#utility.yul\":9699:9708   */\n      sub\n        /* \"#utility.yul\":9691:9708   */\n      swap1\n      pop\n        /* \"#utility.yul\":9523:9714   */\n      swap3\n      swap2\n      pop\n      pop\n      jump\t// out\n        /* \"#utility.yul\":9720:9865   */\n    tag_146:\n        /* \"#utility.yul\":9773:9777   */\n      0x00\n        /* \"#utility.yul\":9796:9799   */\n      dup2\n        /* \"#utility.yul\":9788:9799   */\n      swap1\n      pop\n        /* \"#utility.yul\":9819:9822   */\n      dup2\n        /* \"#utility.yul\":9816:9817   */\n      0x00\n        /* \"#utility.yul\":9809:9823   */\n      mstore\n        /* \"#utility.yul\":9853:9857   */\n      0x20\n        /* \"#utility.yul\":9850:9851   */\n      0x00\n        /* \"#utility.yul\":9840:9858   */\n      keccak256\n        /* \"#utility.yul\":9832:9858   */\n      swap1\n      pop\n        /* \"#utility.yul\":9720:9865   */\n      swap2\n      swap1\n      pop\n      jump\t// out\n        /* \"#utility.yul\":9895:10748   */\n    tag_147:\n        /* \"#utility.yul\":10002:10005   */\n      0x00\n        /* \"#utility.yul\":10039:10044   */\n      dup2\n        /* \"#utility.yul\":10033:10045   */\n      sload\n        /* \"#utility.yul\":10068:10104   */\n      tag_257\n        /* \"#utility.yul\":10094:10103   */\n      dup2\n        /* \"#utility.yul\":10068:10104   */\n      tag_49\n      jump\t// in\n    tag_257:\n        /* \"#utility.yul\":10120:10209   */\n      tag_258\n        /* \"#utility.yul\":10202:10208   */\n      dup2\n        /* \"#utility.yul\":10197:10200   */\n      dup7\n        /* \"#utility.yul\":10120:10209   */\n      tag_140\n      jump\t// in\n    tag_258:\n        /* \"#utility.yul\":10113:10209   */\n      swap5\n      pop\n        /* \"#utility.yul\":10240:10241   */\n      0x01\n        /* \"#utility.yul\":10229:10238   */\n      dup3\n        /* \"#utility.yul\":10225:10242   */\n      and\n        /* \"#utility.yul\":10256:10257   */\n      0x00\n        /* \"#utility.yul\":10251:10388   */\n      dup2\n      eq\n      tag_260\n      jumpi\n        /* \"#utility.yul\":10402:10403   */\n      0x01\n        /* \"#utility.yul\":10397:10742   */\n      dup2\n      eq\n      tag_261\n      jumpi\n        /* \"#utility.yul\":10218:10742   */\n      jump(tag_259)\n        /* \"#utility.yul\":10251:10388   */\n    tag_260:\n        /* \"#utility.yul\":10335:10339   */\n      0xff\n        /* \"#utility.yul\":10331:10340   */\n      not\n        /* \"#utility.yul\":10320:10329   */\n      dup4\n        /* \"#utility.yul\":10316:10341   */\n      and\n        /* \"#utility.yul\":10311:10314   */\n      dup7\n        /* \"#utility.yul\":10304:10342   */\n      mstore\n        /* \"#utility.yul\":10371:10377   */\n      dup2\n        /* \"#utility.yul\":10366:10369   */\n      dup7\n        /* \"#utility.yul\":10362:10378   */\n      add\n        /* \"#utility.yul\":10355:10378   */\n      swap4\n      pop\n        /* \"#utility.yul\":10251:10388   */\n      jump(tag_259)\n        /* \"#utility.yul\":10397:10742   */\n    tag_261:\n        /* \"#utility.yul\":10464:10506   */\n      tag_262\n        /* \"#utility.yul\":10500:10505   */\n      dup6\n        /* \"#utility.yul\":10464:10506   */\n      tag_146\n      jump\t// in\n    tag_262:\n        /* \"#utility.yul\":10528:10529   */\n      0x00\n        /* \"#utility.yul\":10542:10696   */\n    tag_263:\n        /* \"#utility.yul\":10556:10562   */\n      dup4\n        /* \"#utility.yul\":10553:10554   */\n      dup2\n        /* \"#utility.yul\":10550:10563   */\n      lt\n        /* \"#utility.yul\":10542:10696   */\n      iszero\n      tag_265\n      jumpi\n        /* \"#utility.yul\":10630:10637   */\n      dup2\n        /* \"#utility.yul\":10624:10638   */\n      sload\n        /* \"#utility.yul\":10620:10621   */\n      dup2\n        /* \"#utility.yul\":10615:10618   */\n      dup10\n        /* \"#utility.yul\":10611:10622   */\n      add\n        /* \"#utility.yul\":10604:10639   */\n      mstore\n        /* \"#utility.yul\":10680:10681   */\n      0x01\n        /* \"#utility.yul\":10671:10678   */\n      dup3\n        /* \"#utility.yul\":10667:10682   */\n      add\n        /* \"#utility.yul\":10656:10682   */\n      swap2\n      pop\n        /* \"#utility.yul\":10578:10582   */\n      0x20\n        /* \"#utility.yul\":10575:10576   */\n      dup2\n        /* \"#utility.yul\":10571:10583   */\n      add\n        /* \"#utility.yul\":10566:10583   */\n      swap1\n      pop\n        /* \"#utility.yul\":10542:10696   */\n      jump(tag_263)\n    tag_265:\n        /* \"#utility.yul\":10725:10731   */\n      dup4\n        /* \"#utility.yul\":10720:10723   */\n      dup9\n        /* \"#utility.yul\":10716:10732   */\n      add\n        /* \"#utility.yul\":10709:10732   */\n      swap6\n      pop\n        /* \"#utility.yul\":10404:10742   */\n      pop\n      pop\n        /* \"#utility.yul\":10218:10742   */\n    tag_259:\n      pop\n        /* \"#utility.yul\":10006:10748   */\n      pop\n      pop\n        /* \"#utility.yul\":9895:10748   */\n      swap3\n      swap2\n      pop\n      pop\n      jump\t// out\n        /* \"#utility.yul\":10754:11031   */\n    tag_70:\n        /* \"#utility.yul\":10887:10890   */\n      0x00\n        /* \"#utility.yul\":10909:11005   */\n      tag_267\n        /* \"#utility.yul\":11001:11004   */\n      dup3\n        /* \"#utility.yul\":10992:10998   */\n      dup5\n        /* \"#utility.yul\":10909:11005   */\n      tag_147\n      jump\t// in\n    tag_267:\n        /* \"#utility.yul\":10902:11005   */\n      swap2\n      pop\n        /* \"#utility.yul\":11022:11025   */\n      dup2\n        /* \"#utility.yul\":11015:11025   */\n      swap1\n      pop\n        /* \"#utility.yul\":10754:11031   */\n      swap3\n      swap2\n      pop\n      pop\n      jump\t// out\n        /* \"#utility.yul\":11037:11208   */\n    tag_72:\n        /* \"#utility.yul\":11076:11079   */\n      0x00\n        /* \"#utility.yul\":11099:11123   */\n      tag_269\n        /* \"#utility.yul\":11117:11122   */\n      dup3\n        /* \"#utility.yul\":11099:11123   */\n      tag_121\n      jump\t// in\n    tag_269:\n        /* \"#utility.yul\":11090:11123   */\n      swap2\n      pop\n        /* \"#utility.yul\":11145:11149   */\n      0x00\n        /* \"#utility.yul\":11138:11143   */\n      dup3\n        /* \"#utility.yul\":11135:11150   */\n      eq\n        /* \"#utility.yul\":11132:11173   */\n      iszero\n      tag_270\n      jumpi\n        /* \"#utility.yul\":11153:11171   */\n      tag_271\n      tag_145\n      jump\t// in\n    tag_271:\n        /* \"#utility.yul\":11132:11173   */\n    tag_270:\n        /* \"#utility.yul\":11200:11201   */\n      0x01\n        /* \"#utility.yul\":11193:11198   */\n      dup3\n        /* \"#utility.yul\":11189:11202   */\n      sub\n        /* \"#utility.yul\":11182:11202   */\n      swap1\n      pop\n        /* \"#utility.yul\":11037:11208   */\n      swap2\n      swap1\n      pop\n      jump\t// out\n        /* \"#utility.yul\":11214:11447   */\n    tag_100:\n        /* \"#utility.yul\":11253:11256   */\n      0x00\n        /* \"#utility.yul\":11276:11300   */\n      tag_273\n        /* \"#utility.yul\":11294:11299   */\n      dup3\n        /* \"#utility.yul\":11276:11300   */\n      tag_121\n      jump\t// in\n    tag_273:\n        /* \"#utility.yul\":11267:11300   */\n      swap2\n      pop\n        /* \"#utility.yul\":11322:11388   */\n      0xffffffffffffffffffffffffffffffffffffffffffffffffffffffffffffffff\n        /* \"#utility.yul\":11315:11320   */\n      dup3\n        /* \"#utility.yul\":11312:11389   */\n      eq\n        /* \"#utility.yul\":11309:11412   */\n      iszero\n      tag_274\n      jumpi\n        /* \"#utility.yul\":11392:11410   */\n      tag_275\n      tag_145\n      jump\t// in\n    tag_275:\n        /* \"#utility.yul\":11309:11412   */\n    tag_274:\n        /* \"#utility.yul\":11439:11440   */\n      0x01\n        /* \"#utility.yul\":11432:11437   */\n      dup3\n        /* \"#utility.yul\":11428:11441   */\n      add\n        /* \"#utility.yul\":11421:11441   */\n      swap1\n      pop\n        /* \"#utility.yul\":11214:11447   */\n      swap2\n      swap1\n      pop\n      jump\t// out\n\n    auxdata: 0xa2646970667358221220aa3059d4907e8838f2444600e46e85fa9dbb80a13f7a1e48ca2a5bc4ee56f4c264736f6c63430008090033\n}\n","bytecode":{"linkReferences":{},"object":"608060405234801561001057600080fd5b506040516200105038038062001050833981810160405281019061003491906100dd565b806000806101000a81548173ffffffffffffffffffffffffffffffffffffffff021916908373ffffffffffffffffffffffffffffffffffffffff1602179055505061010a565b600080fd5b600073ffffffffffffffffffffffffffffffffffffffff82169050919050565b60006100aa8261007f565b9050919050565b6100ba8161009f565b81146100c557600080fd5b50565b6000815190506100d7816100b1565b92915050565b6000602082840312156100f3576100f261007a565b5b6000610101848285016100c8565b91505092915050565b610f36806200011a6000396000f3fe608060405234801561001057600080fd5b50600436106100885760003560e01c8063aeb9e57b1161005b578063aeb9e57b14610127578063b8306de614610143578063bd96bd2014610175578063e6af705f1461019357610088565b8063124b16ed1461008d57806317674544146100bd5780634780468f146100ed578063ab4ccf0114610109575b600080fd5b6100a760048036038101906100a2919061090b565b6101af565b6040516100b491906109d1565b60405180910390f35b6100d760048036038101906100d29190610a58565b610254565b6040516100e49190610ab4565b60405180910390f35b61010760048036038101906101029190610b2d565b6103ba565b005b610111610414565b60405161011e9190610ab4565b60405180910390f35b610141600480360381019061013c9190610b5a565b61041a565b005b61015d60048036038101906101589190610a58565b610545565b60405161016c93929190610bc9565b60405180910390f35b61017d61064d565b60405161018a9190610c00565b60405180910390f35b6101ad60048036038101906101a89190610b5a565b610671565b005b60606003600083815260200190815260200160002080546101cf90610c4a565b80601f01602080910402602001604051908101604052809291908181526020018280546101fb90610c4a565b80156102485780601f1061021d57610100808354040283529160200191610248565b820191906000526020600020905b81548152906001019060200180831161022b57829003601f168201915b50505050509050919050565b6000828260006004541161026757600080fd5b818160405160200161027a929190610cbb565b6040516020818303038152906040528051906020012060036000600285856040516102a6929190610cbb565b90815260200160405180910390206002015481526020019081526020016000206040516020016102d69190610d68565b60405160208183030381529060405280519060200120146102f657600080fd5b60006002868660405161030a929190610cbb565b908152602001604051809103902060020154905060006003600060016004546103339190610dae565b81526020019081526020016000209050806003600084815260200190815260200160002090805461036390610c4a565b61036e92919061079b565b50816002826040516103809190610e76565b908152602001604051809103902060020181905550600460008154809291906103a890610e8d565b91905055508194505050505092915050565b60018060008373ffffffffffffffffffffffffffffffffffffffff1673ffffffffffffffffffffffffffffffffffffffff16815260200190815260200160002060006101000a81548160ff02191690831515021790555050565b60045481565b600160003373ffffffffffffffffffffffffffffffffffffffff1673ffffffffffffffffffffffffffffffffffffffff16815260200190815260200160002060009054906101000a900460ff1661047057600080fd5b828260006004541161048157600080fd5b8181604051602001610494929190610cbb565b6040516020818303038152906040528051906020012060036000600285856040516104c0929190610cbb565b90815260200160405180910390206002015481526020019081526020016000206040516020016104f09190610d68565b604051602081830303815290604052805190602001201461051057600080fd5b600060028686604051610524929190610cbb565b90815260200160405180910390209050838160030181905550505050505050565b6000806000848460006004541161055b57600080fd5b818160405160200161056e929190610cbb565b60405160208183030381529060405280519060200120600360006002858560405161059a929190610cbb565b90815260200160405180910390206002015481526020019081526020016000206040516020016105ca9190610d68565b60405160208183030381529060405280519060200120146105ea57600080fd5b6000600288886040516105fe929190610cbb565b90815260200160405180910390209050806000015481600301548260010160009054906101000a900473ffffffffffffffffffffffffffffffffffffffff169550955095505050509250925092565b60008054906101000a900473ffffffffffffffffffffffffffffffffffffffff1681565b600160003373ffffffffffffffffffffffffffffffffffffffff1673ffffffffffffffffffffffffffffffffffffffff16815260200190815260200160002060009054906101000a900460ff166106c757600080fd5b6000600284846040516106db929190610cbb565b9081526020016040518091039020905060008160000154146106fc57600080fd5b428160000181905550338160010160006101000a81548173ffffffffffffffffffffffffffffffffffffffff021916908373ffffffffffffffffffffffffffffffffffffffff16021790555081816003018190555083836003600060045481526020019081526020016000209190610775929190610828565b506004600081548092919061078990610eb7565b91905055816002018190555050505050565b8280546107a790610c4a565b90600052602060002090601f0160209004810192826107c95760008555610817565b82601f106107da5780548555610817565b8280016001018555821561081757600052602060002091601f016020900482015b828111156108165782548255916001019190600101906107fb565b5b50905061082491906108ae565b5090565b82805461083490610c4a565b90600052602060002090601f016020900481019282610856576000855561089d565b82601f1061086f57803560ff191683800117855561089d565b8280016001018555821561089d579182015b8281111561089c578235825591602001919060010190610881565b5b5090506108aa91906108ae565b5090565b5b808211156108c75760008160009055506001016108af565b5090565b600080fd5b600080fd5b6000819050919050565b6108e8816108d5565b81146108f357600080fd5b50565b600081359050610905816108df565b92915050565b600060208284031215610921576109206108cb565b5b600061092f848285016108f6565b91505092915050565b600081519050919050565b600082825260208201905092915050565b60005b83811015610972578082015181840152602081019050610957565b83811115610981576000848401525b50505050565b6000601f19601f8301169050919050565b60006109a382610938565b6109ad8185610943565b93506109bd818560208601610954565b6109c681610987565b840191505092915050565b600060208201905081810360008301526109eb8184610998565b905092915050565b600080fd5b600080fd5b600080fd5b60008083601f840112610a1857610a176109f3565b5b8235905067ffffffffffffffff811115610a3557610a346109f8565b5b602083019150836001820283011115610a5157610a506109fd565b5b9250929050565b60008060208385031215610a6f57610a6e6108cb565b5b600083013567ffffffffffffffff811115610a8d57610a8c6108d0565b5b610a9985828601610a02565b92509250509250929050565b610aae816108d5565b82525050565b6000602082019050610ac96000830184610aa5565b92915050565b600073ffffffffffffffffffffffffffffffffffffffff82169050919050565b6000610afa82610acf565b9050919050565b610b0a81610aef565b8114610b1557600080fd5b50565b600081359050610b2781610b01565b92915050565b600060208284031215610b4357610b426108cb565b5b6000610b5184828501610b18565b91505092915050565b600080600060408486031215610b7357610b726108cb565b5b600084013567ffffffffffffffff811115610b9157610b906108d0565b5b610b9d86828701610a02565b93509350506020610bb0868287016108f6565b9150509250925092565b610bc381610aef565b82525050565b6000606082019050610bde6000830186610aa5565b610beb6020830185610aa5565b610bf86040830184610bba565b949350505050565b6000602082019050610c156000830184610bba565b92915050565b7f4e487b7100000000000000000000000000000000000000000000000000000000600052602260045260246000fd5b60006002820490506001821680610c6257607f821691505b60208210811415610c7657610c75610c1b565b5b50919050565b600081905092915050565b82818337600083830152505050565b6000610ca28385610c7c565b9350610caf838584610c87565b82840190509392505050565b6000610cc8828486610c96565b91508190509392505050565b60008190508160005260206000209050919050565b60008154610cf681610c4a565b610d008186610c7c565b94506001821660008114610d1b5760018114610d2c57610d5f565b60ff19831686528186019350610d5f565b610d3585610cd4565b60005b83811015610d5757815481890152600182019150602081019050610d38565b838801955050505b50505092915050565b6000610d748284610ce9565b915081905092915050565b7f4e487b7100000000000000000000000000000000000000000000000000000000600052601160045260246000fd5b6000610db9826108d5565b9150610dc4836108d5565b925082821015610dd757610dd6610d7f565b5b828203905092915050565b60008190508160005260206000209050919050565b60008154610e0481610c4a565b610e0e8186610c7c565b94506001821660008114610e295760018114610e3a57610e6d565b60ff19831686528186019350610e6d565b610e4385610de2565b60005b83811015610e6557815481890152600182019150602081019050610e46565b838801955050505b50505092915050565b6000610e828284610df7565b915081905092915050565b6000610e98826108d5565b91506000821415610eac57610eab610d7f565b5b600182039050919050565b6000610ec2826108d5565b91507fffffffffffffffffffffffffffffffffffffffffffffffffffffffffffffffff821415610ef557610ef4610d7f565b5b60018201905091905056fea2646970667358221220aa3059d4907e8838f2444600e46e85fa9dbb80a13f7a1e48ca2a5bc4ee56f4c264736f6c63430008090033","opcodes":"PUSH1 0x80 PUSH1 0x40 MSTORE CALLVALUE DUP1 ISZERO PUSH2 0x10 JUMPI PUSH1 0x0 DUP1 REVERT JUMPDEST POP PUSH1 0x40 MLOAD PUSH3 0x1050 CODESIZE SUB DUP1 PUSH3 0x1050 DUP4 CODECOPY DUP2 DUP2 ADD PUSH1 0x40 MSTORE DUP2 ADD SWAP1 PUSH2 0x34 SWAP2 SWAP1 PUSH2 0xDD JUMP JUMPDEST DUP1 PUSH1 0x0 DUP1 PUSH2 0x100 EXP DUP2 SLOAD DUP2 PUSH20 0xFFFFFFFFFFFFFFFFFFFFFFFFFFFFFFFFFFFFFFFF MUL NOT AND SWAP1 DUP4 PUSH20 0xFFFFFFFFFFFFFFFFFFFFFFFFFFFFFFFFFFFFFFFF AND MUL OR SWAP1 SSTORE POP POP PUSH2 0x10A JUMP JUMPDEST PUSH1 0x0 DUP1 REVERT JUMPDEST PUSH1 0x0 PUSH20 0xFFFFFFFFFFFFFFFFFFFFFFFFFFFFFFFFFFFFFFFF DUP3 AND SWAP1 POP SWAP2 SWAP1 POP JUMP JUMPDEST PUSH1 0x0 PUSH2 0xAA DUP3 PUSH2 0x7F JUMP JUMPDEST SWAP1 POP SWAP2 SWAP1 POP JUMP JUMPDEST PUSH2 0xBA DUP2 PUSH2 0x9F JUMP JUMPDEST DUP2 EQ PUSH2 0xC5 JUMPI PUSH1 0x0 DUP1 REVERT JUMPDEST POP JUMP JUMPDEST PUSH1 0x0 DUP2 MLOAD SWAP1 POP PUSH2 0xD7 DUP2 PUSH2 0xB1 JUMP JUMPDEST SWAP3 SWAP2 POP POP JUMP JUMPDEST PUSH1 0x0 PUSH1 0x20 DUP3 DUP5 SUB SLT ISZERO PUSH2 0xF3 JUMPI PUSH2 0xF2 PUSH2 0x7A JUMP JUMPDEST JUMPDEST PUSH1 0x0 PUSH2 0x101 DUP5 DUP3 DUP6 ADD PUSH2 0xC8 JUMP JUMPDEST SWAP2 POP POP SWAP3 SWAP2 POP POP JUMP JUMPDEST PUSH2 0xF36 DUP1 PUSH3 0x11A PUSH1 0x0 CODECOPY PUSH1 0x0 RETURN INVALID PUSH1 0x80 PUSH1 0x40 MSTORE CALLVALUE DUP1 ISZERO PUSH2 0x10 JUMPI PUSH1 0x0 DUP1 REVERT JUMPDEST POP PUSH1 0x4 CALLDATASIZE LT PUSH2 0x88 JUMPI PUSH1 0x0 CALLDATALOAD PUSH1 0xE0 SHR DUP1 PUSH4 0xAEB9E57B GT PUSH2 0x5B JUMPI DUP1 PUSH4 0xAEB9E57B EQ PUSH2 0x127 JUMPI DUP1 PUSH4 0xB8306DE6 EQ PUSH2 0x143 JUMPI DUP1 PUSH4 0xBD96BD20 EQ PUSH2 0x175 JUMPI DUP1 PUSH4 0xE6AF705F EQ PUSH2 0x193 JUMPI PUSH2 0x88 JUMP JUMPDEST DUP1 PUSH4 0x124B16ED EQ PUSH2 0x8D JUMPI DUP1 PUSH4 0x17674544 EQ PUSH2 0xBD JUMPI DUP1 PUSH4 0x4780468F EQ PUSH2 0xED JUMPI DUP1 PUSH4 0xAB4CCF01 EQ PUSH2 0x109 JUMPI JUMPDEST PUSH1 0x0 DUP1 REVERT JUMPDEST PUSH2 0xA7 PUSH1 0x4 DUP1 CALLDATASIZE SUB DUP2 ADD SWAP1 PUSH2 0xA2 SWAP2 SWAP1 PUSH2 0x90B JUMP JUMPDEST PUSH2 0x1AF JUMP JUMPDEST PUSH1 0x40 MLOAD PUSH2 0xB4 SWAP2 SWAP1 PUSH2 0x9D1 JUMP JUMPDEST PUSH1 0x40 MLOAD DUP1 SWAP2 SUB SWAP1 RETURN JUMPDEST PUSH2 0xD7 PUSH1 0x4 DUP1 CALLDATASIZE SUB DUP2 ADD SWAP1 PUSH2 0xD2 SWAP2 SWAP1 PUSH2 0xA58 JUMP JUMPDEST PUSH2 0x254 JUMP JUMPDEST PUSH1 0x40 MLOAD PUSH2 0xE4 SWAP2 SWAP1 PUSH2 0xAB4 JUMP JUMPDEST PUSH1 0x40 MLOAD DUP1 SWAP2 SUB SWAP1 RETURN JUMPDEST PUSH2 0x107 PUSH1 0x4 DUP1 CALLDATASIZE SUB DUP2 ADD SWAP1 PUSH2 0x102 SWAP2 SWAP1 PUSH2 0xB2D JUMP JUMPDEST PUSH2 0x3BA JUMP JUMPDEST STOP JUMPDEST PUSH2 0x111 PUSH2 0x414 JUMP JUMPDEST PUSH1 0x40 MLOAD PUSH2 0x11E SWAP2 SWAP1 PUSH2 0xAB4 JUMP JUMPDEST PUSH1 0x40 MLOAD DUP1 SWAP2 SUB SWAP1 RETURN JUMPDEST PUSH2 0x141 PUSH1 0x4 DUP1 CALLDATASIZE SUB DUP2 ADD SWAP1 PUSH2 0x13C SWAP2 SWAP1 PUSH2 0xB5A JUMP JUMPDEST PUSH2 0x41A JUMP JUMPDEST STOP JUMPDEST PUSH2 0x15D PUSH1 0x4 DUP1 CALLDATASIZE SUB DUP2 ADD SWAP1 PUSH2 0x158 SWAP2 SWAP1 PUSH2 0xA58 JUMP JUMPDEST PUSH2 0x545 JUMP JUMPDEST PUSH1 0x40 MLOAD PUSH2 0x16C SWAP4 SWAP3 SWAP2 SWAP1 PUSH2 0xBC9 JUMP JUMPDEST PUSH1 0x40 MLOAD DUP1 SWAP2 SUB SWAP1 RETURN JUMPDEST PUSH2 0x17D PUSH2 0x64D JUMP JUMPDEST PUSH1 0x40 MLOAD PUSH2 0x18A SWAP2 SWAP1 PUSH2 0xC00 JUMP JUMPDEST PUSH1 0x40 MLOAD DUP1 SWAP2 SUB SWAP1 RETURN JUMPDEST PUSH2 0x1AD PUSH1 0x4 DUP1 CALLDATASIZE SUB DUP2 ADD SWAP1 PUSH2 0x1A8 SWAP2 SWAP1 PUSH2 0xB5A JUMP JUMPDEST PUSH2 0x671 JUMP JUMPDEST STOP JUMPDEST PUSH1 0x60 PUSH1 0x3 PUSH1 0x0 DUP4 DUP2 MSTORE PUSH1 0x20 ADD SWAP1 DUP2 MSTORE PUSH1 0x20 ADD PUSH1 0x0 KECCAK256 DUP1 SLOAD PUSH2 0x1CF SWAP1 PUSH2 0xC4A JUMP JUMPDEST DUP1 PUSH1 0x1F ADD PUSH1 0x20 DUP1 SWAP2 DIV MUL PUSH1 0x20 ADD PUSH1 0x40 MLOAD SWAP1 DUP2 ADD PUSH1 0x40 MSTORE DUP1 SWAP3 SWAP2 SWAP1 DUP2 DUP2 MSTORE PUSH1 0x20 ADD DUP3 DUP1 SLOAD PUSH2 0x1FB SWAP1 PUSH2 0xC4A JUMP JUMPDEST DUP1 ISZERO PUSH2 0x248 JUMPI DUP1 PUSH1 0x1F LT PUSH2 0x21D JUMPI PUSH2 0x100 DUP1 DUP4 SLOAD DIV MUL DUP4 MSTORE SWAP2 PUSH1 0x20 ADD SWAP2 PUSH2 0x248 JUMP JUMPDEST DUP3 ADD SWAP2 SWAP1 PUSH1 0x0 MSTORE PUSH1 0x20 PUSH1 0x0 KECCAK256 SWAP1 JUMPDEST DUP2 SLOAD DUP2 MSTORE SWAP1 PUSH1 0x1 ADD SWAP1 PUSH1 0x20 ADD DUP1 DUP4 GT PUSH2 0x22B JUMPI DUP3 SWAP1 SUB PUSH1 0x1F AND DUP3 ADD SWAP2 JUMPDEST POP POP POP POP POP SWAP1 POP SWAP2 SWAP1 POP JUMP JUMPDEST PUSH1 0x0 DUP3 DUP3 PUSH1 0x0 PUSH1 0x4 SLOAD GT PUSH2 0x267 JUMPI PUSH1 0x0 DUP1 REVERT JUMPDEST DUP2 DUP2 PUSH1 0x40 MLOAD PUSH1 0x20 ADD PUSH2 0x27A SWAP3 SWAP2 SWAP1 PUSH2 0xCBB JUMP JUMPDEST PUSH1 0x40 MLOAD PUSH1 0x20 DUP2 DUP4 SUB SUB DUP2 MSTORE SWAP1 PUSH1 0x40 MSTORE DUP1 MLOAD SWAP1 PUSH1 0x20 ADD KECCAK256 PUSH1 0x3 PUSH1 0x0 PUSH1 0x2 DUP6 DUP6 PUSH1 0x40 MLOAD PUSH2 0x2A6 SWAP3 SWAP2 SWAP1 PUSH2 0xCBB JUMP JUMPDEST SWAP1 DUP2 MSTORE PUSH1 0x20 ADD PUSH1 0x40 MLOAD DUP1 SWAP2 SUB SWAP1 KECCAK256 PUSH1 0x2 ADD SLOAD DUP2 MSTORE PUSH1 0x20 ADD SWAP1 DUP2 MSTORE PUSH1 0x20 ADD PUSH1 0x0 KECCAK256 PUSH1 0x40 MLOAD PUSH1 0x20 ADD PUSH2 0x2D6 SWAP2 SWAP1 PUSH2 0xD68 JUMP JUMPDEST PUSH1 0x40 MLOAD PUSH1 0x20 DUP2 DUP4 SUB SUB DUP2 MSTORE SWAP1 PUSH1 0x40 MSTORE DUP1 MLOAD SWAP1 PUSH1 0x20 ADD KECCAK256 EQ PUSH2 0x2F6 JUMPI PUSH1 0x0 DUP1 REVERT JUMPDEST PUSH1 0x0 PUSH1 0x2 DUP7 DUP7 PUSH1 0x40 MLOAD PUSH2 0x30A SWAP3 SWAP2 SWAP1 PUSH2 0xCBB JUMP JUMPDEST SWAP1 DUP2 MSTORE PUSH1 0x20 ADD PUSH1 0x40 MLOAD DUP1 SWAP2 SUB SWAP1 KECCAK256 PUSH1 0x2 ADD SLOAD SWAP1 POP PUSH1 0x0 PUSH1 0x3 PUSH1 0x0 PUSH1 0x1 PUSH1 0x4 SLOAD PUSH2 0x333 SWAP2 SWAP1 PUSH2 0xDAE JUMP JUMPDEST DUP2 MSTORE PUSH1 0x20 ADD SWAP1 DUP2 MSTORE PUSH1 0x20 ADD PUSH1 0x0 KECCAK256 SWAP1 POP DUP1 PUSH1 0x3 PUSH1 0x0 DUP5 DUP2 MSTORE PUSH1 0x20 ADD SWAP1 DUP2 MSTORE PUSH1 0x20 ADD PUSH1 0x0 KECCAK256 SWAP1 DUP1 SLOAD PUSH2 0x363 SWAP1 PUSH2 0xC4A JUMP JUMPDEST PUSH2 0x36E SWAP3 SWAP2 SWAP1 PUSH2 0x79B JUMP JUMPDEST POP DUP2 PUSH1 0x2 DUP3 PUSH1 0x40 MLOAD PUSH2 0x380 SWAP2 SWAP1 PUSH2 0xE76 JUMP JUMPDEST SWAP1 DUP2 MSTORE PUSH1 0x20 ADD PUSH1 0x40 MLOAD DUP1 SWAP2 SUB SWAP1 KECCAK256 PUSH1 0x2 ADD DUP2 SWAP1 SSTORE POP PUSH1 0x4 PUSH1 0x0 DUP2 SLOAD DUP1 SWAP3 SWAP2 SWAP1 PUSH2 0x3A8 SWAP1 PUSH2 0xE8D JUMP JUMPDEST SWAP2 SWAP1 POP SSTORE POP DUP2 SWAP5 POP POP POP POP POP SWAP3 SWAP2 POP POP JUMP JUMPDEST PUSH1 0x1 DUP1 PUSH1 0x0 DUP4 PUSH20 0xFFFFFFFFFFFFFFFFFFFFFFFFFFFFFFFFFFFFFFFF AND PUSH20 0xFFFFFFFFFFFFFFFFFFFFFFFFFFFFFFFFFFFFFFFF AND DUP2 MSTORE PUSH1 0x20 ADD SWAP1 DUP2 MSTORE PUSH1 0x20 ADD PUSH1 0x0 KECCAK256 PUSH1 0x0 PUSH2 0x100 EXP DUP2 SLOAD DUP2 PUSH1 0xFF MUL NOT AND SWAP1 DUP4 ISZERO ISZERO MUL OR SWAP1 SSTORE POP POP JUMP JUMPDEST PUSH1 0x4 SLOAD DUP2 JUMP JUMPDEST PUSH1 0x1 PUSH1 0x0 CALLER PUSH20 0xFFFFFFFFFFFFFFFFFFFFFFFFFFFFFFFFFFFFFFFF AND PUSH20 0xFFFFFFFFFFFFFFFFFFFFFFFFFFFFFFFFFFFFFFFF AND DUP2 MSTORE PUSH1 0x20 ADD SWAP1 DUP2 MSTORE PUSH1 0x20 ADD PUSH1 0x0 KECCAK256 PUSH1 0x0 SWAP1 SLOAD SWAP1 PUSH2 0x100 EXP SWAP1 DIV PUSH1 0xFF AND PUSH2 0x470 JUMPI PUSH1 0x0 DUP1 REVERT JUMPDEST DUP3 DUP3 PUSH1 0x0 PUSH1 0x4 SLOAD GT PUSH2 0x481 JUMPI PUSH1 0x0 DUP1 REVERT JUMPDEST DUP2 DUP2 PUSH1 0x40 MLOAD PUSH1 0x20 ADD PUSH2 0x494 SWAP3 SWAP2 SWAP1 PUSH2 0xCBB JUMP JUMPDEST PUSH1 0x40 MLOAD PUSH1 0x20 DUP2 DUP4 SUB SUB DUP2 MSTORE SWAP1 PUSH1 0x40 MSTORE DUP1 MLOAD SWAP1 PUSH1 0x20 ADD KECCAK256 PUSH1 0x3 PUSH1 0x0 PUSH1 0x2 DUP6 DUP6 PUSH1 0x40 MLOAD PUSH2 0x4C0 SWAP3 SWAP2 SWAP1 PUSH2 0xCBB JUMP JUMPDEST SWAP1 DUP2 MSTORE PUSH1 0x20 ADD PUSH1 0x40 MLOAD DUP1 SWAP2 SUB SWAP1 KECCAK256 PUSH1 0x2 ADD SLOAD DUP2 MSTORE PUSH1 0x20 ADD SWAP1 DUP2 MSTORE PUSH1 0x20 ADD PUSH1 0x0 KECCAK256 PUSH1 0x40 MLOAD PUSH1 0x20 ADD PUSH2 0x4F0 SWAP2 SWAP1 PUSH2 0xD68 JUMP JUMPDEST PUSH1 0x40 MLOAD PUSH1 0x20 DUP2 DUP4 SUB SUB DUP2 MSTORE SWAP1 PUSH1 0x40 MSTORE DUP1 MLOAD SWAP1 PUSH1 0x20 ADD KECCAK256 EQ PUSH2 0x510 JUMPI PUSH1 0x0 DUP1 REVERT JUMPDEST PUSH1 0x0 PUSH1 0x2 DUP7 DUP7 PUSH1 0x40 MLOAD PUSH2 0x524 SWAP3 SWAP2 SWAP1 PUSH2 0xCBB JUMP JUMPDEST SWAP1 DUP2 MSTORE PUSH1 0x20 ADD PUSH1 0x40 MLOAD DUP1 SWAP2 SUB SWAP1 KECCAK256 SWAP1 POP DUP4 DUP2 PUSH1 0x3 ADD DUP2 SWAP1 SSTORE POP POP POP POP POP POP POP JUMP JUMPDEST PUSH1 0x0 DUP1 PUSH1 0x0 DUP5 DUP5 PUSH1 0x0 PUSH1 0x4 SLOAD GT PUSH2 0x55B JUMPI PUSH1 0x0 DUP1 REVERT JUMPDEST DUP2 DUP2 PUSH1 0x40 MLOAD PUSH1 0x20 ADD PUSH2 0x56E SWAP3 SWAP2 SWAP1 PUSH2 0xCBB JUMP JUMPDEST PUSH1 0x40 MLOAD PUSH1 0x20 DUP2 DUP4 SUB SUB DUP2 MSTORE SWAP1 PUSH1 0x40 MSTORE DUP1 MLOAD SWAP1 PUSH1 0x20 ADD KECCAK256 PUSH1 0x3 PUSH1 0x0 PUSH1 0x2 DUP6 DUP6 PUSH1 0x40 MLOAD PUSH2 0x59A SWAP3 SWAP2 SWAP1 PUSH2 0xCBB JUMP JUMPDEST SWAP1 DUP2 MSTORE PUSH1 0x20 ADD PUSH1 0x40 MLOAD DUP1 SWAP2 SUB SWAP1 KECCAK256 PUSH1 0x2 ADD SLOAD DUP2 MSTORE PUSH1 0x20 ADD SWAP1 DUP2 MSTORE PUSH1 0x20 ADD PUSH1 0x0 KECCAK256 PUSH1 0x40 MLOAD PUSH1 0x20 ADD PUSH2 0x5CA SWAP2 SWAP1 PUSH2 0xD68 JUMP JUMPDEST PUSH1 0x40 MLOAD PUSH1 0x20 DUP2 DUP4 SUB SUB DUP2 MSTORE SWAP1 PUSH1 0x40 MSTORE DUP1 MLOAD SWAP1 PUSH1 0x20 ADD KECCAK256 EQ PUSH2 0x5EA JUMPI PUSH1 0x0 DUP1 REVERT JUMPDEST PUSH1 0x0 PUSH1 0x2 DUP9 DUP9 PUSH1 0x40 MLOAD PUSH2 0x5FE SWAP3 SWAP2 SWAP1 PUSH2 0xCBB JUMP JUMPDEST SWAP1 DUP2 MSTORE PUSH1 0x20 ADD PUSH1 0x40 MLOAD DUP1 SWAP2 SUB SWAP1 KECCAK256 SWAP1 POP DUP1 PUSH1 0x0 ADD SLOAD DUP2 PUSH1 0x3 ADD SLOAD DUP3 PUSH1 0x1 ADD PUSH1 0x0 SWAP1 SLOAD SWAP1 PUSH2 0x100 EXP SWAP1 DIV PUSH20 0xFFFFFFFFFFFFFFFFFFFFFFFFFFFFFFFFFFFFFFFF AND SWAP6 POP SWAP6 POP SWAP6 POP POP POP POP SWAP3 POP SWAP3 POP SWAP3 JUMP JUMPDEST PUSH1 0x0 DUP1 SLOAD SWAP1 PUSH2 0x100 EXP SWAP1 DIV PUSH20 0xFFFFFFFFFFFFFFFFFFFFFFFFFFFFFFFFFFFFFFFF AND DUP2 JUMP JUMPDEST PUSH1 0x1 PUSH1 0x0 CALLER PUSH20 0xFFFFFFFFFFFFFFFFFFFFFFFFFFFFFFFFFFFFFFFF AND PUSH20 0xFFFFFFFFFFFFFFFFFFFFFFFFFFFFFFFFFFFFFFFF AND DUP2 MSTORE PUSH1 0x20 ADD SWAP1 DUP2 MSTORE PUSH1 0x20 ADD PUSH1 0x0 KECCAK256 PUSH1 0x0 SWAP1 SLOAD SWAP1 PUSH2 0x100 EXP SWAP1 DIV PUSH1 0xFF AND PUSH2 0x6C7 JUMPI PUSH1 0x0 DUP1 REVERT JUMPDEST PUSH1 0x0 PUSH1 0x2 DUP5 DUP5 PUSH1 0x40 MLOAD PUSH2 0x6DB SWAP3 SWAP2 SWAP1 PUSH2 0xCBB JUMP JUMPDEST SWAP1 DUP2 MSTORE PUSH1 0x20 ADD PUSH1 0x40 MLOAD DUP1 SWAP2 SUB SWAP1 KECCAK256 SWAP1 POP PUSH1 0x0 DUP2 PUSH1 0x0 ADD SLOAD EQ PUSH2 0x6FC JUMPI PUSH1 0x0 DUP1 REVERT JUMPDEST TIMESTAMP DUP2 PUSH1 0x0 ADD DUP2 SWAP1 SSTORE POP CALLER DUP2 PUSH1 0x1 ADD PUSH1 0x0 PUSH2 0x100 EXP DUP2 SLOAD DUP2 PUSH20 0xFFFFFFFFFFFFFFFFFFFFFFFFFFFFFFFFFFFFFFFF MUL NOT AND SWAP1 DUP4 PUSH20 0xFFFFFFFFFFFFFFFFFFFFFFFFFFFFFFFFFFFFFFFF AND MUL OR SWAP1 SSTORE POP DUP2 DUP2 PUSH1 0x3 ADD DUP2 SWAP1 SSTORE POP DUP4 DUP4 PUSH1 0x3 PUSH1 0x0 PUSH1 0x4 SLOAD DUP2 MSTORE PUSH1 0x20 ADD SWAP1 DUP2 MSTORE PUSH1 0x20 ADD PUSH1 0x0 KECCAK256 SWAP2 SWAP1 PUSH2 0x775 SWAP3 SWAP2 SWAP1 PUSH2 0x828 JUMP JUMPDEST POP PUSH1 0x4 PUSH1 0x0 DUP2 SLOAD DUP1 SWAP3 SWAP2 SWAP1 PUSH2 0x789 SWAP1 PUSH2 0xEB7 JUMP JUMPDEST SWAP2 SWAP1 POP SSTORE DUP2 PUSH1 0x2 ADD DUP2 SWAP1 SSTORE POP POP POP POP POP JUMP JUMPDEST DUP3 DUP1 SLOAD PUSH2 0x7A7 SWAP1 PUSH2 0xC4A JUMP JUMPDEST SWAP1 PUSH1 0x0 MSTORE PUSH1 0x20 PUSH1 0x0 KECCAK256 SWAP1 PUSH1 0x1F ADD PUSH1 0x20 SWAP1 DIV DUP2 ADD SWAP3 DUP3 PUSH2 0x7C9 JUMPI PUSH1 0x0 DUP6 SSTORE PUSH2 0x817 JUMP JUMPDEST DUP3 PUSH1 0x1F LT PUSH2 0x7DA JUMPI DUP1 SLOAD DUP6 SSTORE PUSH2 0x817 JUMP JUMPDEST DUP3 DUP1 ADD PUSH1 0x1 ADD DUP6 SSTORE DUP3 ISZERO PUSH2 0x817 JUMPI PUSH1 0x0 MSTORE PUSH1 0x20 PUSH1 0x0 KECCAK256 SWAP2 PUSH1 0x1F ADD PUSH1 0x20 SWAP1 DIV DUP3 ADD JUMPDEST DUP3 DUP2 GT ISZERO PUSH2 0x816 JUMPI DUP3 SLOAD DUP3 SSTORE SWAP2 PUSH1 0x1 ADD SWAP2 SWAP1 PUSH1 0x1 ADD SWAP1 PUSH2 0x7FB JUMP JUMPDEST JUMPDEST POP SWAP1 POP PUSH2 0x824 SWAP2 SWAP1 PUSH2 0x8AE JUMP JUMPDEST POP SWAP1 JUMP JUMPDEST DUP3 DUP1 SLOAD PUSH2 0x834 SWAP1 PUSH2 0xC4A JUMP JUMPDEST SWAP1 PUSH1 0x0 MSTORE PUSH1 0x20 PUSH1 0x0 KECCAK256 SWAP1 PUSH1 0x1F ADD PUSH1 0x20 SWAP1 DIV DUP2 ADD SWAP3 DUP3 PUSH2 0x856 JUMPI PUSH1 0x0 DUP6 SSTORE PUSH2 0x89D JUMP JUMPDEST DUP3 PUSH1 0x1F LT PUSH2 0x86F JUMPI DUP1 CALLDATALOAD PUSH1 0xFF NOT AND DUP4 DUP1 ADD OR DUP6 SSTORE PUSH2 0x89D JUMP JUMPDEST DUP3 DUP1 ADD PUSH1 0x1 ADD DUP6 SSTORE DUP3 ISZERO PUSH2 0x89D JUMPI SWAP2 DUP3 ADD JUMPDEST DUP3 DUP2 GT ISZERO PUSH2 0x89C JUMPI DUP3 CALLDATALOAD DUP3 SSTORE SWAP2 PUSH1 0x20 ADD SWAP2 SWAP1 PUSH1 0x1 ADD SWAP1 PUSH2 0x881 JUMP JUMPDEST JUMPDEST POP SWAP1 POP PUSH2 0x8AA SWAP2 SWAP1 PUSH2 0x8AE JUMP JUMPDEST POP SWAP1 JUMP JUMPDEST JUMPDEST DUP1 DUP3 GT ISZERO PUSH2 0x8C7 JUMPI PUSH1 0x0 DUP2 PUSH1 0x0 SWAP1 SSTORE POP PUSH1 0x1 ADD PUSH2 0x8AF JUMP JUMPDEST POP SWAP1 JUMP JUMPDEST PUSH1 0x0 DUP1 REVERT JUMPDEST PUSH1 0x0 DUP1 REVERT JUMPDEST PUSH1 0x0 DUP2 SWAP1 POP SWAP2 SWAP1 POP JUMP JUMPDEST PUSH2 0x8E8 DUP2 PUSH2 0x8D5 JUMP JUMPDEST DUP2 EQ PUSH2 0x8F3 JUMPI PUSH1 0x0 DUP1 REVERT JUMPDEST POP JUMP JUMPDEST PUSH1 0x0 DUP2 CALLDATALOAD SWAP1 POP PUSH2 0x905 DUP2 PUSH2 0x8DF JUMP JUMPDEST SWAP3 SWAP2 POP POP JUMP JUMPDEST PUSH1 0x0 PUSH1 0x20 DUP3 DUP5 SUB SLT ISZERO PUSH2 0x921 JUMPI PUSH2 0x920 PUSH2 0x8CB JUMP JUMPDEST JUMPDEST PUSH1 0x0 PUSH2 0x92F DUP5 DUP3 DUP6 ADD PUSH2 0x8F6 JUMP JUMPDEST SWAP2 POP POP SWAP3 SWAP2 POP POP JUMP JUMPDEST PUSH1 0x0 DUP2 MLOAD SWAP1 POP SWAP2 SWAP1 POP JUMP JUMPDEST PUSH1 0x0 DUP3 DUP3 MSTORE PUSH1 0x20 DUP3 ADD SWAP1 POP SWAP3 SWAP2 POP POP JUMP JUMPDEST PUSH1 0x0 JUMPDEST DUP4 DUP2 LT ISZERO PUSH2 0x972 JUMPI DUP1 DUP3 ADD MLOAD DUP2 DUP5 ADD MSTORE PUSH1 0x20 DUP2 ADD SWAP1 POP PUSH2 0x957 JUMP JUMPDEST DUP4 DUP2 GT ISZERO PUSH2 0x981 JUMPI PUSH1 0x0 DUP5 DUP5 ADD MSTORE JUMPDEST POP POP POP POP JUMP JUMPDEST PUSH1 0x0 PUSH1 0x1F NOT PUSH1 0x1F DUP4 ADD AND SWAP1 POP SWAP2 SWAP1 POP JUMP JUMPDEST PUSH1 0x0 PUSH2 0x9A3 DUP3 PUSH2 0x938 JUMP JUMPDEST PUSH2 0x9AD DUP2 DUP6 PUSH2 0x943 JUMP JUMPDEST SWAP4 POP PUSH2 0x9BD DUP2 DUP6 PUSH1 0x20 DUP7 ADD PUSH2 0x954 JUMP JUMPDEST PUSH2 0x9C6 DUP2 PUSH2 0x987 JUMP JUMPDEST DUP5 ADD SWAP2 POP POP SWAP3 SWAP2 POP POP JUMP JUMPDEST PUSH1 0x0 PUSH1 0x20 DUP3 ADD SWAP1 POP DUP2 DUP2 SUB PUSH1 0x0 DUP4 ADD MSTORE PUSH2 0x9EB DUP2 DUP5 PUSH2 0x998 JUMP JUMPDEST SWAP1 POP SWAP3 SWAP2 POP POP JUMP JUMPDEST PUSH1 0x0 DUP1 REVERT JUMPDEST PUSH1 0x0 DUP1 REVERT JUMPDEST PUSH1 0x0 DUP1 REVERT JUMPDEST PUSH1 0x0 DUP1 DUP4 PUSH1 0x1F DUP5 ADD SLT PUSH2 0xA18 JUMPI PUSH2 0xA17 PUSH2 0x9F3 JUMP JUMPDEST JUMPDEST DUP3 CALLDATALOAD SWAP1 POP PUSH8 0xFFFFFFFFFFFFFFFF DUP2 GT ISZERO PUSH2 0xA35 JUMPI PUSH2 0xA34 PUSH2 0x9F8 JUMP JUMPDEST JUMPDEST PUSH1 0x20 DUP4 ADD SWAP2 POP DUP4 PUSH1 0x1 DUP3 MUL DUP4 ADD GT ISZERO PUSH2 0xA51 JUMPI PUSH2 0xA50 PUSH2 0x9FD JUMP JUMPDEST JUMPDEST SWAP3 POP SWAP3 SWAP1 POP JUMP JUMPDEST PUSH1 0x0 DUP1 PUSH1 0x20 DUP4 DUP6 SUB SLT ISZERO PUSH2 0xA6F JUMPI PUSH2 0xA6E PUSH2 0x8CB JUMP JUMPDEST JUMPDEST PUSH1 0x0 DUP4 ADD CALLDATALOAD PUSH8 0xFFFFFFFFFFFFFFFF DUP2 GT ISZERO PUSH2 0xA8D JUMPI PUSH2 0xA8C PUSH2 0x8D0 JUMP JUMPDEST JUMPDEST PUSH2 0xA99 DUP6 DUP3 DUP7 ADD PUSH2 0xA02 JUMP JUMPDEST SWAP3 POP SWAP3 POP POP SWAP3 POP SWAP3 SWAP1 POP JUMP JUMPDEST PUSH2 0xAAE DUP2 PUSH2 0x8D5 JUMP JUMPDEST DUP3 MSTORE POP POP JUMP JUMPDEST PUSH1 0x0 PUSH1 0x20 DUP3 ADD SWAP1 POP PUSH2 0xAC9 PUSH1 0x0 DUP4 ADD DUP5 PUSH2 0xAA5 JUMP JUMPDEST SWAP3 SWAP2 POP POP JUMP JUMPDEST PUSH1 0x0 PUSH20 0xFFFFFFFFFFFFFFFFFFFFFFFFFFFFFFFFFFFFFFFF DUP3 AND SWAP1 POP SWAP2 SWAP1 POP JUMP JUMPDEST PUSH1 0x0 PUSH2 0xAFA DUP3 PUSH2 0xACF JUMP JUMPDEST SWAP1 POP SWAP2 SWAP1 POP JUMP JUMPDEST PUSH2 0xB0A DUP2 PUSH2 0xAEF JUMP JUMPDEST DUP2 EQ PUSH2 0xB15 JUMPI PUSH1 0x0 DUP1 REVERT JUMPDEST POP JUMP JUMPDEST PUSH1 0x0 DUP2 CALLDATALOAD SWAP1 POP PUSH2 0xB27 DUP2 PUSH2 0xB01 JUMP JUMPDEST SWAP3 SWAP2 POP POP JUMP JUMPDEST PUSH1 0x0 PUSH1 0x20 DUP3 DUP5 SUB SLT ISZERO PUSH2 0xB43 JUMPI PUSH2 0xB42 PUSH2 0x8CB JUMP JUMPDEST JUMPDEST PUSH1 0x0 PUSH2 0xB51 DUP5 DUP3 DUP6 ADD PUSH2 0xB18 JUMP JUMPDEST SWAP2 POP POP SWAP3 SWAP2 POP POP JUMP JUMPDEST PUSH1 0x0 DUP1 PUSH1 0x0 PUSH1 0x40 DUP5 DUP7 SUB SLT ISZERO PUSH2 0xB73 JUMPI PUSH2 0xB72 PUSH2 0x8CB JUMP JUMPDEST JUMPDEST PUSH1 0x0 DUP5 ADD CALLDATALOAD PUSH8 0xFFFFFFFFFFFFFFFF DUP2 GT ISZERO PUSH2 0xB91 JUMPI PUSH2 0xB90 PUSH2 0x8D0 JUMP JUMPDEST JUMPDEST PUSH2 0xB9D DUP7 DUP3 DUP8 ADD PUSH2 0xA02 JUMP JUMPDEST SWAP4 POP SWAP4 POP POP PUSH1 0x20 PUSH2 0xBB0 DUP7 DUP3 DUP8 ADD PUSH2 0x8F6 JUMP JUMPDEST SWAP2 POP POP SWAP3 POP SWAP3 POP SWAP3 JUMP JUMPDEST PUSH2 0xBC3 DUP2 PUSH2 0xAEF JUMP JUMPDEST DUP3 MSTORE POP POP JUMP JUMPDEST PUSH1 0x0 PUSH1 0x60 DUP3 ADD SWAP1 POP PUSH2 0xBDE PUSH1 0x0 DUP4 ADD DUP7 PUSH2 0xAA5 JUMP JUMPDEST PUSH2 0xBEB PUSH1 0x20 DUP4 ADD DUP6 PUSH2 0xAA5 JUMP JUMPDEST PUSH2 0xBF8 PUSH1 0x40 DUP4 ADD DUP5 PUSH2 0xBBA JUMP JUMPDEST SWAP5 SWAP4 POP POP POP POP JUMP JUMPDEST PUSH1 0x0 PUSH1 0x20 DUP3 ADD SWAP1 POP PUSH2 0xC15 PUSH1 0x0 DUP4 ADD DUP5 PUSH2 0xBBA JUMP JUMPDEST SWAP3 SWAP2 POP POP JUMP JUMPDEST PUSH32 0x4E487B7100000000000000000000000000000000000000000000000000000000 PUSH1 0x0 MSTORE PUSH1 0x22 PUSH1 0x4 MSTORE PUSH1 0x24 PUSH1 0x0 REVERT JUMPDEST PUSH1 0x0 PUSH1 0x2 DUP3 DIV SWAP1 POP PUSH1 0x1 DUP3 AND DUP1 PUSH2 0xC62 JUMPI PUSH1 0x7F DUP3 AND SWAP2 POP JUMPDEST PUSH1 0x20 DUP3 LT DUP2 EQ ISZERO PUSH2 0xC76 JUMPI PUSH2 0xC75 PUSH2 0xC1B JUMP JUMPDEST JUMPDEST POP SWAP2 SWAP1 POP JUMP JUMPDEST PUSH1 0x0 DUP2 SWAP1 POP SWAP3 SWAP2 POP POP JUMP JUMPDEST DUP3 DUP2 DUP4 CALLDATACOPY PUSH1 0x0 DUP4 DUP4 ADD MSTORE POP POP POP JUMP JUMPDEST PUSH1 0x0 PUSH2 0xCA2 DUP4 DUP6 PUSH2 0xC7C JUMP JUMPDEST SWAP4 POP PUSH2 0xCAF DUP4 DUP6 DUP5 PUSH2 0xC87 JUMP JUMPDEST DUP3 DUP5 ADD SWAP1 POP SWAP4 SWAP3 POP POP POP JUMP JUMPDEST PUSH1 0x0 PUSH2 0xCC8 DUP3 DUP5 DUP7 PUSH2 0xC96 JUMP JUMPDEST SWAP2 POP DUP2 SWAP1 POP SWAP4 SWAP3 POP POP POP JUMP JUMPDEST PUSH1 0x0 DUP2 SWAP1 POP DUP2 PUSH1 0x0 MSTORE PUSH1 0x20 PUSH1 0x0 KECCAK256 SWAP1 POP SWAP2 SWAP1 POP JUMP JUMPDEST PUSH1 0x0 DUP2 SLOAD PUSH2 0xCF6 DUP2 PUSH2 0xC4A JUMP JUMPDEST PUSH2 0xD00 DUP2 DUP7 PUSH2 0xC7C JUMP JUMPDEST SWAP5 POP PUSH1 0x1 DUP3 AND PUSH1 0x0 DUP2 EQ PUSH2 0xD1B JUMPI PUSH1 0x1 DUP2 EQ PUSH2 0xD2C JUMPI PUSH2 0xD5F JUMP JUMPDEST PUSH1 0xFF NOT DUP4 AND DUP7 MSTORE DUP2 DUP7 ADD SWAP4 POP PUSH2 0xD5F JUMP JUMPDEST PUSH2 0xD35 DUP6 PUSH2 0xCD4 JUMP JUMPDEST PUSH1 0x0 JUMPDEST DUP4 DUP2 LT ISZERO PUSH2 0xD57 JUMPI DUP2 SLOAD DUP2 DUP10 ADD MSTORE PUSH1 0x1 DUP3 ADD SWAP2 POP PUSH1 0x20 DUP2 ADD SWAP1 POP PUSH2 0xD38 JUMP JUMPDEST DUP4 DUP9 ADD SWAP6 POP POP POP JUMPDEST POP POP POP SWAP3 SWAP2 POP POP JUMP JUMPDEST PUSH1 0x0 PUSH2 0xD74 DUP3 DUP5 PUSH2 0xCE9 JUMP JUMPDEST SWAP2 POP DUP2 SWAP1 POP SWAP3 SWAP2 POP POP JUMP JUMPDEST PUSH32 0x4E487B7100000000000000000000000000000000000000000000000000000000 PUSH1 0x0 MSTORE PUSH1 0x11 PUSH1 0x4 MSTORE PUSH1 0x24 PUSH1 0x0 REVERT JUMPDEST PUSH1 0x0 PUSH2 0xDB9 DUP3 PUSH2 0x8D5 JUMP JUMPDEST SWAP2 POP PUSH2 0xDC4 DUP4 PUSH2 0x8D5 JUMP JUMPDEST SWAP3 POP DUP3 DUP3 LT ISZERO PUSH2 0xDD7 JUMPI PUSH2 0xDD6 PUSH2 0xD7F JUMP JUMPDEST JUMPDEST DUP3 DUP3 SUB SWAP1 POP SWAP3 SWAP2 POP POP JUMP JUMPDEST PUSH1 0x0 DUP2 SWAP1 POP DUP2 PUSH1 0x0 MSTORE PUSH1 0x20 PUSH1 0x0 KECCAK256 SWAP1 POP SWAP2 SWAP1 POP JUMP JUMPDEST PUSH1 0x0 DUP2 SLOAD PUSH2 0xE04 DUP2 PUSH2 0xC4A JUMP JUMPDEST PUSH2 0xE0E DUP2 DUP7 PUSH2 0xC7C JUMP JUMPDEST SWAP5 POP PUSH1 0x1 DUP3 AND PUSH1 0x0 DUP2 EQ PUSH2 0xE29 JUMPI PUSH1 0x1 DUP2 EQ PUSH2 0xE3A JUMPI PUSH2 0xE6D JUMP JUMPDEST PUSH1 0xFF NOT DUP4 AND DUP7 MSTORE DUP2 DUP7 ADD SWAP4 POP PUSH2 0xE6D JUMP JUMPDEST PUSH2 0xE43 DUP6 PUSH2 0xDE2 JUMP JUMPDEST PUSH1 0x0 JUMPDEST DUP4 DUP2 LT ISZERO PUSH2 0xE65 JUMPI DUP2 SLOAD DUP2 DUP10 ADD MSTORE PUSH1 0x1 DUP3 ADD SWAP2 POP PUSH1 0x20 DUP2 ADD SWAP1 POP PUSH2 0xE46 JUMP JUMPDEST DUP4 DUP9 ADD SWAP6 POP POP POP JUMPDEST POP POP POP SWAP3 SWAP2 POP POP JUMP JUMPDEST PUSH1 0x0 PUSH2 0xE82 DUP3 DUP5 PUSH2 0xDF7 JUMP JUMPDEST SWAP2 POP DUP2 SWAP1 POP SWAP3 SWAP2 POP POP JUMP JUMPDEST PUSH1 0x0 PUSH2 0xE98 DUP3 PUSH2 0x8D5 JUMP JUMPDEST SWAP2 POP PUSH1 0x0 DUP3 EQ ISZERO PUSH2 0xEAC JUMPI PUSH2 0xEAB PUSH2 0xD7F JUMP JUMPDEST JUMPDEST PUSH1 0x1 DUP3 SUB SWAP1 POP SWAP2 SWAP1 POP JUMP JUMPDEST PUSH1 0x0 PUSH2 0xEC2 DUP3 PUSH2 0x8D5 JUMP JUMPDEST SWAP2 POP PUSH32 0xFFFFFFFFFFFFFFFFFFFFFFFFFFFFFFFFFFFFFFFFFFFFFFFFFFFFFFFFFFFFFFFF DUP3 EQ ISZERO PUSH2 0xEF5 JUMPI PUSH2 0xEF4 PUSH2 0xD7F JUMP JUMPDEST JUMPDEST PUSH1 0x1 DUP3 ADD SWAP1 POP SWAP2 SWAP1 POP JUMP INVALID LOG2 PUSH5 0x6970667358 0x22 SLT KECCAK256 0xAA ADDRESS MSIZE 0xD4 SWAP1 PUSH31 0x8838F2444600E46E85FA9DBB80A13F7A1E48CA2A5BC4EE56F4C264736F6C63 NUMBER STOP ADDMOD MULMOD STOP CALLER "},"gasEstimates":{"creation":{"codeDepositCost":"778800","executionCost":"infinite","totalCost":"infinite"},"external":{"addDoctor(address)":"24857","createEntry(string,uint256)":"infinite","deleteEntry(string)":"infinite","entriesCount()":"2496","patient()":"2555","retrieveEntry(string)":"infinite","retrieveEntryIndex(uint256)":"infinite","updateEntry(string,uint256)":"infinite"}},"methodIdentifiers":{"addDoctor(address)":"4780468f","createEntry(string,uint256)":"e6af705f","deleteEntry(string)":"17674544","entriesCount()":"ab4ccf01","patient()":"bd96bd20","retrieveEntry(string)":"b8306de6","retrieveEntryIndex(uint256)":"124b16ed","updateEntry(string,uint256)":"aeb9e57b"}},"storageLayout":{"storage":[{"astId":507,"contract":"ElectronicHealthRegistry.sol:HealthRegistry","label":"patient","offset":0,"slot":"0","type":"t_address"},{"astId":511,"contract":"ElectronicHealthRegistry.sol:HealthRegistry","label":"doctors","offset":0,"slot":"1","type":"t_mapping(t_address,t_bool)"},{"astId":516,"contract":"ElectronicHealthRegistry.sol:HealthRegistry","label":"entries","offset":0,"slot":"2","type":"t_mapping(t_string_memory_ptr,t_struct(HealthEntry)505_storage)"},{"astId":520,"contract":"ElectronicHealthRegistry.sol:HealthRegistry","label":"entryIndex","offset":0,"slot":"3","type":"t_mapping(t_uint256,t_string_storage)"},{"astId":522,"contract":"ElectronicHealthRegistry.sol:HealthRegistry","label":"entriesCount","offset":0,"slot":"4","type":"t_uint256"}],"types":{"t_address":{"encoding":"inplace","label":"address","numberOfBytes":"20"},"t_bool":{"encoding":"inplace","label":"bool","numberOfBytes":"1"},"t_mapping(t_address,t_bool)":{"encoding":"mapping","key":"t_address","label":"mapping(address => bool)","numberOfBytes":"32","value":"t_bool"},"t_mapping(t_string_memory_ptr,t_struct(HealthEntry)505_storage)":{"encoding":"mapping","key":"t_string_memory_ptr","label":"mapping(string => struct HealthRegistry.HealthEntry)","numberOfBytes":"32","value":"t_struct(HealthEntry)505_storage"},"t_mapping(t_uint256,t_string_storage)":{"encoding":"mapping","key":"t_uint256","label":"mapping(uint256 => string)","numberOfBytes":"32","value":"t_string_storage"},"t_string_memory_ptr":{"encoding":"bytes","label":"string","numberOfBytes":"32"},"t_string_storage":{"encoding":"bytes","label":"string","numberOfBytes":"32"},"t_struct(HealthEntry)505_storage":{"encoding":"inplace","label":"struct HealthRegistry.HealthEntry","members":[{"astId":498,"contract":"ElectronicHealthRegistry.sol:HealthRegistry","label":"date","offset":0,"slot":"0","type":"t_uint256"},{"astId":500,"contract":"ElectronicHealthRegistry.sol:HealthRegistry","label":"doctor","offset":0,"slot":"1","type":"t_address"},{"astId":502,"contract":"ElectronicHealthRegistry.sol:HealthRegistry","label":"index","offset":0,"slot":"2","type":"t_uint256"},{"astId":504,"contract":"ElectronicHealthRegistry.sol:HealthRegistry","label":"data","offset":0,"slot":"3","type":"t_uint256"}],"numberOfBytes":"128"},"t_uint256":{"encoding":"inplace","label":"uint256","numberOfBytes":"32"}}},"userdoc":{"kind":"user","methods":{},"version":1}}